{"contracts/NFTMarketplace.sol":{"NFTMarketplace":{"abi":[{"inputs":[],"stateMutability":"nonpayable","type":"constructor"},{"anonymous":false,"inputs":[{"indexed":true,"internalType":"address","name":"owner","type":"address"},{"indexed":true,"internalType":"address","name":"approved","type":"address"},{"indexed":true,"internalType":"uint256","name":"tokenId","type":"uint256"}],"name":"Approval","type":"event"},{"anonymous":false,"inputs":[{"indexed":true,"internalType":"address","name":"owner","type":"address"},{"indexed":true,"internalType":"address","name":"operator","type":"address"},{"indexed":false,"internalType":"bool","name":"approved","type":"bool"}],"name":"ApprovalForAll","type":"event"},{"anonymous":false,"inputs":[{"indexed":false,"internalType":"uint256","name":"tokenID","type":"uint256"},{"indexed":false,"internalType":"address","name":"from","type":"address"},{"indexed":false,"internalType":"address","name":"to","type":"address"},{"indexed":false,"internalType":"string","name":"tokenURI","type":"string"},{"indexed":false,"internalType":"uint256","name":"price","type":"uint256"}],"name":"NFTTransfer","type":"event"},{"anonymous":false,"inputs":[{"indexed":true,"internalType":"uint256","name":"tokenId","type":"uint256"},{"indexed":false,"internalType":"address","name":"owner","type":"address"},{"indexed":false,"internalType":"address","name":"seller","type":"address"},{"indexed":false,"internalType":"uint256","name":"price","type":"uint256"},{"indexed":false,"internalType":"bool","name":"currentlyListed","type":"bool"}],"name":"TokenListedSuccess","type":"event"},{"anonymous":false,"inputs":[{"indexed":true,"internalType":"address","name":"from","type":"address"},{"indexed":true,"internalType":"address","name":"to","type":"address"},{"indexed":true,"internalType":"uint256","name":"tokenId","type":"uint256"}],"name":"Transfer","type":"event"},{"inputs":[{"internalType":"address","name":"to","type":"address"},{"internalType":"uint256","name":"tokenId","type":"uint256"}],"name":"approve","outputs":[],"stateMutability":"nonpayable","type":"function"},{"inputs":[{"internalType":"address","name":"owner","type":"address"}],"name":"balanceOf","outputs":[{"internalType":"uint256","name":"","type":"uint256"}],"stateMutability":"view","type":"function"},{"inputs":[{"internalType":"uint256","name":"tokenId","type":"uint256"}],"name":"cancelListing","outputs":[],"stateMutability":"nonpayable","type":"function"},{"inputs":[{"internalType":"uint256","name":"tokenId","type":"uint256"},{"internalType":"uint256","name":"price","type":"uint256"}],"name":"createListedToken","outputs":[],"stateMutability":"payable","type":"function"},{"inputs":[{"internalType":"string","name":"tokenURI","type":"string"}],"name":"createToken","outputs":[{"internalType":"uint256","name":"","type":"uint256"}],"stateMutability":"payable","type":"function"},{"inputs":[{"internalType":"uint256","name":"tokenId","type":"uint256"}],"name":"executeSale","outputs":[],"stateMutability":"payable","type":"function"},{"inputs":[],"name":"getAllNFTs","outputs":[{"components":[{"internalType":"uint256","name":"tokenId","type":"uint256"},{"internalType":"address","name":"owner","type":"address"},{"internalType":"address","name":"seller","type":"address"},{"internalType":"uint256","name":"price","type":"uint256"},{"internalType":"bool","name":"currentlyListed","type":"bool"}],"internalType":"struct NFTMarketplace.ListedToken[]","name":"","type":"tuple[]"}],"stateMutability":"view","type":"function"},{"inputs":[{"internalType":"uint256","name":"tokenId","type":"uint256"}],"name":"getApproved","outputs":[{"internalType":"address","name":"","type":"address"}],"stateMutability":"view","type":"function"},{"inputs":[],"name":"getCurrentToken","outputs":[{"internalType":"uint256","name":"","type":"uint256"}],"stateMutability":"view","type":"function"},{"inputs":[],"name":"getLatestIdToListedToken","outputs":[{"components":[{"internalType":"uint256","name":"tokenId","type":"uint256"},{"internalType":"address","name":"owner","type":"address"},{"internalType":"address","name":"seller","type":"address"},{"internalType":"uint256","name":"price","type":"uint256"},{"internalType":"bool","name":"currentlyListed","type":"bool"}],"internalType":"struct NFTMarketplace.ListedToken","name":"","type":"tuple"}],"stateMutability":"view","type":"function"},{"inputs":[],"name":"getListPrice","outputs":[{"internalType":"uint256","name":"","type":"uint256"}],"stateMutability":"view","type":"function"},{"inputs":[{"internalType":"uint256","name":"tokenId","type":"uint256"}],"name":"getListedTokenForId","outputs":[{"components":[{"internalType":"uint256","name":"tokenId","type":"uint256"},{"internalType":"address","name":"owner","type":"address"},{"internalType":"address","name":"seller","type":"address"},{"internalType":"uint256","name":"price","type":"uint256"},{"internalType":"bool","name":"currentlyListed","type":"bool"}],"internalType":"struct NFTMarketplace.ListedToken","name":"","type":"tuple"}],"stateMutability":"view","type":"function"},{"inputs":[],"name":"getMyNFTs","outputs":[{"components":[{"internalType":"uint256","name":"tokenId","type":"uint256"},{"internalType":"address","name":"owner","type":"address"},{"internalType":"address","name":"seller","type":"address"},{"internalType":"uint256","name":"price","type":"uint256"},{"internalType":"bool","name":"currentlyListed","type":"bool"}],"internalType":"struct NFTMarketplace.ListedToken[]","name":"","type":"tuple[]"}],"stateMutability":"view","type":"function"},{"inputs":[{"internalType":"address","name":"owner","type":"address"},{"internalType":"address","name":"operator","type":"address"}],"name":"isApprovedForAll","outputs":[{"internalType":"bool","name":"","type":"bool"}],"stateMutability":"view","type":"function"},{"inputs":[],"name":"name","outputs":[{"internalType":"string","name":"","type":"string"}],"stateMutability":"view","type":"function"},{"inputs":[{"internalType":"uint256","name":"tokenId","type":"uint256"}],"name":"ownerOf","outputs":[{"internalType":"address","name":"","type":"address"}],"stateMutability":"view","type":"function"},{"inputs":[{"internalType":"address","name":"from","type":"address"},{"internalType":"address","name":"to","type":"address"},{"internalType":"uint256","name":"tokenId","type":"uint256"}],"name":"safeTransferFrom","outputs":[],"stateMutability":"nonpayable","type":"function"},{"inputs":[{"internalType":"address","name":"from","type":"address"},{"internalType":"address","name":"to","type":"address"},{"internalType":"uint256","name":"tokenId","type":"uint256"},{"internalType":"bytes","name":"_data","type":"bytes"}],"name":"safeTransferFrom","outputs":[],"stateMutability":"nonpayable","type":"function"},{"inputs":[{"internalType":"address","name":"operator","type":"address"},{"internalType":"bool","name":"approved","type":"bool"}],"name":"setApprovalForAll","outputs":[],"stateMutability":"nonpayable","type":"function"},{"inputs":[{"internalType":"bytes4","name":"interfaceId","type":"bytes4"}],"name":"supportsInterface","outputs":[{"internalType":"bool","name":"","type":"bool"}],"stateMutability":"view","type":"function"},{"inputs":[],"name":"symbol","outputs":[{"internalType":"string","name":"","type":"string"}],"stateMutability":"view","type":"function"},{"inputs":[{"internalType":"uint256","name":"tokenId","type":"uint256"}],"name":"tokenURI","outputs":[{"internalType":"string","name":"","type":"string"}],"stateMutability":"view","type":"function"},{"inputs":[{"internalType":"address","name":"from","type":"address"},{"internalType":"address","name":"to","type":"address"},{"internalType":"uint256","name":"tokenId","type":"uint256"}],"name":"transferFrom","outputs":[],"stateMutability":"nonpayable","type":"function"},{"inputs":[{"internalType":"uint256","name":"_listPrice","type":"uint256"}],"name":"updateListPrice","outputs":[],"stateMutability":"payable","type":"function"}],"devdoc":{"kind":"dev","methods":{"approve(address,uint256)":{"details":"See {IERC721-approve}."},"balanceOf(address)":{"details":"See {IERC721-balanceOf}."},"getApproved(uint256)":{"details":"See {IERC721-getApproved}."},"isApprovedForAll(address,address)":{"details":"See {IERC721-isApprovedForAll}."},"name()":{"details":"See {IERC721Metadata-name}."},"ownerOf(uint256)":{"details":"See {IERC721-ownerOf}."},"safeTransferFrom(address,address,uint256)":{"details":"See {IERC721-safeTransferFrom}."},"safeTransferFrom(address,address,uint256,bytes)":{"details":"See {IERC721-safeTransferFrom}."},"setApprovalForAll(address,bool)":{"details":"See {IERC721-setApprovalForAll}."},"supportsInterface(bytes4)":{"details":"See {IERC165-supportsInterface}."},"symbol()":{"details":"See {IERC721Metadata-symbol}."},"tokenURI(uint256)":{"details":"See {IERC721Metadata-tokenURI}."},"transferFrom(address,address,uint256)":{"details":"See {IERC721-transferFrom}."}},"version":1},"evm":{"bytecode":{"linkReferences":{},"object":"6080604052662386f26fc10000600a553480156200001c57600080fd5b506040518060400160405280600e81526020017f4e46544d61726b6574706c6163650000000000000000000000000000000000008152506040518060400160405280600481526020017f4e46544d000000000000000000000000000000000000000000000000000000008152508160009080519060200190620000a192919062000104565b508060019080519060200190620000ba92919062000104565b50505033600960006101000a81548173ffffffffffffffffffffffffffffffffffffffff021916908373ffffffffffffffffffffffffffffffffffffffff16021790555062000219565b8280546200011290620001b4565b90600052602060002090601f01602090048101928262000136576000855562000182565b82601f106200015157805160ff191683800117855562000182565b8280016001018555821562000182579182015b828111156200018157825182559160200191906001019062000164565b5b50905062000191919062000195565b5090565b5b80821115620001b057600081600090555060010162000196565b5090565b60006002820490506001821680620001cd57607f821691505b60208210811415620001e457620001e3620001ea565b5b50919050565b7f4e487b7100000000000000000000000000000000000000000000000000000000600052602260045260246000fd5b61460080620002296000396000f3fe60806040526004361061014b5760003560e01c806370a08231116100b6578063c322579c1161006f578063c322579c1461048b578063c87b56dd146104a7578063d1a88ae5146104e4578063e0391b091461050f578063e985e9c51461053a578063ef2d1746146105775761014b565b806370a08231146103785780638e264590146103b557806395d89b41146103f25780639b1225c41461041d578063a22cb46514610439578063b88d4fde146104625761014b565b806342842e0e1161010857806342842e0e1461027057806345576f941461029957806355524f56146102c9578063629cb2e4146102e55780636352211e1461031057806368f1945f1461034d5761014b565b806301ffc9a71461015057806306fdde031461018d578063081812fc146101b8578063095ea7b3146101f557806323b872dd1461021e578063305a67a814610247575b600080fd5b34801561015c57600080fd5b5061017760048036038101906101729190612f30565b6105a2565b60405161018491906136cc565b60405180910390f35b34801561019957600080fd5b506101a2610684565b6040516101af91906136e7565b60405180910390f35b3480156101c457600080fd5b506101df60048036038101906101da9190612fd3565b610716565b6040516101ec91906135fe565b60405180910390f35b34801561020157600080fd5b5061021c60048036038101906102179190612ef0565b61079b565b005b34801561022a57600080fd5b5061024560048036038101906102409190612dda565b6108b3565b005b34801561025357600080fd5b5061026e60048036038101906102699190612fd3565b610913565b005b34801561027c57600080fd5b5061029760048036038101906102929190612dda565b610b1f565b005b6102b360048036038101906102ae9190612f8a565b610b3f565b6040516102c09190613a04565b60405180910390f35b6102e360048036038101906102de9190613000565b610b76565b005b3480156102f157600080fd5b506102fa610def565b60405161030791906136aa565b60405180910390f35b34801561031c57600080fd5b5061033760048036038101906103329190612fd3565b6111d0565b60405161034491906135fe565b60405180910390f35b34801561035957600080fd5b50610362611282565b60405161036f9190613a04565b60405180910390f35b34801561038457600080fd5b5061039f600480360381019061039a9190612d6d565b61128c565b6040516103ac9190613a04565b60405180910390f35b3480156103c157600080fd5b506103dc60048036038101906103d79190612fd3565b611344565b6040516103e991906139e9565b60405180910390f35b3480156103fe57600080fd5b5061040761144c565b60405161041491906136e7565b60405180910390f35b61043760048036038101906104329190612fd3565b6114de565b005b34801561044557600080fd5b50610460600480360381019061045b9190612eb0565b6116d9565b005b34801561046e57600080fd5b5061048960048036038101906104849190612e2d565b61185a565b005b6104a560048036038101906104a09190612fd3565b6118bc565b005b3480156104b357600080fd5b506104ce60048036038101906104c99190612fd3565b611956565b6040516104db91906136e7565b60405180910390f35b3480156104f057600080fd5b506104f9611aa8565b60405161050691906139e9565b60405180910390f35b34801561051b57600080fd5b50610524611bbd565b60405161053191906136aa565b60405180910390f35b34801561054657600080fd5b50610561600480360381019061055c9190612d9a565b611d8f565b60405161056e91906136cc565b60405180910390f35b34801561058357600080fd5b5061058c611e23565b6040516105999190613a04565b60405180910390f35b60007f80ac58cd000000000000000000000000000000000000000000000000000000007bffffffffffffffffffffffffffffffffffffffffffffffffffffffff1916827bffffffffffffffffffffffffffffffffffffffffffffffffffffffff1916148061066d57507f5b5e139f000000000000000000000000000000000000000000000000000000007bffffffffffffffffffffffffffffffffffffffffffffffffffffffff1916827bffffffffffffffffffffffffffffffffffffffffffffffffffffffff1916145b8061067d575061067c82611e34565b5b9050919050565b60606000805461069390613cfd565b80601f01602080910402602001604051908101604052809291908181526020018280546106bf90613cfd565b801561070c5780601f106106e15761010080835404028352916020019161070c565b820191906000526020600020905b8154815290600101906020018083116106ef57829003601f168201915b5050505050905090565b600061072182611e9e565b610760576040517f08c379a0000000000000000000000000000000000000000000000000000000008152600401610757906138c9565b60405180910390fd5b6004600083815260200190815260200160002060009054906101000a900473ffffffffffffffffffffffffffffffffffffffff169050919050565b60006107a6826111d0565b90508073ffffffffffffffffffffffffffffffffffffffff168373ffffffffffffffffffffffffffffffffffffffff161415610817576040517f08c379a000000000000000000000000000000000000000000000000000000000815260040161080e90613949565b60405180910390fd5b8073ffffffffffffffffffffffffffffffffffffffff16610836611f0a565b73ffffffffffffffffffffffffffffffffffffffff16148061086557506108648161085f611f0a565b611d8f565b5b6108a4576040517f08c379a000000000000000000000000000000000000000000000000000000000815260040161089b906137e9565b60405180910390fd5b6108ae8383611f12565b505050565b6108c46108be611f0a565b82611fcb565b610903576040517f08c379a00000000000000000000000000000000000000000000000000000000081526004016108fa906139a9565b60405180910390fd5b61090e8383836120a9565b505050565b6000600b60008381526020019081526020016000206040518060a0016040529081600082015481526020016001820160009054906101000a900473ffffffffffffffffffffffffffffffffffffffff1673ffffffffffffffffffffffffffffffffffffffff1673ffffffffffffffffffffffffffffffffffffffff1681526020016002820160009054906101000a900473ffffffffffffffffffffffffffffffffffffffff1673ffffffffffffffffffffffffffffffffffffffff1673ffffffffffffffffffffffffffffffffffffffff168152602001600382015481526020016004820160009054906101000a900460ff16151515158152505090506000816060015111610a57576040517f08c379a0000000000000000000000000000000000000000000000000000000008152600401610a4e90613749565b60405180910390fd5b3373ffffffffffffffffffffffffffffffffffffffff16816040015173ffffffffffffffffffffffffffffffffffffffff1614610ac9576040517f08c379a0000000000000000000000000000000000000000000000000000000008152600401610ac090613969565b60405180910390fd5b610ad43033846120a9565b610add82612305565b7f705332a8918666802fc1504f63ff1f002a5f6cedd30d59ad7ae0b5281aeb8dca8230336000604051610b139493929190613a1f565b60405180910390a15050565b610b3a8383836040518060200160405280600081525061185a565b505050565b6000610b4b600761241b565b6000610b576007612431565b9050610b63338261243f565b610b6d818461245d565b80915050919050565b600a543414610bba576040517f08c379a0000000000000000000000000000000000000000000000000000000008152600401610bb190613929565b60405180910390fd5b60008111610bfd576040517f08c379a0000000000000000000000000000000000000000000000000000000008152600401610bf4906139c9565b60405180910390fd5b610c06826111d0565b73ffffffffffffffffffffffffffffffffffffffff163373ffffffffffffffffffffffffffffffffffffffff1614610c73576040517f08c379a0000000000000000000000000000000000000000000000000000000008152600401610c6a90613989565b60405180910390fd5b6040518060a001604052808381526020013073ffffffffffffffffffffffffffffffffffffffff1681526020013373ffffffffffffffffffffffffffffffffffffffff16815260200182815260200160011515815250600b60008481526020019081526020016000206000820151816000015560208201518160010160006101000a81548173ffffffffffffffffffffffffffffffffffffffff021916908373ffffffffffffffffffffffffffffffffffffffff16021790555060408201518160020160006101000a81548173ffffffffffffffffffffffffffffffffffffffff021916908373ffffffffffffffffffffffffffffffffffffffff1602179055506060820151816003015560808201518160040160006101000a81548160ff021916908315150217905550905050610dac3330846120a9565b817f9339409317fd01fabff48b703019016f49159bacc801ae872d2ca637d226e4c03033846001604051610de39493929190613619565b60405180910390a25050565b60606000610dfd6007612431565b9050600080600080600090505b84811015610f23573373ffffffffffffffffffffffffffffffffffffffff16600b6000600184610e3a9190613b7a565b815260200190815260200160002060010160009054906101000a900473ffffffffffffffffffffffffffffffffffffffff1673ffffffffffffffffffffffffffffffffffffffff161480610efb57503373ffffffffffffffffffffffffffffffffffffffff16600b6000600184610eb19190613b7a565b815260200190815260200160002060020160009054906101000a900473ffffffffffffffffffffffffffffffffffffffff1673ffffffffffffffffffffffffffffffffffffffff16145b15610f1057600184610f0d9190613b7a565b93505b8080610f1b90613d60565b915050610e0a565b5060008367ffffffffffffffff811115610f4057610f3f613e96565b5b604051908082528060200260200182016040528015610f7957816020015b610f66612b24565b815260200190600190039081610f5e5790505b50905060005b858110156111c4573373ffffffffffffffffffffffffffffffffffffffff16600b6000600184610faf9190613b7a565b815260200190815260200160002060010160009054906101000a900473ffffffffffffffffffffffffffffffffffffffff1673ffffffffffffffffffffffffffffffffffffffff16148061107057503373ffffffffffffffffffffffffffffffffffffffff16600b60006001846110269190613b7a565b815260200190815260200160002060020160009054906101000a900473ffffffffffffffffffffffffffffffffffffffff1673ffffffffffffffffffffffffffffffffffffffff16145b156111b1576001816110829190613b7a565b92506000600b60008581526020019081526020016000209050806040518060a0016040529081600082015481526020016001820160009054906101000a900473ffffffffffffffffffffffffffffffffffffffff1673ffffffffffffffffffffffffffffffffffffffff1673ffffffffffffffffffffffffffffffffffffffff1681526020016002820160009054906101000a900473ffffffffffffffffffffffffffffffffffffffff1673ffffffffffffffffffffffffffffffffffffffff1673ffffffffffffffffffffffffffffffffffffffff168152602001600382015481526020016004820160009054906101000a900460ff16151515158152505083868151811061119557611194613e67565b5b60200260200101819052506001856111ad9190613b7a565b9450505b80806111bc90613d60565b915050610f7f565b50809550505050505090565b6000806002600084815260200190815260200160002060009054906101000a900473ffffffffffffffffffffffffffffffffffffffff169050600073ffffffffffffffffffffffffffffffffffffffff168173ffffffffffffffffffffffffffffffffffffffff161415611279576040517f08c379a000000000000000000000000000000000000000000000000000000000815260040161127090613829565b60405180910390fd5b80915050919050565b6000600a54905090565b60008073ffffffffffffffffffffffffffffffffffffffff168273ffffffffffffffffffffffffffffffffffffffff1614156112fd576040517f08c379a00000000000000000000000000000000000000000000000000000000081526004016112f490613809565b60405180910390fd5b600360008373ffffffffffffffffffffffffffffffffffffffff1673ffffffffffffffffffffffffffffffffffffffff168152602001908152602001600020549050919050565b61134c612b24565b600b60008381526020019081526020016000206040518060a0016040529081600082015481526020016001820160009054906101000a900473ffffffffffffffffffffffffffffffffffffffff1673ffffffffffffffffffffffffffffffffffffffff1673ffffffffffffffffffffffffffffffffffffffff1681526020016002820160009054906101000a900473ffffffffffffffffffffffffffffffffffffffff1673ffffffffffffffffffffffffffffffffffffffff1673ffffffffffffffffffffffffffffffffffffffff168152602001600382015481526020016004820160009054906101000a900460ff1615151515815250509050919050565b60606001805461145b90613cfd565b80601f016020809104026020016040519081016040528092919081815260200182805461148790613cfd565b80156114d45780601f106114a9576101008083540402835291602001916114d4565b820191906000526020600020905b8154815290600101906020018083116114b757829003601f168201915b5050505050905090565b6000600b60008381526020019081526020016000206003015490506000600b600084815260200190815260200160002060020160009054906101000a900473ffffffffffffffffffffffffffffffffffffffff169050813414611576576040517f08c379a000000000000000000000000000000000000000000000000000000000815260040161156d90613869565b60405180910390fd5b6001600b600085815260200190815260200160002060040160006101000a81548160ff02191690831515021790555033600b600085815260200190815260200160002060020160006101000a81548173ffffffffffffffffffffffffffffffffffffffff021916908373ffffffffffffffffffffffffffffffffffffffff160217905550611604600861241b565b61160d83612305565b6116183033856120a9565b611622308461079b565b600960009054906101000a900473ffffffffffffffffffffffffffffffffffffffff1673ffffffffffffffffffffffffffffffffffffffff166108fc600a549081150290604051600060405180830381858888f1935050505015801561168c573d6000803e3d6000fd5b508073ffffffffffffffffffffffffffffffffffffffff166108fc349081150290604051600060405180830381858888f193505050501580156116d3573d6000803e3d6000fd5b50505050565b6116e1611f0a565b73ffffffffffffffffffffffffffffffffffffffff168273ffffffffffffffffffffffffffffffffffffffff16141561174f576040517f08c379a000000000000000000000000000000000000000000000000000000000815260040161174690613789565b60405180910390fd5b806005600061175c611f0a565b73ffffffffffffffffffffffffffffffffffffffff1673ffffffffffffffffffffffffffffffffffffffff16815260200190815260200160002060008473ffffffffffffffffffffffffffffffffffffffff1673ffffffffffffffffffffffffffffffffffffffff16815260200190815260200160002060006101000a81548160ff0219169083151502179055508173ffffffffffffffffffffffffffffffffffffffff16611809611f0a565b73ffffffffffffffffffffffffffffffffffffffff167f17307eab39ab6107e8899845ad3d59bd9653f200f220920489ca2b5937696c318360405161184e91906136cc565b60405180910390a35050565b61186b611865611f0a565b83611fcb565b6118aa576040517f08c379a00000000000000000000000000000000000000000000000000000000081526004016118a1906139a9565b60405180910390fd5b6118b6848484846124d1565b50505050565b3373ffffffffffffffffffffffffffffffffffffffff16600960009054906101000a900473ffffffffffffffffffffffffffffffffffffffff1673ffffffffffffffffffffffffffffffffffffffff161461194c576040517f08c379a0000000000000000000000000000000000000000000000000000000008152600401611943906137c9565b60405180910390fd5b80600a8190555050565b606061196182611e9e565b6119a0576040517f08c379a0000000000000000000000000000000000000000000000000000000008152600401611997906138a9565b60405180910390fd5b60006006600084815260200190815260200160002080546119c090613cfd565b80601f01602080910402602001604051908101604052809291908181526020018280546119ec90613cfd565b8015611a395780601f10611a0e57610100808354040283529160200191611a39565b820191906000526020600020905b815481529060010190602001808311611a1c57829003601f168201915b505050505090506000611a4a61252d565b9050600081511415611a60578192505050611aa3565b600082511115611a95578082604051602001611a7d9291906135da565b60405160208183030381529060405292505050611aa3565b611a9e84612544565b925050505b919050565b611ab0612b24565b6000611abc6007612431565b9050600b60008281526020019081526020016000206040518060a0016040529081600082015481526020016001820160009054906101000a900473ffffffffffffffffffffffffffffffffffffffff1673ffffffffffffffffffffffffffffffffffffffff1673ffffffffffffffffffffffffffffffffffffffff1681526020016002820160009054906101000a900473ffffffffffffffffffffffffffffffffffffffff1673ffffffffffffffffffffffffffffffffffffffff1673ffffffffffffffffffffffffffffffffffffffff168152602001600382015481526020016004820160009054906101000a900460ff16151515158152505091505090565b60606000611bcb6007612431565b905060008167ffffffffffffffff811115611be957611be8613e96565b5b604051908082528060200260200182016040528015611c2257816020015b611c0f612b24565b815260200190600190039081611c075790505b50905060008080600090505b84811015611d8457600181611c439190613b7a565b91506000600b60008481526020019081526020016000209050806040518060a0016040529081600082015481526020016001820160009054906101000a900473ffffffffffffffffffffffffffffffffffffffff1673ffffffffffffffffffffffffffffffffffffffff1673ffffffffffffffffffffffffffffffffffffffff1681526020016002820160009054906101000a900473ffffffffffffffffffffffffffffffffffffffff1673ffffffffffffffffffffffffffffffffffffffff1673ffffffffffffffffffffffffffffffffffffffff168152602001600382015481526020016004820160009054906101000a900460ff161515151581525050858581518110611d5657611d55613e67565b5b6020026020010181905250600184611d6e9190613b7a565b9350508080611d7c90613d60565b915050611c2e565b508294505050505090565b6000600560008473ffffffffffffffffffffffffffffffffffffffff1673ffffffffffffffffffffffffffffffffffffffff16815260200190815260200160002060008373ffffffffffffffffffffffffffffffffffffffff1673ffffffffffffffffffffffffffffffffffffffff16815260200190815260200160002060009054906101000a900460ff16905092915050565b6000611e2f6007612431565b905090565b60007f01ffc9a7000000000000000000000000000000000000000000000000000000007bffffffffffffffffffffffffffffffffffffffffffffffffffffffff1916827bffffffffffffffffffffffffffffffffffffffffffffffffffffffff1916149050919050565b60008073ffffffffffffffffffffffffffffffffffffffff166002600084815260200190815260200160002060009054906101000a900473ffffffffffffffffffffffffffffffffffffffff1673ffffffffffffffffffffffffffffffffffffffff1614159050919050565b600033905090565b816004600083815260200190815260200160002060006101000a81548173ffffffffffffffffffffffffffffffffffffffff021916908373ffffffffffffffffffffffffffffffffffffffff160217905550808273ffffffffffffffffffffffffffffffffffffffff16611f85836111d0565b73ffffffffffffffffffffffffffffffffffffffff167f8c5be1e5ebec7d5bd14f71427d1e84f3dd0314c0f7b2291e5b200ac8c7c3b92560405160405180910390a45050565b6000611fd682611e9e565b612015576040517f08c379a000000000000000000000000000000000000000000000000000000000815260040161200c906137a9565b60405180910390fd5b6000612020836111d0565b90508073ffffffffffffffffffffffffffffffffffffffff168473ffffffffffffffffffffffffffffffffffffffff16148061208f57508373ffffffffffffffffffffffffffffffffffffffff1661207784610716565b73ffffffffffffffffffffffffffffffffffffffff16145b806120a0575061209f8185611d8f565b5b91505092915050565b8273ffffffffffffffffffffffffffffffffffffffff166120c9826111d0565b73ffffffffffffffffffffffffffffffffffffffff161461211f576040517f08c379a0000000000000000000000000000000000000000000000000000000008152600401612116906138e9565b60405180910390fd5b600073ffffffffffffffffffffffffffffffffffffffff168273ffffffffffffffffffffffffffffffffffffffff16141561218f576040517f08c379a000000000000000000000000000000000000000000000000000000000815260040161218690613769565b60405180910390fd5b61219a8383836125eb565b6121a5600082611f12565b6001600360008573ffffffffffffffffffffffffffffffffffffffff1673ffffffffffffffffffffffffffffffffffffffff16815260200190815260200160002060008282546121f59190613c01565b925050819055506001600360008473ffffffffffffffffffffffffffffffffffffffff1673ffffffffffffffffffffffffffffffffffffffff168152602001908152602001600020600082825461224c9190613b7a565b92505081905550816002600083815260200190815260200160002060006101000a81548173ffffffffffffffffffffffffffffffffffffffff021916908373ffffffffffffffffffffffffffffffffffffffff160217905550808273ffffffffffffffffffffffffffffffffffffffff168473ffffffffffffffffffffffffffffffffffffffff167fddf252ad1be2c89b69c2b068fc378daa952ba7f163c4a11628f55a4df523b3ef60405160405180910390a4505050565b6000600b6000838152602001908152602001600020600301819055506000600b600083815260200190815260200160002060020160006101000a81548173ffffffffffffffffffffffffffffffffffffffff021916908373ffffffffffffffffffffffffffffffffffffffff1602179055506000600b600083815260200190815260200160002060010160006101000a81548173ffffffffffffffffffffffffffffffffffffffff021916908373ffffffffffffffffffffffffffffffffffffffff1602179055506000600b6000838152602001908152602001600020600001819055506000600b600083815260200190815260200160002060040160006101000a81548160ff02191690831515021790555050565b6001816000016000828254019250508190555050565b600081600001549050919050565b6124598282604051806020016040528060008152506125f0565b5050565b61246682611e9e565b6124a5576040517f08c379a000000000000000000000000000000000000000000000000000000000815260040161249c90613849565b60405180910390fd5b806006600084815260200190815260200160002090805190602001906124cc929190612b81565b505050565b6124dc8484846120a9565b6124e88484848461264b565b612527576040517f08c379a000000000000000000000000000000000000000000000000000000000815260040161251e90613709565b60405180910390fd5b50505050565b606060405180602001604052806000815250905090565b606061254f82611e9e565b61258e576040517f08c379a000000000000000000000000000000000000000000000000000000000815260040161258590613909565b60405180910390fd5b600061259861252d565b905060008151116125b857604051806020016040528060008152506125e3565b806125c2846127e2565b6040516020016125d39291906135da565b6040516020818303038152906040525b915050919050565b505050565b6125fa8383612943565b612607600084848461264b565b612646576040517f08c379a000000000000000000000000000000000000000000000000000000000815260040161263d90613709565b60405180910390fd5b505050565b600061266c8473ffffffffffffffffffffffffffffffffffffffff16612b11565b156127d5578373ffffffffffffffffffffffffffffffffffffffff1663150b7a02612695611f0a565b8786866040518563ffffffff1660e01b81526004016126b7949392919061365e565b602060405180830381600087803b1580156126d157600080fd5b505af192505050801561270257506040513d601f19601f820116820180604052508101906126ff9190612f5d565b60015b612785573d8060008114612732576040519150601f19603f3d011682016040523d82523d6000602084013e612737565b606091505b5060008151141561277d576040517f08c379a000000000000000000000000000000000000000000000000000000000815260040161277490613709565b60405180910390fd5b805181602001fd5b63150b7a0260e01b7bffffffffffffffffffffffffffffffffffffffffffffffffffffffff1916817bffffffffffffffffffffffffffffffffffffffffffffffffffffffff1916149150506127da565b600190505b949350505050565b6060600082141561282a576040518060400160405280600181526020017f3000000000000000000000000000000000000000000000000000000000000000815250905061293e565b600082905060005b6000821461285c57808061284590613d60565b915050600a826128559190613bd0565b9150612832565b60008167ffffffffffffffff81111561287857612877613e96565b5b6040519080825280601f01601f1916602001820160405280156128aa5781602001600182028036833780820191505090505b5090505b60008514612937576001826128c39190613c01565b9150600a856128d29190613da9565b60306128de9190613b7a565b60f81b8183815181106128f4576128f3613e67565b5b60200101907effffffffffffffffffffffffffffffffffffffffffffffffffffffffffffff1916908160001a905350600a856129309190613bd0565b94506128ae565b8093505050505b919050565b600073ffffffffffffffffffffffffffffffffffffffff168273ffffffffffffffffffffffffffffffffffffffff1614156129b3576040517f08c379a00000000000000000000000000000000000000000000000000000000081526004016129aa90613889565b60405180910390fd5b6129bc81611e9e565b156129fc576040517f08c379a00000000000000000000000000000000000000000000000000000000081526004016129f390613729565b60405180910390fd5b612a08600083836125eb565b6001600360008473ffffffffffffffffffffffffffffffffffffffff1673ffffffffffffffffffffffffffffffffffffffff1681526020019081526020016000206000828254612a589190613b7a565b92505081905550816002600083815260200190815260200160002060006101000a81548173ffffffffffffffffffffffffffffffffffffffff021916908373ffffffffffffffffffffffffffffffffffffffff160217905550808273ffffffffffffffffffffffffffffffffffffffff16600073ffffffffffffffffffffffffffffffffffffffff167fddf252ad1be2c89b69c2b068fc378daa952ba7f163c4a11628f55a4df523b3ef60405160405180910390a45050565b600080823b905060008111915050919050565b6040518060a0016040528060008152602001600073ffffffffffffffffffffffffffffffffffffffff168152602001600073ffffffffffffffffffffffffffffffffffffffff168152602001600081526020016000151581525090565b828054612b8d90613cfd565b90600052602060002090601f016020900481019282612baf5760008555612bf6565b82601f10612bc857805160ff1916838001178555612bf6565b82800160010185558215612bf6579182015b82811115612bf5578251825591602001919060010190612bda565b5b509050612c039190612c07565b5090565b5b80821115612c20576000816000905550600101612c08565b5090565b6000612c37612c3284613a9c565b613a77565b905082815260208101848484011115612c5357612c52613eca565b5b612c5e848285613cbb565b509392505050565b6000612c79612c7484613acd565b613a77565b905082815260208101848484011115612c9557612c94613eca565b5b612ca0848285613cbb565b509392505050565b600081359050612cb78161456e565b92915050565b600081359050612ccc81614585565b92915050565b600081359050612ce18161459c565b92915050565b600081519050612cf68161459c565b92915050565b600082601f830112612d1157612d10613ec5565b5b8135612d21848260208601612c24565b91505092915050565b600082601f830112612d3f57612d3e613ec5565b5b8135612d4f848260208601612c66565b91505092915050565b600081359050612d67816145b3565b92915050565b600060208284031215612d8357612d82613ed4565b5b6000612d9184828501612ca8565b91505092915050565b60008060408385031215612db157612db0613ed4565b5b6000612dbf85828601612ca8565b9250506020612dd085828601612ca8565b9150509250929050565b600080600060608486031215612df357612df2613ed4565b5b6000612e0186828701612ca8565b9350506020612e1286828701612ca8565b9250506040612e2386828701612d58565b9150509250925092565b60008060008060808587031215612e4757612e46613ed4565b5b6000612e5587828801612ca8565b9450506020612e6687828801612ca8565b9350506040612e7787828801612d58565b925050606085013567ffffffffffffffff811115612e9857612e97613ecf565b5b612ea487828801612cfc565b91505092959194509250565b60008060408385031215612ec757612ec6613ed4565b5b6000612ed585828601612ca8565b9250506020612ee685828601612cbd565b9150509250929050565b60008060408385031215612f0757612f06613ed4565b5b6000612f1585828601612ca8565b9250506020612f2685828601612d58565b9150509250929050565b600060208284031215612f4657612f45613ed4565b5b6000612f5484828501612cd2565b91505092915050565b600060208284031215612f7357612f72613ed4565b5b6000612f8184828501612ce7565b91505092915050565b600060208284031215612fa057612f9f613ed4565b5b600082013567ffffffffffffffff811115612fbe57612fbd613ecf565b5b612fca84828501612d2a565b91505092915050565b600060208284031215612fe957612fe8613ed4565b5b6000612ff784828501612d58565b91505092915050565b6000806040838503121561301757613016613ed4565b5b600061302585828601612d58565b925050602061303685828601612d58565b9150509250929050565b600061304c83836134ec565b60a08301905092915050565b61306181613c35565b82525050565b61307081613c35565b82525050565b600061308182613b0e565b61308b8185613b3c565b935061309683613afe565b8060005b838110156130c75781516130ae8882613040565b97506130b983613b2f565b92505060018101905061309a565b5085935050505092915050565b6130dd81613c47565b82525050565b6130ec81613c47565b82525050565b60006130fd82613b19565b6131078185613b4d565b9350613117818560208601613cca565b61312081613ed9565b840191505092915050565b61313481613ca9565b82525050565b600061314582613b24565b61314f8185613b5e565b935061315f818560208601613cca565b61316881613ed9565b840191505092915050565b600061317e82613b24565b6131888185613b6f565b9350613198818560208601613cca565b80840191505092915050565b60006131b1603283613b5e565b91506131bc82613eea565b604082019050919050565b60006131d4601c83613b5e565b91506131df82613f39565b602082019050919050565b60006131f7602283613b5e565b915061320282613f62565b604082019050919050565b600061321a602483613b5e565b915061322582613fb1565b604082019050919050565b600061323d601983613b5e565b915061324882614000565b602082019050919050565b6000613260602c83613b5e565b915061326b82614029565b604082019050919050565b6000613283602383613b5e565b915061328e82614078565b604082019050919050565b60006132a6603883613b5e565b91506132b1826140c7565b604082019050919050565b60006132c9602a83613b5e565b91506132d482614116565b604082019050919050565b60006132ec602983613b5e565b91506132f782614165565b604082019050919050565b600061330f602e83613b5e565b915061331a826141b4565b604082019050919050565b6000613332604083613b5e565b915061333d82614203565b604082019050919050565b6000613355602083613b5e565b915061336082614252565b602082019050919050565b6000613378603183613b5e565b91506133838261427b565b604082019050919050565b600061339b602c83613b5e565b91506133a6826142ca565b604082019050919050565b60006133be602983613b5e565b91506133c982614319565b604082019050919050565b60006133e1602f83613b5e565b91506133ec82614368565b604082019050919050565b6000613404602383613b5e565b915061340f826143b7565b604082019050919050565b6000613427602183613b5e565b915061343282614406565b604082019050919050565b600061344a602083613b5e565b915061345582614455565b602082019050919050565b600061346d602283613b5e565b91506134788261447e565b604082019050919050565b6000613490600083613b5e565b915061349b826144cd565b600082019050919050565b60006134b3603183613b5e565b91506134be826144d0565b604082019050919050565b60006134d6602283613b5e565b91506134e18261451f565b604082019050919050565b60a08201600082015161350260008501826135bc565b5060208201516135156020850182613058565b5060408201516135286040850182613058565b50606082015161353b60608501826135bc565b50608082015161354e60808501826130d4565b50505050565b60a08201600082015161356a60008501826135bc565b50602082015161357d6020850182613058565b5060408201516135906040850182613058565b5060608201516135a360608501826135bc565b5060808201516135b660808501826130d4565b50505050565b6135c581613c9f565b82525050565b6135d481613c9f565b82525050565b60006135e68285613173565b91506135f28284613173565b91508190509392505050565b60006020820190506136136000830184613067565b92915050565b600060808201905061362e6000830187613067565b61363b6020830186613067565b61364860408301856135cb565b61365560608301846130e3565b95945050505050565b60006080820190506136736000830187613067565b6136806020830186613067565b61368d60408301856135cb565b818103606083015261369f81846130f2565b905095945050505050565b600060208201905081810360008301526136c48184613076565b905092915050565b60006020820190506136e160008301846130e3565b92915050565b60006020820190508181036000830152613701818461313a565b905092915050565b60006020820190508181036000830152613722816131a4565b9050919050565b60006020820190508181036000830152613742816131c7565b9050919050565b60006020820190508181036000830152613762816131ea565b9050919050565b600060208201905081810360008301526137828161320d565b9050919050565b600060208201905081810360008301526137a281613230565b9050919050565b600060208201905081810360008301526137c281613253565b9050919050565b600060208201905081810360008301526137e281613276565b9050919050565b6000602082019050818103600083015261380281613299565b9050919050565b60006020820190508181036000830152613822816132bc565b9050919050565b60006020820190508181036000830152613842816132df565b9050919050565b6000602082019050818103600083015261386281613302565b9050919050565b6000602082019050818103600083015261388281613325565b9050919050565b600060208201905081810360008301526138a281613348565b9050919050565b600060208201905081810360008301526138c28161336b565b9050919050565b600060208201905081810360008301526138e28161338e565b9050919050565b60006020820190508181036000830152613902816133b1565b9050919050565b60006020820190508181036000830152613922816133d4565b9050919050565b60006020820190508181036000830152613942816133f7565b9050919050565b600060208201905081810360008301526139628161341a565b9050919050565b600060208201905081810360008301526139828161343d565b9050919050565b600060208201905081810360008301526139a281613460565b9050919050565b600060208201905081810360008301526139c2816134a6565b9050919050565b600060208201905081810360008301526139e2816134c9565b9050919050565b600060a0820190506139fe6000830184613554565b92915050565b6000602082019050613a1960008301846135cb565b92915050565b600060a082019050613a3460008301876135cb565b613a416020830186613067565b613a4e6040830185613067565b8181036060830152613a5f81613483565b9050613a6e608083018461312b565b95945050505050565b6000613a81613a92565b9050613a8d8282613d2f565b919050565b6000604051905090565b600067ffffffffffffffff821115613ab757613ab6613e96565b5b613ac082613ed9565b9050602081019050919050565b600067ffffffffffffffff821115613ae857613ae7613e96565b5b613af182613ed9565b9050602081019050919050565b6000819050602082019050919050565b600081519050919050565b600081519050919050565b600081519050919050565b6000602082019050919050565b600082825260208201905092915050565b600082825260208201905092915050565b600082825260208201905092915050565b600081905092915050565b6000613b8582613c9f565b9150613b9083613c9f565b9250827fffffffffffffffffffffffffffffffffffffffffffffffffffffffffffffffff03821115613bc557613bc4613dda565b5b828201905092915050565b6000613bdb82613c9f565b9150613be683613c9f565b925082613bf657613bf5613e09565b5b828204905092915050565b6000613c0c82613c9f565b9150613c1783613c9f565b925082821015613c2a57613c29613dda565b5b828203905092915050565b6000613c4082613c7f565b9050919050565b60008115159050919050565b60007fffffffff0000000000000000000000000000000000000000000000000000000082169050919050565b600073ffffffffffffffffffffffffffffffffffffffff82169050919050565b6000819050919050565b6000613cb482613c9f565b9050919050565b82818337600083830152505050565b60005b83811015613ce8578082015181840152602081019050613ccd565b83811115613cf7576000848401525b50505050565b60006002820490506001821680613d1557607f821691505b60208210811415613d2957613d28613e38565b5b50919050565b613d3882613ed9565b810181811067ffffffffffffffff82111715613d5757613d56613e96565b5b80604052505050565b6000613d6b82613c9f565b91507fffffffffffffffffffffffffffffffffffffffffffffffffffffffffffffffff821415613d9e57613d9d613dda565b5b600182019050919050565b6000613db482613c9f565b9150613dbf83613c9f565b925082613dcf57613dce613e09565b5b828206905092915050565b7f4e487b7100000000000000000000000000000000000000000000000000000000600052601160045260246000fd5b7f4e487b7100000000000000000000000000000000000000000000000000000000600052601260045260246000fd5b7f4e487b7100000000000000000000000000000000000000000000000000000000600052602260045260246000fd5b7f4e487b7100000000000000000000000000000000000000000000000000000000600052603260045260246000fd5b7f4e487b7100000000000000000000000000000000000000000000000000000000600052604160045260246000fd5b600080fd5b600080fd5b600080fd5b600080fd5b6000601f19601f8301169050919050565b7f4552433732313a207472616e7366657220746f206e6f6e20455243373231526560008201527f63656976657220696d706c656d656e7465720000000000000000000000000000602082015250565b7f4552433732313a20746f6b656e20616c7265616479206d696e74656400000000600082015250565b7f4e46544d61726b65743a206e6674206e6f74206c697374656420666f7220736160008201527f6c65000000000000000000000000000000000000000000000000000000000000602082015250565b7f4552433732313a207472616e7366657220746f20746865207a65726f2061646460008201527f7265737300000000000000000000000000000000000000000000000000000000602082015250565b7f4552433732313a20617070726f766520746f2063616c6c657200000000000000600082015250565b7f4552433732313a206f70657261746f7220717565727920666f72206e6f6e657860008201527f697374656e7420746f6b656e0000000000000000000000000000000000000000602082015250565b7f4f6e6c79206f776e65722063616e20757064617465206c697374696e6720707260008201527f6963650000000000000000000000000000000000000000000000000000000000602082015250565b7f4552433732313a20617070726f76652063616c6c6572206973206e6f74206f7760008201527f6e6572206e6f7220617070726f76656420666f7220616c6c0000000000000000602082015250565b7f4552433732313a2062616c616e636520717565727920666f7220746865207a6560008201527f726f206164647265737300000000000000000000000000000000000000000000602082015250565b7f4552433732313a206f776e657220717565727920666f72206e6f6e657869737460008201527f656e7420746f6b656e0000000000000000000000000000000000000000000000602082015250565b7f45524337323155524953746f726167653a2055524920736574206f66206e6f6e60008201527f6578697374656e7420746f6b656e000000000000000000000000000000000000602082015250565b7f506c65617365207375626d6974207468652061736b696e67207072696365206960008201527f6e206f7264657220746f20636f6d706c65746520746865207075726368617365602082015250565b7f4552433732313a206d696e7420746f20746865207a65726f2061646472657373600082015250565b7f45524337323155524953746f726167653a2055524920717565727920666f722060008201527f6e6f6e6578697374656e7420746f6b656e000000000000000000000000000000602082015250565b7f4552433732313a20617070726f76656420717565727920666f72206e6f6e657860008201527f697374656e7420746f6b656e0000000000000000000000000000000000000000602082015250565b7f4552433732313a207472616e73666572206f6620746f6b656e2074686174206960008201527f73206e6f74206f776e0000000000000000000000000000000000000000000000602082015250565b7f4552433732314d657461646174613a2055524920717565727920666f72206e6f60008201527f6e6578697374656e7420746f6b656e0000000000000000000000000000000000602082015250565b7f486f706566756c6c792073656e64696e672074686520636f727265637420707260008201527f6963650000000000000000000000000000000000000000000000000000000000602082015250565b7f4552433732313a20617070726f76616c20746f2063757272656e74206f776e6560008201527f7200000000000000000000000000000000000000000000000000000000000000602082015250565b7f4e46544d61726b65743a20796f75277265206e6f74207468652073656c6c6572600082015250565b7f596f7520617265206e6f7420746865206f776e6572206f662074686520746f6b60008201527f656e000000000000000000000000000000000000000000000000000000000000602082015250565b50565b7f4552433732313a207472616e736665722063616c6c6572206973206e6f74206f60008201527f776e6572206e6f7220617070726f766564000000000000000000000000000000602082015250565b7f4d616b652073757265207468652070726963652069736e2774206e656761746960008201527f7665000000000000000000000000000000000000000000000000000000000000602082015250565b61457781613c35565b811461458257600080fd5b50565b61458e81613c47565b811461459957600080fd5b50565b6145a581613c53565b81146145b057600080fd5b50565b6145bc81613c9f565b81146145c757600080fd5b5056fea2646970667358221220966beb6579005691097bd37c79132cdb1ff34809007b313e3cf3e1820971140664736f6c63430008070033","opcodes":"PUSH1 0x80 PUSH1 0x40 MSTORE PUSH7 0x2386F26FC10000 PUSH1 0xA SSTORE CALLVALUE DUP1 ISZERO PUSH3 0x1C JUMPI PUSH1 0x0 DUP1 REVERT JUMPDEST POP PUSH1 0x40 MLOAD DUP1 PUSH1 0x40 ADD PUSH1 0x40 MSTORE DUP1 PUSH1 0xE DUP2 MSTORE PUSH1 0x20 ADD PUSH32 0x4E46544D61726B6574706C616365000000000000000000000000000000000000 DUP2 MSTORE POP PUSH1 0x40 MLOAD DUP1 PUSH1 0x40 ADD PUSH1 0x40 MSTORE DUP1 PUSH1 0x4 DUP2 MSTORE PUSH1 0x20 ADD PUSH32 0x4E46544D00000000000000000000000000000000000000000000000000000000 DUP2 MSTORE POP DUP2 PUSH1 0x0 SWAP1 DUP1 MLOAD SWAP1 PUSH1 0x20 ADD SWAP1 PUSH3 0xA1 SWAP3 SWAP2 SWAP1 PUSH3 0x104 JUMP JUMPDEST POP DUP1 PUSH1 0x1 SWAP1 DUP1 MLOAD SWAP1 PUSH1 0x20 ADD SWAP1 PUSH3 0xBA SWAP3 SWAP2 SWAP1 PUSH3 0x104 JUMP JUMPDEST POP POP POP CALLER PUSH1 0x9 PUSH1 0x0 PUSH2 0x100 EXP DUP2 SLOAD DUP2 PUSH20 0xFFFFFFFFFFFFFFFFFFFFFFFFFFFFFFFFFFFFFFFF MUL NOT AND SWAP1 DUP4 PUSH20 0xFFFFFFFFFFFFFFFFFFFFFFFFFFFFFFFFFFFFFFFF AND MUL OR SWAP1 SSTORE POP PUSH3 0x219 JUMP JUMPDEST DUP3 DUP1 SLOAD PUSH3 0x112 SWAP1 PUSH3 0x1B4 JUMP JUMPDEST SWAP1 PUSH1 0x0 MSTORE PUSH1 0x20 PUSH1 0x0 KECCAK256 SWAP1 PUSH1 0x1F ADD PUSH1 0x20 SWAP1 DIV DUP2 ADD SWAP3 DUP3 PUSH3 0x136 JUMPI PUSH1 0x0 DUP6 SSTORE PUSH3 0x182 JUMP JUMPDEST DUP3 PUSH1 0x1F LT PUSH3 0x151 JUMPI DUP1 MLOAD PUSH1 0xFF NOT AND DUP4 DUP1 ADD OR DUP6 SSTORE PUSH3 0x182 JUMP JUMPDEST DUP3 DUP1 ADD PUSH1 0x1 ADD DUP6 SSTORE DUP3 ISZERO PUSH3 0x182 JUMPI SWAP2 DUP3 ADD JUMPDEST DUP3 DUP2 GT ISZERO PUSH3 0x181 JUMPI DUP3 MLOAD DUP3 SSTORE SWAP2 PUSH1 0x20 ADD SWAP2 SWAP1 PUSH1 0x1 ADD SWAP1 PUSH3 0x164 JUMP JUMPDEST JUMPDEST POP SWAP1 POP PUSH3 0x191 SWAP2 SWAP1 PUSH3 0x195 JUMP JUMPDEST POP SWAP1 JUMP JUMPDEST JUMPDEST DUP1 DUP3 GT ISZERO PUSH3 0x1B0 JUMPI PUSH1 0x0 DUP2 PUSH1 0x0 SWAP1 SSTORE POP PUSH1 0x1 ADD PUSH3 0x196 JUMP JUMPDEST POP SWAP1 JUMP JUMPDEST PUSH1 0x0 PUSH1 0x2 DUP3 DIV SWAP1 POP PUSH1 0x1 DUP3 AND DUP1 PUSH3 0x1CD JUMPI PUSH1 0x7F DUP3 AND SWAP2 POP JUMPDEST PUSH1 0x20 DUP3 LT DUP2 EQ ISZERO PUSH3 0x1E4 JUMPI PUSH3 0x1E3 PUSH3 0x1EA JUMP JUMPDEST JUMPDEST POP SWAP2 SWAP1 POP JUMP JUMPDEST PUSH32 0x4E487B7100000000000000000000000000000000000000000000000000000000 PUSH1 0x0 MSTORE PUSH1 0x22 PUSH1 0x4 MSTORE PUSH1 0x24 PUSH1 0x0 REVERT JUMPDEST PUSH2 0x4600 DUP1 PUSH3 0x229 PUSH1 0x0 CODECOPY PUSH1 0x0 RETURN INVALID PUSH1 0x80 PUSH1 0x40 MSTORE PUSH1 0x4 CALLDATASIZE LT PUSH2 0x14B JUMPI PUSH1 0x0 CALLDATALOAD PUSH1 0xE0 SHR DUP1 PUSH4 0x70A08231 GT PUSH2 0xB6 JUMPI DUP1 PUSH4 0xC322579C GT PUSH2 0x6F JUMPI DUP1 PUSH4 0xC322579C EQ PUSH2 0x48B JUMPI DUP1 PUSH4 0xC87B56DD EQ PUSH2 0x4A7 JUMPI DUP1 PUSH4 0xD1A88AE5 EQ PUSH2 0x4E4 JUMPI DUP1 PUSH4 0xE0391B09 EQ PUSH2 0x50F JUMPI DUP1 PUSH4 0xE985E9C5 EQ PUSH2 0x53A JUMPI DUP1 PUSH4 0xEF2D1746 EQ PUSH2 0x577 JUMPI PUSH2 0x14B JUMP JUMPDEST DUP1 PUSH4 0x70A08231 EQ PUSH2 0x378 JUMPI DUP1 PUSH4 0x8E264590 EQ PUSH2 0x3B5 JUMPI DUP1 PUSH4 0x95D89B41 EQ PUSH2 0x3F2 JUMPI DUP1 PUSH4 0x9B1225C4 EQ PUSH2 0x41D JUMPI DUP1 PUSH4 0xA22CB465 EQ PUSH2 0x439 JUMPI DUP1 PUSH4 0xB88D4FDE EQ PUSH2 0x462 JUMPI PUSH2 0x14B JUMP JUMPDEST DUP1 PUSH4 0x42842E0E GT PUSH2 0x108 JUMPI DUP1 PUSH4 0x42842E0E EQ PUSH2 0x270 JUMPI DUP1 PUSH4 0x45576F94 EQ PUSH2 0x299 JUMPI DUP1 PUSH4 0x55524F56 EQ PUSH2 0x2C9 JUMPI DUP1 PUSH4 0x629CB2E4 EQ PUSH2 0x2E5 JUMPI DUP1 PUSH4 0x6352211E EQ PUSH2 0x310 JUMPI DUP1 PUSH4 0x68F1945F EQ PUSH2 0x34D JUMPI PUSH2 0x14B JUMP JUMPDEST DUP1 PUSH4 0x1FFC9A7 EQ PUSH2 0x150 JUMPI DUP1 PUSH4 0x6FDDE03 EQ PUSH2 0x18D JUMPI DUP1 PUSH4 0x81812FC EQ PUSH2 0x1B8 JUMPI DUP1 PUSH4 0x95EA7B3 EQ PUSH2 0x1F5 JUMPI DUP1 PUSH4 0x23B872DD EQ PUSH2 0x21E JUMPI DUP1 PUSH4 0x305A67A8 EQ PUSH2 0x247 JUMPI JUMPDEST PUSH1 0x0 DUP1 REVERT JUMPDEST CALLVALUE DUP1 ISZERO PUSH2 0x15C JUMPI PUSH1 0x0 DUP1 REVERT JUMPDEST POP PUSH2 0x177 PUSH1 0x4 DUP1 CALLDATASIZE SUB DUP2 ADD SWAP1 PUSH2 0x172 SWAP2 SWAP1 PUSH2 0x2F30 JUMP JUMPDEST PUSH2 0x5A2 JUMP JUMPDEST PUSH1 0x40 MLOAD PUSH2 0x184 SWAP2 SWAP1 PUSH2 0x36CC JUMP JUMPDEST PUSH1 0x40 MLOAD DUP1 SWAP2 SUB SWAP1 RETURN JUMPDEST CALLVALUE DUP1 ISZERO PUSH2 0x199 JUMPI PUSH1 0x0 DUP1 REVERT JUMPDEST POP PUSH2 0x1A2 PUSH2 0x684 JUMP JUMPDEST PUSH1 0x40 MLOAD PUSH2 0x1AF SWAP2 SWAP1 PUSH2 0x36E7 JUMP JUMPDEST PUSH1 0x40 MLOAD DUP1 SWAP2 SUB SWAP1 RETURN JUMPDEST CALLVALUE DUP1 ISZERO PUSH2 0x1C4 JUMPI PUSH1 0x0 DUP1 REVERT JUMPDEST POP PUSH2 0x1DF PUSH1 0x4 DUP1 CALLDATASIZE SUB DUP2 ADD SWAP1 PUSH2 0x1DA SWAP2 SWAP1 PUSH2 0x2FD3 JUMP JUMPDEST PUSH2 0x716 JUMP JUMPDEST PUSH1 0x40 MLOAD PUSH2 0x1EC SWAP2 SWAP1 PUSH2 0x35FE JUMP JUMPDEST PUSH1 0x40 MLOAD DUP1 SWAP2 SUB SWAP1 RETURN JUMPDEST CALLVALUE DUP1 ISZERO PUSH2 0x201 JUMPI PUSH1 0x0 DUP1 REVERT JUMPDEST POP PUSH2 0x21C PUSH1 0x4 DUP1 CALLDATASIZE SUB DUP2 ADD SWAP1 PUSH2 0x217 SWAP2 SWAP1 PUSH2 0x2EF0 JUMP JUMPDEST PUSH2 0x79B JUMP JUMPDEST STOP JUMPDEST CALLVALUE DUP1 ISZERO PUSH2 0x22A JUMPI PUSH1 0x0 DUP1 REVERT JUMPDEST POP PUSH2 0x245 PUSH1 0x4 DUP1 CALLDATASIZE SUB DUP2 ADD SWAP1 PUSH2 0x240 SWAP2 SWAP1 PUSH2 0x2DDA JUMP JUMPDEST PUSH2 0x8B3 JUMP JUMPDEST STOP JUMPDEST CALLVALUE DUP1 ISZERO PUSH2 0x253 JUMPI PUSH1 0x0 DUP1 REVERT JUMPDEST POP PUSH2 0x26E PUSH1 0x4 DUP1 CALLDATASIZE SUB DUP2 ADD SWAP1 PUSH2 0x269 SWAP2 SWAP1 PUSH2 0x2FD3 JUMP JUMPDEST PUSH2 0x913 JUMP JUMPDEST STOP JUMPDEST CALLVALUE DUP1 ISZERO PUSH2 0x27C JUMPI PUSH1 0x0 DUP1 REVERT JUMPDEST POP PUSH2 0x297 PUSH1 0x4 DUP1 CALLDATASIZE SUB DUP2 ADD SWAP1 PUSH2 0x292 SWAP2 SWAP1 PUSH2 0x2DDA JUMP JUMPDEST PUSH2 0xB1F JUMP JUMPDEST STOP JUMPDEST PUSH2 0x2B3 PUSH1 0x4 DUP1 CALLDATASIZE SUB DUP2 ADD SWAP1 PUSH2 0x2AE SWAP2 SWAP1 PUSH2 0x2F8A JUMP JUMPDEST PUSH2 0xB3F JUMP JUMPDEST PUSH1 0x40 MLOAD PUSH2 0x2C0 SWAP2 SWAP1 PUSH2 0x3A04 JUMP JUMPDEST PUSH1 0x40 MLOAD DUP1 SWAP2 SUB SWAP1 RETURN JUMPDEST PUSH2 0x2E3 PUSH1 0x4 DUP1 CALLDATASIZE SUB DUP2 ADD SWAP1 PUSH2 0x2DE SWAP2 SWAP1 PUSH2 0x3000 JUMP JUMPDEST PUSH2 0xB76 JUMP JUMPDEST STOP JUMPDEST CALLVALUE DUP1 ISZERO PUSH2 0x2F1 JUMPI PUSH1 0x0 DUP1 REVERT JUMPDEST POP PUSH2 0x2FA PUSH2 0xDEF JUMP JUMPDEST PUSH1 0x40 MLOAD PUSH2 0x307 SWAP2 SWAP1 PUSH2 0x36AA JUMP JUMPDEST PUSH1 0x40 MLOAD DUP1 SWAP2 SUB SWAP1 RETURN JUMPDEST CALLVALUE DUP1 ISZERO PUSH2 0x31C JUMPI PUSH1 0x0 DUP1 REVERT JUMPDEST POP PUSH2 0x337 PUSH1 0x4 DUP1 CALLDATASIZE SUB DUP2 ADD SWAP1 PUSH2 0x332 SWAP2 SWAP1 PUSH2 0x2FD3 JUMP JUMPDEST PUSH2 0x11D0 JUMP JUMPDEST PUSH1 0x40 MLOAD PUSH2 0x344 SWAP2 SWAP1 PUSH2 0x35FE JUMP JUMPDEST PUSH1 0x40 MLOAD DUP1 SWAP2 SUB SWAP1 RETURN JUMPDEST CALLVALUE DUP1 ISZERO PUSH2 0x359 JUMPI PUSH1 0x0 DUP1 REVERT JUMPDEST POP PUSH2 0x362 PUSH2 0x1282 JUMP JUMPDEST PUSH1 0x40 MLOAD PUSH2 0x36F SWAP2 SWAP1 PUSH2 0x3A04 JUMP JUMPDEST PUSH1 0x40 MLOAD DUP1 SWAP2 SUB SWAP1 RETURN JUMPDEST CALLVALUE DUP1 ISZERO PUSH2 0x384 JUMPI PUSH1 0x0 DUP1 REVERT JUMPDEST POP PUSH2 0x39F PUSH1 0x4 DUP1 CALLDATASIZE SUB DUP2 ADD SWAP1 PUSH2 0x39A SWAP2 SWAP1 PUSH2 0x2D6D JUMP JUMPDEST PUSH2 0x128C JUMP JUMPDEST PUSH1 0x40 MLOAD PUSH2 0x3AC SWAP2 SWAP1 PUSH2 0x3A04 JUMP JUMPDEST PUSH1 0x40 MLOAD DUP1 SWAP2 SUB SWAP1 RETURN JUMPDEST CALLVALUE DUP1 ISZERO PUSH2 0x3C1 JUMPI PUSH1 0x0 DUP1 REVERT JUMPDEST POP PUSH2 0x3DC PUSH1 0x4 DUP1 CALLDATASIZE SUB DUP2 ADD SWAP1 PUSH2 0x3D7 SWAP2 SWAP1 PUSH2 0x2FD3 JUMP JUMPDEST PUSH2 0x1344 JUMP JUMPDEST PUSH1 0x40 MLOAD PUSH2 0x3E9 SWAP2 SWAP1 PUSH2 0x39E9 JUMP JUMPDEST PUSH1 0x40 MLOAD DUP1 SWAP2 SUB SWAP1 RETURN JUMPDEST CALLVALUE DUP1 ISZERO PUSH2 0x3FE JUMPI PUSH1 0x0 DUP1 REVERT JUMPDEST POP PUSH2 0x407 PUSH2 0x144C JUMP JUMPDEST PUSH1 0x40 MLOAD PUSH2 0x414 SWAP2 SWAP1 PUSH2 0x36E7 JUMP JUMPDEST PUSH1 0x40 MLOAD DUP1 SWAP2 SUB SWAP1 RETURN JUMPDEST PUSH2 0x437 PUSH1 0x4 DUP1 CALLDATASIZE SUB DUP2 ADD SWAP1 PUSH2 0x432 SWAP2 SWAP1 PUSH2 0x2FD3 JUMP JUMPDEST PUSH2 0x14DE JUMP JUMPDEST STOP JUMPDEST CALLVALUE DUP1 ISZERO PUSH2 0x445 JUMPI PUSH1 0x0 DUP1 REVERT JUMPDEST POP PUSH2 0x460 PUSH1 0x4 DUP1 CALLDATASIZE SUB DUP2 ADD SWAP1 PUSH2 0x45B SWAP2 SWAP1 PUSH2 0x2EB0 JUMP JUMPDEST PUSH2 0x16D9 JUMP JUMPDEST STOP JUMPDEST CALLVALUE DUP1 ISZERO PUSH2 0x46E JUMPI PUSH1 0x0 DUP1 REVERT JUMPDEST POP PUSH2 0x489 PUSH1 0x4 DUP1 CALLDATASIZE SUB DUP2 ADD SWAP1 PUSH2 0x484 SWAP2 SWAP1 PUSH2 0x2E2D JUMP JUMPDEST PUSH2 0x185A JUMP JUMPDEST STOP JUMPDEST PUSH2 0x4A5 PUSH1 0x4 DUP1 CALLDATASIZE SUB DUP2 ADD SWAP1 PUSH2 0x4A0 SWAP2 SWAP1 PUSH2 0x2FD3 JUMP JUMPDEST PUSH2 0x18BC JUMP JUMPDEST STOP JUMPDEST CALLVALUE DUP1 ISZERO PUSH2 0x4B3 JUMPI PUSH1 0x0 DUP1 REVERT JUMPDEST POP PUSH2 0x4CE PUSH1 0x4 DUP1 CALLDATASIZE SUB DUP2 ADD SWAP1 PUSH2 0x4C9 SWAP2 SWAP1 PUSH2 0x2FD3 JUMP JUMPDEST PUSH2 0x1956 JUMP JUMPDEST PUSH1 0x40 MLOAD PUSH2 0x4DB SWAP2 SWAP1 PUSH2 0x36E7 JUMP JUMPDEST PUSH1 0x40 MLOAD DUP1 SWAP2 SUB SWAP1 RETURN JUMPDEST CALLVALUE DUP1 ISZERO PUSH2 0x4F0 JUMPI PUSH1 0x0 DUP1 REVERT JUMPDEST POP PUSH2 0x4F9 PUSH2 0x1AA8 JUMP JUMPDEST PUSH1 0x40 MLOAD PUSH2 0x506 SWAP2 SWAP1 PUSH2 0x39E9 JUMP JUMPDEST PUSH1 0x40 MLOAD DUP1 SWAP2 SUB SWAP1 RETURN JUMPDEST CALLVALUE DUP1 ISZERO PUSH2 0x51B JUMPI PUSH1 0x0 DUP1 REVERT JUMPDEST POP PUSH2 0x524 PUSH2 0x1BBD JUMP JUMPDEST PUSH1 0x40 MLOAD PUSH2 0x531 SWAP2 SWAP1 PUSH2 0x36AA JUMP JUMPDEST PUSH1 0x40 MLOAD DUP1 SWAP2 SUB SWAP1 RETURN JUMPDEST CALLVALUE DUP1 ISZERO PUSH2 0x546 JUMPI PUSH1 0x0 DUP1 REVERT JUMPDEST POP PUSH2 0x561 PUSH1 0x4 DUP1 CALLDATASIZE SUB DUP2 ADD SWAP1 PUSH2 0x55C SWAP2 SWAP1 PUSH2 0x2D9A JUMP JUMPDEST PUSH2 0x1D8F JUMP JUMPDEST PUSH1 0x40 MLOAD PUSH2 0x56E SWAP2 SWAP1 PUSH2 0x36CC JUMP JUMPDEST PUSH1 0x40 MLOAD DUP1 SWAP2 SUB SWAP1 RETURN JUMPDEST CALLVALUE DUP1 ISZERO PUSH2 0x583 JUMPI PUSH1 0x0 DUP1 REVERT JUMPDEST POP PUSH2 0x58C PUSH2 0x1E23 JUMP JUMPDEST PUSH1 0x40 MLOAD PUSH2 0x599 SWAP2 SWAP1 PUSH2 0x3A04 JUMP JUMPDEST PUSH1 0x40 MLOAD DUP1 SWAP2 SUB SWAP1 RETURN JUMPDEST PUSH1 0x0 PUSH32 0x80AC58CD00000000000000000000000000000000000000000000000000000000 PUSH28 0xFFFFFFFFFFFFFFFFFFFFFFFFFFFFFFFFFFFFFFFFFFFFFFFFFFFFFFFF NOT AND DUP3 PUSH28 0xFFFFFFFFFFFFFFFFFFFFFFFFFFFFFFFFFFFFFFFFFFFFFFFFFFFFFFFF NOT AND EQ DUP1 PUSH2 0x66D JUMPI POP PUSH32 0x5B5E139F00000000000000000000000000000000000000000000000000000000 PUSH28 0xFFFFFFFFFFFFFFFFFFFFFFFFFFFFFFFFFFFFFFFFFFFFFFFFFFFFFFFF NOT AND DUP3 PUSH28 0xFFFFFFFFFFFFFFFFFFFFFFFFFFFFFFFFFFFFFFFFFFFFFFFFFFFFFFFF NOT AND EQ JUMPDEST DUP1 PUSH2 0x67D JUMPI POP PUSH2 0x67C DUP3 PUSH2 0x1E34 JUMP JUMPDEST JUMPDEST SWAP1 POP SWAP2 SWAP1 POP JUMP JUMPDEST PUSH1 0x60 PUSH1 0x0 DUP1 SLOAD PUSH2 0x693 SWAP1 PUSH2 0x3CFD JUMP JUMPDEST DUP1 PUSH1 0x1F ADD PUSH1 0x20 DUP1 SWAP2 DIV MUL PUSH1 0x20 ADD PUSH1 0x40 MLOAD SWAP1 DUP2 ADD PUSH1 0x40 MSTORE DUP1 SWAP3 SWAP2 SWAP1 DUP2 DUP2 MSTORE PUSH1 0x20 ADD DUP3 DUP1 SLOAD PUSH2 0x6BF SWAP1 PUSH2 0x3CFD JUMP JUMPDEST DUP1 ISZERO PUSH2 0x70C JUMPI DUP1 PUSH1 0x1F LT PUSH2 0x6E1 JUMPI PUSH2 0x100 DUP1 DUP4 SLOAD DIV MUL DUP4 MSTORE SWAP2 PUSH1 0x20 ADD SWAP2 PUSH2 0x70C JUMP JUMPDEST DUP3 ADD SWAP2 SWAP1 PUSH1 0x0 MSTORE PUSH1 0x20 PUSH1 0x0 KECCAK256 SWAP1 JUMPDEST DUP2 SLOAD DUP2 MSTORE SWAP1 PUSH1 0x1 ADD SWAP1 PUSH1 0x20 ADD DUP1 DUP4 GT PUSH2 0x6EF JUMPI DUP3 SWAP1 SUB PUSH1 0x1F AND DUP3 ADD SWAP2 JUMPDEST POP POP POP POP POP SWAP1 POP SWAP1 JUMP JUMPDEST PUSH1 0x0 PUSH2 0x721 DUP3 PUSH2 0x1E9E JUMP JUMPDEST PUSH2 0x760 JUMPI PUSH1 0x40 MLOAD PUSH32 0x8C379A000000000000000000000000000000000000000000000000000000000 DUP2 MSTORE PUSH1 0x4 ADD PUSH2 0x757 SWAP1 PUSH2 0x38C9 JUMP JUMPDEST PUSH1 0x40 MLOAD DUP1 SWAP2 SUB SWAP1 REVERT JUMPDEST PUSH1 0x4 PUSH1 0x0 DUP4 DUP2 MSTORE PUSH1 0x20 ADD SWAP1 DUP2 MSTORE PUSH1 0x20 ADD PUSH1 0x0 KECCAK256 PUSH1 0x0 SWAP1 SLOAD SWAP1 PUSH2 0x100 EXP SWAP1 DIV PUSH20 0xFFFFFFFFFFFFFFFFFFFFFFFFFFFFFFFFFFFFFFFF AND SWAP1 POP SWAP2 SWAP1 POP JUMP JUMPDEST PUSH1 0x0 PUSH2 0x7A6 DUP3 PUSH2 0x11D0 JUMP JUMPDEST SWAP1 POP DUP1 PUSH20 0xFFFFFFFFFFFFFFFFFFFFFFFFFFFFFFFFFFFFFFFF AND DUP4 PUSH20 0xFFFFFFFFFFFFFFFFFFFFFFFFFFFFFFFFFFFFFFFF AND EQ ISZERO PUSH2 0x817 JUMPI PUSH1 0x40 MLOAD PUSH32 0x8C379A000000000000000000000000000000000000000000000000000000000 DUP2 MSTORE PUSH1 0x4 ADD PUSH2 0x80E SWAP1 PUSH2 0x3949 JUMP JUMPDEST PUSH1 0x40 MLOAD DUP1 SWAP2 SUB SWAP1 REVERT JUMPDEST DUP1 PUSH20 0xFFFFFFFFFFFFFFFFFFFFFFFFFFFFFFFFFFFFFFFF AND PUSH2 0x836 PUSH2 0x1F0A JUMP JUMPDEST PUSH20 0xFFFFFFFFFFFFFFFFFFFFFFFFFFFFFFFFFFFFFFFF AND EQ DUP1 PUSH2 0x865 JUMPI POP PUSH2 0x864 DUP2 PUSH2 0x85F PUSH2 0x1F0A JUMP JUMPDEST PUSH2 0x1D8F JUMP JUMPDEST JUMPDEST PUSH2 0x8A4 JUMPI PUSH1 0x40 MLOAD PUSH32 0x8C379A000000000000000000000000000000000000000000000000000000000 DUP2 MSTORE PUSH1 0x4 ADD PUSH2 0x89B SWAP1 PUSH2 0x37E9 JUMP JUMPDEST PUSH1 0x40 MLOAD DUP1 SWAP2 SUB SWAP1 REVERT JUMPDEST PUSH2 0x8AE DUP4 DUP4 PUSH2 0x1F12 JUMP JUMPDEST POP POP POP JUMP JUMPDEST PUSH2 0x8C4 PUSH2 0x8BE PUSH2 0x1F0A JUMP JUMPDEST DUP3 PUSH2 0x1FCB JUMP JUMPDEST PUSH2 0x903 JUMPI PUSH1 0x40 MLOAD PUSH32 0x8C379A000000000000000000000000000000000000000000000000000000000 DUP2 MSTORE PUSH1 0x4 ADD PUSH2 0x8FA SWAP1 PUSH2 0x39A9 JUMP JUMPDEST PUSH1 0x40 MLOAD DUP1 SWAP2 SUB SWAP1 REVERT JUMPDEST PUSH2 0x90E DUP4 DUP4 DUP4 PUSH2 0x20A9 JUMP JUMPDEST POP POP POP JUMP JUMPDEST PUSH1 0x0 PUSH1 0xB PUSH1 0x0 DUP4 DUP2 MSTORE PUSH1 0x20 ADD SWAP1 DUP2 MSTORE PUSH1 0x20 ADD PUSH1 0x0 KECCAK256 PUSH1 0x40 MLOAD DUP1 PUSH1 0xA0 ADD PUSH1 0x40 MSTORE SWAP1 DUP2 PUSH1 0x0 DUP3 ADD SLOAD DUP2 MSTORE PUSH1 0x20 ADD PUSH1 0x1 DUP3 ADD PUSH1 0x0 SWAP1 SLOAD SWAP1 PUSH2 0x100 EXP SWAP1 DIV PUSH20 0xFFFFFFFFFFFFFFFFFFFFFFFFFFFFFFFFFFFFFFFF AND PUSH20 0xFFFFFFFFFFFFFFFFFFFFFFFFFFFFFFFFFFFFFFFF AND PUSH20 0xFFFFFFFFFFFFFFFFFFFFFFFFFFFFFFFFFFFFFFFF AND DUP2 MSTORE PUSH1 0x20 ADD PUSH1 0x2 DUP3 ADD PUSH1 0x0 SWAP1 SLOAD SWAP1 PUSH2 0x100 EXP SWAP1 DIV PUSH20 0xFFFFFFFFFFFFFFFFFFFFFFFFFFFFFFFFFFFFFFFF AND PUSH20 0xFFFFFFFFFFFFFFFFFFFFFFFFFFFFFFFFFFFFFFFF AND PUSH20 0xFFFFFFFFFFFFFFFFFFFFFFFFFFFFFFFFFFFFFFFF AND DUP2 MSTORE PUSH1 0x20 ADD PUSH1 0x3 DUP3 ADD SLOAD DUP2 MSTORE PUSH1 0x20 ADD PUSH1 0x4 DUP3 ADD PUSH1 0x0 SWAP1 SLOAD SWAP1 PUSH2 0x100 EXP SWAP1 DIV PUSH1 0xFF AND ISZERO ISZERO ISZERO ISZERO DUP2 MSTORE POP POP SWAP1 POP PUSH1 0x0 DUP2 PUSH1 0x60 ADD MLOAD GT PUSH2 0xA57 JUMPI PUSH1 0x40 MLOAD PUSH32 0x8C379A000000000000000000000000000000000000000000000000000000000 DUP2 MSTORE PUSH1 0x4 ADD PUSH2 0xA4E SWAP1 PUSH2 0x3749 JUMP JUMPDEST PUSH1 0x40 MLOAD DUP1 SWAP2 SUB SWAP1 REVERT JUMPDEST CALLER PUSH20 0xFFFFFFFFFFFFFFFFFFFFFFFFFFFFFFFFFFFFFFFF AND DUP2 PUSH1 0x40 ADD MLOAD PUSH20 0xFFFFFFFFFFFFFFFFFFFFFFFFFFFFFFFFFFFFFFFF AND EQ PUSH2 0xAC9 JUMPI PUSH1 0x40 MLOAD PUSH32 0x8C379A000000000000000000000000000000000000000000000000000000000 DUP2 MSTORE PUSH1 0x4 ADD PUSH2 0xAC0 SWAP1 PUSH2 0x3969 JUMP JUMPDEST PUSH1 0x40 MLOAD DUP1 SWAP2 SUB SWAP1 REVERT JUMPDEST PUSH2 0xAD4 ADDRESS CALLER DUP5 PUSH2 0x20A9 JUMP JUMPDEST PUSH2 0xADD DUP3 PUSH2 0x2305 JUMP JUMPDEST PUSH32 0x705332A8918666802FC1504F63FF1F002A5F6CEDD30D59AD7AE0B5281AEB8DCA DUP3 ADDRESS CALLER PUSH1 0x0 PUSH1 0x40 MLOAD PUSH2 0xB13 SWAP5 SWAP4 SWAP3 SWAP2 SWAP1 PUSH2 0x3A1F JUMP JUMPDEST PUSH1 0x40 MLOAD DUP1 SWAP2 SUB SWAP1 LOG1 POP POP JUMP JUMPDEST PUSH2 0xB3A DUP4 DUP4 DUP4 PUSH1 0x40 MLOAD DUP1 PUSH1 0x20 ADD PUSH1 0x40 MSTORE DUP1 PUSH1 0x0 DUP2 MSTORE POP PUSH2 0x185A JUMP JUMPDEST POP POP POP JUMP JUMPDEST PUSH1 0x0 PUSH2 0xB4B PUSH1 0x7 PUSH2 0x241B JUMP JUMPDEST PUSH1 0x0 PUSH2 0xB57 PUSH1 0x7 PUSH2 0x2431 JUMP JUMPDEST SWAP1 POP PUSH2 0xB63 CALLER DUP3 PUSH2 0x243F JUMP JUMPDEST PUSH2 0xB6D DUP2 DUP5 PUSH2 0x245D JUMP JUMPDEST DUP1 SWAP2 POP POP SWAP2 SWAP1 POP JUMP JUMPDEST PUSH1 0xA SLOAD CALLVALUE EQ PUSH2 0xBBA JUMPI PUSH1 0x40 MLOAD PUSH32 0x8C379A000000000000000000000000000000000000000000000000000000000 DUP2 MSTORE PUSH1 0x4 ADD PUSH2 0xBB1 SWAP1 PUSH2 0x3929 JUMP JUMPDEST PUSH1 0x40 MLOAD DUP1 SWAP2 SUB SWAP1 REVERT JUMPDEST PUSH1 0x0 DUP2 GT PUSH2 0xBFD JUMPI PUSH1 0x40 MLOAD PUSH32 0x8C379A000000000000000000000000000000000000000000000000000000000 DUP2 MSTORE PUSH1 0x4 ADD PUSH2 0xBF4 SWAP1 PUSH2 0x39C9 JUMP JUMPDEST PUSH1 0x40 MLOAD DUP1 SWAP2 SUB SWAP1 REVERT JUMPDEST PUSH2 0xC06 DUP3 PUSH2 0x11D0 JUMP JUMPDEST PUSH20 0xFFFFFFFFFFFFFFFFFFFFFFFFFFFFFFFFFFFFFFFF AND CALLER PUSH20 0xFFFFFFFFFFFFFFFFFFFFFFFFFFFFFFFFFFFFFFFF AND EQ PUSH2 0xC73 JUMPI PUSH1 0x40 MLOAD PUSH32 0x8C379A000000000000000000000000000000000000000000000000000000000 DUP2 MSTORE PUSH1 0x4 ADD PUSH2 0xC6A SWAP1 PUSH2 0x3989 JUMP JUMPDEST PUSH1 0x40 MLOAD DUP1 SWAP2 SUB SWAP1 REVERT JUMPDEST PUSH1 0x40 MLOAD DUP1 PUSH1 0xA0 ADD PUSH1 0x40 MSTORE DUP1 DUP4 DUP2 MSTORE PUSH1 0x20 ADD ADDRESS PUSH20 0xFFFFFFFFFFFFFFFFFFFFFFFFFFFFFFFFFFFFFFFF AND DUP2 MSTORE PUSH1 0x20 ADD CALLER PUSH20 0xFFFFFFFFFFFFFFFFFFFFFFFFFFFFFFFFFFFFFFFF AND DUP2 MSTORE PUSH1 0x20 ADD DUP3 DUP2 MSTORE PUSH1 0x20 ADD PUSH1 0x1 ISZERO ISZERO DUP2 MSTORE POP PUSH1 0xB PUSH1 0x0 DUP5 DUP2 MSTORE PUSH1 0x20 ADD SWAP1 DUP2 MSTORE PUSH1 0x20 ADD PUSH1 0x0 KECCAK256 PUSH1 0x0 DUP3 ADD MLOAD DUP2 PUSH1 0x0 ADD SSTORE PUSH1 0x20 DUP3 ADD MLOAD DUP2 PUSH1 0x1 ADD PUSH1 0x0 PUSH2 0x100 EXP DUP2 SLOAD DUP2 PUSH20 0xFFFFFFFFFFFFFFFFFFFFFFFFFFFFFFFFFFFFFFFF MUL NOT AND SWAP1 DUP4 PUSH20 0xFFFFFFFFFFFFFFFFFFFFFFFFFFFFFFFFFFFFFFFF AND MUL OR SWAP1 SSTORE POP PUSH1 0x40 DUP3 ADD MLOAD DUP2 PUSH1 0x2 ADD PUSH1 0x0 PUSH2 0x100 EXP DUP2 SLOAD DUP2 PUSH20 0xFFFFFFFFFFFFFFFFFFFFFFFFFFFFFFFFFFFFFFFF MUL NOT AND SWAP1 DUP4 PUSH20 0xFFFFFFFFFFFFFFFFFFFFFFFFFFFFFFFFFFFFFFFF AND MUL OR SWAP1 SSTORE POP PUSH1 0x60 DUP3 ADD MLOAD DUP2 PUSH1 0x3 ADD SSTORE PUSH1 0x80 DUP3 ADD MLOAD DUP2 PUSH1 0x4 ADD PUSH1 0x0 PUSH2 0x100 EXP DUP2 SLOAD DUP2 PUSH1 0xFF MUL NOT AND SWAP1 DUP4 ISZERO ISZERO MUL OR SWAP1 SSTORE POP SWAP1 POP POP PUSH2 0xDAC CALLER ADDRESS DUP5 PUSH2 0x20A9 JUMP JUMPDEST DUP2 PUSH32 0x9339409317FD01FABFF48B703019016F49159BACC801AE872D2CA637D226E4C0 ADDRESS CALLER DUP5 PUSH1 0x1 PUSH1 0x40 MLOAD PUSH2 0xDE3 SWAP5 SWAP4 SWAP3 SWAP2 SWAP1 PUSH2 0x3619 JUMP JUMPDEST PUSH1 0x40 MLOAD DUP1 SWAP2 SUB SWAP1 LOG2 POP POP JUMP JUMPDEST PUSH1 0x60 PUSH1 0x0 PUSH2 0xDFD PUSH1 0x7 PUSH2 0x2431 JUMP JUMPDEST SWAP1 POP PUSH1 0x0 DUP1 PUSH1 0x0 DUP1 PUSH1 0x0 SWAP1 POP JUMPDEST DUP5 DUP2 LT ISZERO PUSH2 0xF23 JUMPI CALLER PUSH20 0xFFFFFFFFFFFFFFFFFFFFFFFFFFFFFFFFFFFFFFFF AND PUSH1 0xB PUSH1 0x0 PUSH1 0x1 DUP5 PUSH2 0xE3A SWAP2 SWAP1 PUSH2 0x3B7A JUMP JUMPDEST DUP2 MSTORE PUSH1 0x20 ADD SWAP1 DUP2 MSTORE PUSH1 0x20 ADD PUSH1 0x0 KECCAK256 PUSH1 0x1 ADD PUSH1 0x0 SWAP1 SLOAD SWAP1 PUSH2 0x100 EXP SWAP1 DIV PUSH20 0xFFFFFFFFFFFFFFFFFFFFFFFFFFFFFFFFFFFFFFFF AND PUSH20 0xFFFFFFFFFFFFFFFFFFFFFFFFFFFFFFFFFFFFFFFF AND EQ DUP1 PUSH2 0xEFB JUMPI POP CALLER PUSH20 0xFFFFFFFFFFFFFFFFFFFFFFFFFFFFFFFFFFFFFFFF AND PUSH1 0xB PUSH1 0x0 PUSH1 0x1 DUP5 PUSH2 0xEB1 SWAP2 SWAP1 PUSH2 0x3B7A JUMP JUMPDEST DUP2 MSTORE PUSH1 0x20 ADD SWAP1 DUP2 MSTORE PUSH1 0x20 ADD PUSH1 0x0 KECCAK256 PUSH1 0x2 ADD PUSH1 0x0 SWAP1 SLOAD SWAP1 PUSH2 0x100 EXP SWAP1 DIV PUSH20 0xFFFFFFFFFFFFFFFFFFFFFFFFFFFFFFFFFFFFFFFF AND PUSH20 0xFFFFFFFFFFFFFFFFFFFFFFFFFFFFFFFFFFFFFFFF AND EQ JUMPDEST ISZERO PUSH2 0xF10 JUMPI PUSH1 0x1 DUP5 PUSH2 0xF0D SWAP2 SWAP1 PUSH2 0x3B7A JUMP JUMPDEST SWAP4 POP JUMPDEST DUP1 DUP1 PUSH2 0xF1B SWAP1 PUSH2 0x3D60 JUMP JUMPDEST SWAP2 POP POP PUSH2 0xE0A JUMP JUMPDEST POP PUSH1 0x0 DUP4 PUSH8 0xFFFFFFFFFFFFFFFF DUP2 GT ISZERO PUSH2 0xF40 JUMPI PUSH2 0xF3F PUSH2 0x3E96 JUMP JUMPDEST JUMPDEST PUSH1 0x40 MLOAD SWAP1 DUP1 DUP3 MSTORE DUP1 PUSH1 0x20 MUL PUSH1 0x20 ADD DUP3 ADD PUSH1 0x40 MSTORE DUP1 ISZERO PUSH2 0xF79 JUMPI DUP2 PUSH1 0x20 ADD JUMPDEST PUSH2 0xF66 PUSH2 0x2B24 JUMP JUMPDEST DUP2 MSTORE PUSH1 0x20 ADD SWAP1 PUSH1 0x1 SWAP1 SUB SWAP1 DUP2 PUSH2 0xF5E JUMPI SWAP1 POP JUMPDEST POP SWAP1 POP PUSH1 0x0 JUMPDEST DUP6 DUP2 LT ISZERO PUSH2 0x11C4 JUMPI CALLER PUSH20 0xFFFFFFFFFFFFFFFFFFFFFFFFFFFFFFFFFFFFFFFF AND PUSH1 0xB PUSH1 0x0 PUSH1 0x1 DUP5 PUSH2 0xFAF SWAP2 SWAP1 PUSH2 0x3B7A JUMP JUMPDEST DUP2 MSTORE PUSH1 0x20 ADD SWAP1 DUP2 MSTORE PUSH1 0x20 ADD PUSH1 0x0 KECCAK256 PUSH1 0x1 ADD PUSH1 0x0 SWAP1 SLOAD SWAP1 PUSH2 0x100 EXP SWAP1 DIV PUSH20 0xFFFFFFFFFFFFFFFFFFFFFFFFFFFFFFFFFFFFFFFF AND PUSH20 0xFFFFFFFFFFFFFFFFFFFFFFFFFFFFFFFFFFFFFFFF AND EQ DUP1 PUSH2 0x1070 JUMPI POP CALLER PUSH20 0xFFFFFFFFFFFFFFFFFFFFFFFFFFFFFFFFFFFFFFFF AND PUSH1 0xB PUSH1 0x0 PUSH1 0x1 DUP5 PUSH2 0x1026 SWAP2 SWAP1 PUSH2 0x3B7A JUMP JUMPDEST DUP2 MSTORE PUSH1 0x20 ADD SWAP1 DUP2 MSTORE PUSH1 0x20 ADD PUSH1 0x0 KECCAK256 PUSH1 0x2 ADD PUSH1 0x0 SWAP1 SLOAD SWAP1 PUSH2 0x100 EXP SWAP1 DIV PUSH20 0xFFFFFFFFFFFFFFFFFFFFFFFFFFFFFFFFFFFFFFFF AND PUSH20 0xFFFFFFFFFFFFFFFFFFFFFFFFFFFFFFFFFFFFFFFF AND EQ JUMPDEST ISZERO PUSH2 0x11B1 JUMPI PUSH1 0x1 DUP2 PUSH2 0x1082 SWAP2 SWAP1 PUSH2 0x3B7A JUMP JUMPDEST SWAP3 POP PUSH1 0x0 PUSH1 0xB PUSH1 0x0 DUP6 DUP2 MSTORE PUSH1 0x20 ADD SWAP1 DUP2 MSTORE PUSH1 0x20 ADD PUSH1 0x0 KECCAK256 SWAP1 POP DUP1 PUSH1 0x40 MLOAD DUP1 PUSH1 0xA0 ADD PUSH1 0x40 MSTORE SWAP1 DUP2 PUSH1 0x0 DUP3 ADD SLOAD DUP2 MSTORE PUSH1 0x20 ADD PUSH1 0x1 DUP3 ADD PUSH1 0x0 SWAP1 SLOAD SWAP1 PUSH2 0x100 EXP SWAP1 DIV PUSH20 0xFFFFFFFFFFFFFFFFFFFFFFFFFFFFFFFFFFFFFFFF AND PUSH20 0xFFFFFFFFFFFFFFFFFFFFFFFFFFFFFFFFFFFFFFFF AND PUSH20 0xFFFFFFFFFFFFFFFFFFFFFFFFFFFFFFFFFFFFFFFF AND DUP2 MSTORE PUSH1 0x20 ADD PUSH1 0x2 DUP3 ADD PUSH1 0x0 SWAP1 SLOAD SWAP1 PUSH2 0x100 EXP SWAP1 DIV PUSH20 0xFFFFFFFFFFFFFFFFFFFFFFFFFFFFFFFFFFFFFFFF AND PUSH20 0xFFFFFFFFFFFFFFFFFFFFFFFFFFFFFFFFFFFFFFFF AND PUSH20 0xFFFFFFFFFFFFFFFFFFFFFFFFFFFFFFFFFFFFFFFF AND DUP2 MSTORE PUSH1 0x20 ADD PUSH1 0x3 DUP3 ADD SLOAD DUP2 MSTORE PUSH1 0x20 ADD PUSH1 0x4 DUP3 ADD PUSH1 0x0 SWAP1 SLOAD SWAP1 PUSH2 0x100 EXP SWAP1 DIV PUSH1 0xFF AND ISZERO ISZERO ISZERO ISZERO DUP2 MSTORE POP POP DUP4 DUP7 DUP2 MLOAD DUP2 LT PUSH2 0x1195 JUMPI PUSH2 0x1194 PUSH2 0x3E67 JUMP JUMPDEST JUMPDEST PUSH1 0x20 MUL PUSH1 0x20 ADD ADD DUP2 SWAP1 MSTORE POP PUSH1 0x1 DUP6 PUSH2 0x11AD SWAP2 SWAP1 PUSH2 0x3B7A JUMP JUMPDEST SWAP5 POP POP JUMPDEST DUP1 DUP1 PUSH2 0x11BC SWAP1 PUSH2 0x3D60 JUMP JUMPDEST SWAP2 POP POP PUSH2 0xF7F JUMP JUMPDEST POP DUP1 SWAP6 POP POP POP POP POP POP SWAP1 JUMP JUMPDEST PUSH1 0x0 DUP1 PUSH1 0x2 PUSH1 0x0 DUP5 DUP2 MSTORE PUSH1 0x20 ADD SWAP1 DUP2 MSTORE PUSH1 0x20 ADD PUSH1 0x0 KECCAK256 PUSH1 0x0 SWAP1 SLOAD SWAP1 PUSH2 0x100 EXP SWAP1 DIV PUSH20 0xFFFFFFFFFFFFFFFFFFFFFFFFFFFFFFFFFFFFFFFF AND SWAP1 POP PUSH1 0x0 PUSH20 0xFFFFFFFFFFFFFFFFFFFFFFFFFFFFFFFFFFFFFFFF AND DUP2 PUSH20 0xFFFFFFFFFFFFFFFFFFFFFFFFFFFFFFFFFFFFFFFF AND EQ ISZERO PUSH2 0x1279 JUMPI PUSH1 0x40 MLOAD PUSH32 0x8C379A000000000000000000000000000000000000000000000000000000000 DUP2 MSTORE PUSH1 0x4 ADD PUSH2 0x1270 SWAP1 PUSH2 0x3829 JUMP JUMPDEST PUSH1 0x40 MLOAD DUP1 SWAP2 SUB SWAP1 REVERT JUMPDEST DUP1 SWAP2 POP POP SWAP2 SWAP1 POP JUMP JUMPDEST PUSH1 0x0 PUSH1 0xA SLOAD SWAP1 POP SWAP1 JUMP JUMPDEST PUSH1 0x0 DUP1 PUSH20 0xFFFFFFFFFFFFFFFFFFFFFFFFFFFFFFFFFFFFFFFF AND DUP3 PUSH20 0xFFFFFFFFFFFFFFFFFFFFFFFFFFFFFFFFFFFFFFFF AND EQ ISZERO PUSH2 0x12FD JUMPI PUSH1 0x40 MLOAD PUSH32 0x8C379A000000000000000000000000000000000000000000000000000000000 DUP2 MSTORE PUSH1 0x4 ADD PUSH2 0x12F4 SWAP1 PUSH2 0x3809 JUMP JUMPDEST PUSH1 0x40 MLOAD DUP1 SWAP2 SUB SWAP1 REVERT JUMPDEST PUSH1 0x3 PUSH1 0x0 DUP4 PUSH20 0xFFFFFFFFFFFFFFFFFFFFFFFFFFFFFFFFFFFFFFFF AND PUSH20 0xFFFFFFFFFFFFFFFFFFFFFFFFFFFFFFFFFFFFFFFF AND DUP2 MSTORE PUSH1 0x20 ADD SWAP1 DUP2 MSTORE PUSH1 0x20 ADD PUSH1 0x0 KECCAK256 SLOAD SWAP1 POP SWAP2 SWAP1 POP JUMP JUMPDEST PUSH2 0x134C PUSH2 0x2B24 JUMP JUMPDEST PUSH1 0xB PUSH1 0x0 DUP4 DUP2 MSTORE PUSH1 0x20 ADD SWAP1 DUP2 MSTORE PUSH1 0x20 ADD PUSH1 0x0 KECCAK256 PUSH1 0x40 MLOAD DUP1 PUSH1 0xA0 ADD PUSH1 0x40 MSTORE SWAP1 DUP2 PUSH1 0x0 DUP3 ADD SLOAD DUP2 MSTORE PUSH1 0x20 ADD PUSH1 0x1 DUP3 ADD PUSH1 0x0 SWAP1 SLOAD SWAP1 PUSH2 0x100 EXP SWAP1 DIV PUSH20 0xFFFFFFFFFFFFFFFFFFFFFFFFFFFFFFFFFFFFFFFF AND PUSH20 0xFFFFFFFFFFFFFFFFFFFFFFFFFFFFFFFFFFFFFFFF AND PUSH20 0xFFFFFFFFFFFFFFFFFFFFFFFFFFFFFFFFFFFFFFFF AND DUP2 MSTORE PUSH1 0x20 ADD PUSH1 0x2 DUP3 ADD PUSH1 0x0 SWAP1 SLOAD SWAP1 PUSH2 0x100 EXP SWAP1 DIV PUSH20 0xFFFFFFFFFFFFFFFFFFFFFFFFFFFFFFFFFFFFFFFF AND PUSH20 0xFFFFFFFFFFFFFFFFFFFFFFFFFFFFFFFFFFFFFFFF AND PUSH20 0xFFFFFFFFFFFFFFFFFFFFFFFFFFFFFFFFFFFFFFFF AND DUP2 MSTORE PUSH1 0x20 ADD PUSH1 0x3 DUP3 ADD SLOAD DUP2 MSTORE PUSH1 0x20 ADD PUSH1 0x4 DUP3 ADD PUSH1 0x0 SWAP1 SLOAD SWAP1 PUSH2 0x100 EXP SWAP1 DIV PUSH1 0xFF AND ISZERO ISZERO ISZERO ISZERO DUP2 MSTORE POP POP SWAP1 POP SWAP2 SWAP1 POP JUMP JUMPDEST PUSH1 0x60 PUSH1 0x1 DUP1 SLOAD PUSH2 0x145B SWAP1 PUSH2 0x3CFD JUMP JUMPDEST DUP1 PUSH1 0x1F ADD PUSH1 0x20 DUP1 SWAP2 DIV MUL PUSH1 0x20 ADD PUSH1 0x40 MLOAD SWAP1 DUP2 ADD PUSH1 0x40 MSTORE DUP1 SWAP3 SWAP2 SWAP1 DUP2 DUP2 MSTORE PUSH1 0x20 ADD DUP3 DUP1 SLOAD PUSH2 0x1487 SWAP1 PUSH2 0x3CFD JUMP JUMPDEST DUP1 ISZERO PUSH2 0x14D4 JUMPI DUP1 PUSH1 0x1F LT PUSH2 0x14A9 JUMPI PUSH2 0x100 DUP1 DUP4 SLOAD DIV MUL DUP4 MSTORE SWAP2 PUSH1 0x20 ADD SWAP2 PUSH2 0x14D4 JUMP JUMPDEST DUP3 ADD SWAP2 SWAP1 PUSH1 0x0 MSTORE PUSH1 0x20 PUSH1 0x0 KECCAK256 SWAP1 JUMPDEST DUP2 SLOAD DUP2 MSTORE SWAP1 PUSH1 0x1 ADD SWAP1 PUSH1 0x20 ADD DUP1 DUP4 GT PUSH2 0x14B7 JUMPI DUP3 SWAP1 SUB PUSH1 0x1F AND DUP3 ADD SWAP2 JUMPDEST POP POP POP POP POP SWAP1 POP SWAP1 JUMP JUMPDEST PUSH1 0x0 PUSH1 0xB PUSH1 0x0 DUP4 DUP2 MSTORE PUSH1 0x20 ADD SWAP1 DUP2 MSTORE PUSH1 0x20 ADD PUSH1 0x0 KECCAK256 PUSH1 0x3 ADD SLOAD SWAP1 POP PUSH1 0x0 PUSH1 0xB PUSH1 0x0 DUP5 DUP2 MSTORE PUSH1 0x20 ADD SWAP1 DUP2 MSTORE PUSH1 0x20 ADD PUSH1 0x0 KECCAK256 PUSH1 0x2 ADD PUSH1 0x0 SWAP1 SLOAD SWAP1 PUSH2 0x100 EXP SWAP1 DIV PUSH20 0xFFFFFFFFFFFFFFFFFFFFFFFFFFFFFFFFFFFFFFFF AND SWAP1 POP DUP2 CALLVALUE EQ PUSH2 0x1576 JUMPI PUSH1 0x40 MLOAD PUSH32 0x8C379A000000000000000000000000000000000000000000000000000000000 DUP2 MSTORE PUSH1 0x4 ADD PUSH2 0x156D SWAP1 PUSH2 0x3869 JUMP JUMPDEST PUSH1 0x40 MLOAD DUP1 SWAP2 SUB SWAP1 REVERT JUMPDEST PUSH1 0x1 PUSH1 0xB PUSH1 0x0 DUP6 DUP2 MSTORE PUSH1 0x20 ADD SWAP1 DUP2 MSTORE PUSH1 0x20 ADD PUSH1 0x0 KECCAK256 PUSH1 0x4 ADD PUSH1 0x0 PUSH2 0x100 EXP DUP2 SLOAD DUP2 PUSH1 0xFF MUL NOT AND SWAP1 DUP4 ISZERO ISZERO MUL OR SWAP1 SSTORE POP CALLER PUSH1 0xB PUSH1 0x0 DUP6 DUP2 MSTORE PUSH1 0x20 ADD SWAP1 DUP2 MSTORE PUSH1 0x20 ADD PUSH1 0x0 KECCAK256 PUSH1 0x2 ADD PUSH1 0x0 PUSH2 0x100 EXP DUP2 SLOAD DUP2 PUSH20 0xFFFFFFFFFFFFFFFFFFFFFFFFFFFFFFFFFFFFFFFF MUL NOT AND SWAP1 DUP4 PUSH20 0xFFFFFFFFFFFFFFFFFFFFFFFFFFFFFFFFFFFFFFFF AND MUL OR SWAP1 SSTORE POP PUSH2 0x1604 PUSH1 0x8 PUSH2 0x241B JUMP JUMPDEST PUSH2 0x160D DUP4 PUSH2 0x2305 JUMP JUMPDEST PUSH2 0x1618 ADDRESS CALLER DUP6 PUSH2 0x20A9 JUMP JUMPDEST PUSH2 0x1622 ADDRESS DUP5 PUSH2 0x79B JUMP JUMPDEST PUSH1 0x9 PUSH1 0x0 SWAP1 SLOAD SWAP1 PUSH2 0x100 EXP SWAP1 DIV PUSH20 0xFFFFFFFFFFFFFFFFFFFFFFFFFFFFFFFFFFFFFFFF AND PUSH20 0xFFFFFFFFFFFFFFFFFFFFFFFFFFFFFFFFFFFFFFFF AND PUSH2 0x8FC PUSH1 0xA SLOAD SWAP1 DUP2 ISZERO MUL SWAP1 PUSH1 0x40 MLOAD PUSH1 0x0 PUSH1 0x40 MLOAD DUP1 DUP4 SUB DUP2 DUP6 DUP9 DUP9 CALL SWAP4 POP POP POP POP ISZERO DUP1 ISZERO PUSH2 0x168C JUMPI RETURNDATASIZE PUSH1 0x0 DUP1 RETURNDATACOPY RETURNDATASIZE PUSH1 0x0 REVERT JUMPDEST POP DUP1 PUSH20 0xFFFFFFFFFFFFFFFFFFFFFFFFFFFFFFFFFFFFFFFF AND PUSH2 0x8FC CALLVALUE SWAP1 DUP2 ISZERO MUL SWAP1 PUSH1 0x40 MLOAD PUSH1 0x0 PUSH1 0x40 MLOAD DUP1 DUP4 SUB DUP2 DUP6 DUP9 DUP9 CALL SWAP4 POP POP POP POP ISZERO DUP1 ISZERO PUSH2 0x16D3 JUMPI RETURNDATASIZE PUSH1 0x0 DUP1 RETURNDATACOPY RETURNDATASIZE PUSH1 0x0 REVERT JUMPDEST POP POP POP POP JUMP JUMPDEST PUSH2 0x16E1 PUSH2 0x1F0A JUMP JUMPDEST PUSH20 0xFFFFFFFFFFFFFFFFFFFFFFFFFFFFFFFFFFFFFFFF AND DUP3 PUSH20 0xFFFFFFFFFFFFFFFFFFFFFFFFFFFFFFFFFFFFFFFF AND EQ ISZERO PUSH2 0x174F JUMPI PUSH1 0x40 MLOAD PUSH32 0x8C379A000000000000000000000000000000000000000000000000000000000 DUP2 MSTORE PUSH1 0x4 ADD PUSH2 0x1746 SWAP1 PUSH2 0x3789 JUMP JUMPDEST PUSH1 0x40 MLOAD DUP1 SWAP2 SUB SWAP1 REVERT JUMPDEST DUP1 PUSH1 0x5 PUSH1 0x0 PUSH2 0x175C PUSH2 0x1F0A JUMP JUMPDEST PUSH20 0xFFFFFFFFFFFFFFFFFFFFFFFFFFFFFFFFFFFFFFFF AND PUSH20 0xFFFFFFFFFFFFFFFFFFFFFFFFFFFFFFFFFFFFFFFF AND DUP2 MSTORE PUSH1 0x20 ADD SWAP1 DUP2 MSTORE PUSH1 0x20 ADD PUSH1 0x0 KECCAK256 PUSH1 0x0 DUP5 PUSH20 0xFFFFFFFFFFFFFFFFFFFFFFFFFFFFFFFFFFFFFFFF AND PUSH20 0xFFFFFFFFFFFFFFFFFFFFFFFFFFFFFFFFFFFFFFFF AND DUP2 MSTORE PUSH1 0x20 ADD SWAP1 DUP2 MSTORE PUSH1 0x20 ADD PUSH1 0x0 KECCAK256 PUSH1 0x0 PUSH2 0x100 EXP DUP2 SLOAD DUP2 PUSH1 0xFF MUL NOT AND SWAP1 DUP4 ISZERO ISZERO MUL OR SWAP1 SSTORE POP DUP2 PUSH20 0xFFFFFFFFFFFFFFFFFFFFFFFFFFFFFFFFFFFFFFFF AND PUSH2 0x1809 PUSH2 0x1F0A JUMP JUMPDEST PUSH20 0xFFFFFFFFFFFFFFFFFFFFFFFFFFFFFFFFFFFFFFFF AND PUSH32 0x17307EAB39AB6107E8899845AD3D59BD9653F200F220920489CA2B5937696C31 DUP4 PUSH1 0x40 MLOAD PUSH2 0x184E SWAP2 SWAP1 PUSH2 0x36CC JUMP JUMPDEST PUSH1 0x40 MLOAD DUP1 SWAP2 SUB SWAP1 LOG3 POP POP JUMP JUMPDEST PUSH2 0x186B PUSH2 0x1865 PUSH2 0x1F0A JUMP JUMPDEST DUP4 PUSH2 0x1FCB JUMP JUMPDEST PUSH2 0x18AA JUMPI PUSH1 0x40 MLOAD PUSH32 0x8C379A000000000000000000000000000000000000000000000000000000000 DUP2 MSTORE PUSH1 0x4 ADD PUSH2 0x18A1 SWAP1 PUSH2 0x39A9 JUMP JUMPDEST PUSH1 0x40 MLOAD DUP1 SWAP2 SUB SWAP1 REVERT JUMPDEST PUSH2 0x18B6 DUP5 DUP5 DUP5 DUP5 PUSH2 0x24D1 JUMP JUMPDEST POP POP POP POP JUMP JUMPDEST CALLER PUSH20 0xFFFFFFFFFFFFFFFFFFFFFFFFFFFFFFFFFFFFFFFF AND PUSH1 0x9 PUSH1 0x0 SWAP1 SLOAD SWAP1 PUSH2 0x100 EXP SWAP1 DIV PUSH20 0xFFFFFFFFFFFFFFFFFFFFFFFFFFFFFFFFFFFFFFFF AND PUSH20 0xFFFFFFFFFFFFFFFFFFFFFFFFFFFFFFFFFFFFFFFF AND EQ PUSH2 0x194C JUMPI PUSH1 0x40 MLOAD PUSH32 0x8C379A000000000000000000000000000000000000000000000000000000000 DUP2 MSTORE PUSH1 0x4 ADD PUSH2 0x1943 SWAP1 PUSH2 0x37C9 JUMP JUMPDEST PUSH1 0x40 MLOAD DUP1 SWAP2 SUB SWAP1 REVERT JUMPDEST DUP1 PUSH1 0xA DUP2 SWAP1 SSTORE POP POP JUMP JUMPDEST PUSH1 0x60 PUSH2 0x1961 DUP3 PUSH2 0x1E9E JUMP JUMPDEST PUSH2 0x19A0 JUMPI PUSH1 0x40 MLOAD PUSH32 0x8C379A000000000000000000000000000000000000000000000000000000000 DUP2 MSTORE PUSH1 0x4 ADD PUSH2 0x1997 SWAP1 PUSH2 0x38A9 JUMP JUMPDEST PUSH1 0x40 MLOAD DUP1 SWAP2 SUB SWAP1 REVERT JUMPDEST PUSH1 0x0 PUSH1 0x6 PUSH1 0x0 DUP5 DUP2 MSTORE PUSH1 0x20 ADD SWAP1 DUP2 MSTORE PUSH1 0x20 ADD PUSH1 0x0 KECCAK256 DUP1 SLOAD PUSH2 0x19C0 SWAP1 PUSH2 0x3CFD JUMP JUMPDEST DUP1 PUSH1 0x1F ADD PUSH1 0x20 DUP1 SWAP2 DIV MUL PUSH1 0x20 ADD PUSH1 0x40 MLOAD SWAP1 DUP2 ADD PUSH1 0x40 MSTORE DUP1 SWAP3 SWAP2 SWAP1 DUP2 DUP2 MSTORE PUSH1 0x20 ADD DUP3 DUP1 SLOAD PUSH2 0x19EC SWAP1 PUSH2 0x3CFD JUMP JUMPDEST DUP1 ISZERO PUSH2 0x1A39 JUMPI DUP1 PUSH1 0x1F LT PUSH2 0x1A0E JUMPI PUSH2 0x100 DUP1 DUP4 SLOAD DIV MUL DUP4 MSTORE SWAP2 PUSH1 0x20 ADD SWAP2 PUSH2 0x1A39 JUMP JUMPDEST DUP3 ADD SWAP2 SWAP1 PUSH1 0x0 MSTORE PUSH1 0x20 PUSH1 0x0 KECCAK256 SWAP1 JUMPDEST DUP2 SLOAD DUP2 MSTORE SWAP1 PUSH1 0x1 ADD SWAP1 PUSH1 0x20 ADD DUP1 DUP4 GT PUSH2 0x1A1C JUMPI DUP3 SWAP1 SUB PUSH1 0x1F AND DUP3 ADD SWAP2 JUMPDEST POP POP POP POP POP SWAP1 POP PUSH1 0x0 PUSH2 0x1A4A PUSH2 0x252D JUMP JUMPDEST SWAP1 POP PUSH1 0x0 DUP2 MLOAD EQ ISZERO PUSH2 0x1A60 JUMPI DUP2 SWAP3 POP POP POP PUSH2 0x1AA3 JUMP JUMPDEST PUSH1 0x0 DUP3 MLOAD GT ISZERO PUSH2 0x1A95 JUMPI DUP1 DUP3 PUSH1 0x40 MLOAD PUSH1 0x20 ADD PUSH2 0x1A7D SWAP3 SWAP2 SWAP1 PUSH2 0x35DA JUMP JUMPDEST PUSH1 0x40 MLOAD PUSH1 0x20 DUP2 DUP4 SUB SUB DUP2 MSTORE SWAP1 PUSH1 0x40 MSTORE SWAP3 POP POP POP PUSH2 0x1AA3 JUMP JUMPDEST PUSH2 0x1A9E DUP5 PUSH2 0x2544 JUMP JUMPDEST SWAP3 POP POP POP JUMPDEST SWAP2 SWAP1 POP JUMP JUMPDEST PUSH2 0x1AB0 PUSH2 0x2B24 JUMP JUMPDEST PUSH1 0x0 PUSH2 0x1ABC PUSH1 0x7 PUSH2 0x2431 JUMP JUMPDEST SWAP1 POP PUSH1 0xB PUSH1 0x0 DUP3 DUP2 MSTORE PUSH1 0x20 ADD SWAP1 DUP2 MSTORE PUSH1 0x20 ADD PUSH1 0x0 KECCAK256 PUSH1 0x40 MLOAD DUP1 PUSH1 0xA0 ADD PUSH1 0x40 MSTORE SWAP1 DUP2 PUSH1 0x0 DUP3 ADD SLOAD DUP2 MSTORE PUSH1 0x20 ADD PUSH1 0x1 DUP3 ADD PUSH1 0x0 SWAP1 SLOAD SWAP1 PUSH2 0x100 EXP SWAP1 DIV PUSH20 0xFFFFFFFFFFFFFFFFFFFFFFFFFFFFFFFFFFFFFFFF AND PUSH20 0xFFFFFFFFFFFFFFFFFFFFFFFFFFFFFFFFFFFFFFFF AND PUSH20 0xFFFFFFFFFFFFFFFFFFFFFFFFFFFFFFFFFFFFFFFF AND DUP2 MSTORE PUSH1 0x20 ADD PUSH1 0x2 DUP3 ADD PUSH1 0x0 SWAP1 SLOAD SWAP1 PUSH2 0x100 EXP SWAP1 DIV PUSH20 0xFFFFFFFFFFFFFFFFFFFFFFFFFFFFFFFFFFFFFFFF AND PUSH20 0xFFFFFFFFFFFFFFFFFFFFFFFFFFFFFFFFFFFFFFFF AND PUSH20 0xFFFFFFFFFFFFFFFFFFFFFFFFFFFFFFFFFFFFFFFF AND DUP2 MSTORE PUSH1 0x20 ADD PUSH1 0x3 DUP3 ADD SLOAD DUP2 MSTORE PUSH1 0x20 ADD PUSH1 0x4 DUP3 ADD PUSH1 0x0 SWAP1 SLOAD SWAP1 PUSH2 0x100 EXP SWAP1 DIV PUSH1 0xFF AND ISZERO ISZERO ISZERO ISZERO DUP2 MSTORE POP POP SWAP2 POP POP SWAP1 JUMP JUMPDEST PUSH1 0x60 PUSH1 0x0 PUSH2 0x1BCB PUSH1 0x7 PUSH2 0x2431 JUMP JUMPDEST SWAP1 POP PUSH1 0x0 DUP2 PUSH8 0xFFFFFFFFFFFFFFFF DUP2 GT ISZERO PUSH2 0x1BE9 JUMPI PUSH2 0x1BE8 PUSH2 0x3E96 JUMP JUMPDEST JUMPDEST PUSH1 0x40 MLOAD SWAP1 DUP1 DUP3 MSTORE DUP1 PUSH1 0x20 MUL PUSH1 0x20 ADD DUP3 ADD PUSH1 0x40 MSTORE DUP1 ISZERO PUSH2 0x1C22 JUMPI DUP2 PUSH1 0x20 ADD JUMPDEST PUSH2 0x1C0F PUSH2 0x2B24 JUMP JUMPDEST DUP2 MSTORE PUSH1 0x20 ADD SWAP1 PUSH1 0x1 SWAP1 SUB SWAP1 DUP2 PUSH2 0x1C07 JUMPI SWAP1 POP JUMPDEST POP SWAP1 POP PUSH1 0x0 DUP1 DUP1 PUSH1 0x0 SWAP1 POP JUMPDEST DUP5 DUP2 LT ISZERO PUSH2 0x1D84 JUMPI PUSH1 0x1 DUP2 PUSH2 0x1C43 SWAP2 SWAP1 PUSH2 0x3B7A JUMP JUMPDEST SWAP2 POP PUSH1 0x0 PUSH1 0xB PUSH1 0x0 DUP5 DUP2 MSTORE PUSH1 0x20 ADD SWAP1 DUP2 MSTORE PUSH1 0x20 ADD PUSH1 0x0 KECCAK256 SWAP1 POP DUP1 PUSH1 0x40 MLOAD DUP1 PUSH1 0xA0 ADD PUSH1 0x40 MSTORE SWAP1 DUP2 PUSH1 0x0 DUP3 ADD SLOAD DUP2 MSTORE PUSH1 0x20 ADD PUSH1 0x1 DUP3 ADD PUSH1 0x0 SWAP1 SLOAD SWAP1 PUSH2 0x100 EXP SWAP1 DIV PUSH20 0xFFFFFFFFFFFFFFFFFFFFFFFFFFFFFFFFFFFFFFFF AND PUSH20 0xFFFFFFFFFFFFFFFFFFFFFFFFFFFFFFFFFFFFFFFF AND PUSH20 0xFFFFFFFFFFFFFFFFFFFFFFFFFFFFFFFFFFFFFFFF AND DUP2 MSTORE PUSH1 0x20 ADD PUSH1 0x2 DUP3 ADD PUSH1 0x0 SWAP1 SLOAD SWAP1 PUSH2 0x100 EXP SWAP1 DIV PUSH20 0xFFFFFFFFFFFFFFFFFFFFFFFFFFFFFFFFFFFFFFFF AND PUSH20 0xFFFFFFFFFFFFFFFFFFFFFFFFFFFFFFFFFFFFFFFF AND PUSH20 0xFFFFFFFFFFFFFFFFFFFFFFFFFFFFFFFFFFFFFFFF AND DUP2 MSTORE PUSH1 0x20 ADD PUSH1 0x3 DUP3 ADD SLOAD DUP2 MSTORE PUSH1 0x20 ADD PUSH1 0x4 DUP3 ADD PUSH1 0x0 SWAP1 SLOAD SWAP1 PUSH2 0x100 EXP SWAP1 DIV PUSH1 0xFF AND ISZERO ISZERO ISZERO ISZERO DUP2 MSTORE POP POP DUP6 DUP6 DUP2 MLOAD DUP2 LT PUSH2 0x1D56 JUMPI PUSH2 0x1D55 PUSH2 0x3E67 JUMP JUMPDEST JUMPDEST PUSH1 0x20 MUL PUSH1 0x20 ADD ADD DUP2 SWAP1 MSTORE POP PUSH1 0x1 DUP5 PUSH2 0x1D6E SWAP2 SWAP1 PUSH2 0x3B7A JUMP JUMPDEST SWAP4 POP POP DUP1 DUP1 PUSH2 0x1D7C SWAP1 PUSH2 0x3D60 JUMP JUMPDEST SWAP2 POP POP PUSH2 0x1C2E JUMP JUMPDEST POP DUP3 SWAP5 POP POP POP POP POP SWAP1 JUMP JUMPDEST PUSH1 0x0 PUSH1 0x5 PUSH1 0x0 DUP5 PUSH20 0xFFFFFFFFFFFFFFFFFFFFFFFFFFFFFFFFFFFFFFFF AND PUSH20 0xFFFFFFFFFFFFFFFFFFFFFFFFFFFFFFFFFFFFFFFF AND DUP2 MSTORE PUSH1 0x20 ADD SWAP1 DUP2 MSTORE PUSH1 0x20 ADD PUSH1 0x0 KECCAK256 PUSH1 0x0 DUP4 PUSH20 0xFFFFFFFFFFFFFFFFFFFFFFFFFFFFFFFFFFFFFFFF AND PUSH20 0xFFFFFFFFFFFFFFFFFFFFFFFFFFFFFFFFFFFFFFFF AND DUP2 MSTORE PUSH1 0x20 ADD SWAP1 DUP2 MSTORE PUSH1 0x20 ADD PUSH1 0x0 KECCAK256 PUSH1 0x0 SWAP1 SLOAD SWAP1 PUSH2 0x100 EXP SWAP1 DIV PUSH1 0xFF AND SWAP1 POP SWAP3 SWAP2 POP POP JUMP JUMPDEST PUSH1 0x0 PUSH2 0x1E2F PUSH1 0x7 PUSH2 0x2431 JUMP JUMPDEST SWAP1 POP SWAP1 JUMP JUMPDEST PUSH1 0x0 PUSH32 0x1FFC9A700000000000000000000000000000000000000000000000000000000 PUSH28 0xFFFFFFFFFFFFFFFFFFFFFFFFFFFFFFFFFFFFFFFFFFFFFFFFFFFFFFFF NOT AND DUP3 PUSH28 0xFFFFFFFFFFFFFFFFFFFFFFFFFFFFFFFFFFFFFFFFFFFFFFFFFFFFFFFF NOT AND EQ SWAP1 POP SWAP2 SWAP1 POP JUMP JUMPDEST PUSH1 0x0 DUP1 PUSH20 0xFFFFFFFFFFFFFFFFFFFFFFFFFFFFFFFFFFFFFFFF AND PUSH1 0x2 PUSH1 0x0 DUP5 DUP2 MSTORE PUSH1 0x20 ADD SWAP1 DUP2 MSTORE PUSH1 0x20 ADD PUSH1 0x0 KECCAK256 PUSH1 0x0 SWAP1 SLOAD SWAP1 PUSH2 0x100 EXP SWAP1 DIV PUSH20 0xFFFFFFFFFFFFFFFFFFFFFFFFFFFFFFFFFFFFFFFF AND PUSH20 0xFFFFFFFFFFFFFFFFFFFFFFFFFFFFFFFFFFFFFFFF AND EQ ISZERO SWAP1 POP SWAP2 SWAP1 POP JUMP JUMPDEST PUSH1 0x0 CALLER SWAP1 POP SWAP1 JUMP JUMPDEST DUP2 PUSH1 0x4 PUSH1 0x0 DUP4 DUP2 MSTORE PUSH1 0x20 ADD SWAP1 DUP2 MSTORE PUSH1 0x20 ADD PUSH1 0x0 KECCAK256 PUSH1 0x0 PUSH2 0x100 EXP DUP2 SLOAD DUP2 PUSH20 0xFFFFFFFFFFFFFFFFFFFFFFFFFFFFFFFFFFFFFFFF MUL NOT AND SWAP1 DUP4 PUSH20 0xFFFFFFFFFFFFFFFFFFFFFFFFFFFFFFFFFFFFFFFF AND MUL OR SWAP1 SSTORE POP DUP1 DUP3 PUSH20 0xFFFFFFFFFFFFFFFFFFFFFFFFFFFFFFFFFFFFFFFF AND PUSH2 0x1F85 DUP4 PUSH2 0x11D0 JUMP JUMPDEST PUSH20 0xFFFFFFFFFFFFFFFFFFFFFFFFFFFFFFFFFFFFFFFF AND PUSH32 0x8C5BE1E5EBEC7D5BD14F71427D1E84F3DD0314C0F7B2291E5B200AC8C7C3B925 PUSH1 0x40 MLOAD PUSH1 0x40 MLOAD DUP1 SWAP2 SUB SWAP1 LOG4 POP POP JUMP JUMPDEST PUSH1 0x0 PUSH2 0x1FD6 DUP3 PUSH2 0x1E9E JUMP JUMPDEST PUSH2 0x2015 JUMPI PUSH1 0x40 MLOAD PUSH32 0x8C379A000000000000000000000000000000000000000000000000000000000 DUP2 MSTORE PUSH1 0x4 ADD PUSH2 0x200C SWAP1 PUSH2 0x37A9 JUMP JUMPDEST PUSH1 0x40 MLOAD DUP1 SWAP2 SUB SWAP1 REVERT JUMPDEST PUSH1 0x0 PUSH2 0x2020 DUP4 PUSH2 0x11D0 JUMP JUMPDEST SWAP1 POP DUP1 PUSH20 0xFFFFFFFFFFFFFFFFFFFFFFFFFFFFFFFFFFFFFFFF AND DUP5 PUSH20 0xFFFFFFFFFFFFFFFFFFFFFFFFFFFFFFFFFFFFFFFF AND EQ DUP1 PUSH2 0x208F JUMPI POP DUP4 PUSH20 0xFFFFFFFFFFFFFFFFFFFFFFFFFFFFFFFFFFFFFFFF AND PUSH2 0x2077 DUP5 PUSH2 0x716 JUMP JUMPDEST PUSH20 0xFFFFFFFFFFFFFFFFFFFFFFFFFFFFFFFFFFFFFFFF AND EQ JUMPDEST DUP1 PUSH2 0x20A0 JUMPI POP PUSH2 0x209F DUP2 DUP6 PUSH2 0x1D8F JUMP JUMPDEST JUMPDEST SWAP2 POP POP SWAP3 SWAP2 POP POP JUMP JUMPDEST DUP3 PUSH20 0xFFFFFFFFFFFFFFFFFFFFFFFFFFFFFFFFFFFFFFFF AND PUSH2 0x20C9 DUP3 PUSH2 0x11D0 JUMP JUMPDEST PUSH20 0xFFFFFFFFFFFFFFFFFFFFFFFFFFFFFFFFFFFFFFFF AND EQ PUSH2 0x211F JUMPI PUSH1 0x40 MLOAD PUSH32 0x8C379A000000000000000000000000000000000000000000000000000000000 DUP2 MSTORE PUSH1 0x4 ADD PUSH2 0x2116 SWAP1 PUSH2 0x38E9 JUMP JUMPDEST PUSH1 0x40 MLOAD DUP1 SWAP2 SUB SWAP1 REVERT JUMPDEST PUSH1 0x0 PUSH20 0xFFFFFFFFFFFFFFFFFFFFFFFFFFFFFFFFFFFFFFFF AND DUP3 PUSH20 0xFFFFFFFFFFFFFFFFFFFFFFFFFFFFFFFFFFFFFFFF AND EQ ISZERO PUSH2 0x218F JUMPI PUSH1 0x40 MLOAD PUSH32 0x8C379A000000000000000000000000000000000000000000000000000000000 DUP2 MSTORE PUSH1 0x4 ADD PUSH2 0x2186 SWAP1 PUSH2 0x3769 JUMP JUMPDEST PUSH1 0x40 MLOAD DUP1 SWAP2 SUB SWAP1 REVERT JUMPDEST PUSH2 0x219A DUP4 DUP4 DUP4 PUSH2 0x25EB JUMP JUMPDEST PUSH2 0x21A5 PUSH1 0x0 DUP3 PUSH2 0x1F12 JUMP JUMPDEST PUSH1 0x1 PUSH1 0x3 PUSH1 0x0 DUP6 PUSH20 0xFFFFFFFFFFFFFFFFFFFFFFFFFFFFFFFFFFFFFFFF AND PUSH20 0xFFFFFFFFFFFFFFFFFFFFFFFFFFFFFFFFFFFFFFFF AND DUP2 MSTORE PUSH1 0x20 ADD SWAP1 DUP2 MSTORE PUSH1 0x20 ADD PUSH1 0x0 KECCAK256 PUSH1 0x0 DUP3 DUP3 SLOAD PUSH2 0x21F5 SWAP2 SWAP1 PUSH2 0x3C01 JUMP JUMPDEST SWAP3 POP POP DUP2 SWAP1 SSTORE POP PUSH1 0x1 PUSH1 0x3 PUSH1 0x0 DUP5 PUSH20 0xFFFFFFFFFFFFFFFFFFFFFFFFFFFFFFFFFFFFFFFF AND PUSH20 0xFFFFFFFFFFFFFFFFFFFFFFFFFFFFFFFFFFFFFFFF AND DUP2 MSTORE PUSH1 0x20 ADD SWAP1 DUP2 MSTORE PUSH1 0x20 ADD PUSH1 0x0 KECCAK256 PUSH1 0x0 DUP3 DUP3 SLOAD PUSH2 0x224C SWAP2 SWAP1 PUSH2 0x3B7A JUMP JUMPDEST SWAP3 POP POP DUP2 SWAP1 SSTORE POP DUP2 PUSH1 0x2 PUSH1 0x0 DUP4 DUP2 MSTORE PUSH1 0x20 ADD SWAP1 DUP2 MSTORE PUSH1 0x20 ADD PUSH1 0x0 KECCAK256 PUSH1 0x0 PUSH2 0x100 EXP DUP2 SLOAD DUP2 PUSH20 0xFFFFFFFFFFFFFFFFFFFFFFFFFFFFFFFFFFFFFFFF MUL NOT AND SWAP1 DUP4 PUSH20 0xFFFFFFFFFFFFFFFFFFFFFFFFFFFFFFFFFFFFFFFF AND MUL OR SWAP1 SSTORE POP DUP1 DUP3 PUSH20 0xFFFFFFFFFFFFFFFFFFFFFFFFFFFFFFFFFFFFFFFF AND DUP5 PUSH20 0xFFFFFFFFFFFFFFFFFFFFFFFFFFFFFFFFFFFFFFFF AND PUSH32 0xDDF252AD1BE2C89B69C2B068FC378DAA952BA7F163C4A11628F55A4DF523B3EF PUSH1 0x40 MLOAD PUSH1 0x40 MLOAD DUP1 SWAP2 SUB SWAP1 LOG4 POP POP POP JUMP JUMPDEST PUSH1 0x0 PUSH1 0xB PUSH1 0x0 DUP4 DUP2 MSTORE PUSH1 0x20 ADD SWAP1 DUP2 MSTORE PUSH1 0x20 ADD PUSH1 0x0 KECCAK256 PUSH1 0x3 ADD DUP2 SWAP1 SSTORE POP PUSH1 0x0 PUSH1 0xB PUSH1 0x0 DUP4 DUP2 MSTORE PUSH1 0x20 ADD SWAP1 DUP2 MSTORE PUSH1 0x20 ADD PUSH1 0x0 KECCAK256 PUSH1 0x2 ADD PUSH1 0x0 PUSH2 0x100 EXP DUP2 SLOAD DUP2 PUSH20 0xFFFFFFFFFFFFFFFFFFFFFFFFFFFFFFFFFFFFFFFF MUL NOT AND SWAP1 DUP4 PUSH20 0xFFFFFFFFFFFFFFFFFFFFFFFFFFFFFFFFFFFFFFFF AND MUL OR SWAP1 SSTORE POP PUSH1 0x0 PUSH1 0xB PUSH1 0x0 DUP4 DUP2 MSTORE PUSH1 0x20 ADD SWAP1 DUP2 MSTORE PUSH1 0x20 ADD PUSH1 0x0 KECCAK256 PUSH1 0x1 ADD PUSH1 0x0 PUSH2 0x100 EXP DUP2 SLOAD DUP2 PUSH20 0xFFFFFFFFFFFFFFFFFFFFFFFFFFFFFFFFFFFFFFFF MUL NOT AND SWAP1 DUP4 PUSH20 0xFFFFFFFFFFFFFFFFFFFFFFFFFFFFFFFFFFFFFFFF AND MUL OR SWAP1 SSTORE POP PUSH1 0x0 PUSH1 0xB PUSH1 0x0 DUP4 DUP2 MSTORE PUSH1 0x20 ADD SWAP1 DUP2 MSTORE PUSH1 0x20 ADD PUSH1 0x0 KECCAK256 PUSH1 0x0 ADD DUP2 SWAP1 SSTORE POP PUSH1 0x0 PUSH1 0xB PUSH1 0x0 DUP4 DUP2 MSTORE PUSH1 0x20 ADD SWAP1 DUP2 MSTORE PUSH1 0x20 ADD PUSH1 0x0 KECCAK256 PUSH1 0x4 ADD PUSH1 0x0 PUSH2 0x100 EXP DUP2 SLOAD DUP2 PUSH1 0xFF MUL NOT AND SWAP1 DUP4 ISZERO ISZERO MUL OR SWAP1 SSTORE POP POP JUMP JUMPDEST PUSH1 0x1 DUP2 PUSH1 0x0 ADD PUSH1 0x0 DUP3 DUP3 SLOAD ADD SWAP3 POP POP DUP2 SWAP1 SSTORE POP POP JUMP JUMPDEST PUSH1 0x0 DUP2 PUSH1 0x0 ADD SLOAD SWAP1 POP SWAP2 SWAP1 POP JUMP JUMPDEST PUSH2 0x2459 DUP3 DUP3 PUSH1 0x40 MLOAD DUP1 PUSH1 0x20 ADD PUSH1 0x40 MSTORE DUP1 PUSH1 0x0 DUP2 MSTORE POP PUSH2 0x25F0 JUMP JUMPDEST POP POP JUMP JUMPDEST PUSH2 0x2466 DUP3 PUSH2 0x1E9E JUMP JUMPDEST PUSH2 0x24A5 JUMPI PUSH1 0x40 MLOAD PUSH32 0x8C379A000000000000000000000000000000000000000000000000000000000 DUP2 MSTORE PUSH1 0x4 ADD PUSH2 0x249C SWAP1 PUSH2 0x3849 JUMP JUMPDEST PUSH1 0x40 MLOAD DUP1 SWAP2 SUB SWAP1 REVERT JUMPDEST DUP1 PUSH1 0x6 PUSH1 0x0 DUP5 DUP2 MSTORE PUSH1 0x20 ADD SWAP1 DUP2 MSTORE PUSH1 0x20 ADD PUSH1 0x0 KECCAK256 SWAP1 DUP1 MLOAD SWAP1 PUSH1 0x20 ADD SWAP1 PUSH2 0x24CC SWAP3 SWAP2 SWAP1 PUSH2 0x2B81 JUMP JUMPDEST POP POP POP JUMP JUMPDEST PUSH2 0x24DC DUP5 DUP5 DUP5 PUSH2 0x20A9 JUMP JUMPDEST PUSH2 0x24E8 DUP5 DUP5 DUP5 DUP5 PUSH2 0x264B JUMP JUMPDEST PUSH2 0x2527 JUMPI PUSH1 0x40 MLOAD PUSH32 0x8C379A000000000000000000000000000000000000000000000000000000000 DUP2 MSTORE PUSH1 0x4 ADD PUSH2 0x251E SWAP1 PUSH2 0x3709 JUMP JUMPDEST PUSH1 0x40 MLOAD DUP1 SWAP2 SUB SWAP1 REVERT JUMPDEST POP POP POP POP JUMP JUMPDEST PUSH1 0x60 PUSH1 0x40 MLOAD DUP1 PUSH1 0x20 ADD PUSH1 0x40 MSTORE DUP1 PUSH1 0x0 DUP2 MSTORE POP SWAP1 POP SWAP1 JUMP JUMPDEST PUSH1 0x60 PUSH2 0x254F DUP3 PUSH2 0x1E9E JUMP JUMPDEST PUSH2 0x258E JUMPI PUSH1 0x40 MLOAD PUSH32 0x8C379A000000000000000000000000000000000000000000000000000000000 DUP2 MSTORE PUSH1 0x4 ADD PUSH2 0x2585 SWAP1 PUSH2 0x3909 JUMP JUMPDEST PUSH1 0x40 MLOAD DUP1 SWAP2 SUB SWAP1 REVERT JUMPDEST PUSH1 0x0 PUSH2 0x2598 PUSH2 0x252D JUMP JUMPDEST SWAP1 POP PUSH1 0x0 DUP2 MLOAD GT PUSH2 0x25B8 JUMPI PUSH1 0x40 MLOAD DUP1 PUSH1 0x20 ADD PUSH1 0x40 MSTORE DUP1 PUSH1 0x0 DUP2 MSTORE POP PUSH2 0x25E3 JUMP JUMPDEST DUP1 PUSH2 0x25C2 DUP5 PUSH2 0x27E2 JUMP JUMPDEST PUSH1 0x40 MLOAD PUSH1 0x20 ADD PUSH2 0x25D3 SWAP3 SWAP2 SWAP1 PUSH2 0x35DA JUMP JUMPDEST PUSH1 0x40 MLOAD PUSH1 0x20 DUP2 DUP4 SUB SUB DUP2 MSTORE SWAP1 PUSH1 0x40 MSTORE JUMPDEST SWAP2 POP POP SWAP2 SWAP1 POP JUMP JUMPDEST POP POP POP JUMP JUMPDEST PUSH2 0x25FA DUP4 DUP4 PUSH2 0x2943 JUMP JUMPDEST PUSH2 0x2607 PUSH1 0x0 DUP5 DUP5 DUP5 PUSH2 0x264B JUMP JUMPDEST PUSH2 0x2646 JUMPI PUSH1 0x40 MLOAD PUSH32 0x8C379A000000000000000000000000000000000000000000000000000000000 DUP2 MSTORE PUSH1 0x4 ADD PUSH2 0x263D SWAP1 PUSH2 0x3709 JUMP JUMPDEST PUSH1 0x40 MLOAD DUP1 SWAP2 SUB SWAP1 REVERT JUMPDEST POP POP POP JUMP JUMPDEST PUSH1 0x0 PUSH2 0x266C DUP5 PUSH20 0xFFFFFFFFFFFFFFFFFFFFFFFFFFFFFFFFFFFFFFFF AND PUSH2 0x2B11 JUMP JUMPDEST ISZERO PUSH2 0x27D5 JUMPI DUP4 PUSH20 0xFFFFFFFFFFFFFFFFFFFFFFFFFFFFFFFFFFFFFFFF AND PUSH4 0x150B7A02 PUSH2 0x2695 PUSH2 0x1F0A JUMP JUMPDEST DUP8 DUP7 DUP7 PUSH1 0x40 MLOAD DUP6 PUSH4 0xFFFFFFFF AND PUSH1 0xE0 SHL DUP2 MSTORE PUSH1 0x4 ADD PUSH2 0x26B7 SWAP5 SWAP4 SWAP3 SWAP2 SWAP1 PUSH2 0x365E JUMP JUMPDEST PUSH1 0x20 PUSH1 0x40 MLOAD DUP1 DUP4 SUB DUP2 PUSH1 0x0 DUP8 DUP1 EXTCODESIZE ISZERO DUP1 ISZERO PUSH2 0x26D1 JUMPI PUSH1 0x0 DUP1 REVERT JUMPDEST POP GAS CALL SWAP3 POP POP POP DUP1 ISZERO PUSH2 0x2702 JUMPI POP PUSH1 0x40 MLOAD RETURNDATASIZE PUSH1 0x1F NOT PUSH1 0x1F DUP3 ADD AND DUP3 ADD DUP1 PUSH1 0x40 MSTORE POP DUP2 ADD SWAP1 PUSH2 0x26FF SWAP2 SWAP1 PUSH2 0x2F5D JUMP JUMPDEST PUSH1 0x1 JUMPDEST PUSH2 0x2785 JUMPI RETURNDATASIZE DUP1 PUSH1 0x0 DUP2 EQ PUSH2 0x2732 JUMPI PUSH1 0x40 MLOAD SWAP2 POP PUSH1 0x1F NOT PUSH1 0x3F RETURNDATASIZE ADD AND DUP3 ADD PUSH1 0x40 MSTORE RETURNDATASIZE DUP3 MSTORE RETURNDATASIZE PUSH1 0x0 PUSH1 0x20 DUP5 ADD RETURNDATACOPY PUSH2 0x2737 JUMP JUMPDEST PUSH1 0x60 SWAP2 POP JUMPDEST POP PUSH1 0x0 DUP2 MLOAD EQ ISZERO PUSH2 0x277D JUMPI PUSH1 0x40 MLOAD PUSH32 0x8C379A000000000000000000000000000000000000000000000000000000000 DUP2 MSTORE PUSH1 0x4 ADD PUSH2 0x2774 SWAP1 PUSH2 0x3709 JUMP JUMPDEST PUSH1 0x40 MLOAD DUP1 SWAP2 SUB SWAP1 REVERT JUMPDEST DUP1 MLOAD DUP2 PUSH1 0x20 ADD REVERT JUMPDEST PUSH4 0x150B7A02 PUSH1 0xE0 SHL PUSH28 0xFFFFFFFFFFFFFFFFFFFFFFFFFFFFFFFFFFFFFFFFFFFFFFFFFFFFFFFF NOT AND DUP2 PUSH28 0xFFFFFFFFFFFFFFFFFFFFFFFFFFFFFFFFFFFFFFFFFFFFFFFFFFFFFFFF NOT AND EQ SWAP2 POP POP PUSH2 0x27DA JUMP JUMPDEST PUSH1 0x1 SWAP1 POP JUMPDEST SWAP5 SWAP4 POP POP POP POP JUMP JUMPDEST PUSH1 0x60 PUSH1 0x0 DUP3 EQ ISZERO PUSH2 0x282A JUMPI PUSH1 0x40 MLOAD DUP1 PUSH1 0x40 ADD PUSH1 0x40 MSTORE DUP1 PUSH1 0x1 DUP2 MSTORE PUSH1 0x20 ADD PUSH32 0x3000000000000000000000000000000000000000000000000000000000000000 DUP2 MSTORE POP SWAP1 POP PUSH2 0x293E JUMP JUMPDEST PUSH1 0x0 DUP3 SWAP1 POP PUSH1 0x0 JUMPDEST PUSH1 0x0 DUP3 EQ PUSH2 0x285C JUMPI DUP1 DUP1 PUSH2 0x2845 SWAP1 PUSH2 0x3D60 JUMP JUMPDEST SWAP2 POP POP PUSH1 0xA DUP3 PUSH2 0x2855 SWAP2 SWAP1 PUSH2 0x3BD0 JUMP JUMPDEST SWAP2 POP PUSH2 0x2832 JUMP JUMPDEST PUSH1 0x0 DUP2 PUSH8 0xFFFFFFFFFFFFFFFF DUP2 GT ISZERO PUSH2 0x2878 JUMPI PUSH2 0x2877 PUSH2 0x3E96 JUMP JUMPDEST JUMPDEST PUSH1 0x40 MLOAD SWAP1 DUP1 DUP3 MSTORE DUP1 PUSH1 0x1F ADD PUSH1 0x1F NOT AND PUSH1 0x20 ADD DUP3 ADD PUSH1 0x40 MSTORE DUP1 ISZERO PUSH2 0x28AA JUMPI DUP2 PUSH1 0x20 ADD PUSH1 0x1 DUP3 MUL DUP1 CALLDATASIZE DUP4 CALLDATACOPY DUP1 DUP3 ADD SWAP2 POP POP SWAP1 POP JUMPDEST POP SWAP1 POP JUMPDEST PUSH1 0x0 DUP6 EQ PUSH2 0x2937 JUMPI PUSH1 0x1 DUP3 PUSH2 0x28C3 SWAP2 SWAP1 PUSH2 0x3C01 JUMP JUMPDEST SWAP2 POP PUSH1 0xA DUP6 PUSH2 0x28D2 SWAP2 SWAP1 PUSH2 0x3DA9 JUMP JUMPDEST PUSH1 0x30 PUSH2 0x28DE SWAP2 SWAP1 PUSH2 0x3B7A JUMP JUMPDEST PUSH1 0xF8 SHL DUP2 DUP4 DUP2 MLOAD DUP2 LT PUSH2 0x28F4 JUMPI PUSH2 0x28F3 PUSH2 0x3E67 JUMP JUMPDEST JUMPDEST PUSH1 0x20 ADD ADD SWAP1 PUSH31 0xFFFFFFFFFFFFFFFFFFFFFFFFFFFFFFFFFFFFFFFFFFFFFFFFFFFFFFFFFFFFFF NOT AND SWAP1 DUP2 PUSH1 0x0 BYTE SWAP1 MSTORE8 POP PUSH1 0xA DUP6 PUSH2 0x2930 SWAP2 SWAP1 PUSH2 0x3BD0 JUMP JUMPDEST SWAP5 POP PUSH2 0x28AE JUMP JUMPDEST DUP1 SWAP4 POP POP POP POP JUMPDEST SWAP2 SWAP1 POP JUMP JUMPDEST PUSH1 0x0 PUSH20 0xFFFFFFFFFFFFFFFFFFFFFFFFFFFFFFFFFFFFFFFF AND DUP3 PUSH20 0xFFFFFFFFFFFFFFFFFFFFFFFFFFFFFFFFFFFFFFFF AND EQ ISZERO PUSH2 0x29B3 JUMPI PUSH1 0x40 MLOAD PUSH32 0x8C379A000000000000000000000000000000000000000000000000000000000 DUP2 MSTORE PUSH1 0x4 ADD PUSH2 0x29AA SWAP1 PUSH2 0x3889 JUMP JUMPDEST PUSH1 0x40 MLOAD DUP1 SWAP2 SUB SWAP1 REVERT JUMPDEST PUSH2 0x29BC DUP2 PUSH2 0x1E9E JUMP JUMPDEST ISZERO PUSH2 0x29FC JUMPI PUSH1 0x40 MLOAD PUSH32 0x8C379A000000000000000000000000000000000000000000000000000000000 DUP2 MSTORE PUSH1 0x4 ADD PUSH2 0x29F3 SWAP1 PUSH2 0x3729 JUMP JUMPDEST PUSH1 0x40 MLOAD DUP1 SWAP2 SUB SWAP1 REVERT JUMPDEST PUSH2 0x2A08 PUSH1 0x0 DUP4 DUP4 PUSH2 0x25EB JUMP JUMPDEST PUSH1 0x1 PUSH1 0x3 PUSH1 0x0 DUP5 PUSH20 0xFFFFFFFFFFFFFFFFFFFFFFFFFFFFFFFFFFFFFFFF AND PUSH20 0xFFFFFFFFFFFFFFFFFFFFFFFFFFFFFFFFFFFFFFFF AND DUP2 MSTORE PUSH1 0x20 ADD SWAP1 DUP2 MSTORE PUSH1 0x20 ADD PUSH1 0x0 KECCAK256 PUSH1 0x0 DUP3 DUP3 SLOAD PUSH2 0x2A58 SWAP2 SWAP1 PUSH2 0x3B7A JUMP JUMPDEST SWAP3 POP POP DUP2 SWAP1 SSTORE POP DUP2 PUSH1 0x2 PUSH1 0x0 DUP4 DUP2 MSTORE PUSH1 0x20 ADD SWAP1 DUP2 MSTORE PUSH1 0x20 ADD PUSH1 0x0 KECCAK256 PUSH1 0x0 PUSH2 0x100 EXP DUP2 SLOAD DUP2 PUSH20 0xFFFFFFFFFFFFFFFFFFFFFFFFFFFFFFFFFFFFFFFF MUL NOT AND SWAP1 DUP4 PUSH20 0xFFFFFFFFFFFFFFFFFFFFFFFFFFFFFFFFFFFFFFFF AND MUL OR SWAP1 SSTORE POP DUP1 DUP3 PUSH20 0xFFFFFFFFFFFFFFFFFFFFFFFFFFFFFFFFFFFFFFFF AND PUSH1 0x0 PUSH20 0xFFFFFFFFFFFFFFFFFFFFFFFFFFFFFFFFFFFFFFFF AND PUSH32 0xDDF252AD1BE2C89B69C2B068FC378DAA952BA7F163C4A11628F55A4DF523B3EF PUSH1 0x40 MLOAD PUSH1 0x40 MLOAD DUP1 SWAP2 SUB SWAP1 LOG4 POP POP JUMP JUMPDEST PUSH1 0x0 DUP1 DUP3 EXTCODESIZE SWAP1 POP PUSH1 0x0 DUP2 GT SWAP2 POP POP SWAP2 SWAP1 POP JUMP JUMPDEST PUSH1 0x40 MLOAD DUP1 PUSH1 0xA0 ADD PUSH1 0x40 MSTORE DUP1 PUSH1 0x0 DUP2 MSTORE PUSH1 0x20 ADD PUSH1 0x0 PUSH20 0xFFFFFFFFFFFFFFFFFFFFFFFFFFFFFFFFFFFFFFFF AND DUP2 MSTORE PUSH1 0x20 ADD PUSH1 0x0 PUSH20 0xFFFFFFFFFFFFFFFFFFFFFFFFFFFFFFFFFFFFFFFF AND DUP2 MSTORE PUSH1 0x20 ADD PUSH1 0x0 DUP2 MSTORE PUSH1 0x20 ADD PUSH1 0x0 ISZERO ISZERO DUP2 MSTORE POP SWAP1 JUMP JUMPDEST DUP3 DUP1 SLOAD PUSH2 0x2B8D SWAP1 PUSH2 0x3CFD JUMP JUMPDEST SWAP1 PUSH1 0x0 MSTORE PUSH1 0x20 PUSH1 0x0 KECCAK256 SWAP1 PUSH1 0x1F ADD PUSH1 0x20 SWAP1 DIV DUP2 ADD SWAP3 DUP3 PUSH2 0x2BAF JUMPI PUSH1 0x0 DUP6 SSTORE PUSH2 0x2BF6 JUMP JUMPDEST DUP3 PUSH1 0x1F LT PUSH2 0x2BC8 JUMPI DUP1 MLOAD PUSH1 0xFF NOT AND DUP4 DUP1 ADD OR DUP6 SSTORE PUSH2 0x2BF6 JUMP JUMPDEST DUP3 DUP1 ADD PUSH1 0x1 ADD DUP6 SSTORE DUP3 ISZERO PUSH2 0x2BF6 JUMPI SWAP2 DUP3 ADD JUMPDEST DUP3 DUP2 GT ISZERO PUSH2 0x2BF5 JUMPI DUP3 MLOAD DUP3 SSTORE SWAP2 PUSH1 0x20 ADD SWAP2 SWAP1 PUSH1 0x1 ADD SWAP1 PUSH2 0x2BDA JUMP JUMPDEST JUMPDEST POP SWAP1 POP PUSH2 0x2C03 SWAP2 SWAP1 PUSH2 0x2C07 JUMP JUMPDEST POP SWAP1 JUMP JUMPDEST JUMPDEST DUP1 DUP3 GT ISZERO PUSH2 0x2C20 JUMPI PUSH1 0x0 DUP2 PUSH1 0x0 SWAP1 SSTORE POP PUSH1 0x1 ADD PUSH2 0x2C08 JUMP JUMPDEST POP SWAP1 JUMP JUMPDEST PUSH1 0x0 PUSH2 0x2C37 PUSH2 0x2C32 DUP5 PUSH2 0x3A9C JUMP JUMPDEST PUSH2 0x3A77 JUMP JUMPDEST SWAP1 POP DUP3 DUP2 MSTORE PUSH1 0x20 DUP2 ADD DUP5 DUP5 DUP5 ADD GT ISZERO PUSH2 0x2C53 JUMPI PUSH2 0x2C52 PUSH2 0x3ECA JUMP JUMPDEST JUMPDEST PUSH2 0x2C5E DUP5 DUP3 DUP6 PUSH2 0x3CBB JUMP JUMPDEST POP SWAP4 SWAP3 POP POP POP JUMP JUMPDEST PUSH1 0x0 PUSH2 0x2C79 PUSH2 0x2C74 DUP5 PUSH2 0x3ACD JUMP JUMPDEST PUSH2 0x3A77 JUMP JUMPDEST SWAP1 POP DUP3 DUP2 MSTORE PUSH1 0x20 DUP2 ADD DUP5 DUP5 DUP5 ADD GT ISZERO PUSH2 0x2C95 JUMPI PUSH2 0x2C94 PUSH2 0x3ECA JUMP JUMPDEST JUMPDEST PUSH2 0x2CA0 DUP5 DUP3 DUP6 PUSH2 0x3CBB JUMP JUMPDEST POP SWAP4 SWAP3 POP POP POP JUMP JUMPDEST PUSH1 0x0 DUP2 CALLDATALOAD SWAP1 POP PUSH2 0x2CB7 DUP2 PUSH2 0x456E JUMP JUMPDEST SWAP3 SWAP2 POP POP JUMP JUMPDEST PUSH1 0x0 DUP2 CALLDATALOAD SWAP1 POP PUSH2 0x2CCC DUP2 PUSH2 0x4585 JUMP JUMPDEST SWAP3 SWAP2 POP POP JUMP JUMPDEST PUSH1 0x0 DUP2 CALLDATALOAD SWAP1 POP PUSH2 0x2CE1 DUP2 PUSH2 0x459C JUMP JUMPDEST SWAP3 SWAP2 POP POP JUMP JUMPDEST PUSH1 0x0 DUP2 MLOAD SWAP1 POP PUSH2 0x2CF6 DUP2 PUSH2 0x459C JUMP JUMPDEST SWAP3 SWAP2 POP POP JUMP JUMPDEST PUSH1 0x0 DUP3 PUSH1 0x1F DUP4 ADD SLT PUSH2 0x2D11 JUMPI PUSH2 0x2D10 PUSH2 0x3EC5 JUMP JUMPDEST JUMPDEST DUP2 CALLDATALOAD PUSH2 0x2D21 DUP5 DUP3 PUSH1 0x20 DUP7 ADD PUSH2 0x2C24 JUMP JUMPDEST SWAP2 POP POP SWAP3 SWAP2 POP POP JUMP JUMPDEST PUSH1 0x0 DUP3 PUSH1 0x1F DUP4 ADD SLT PUSH2 0x2D3F JUMPI PUSH2 0x2D3E PUSH2 0x3EC5 JUMP JUMPDEST JUMPDEST DUP2 CALLDATALOAD PUSH2 0x2D4F DUP5 DUP3 PUSH1 0x20 DUP7 ADD PUSH2 0x2C66 JUMP JUMPDEST SWAP2 POP POP SWAP3 SWAP2 POP POP JUMP JUMPDEST PUSH1 0x0 DUP2 CALLDATALOAD SWAP1 POP PUSH2 0x2D67 DUP2 PUSH2 0x45B3 JUMP JUMPDEST SWAP3 SWAP2 POP POP JUMP JUMPDEST PUSH1 0x0 PUSH1 0x20 DUP3 DUP5 SUB SLT ISZERO PUSH2 0x2D83 JUMPI PUSH2 0x2D82 PUSH2 0x3ED4 JUMP JUMPDEST JUMPDEST PUSH1 0x0 PUSH2 0x2D91 DUP5 DUP3 DUP6 ADD PUSH2 0x2CA8 JUMP JUMPDEST SWAP2 POP POP SWAP3 SWAP2 POP POP JUMP JUMPDEST PUSH1 0x0 DUP1 PUSH1 0x40 DUP4 DUP6 SUB SLT ISZERO PUSH2 0x2DB1 JUMPI PUSH2 0x2DB0 PUSH2 0x3ED4 JUMP JUMPDEST JUMPDEST PUSH1 0x0 PUSH2 0x2DBF DUP6 DUP3 DUP7 ADD PUSH2 0x2CA8 JUMP JUMPDEST SWAP3 POP POP PUSH1 0x20 PUSH2 0x2DD0 DUP6 DUP3 DUP7 ADD PUSH2 0x2CA8 JUMP JUMPDEST SWAP2 POP POP SWAP3 POP SWAP3 SWAP1 POP JUMP JUMPDEST PUSH1 0x0 DUP1 PUSH1 0x0 PUSH1 0x60 DUP5 DUP7 SUB SLT ISZERO PUSH2 0x2DF3 JUMPI PUSH2 0x2DF2 PUSH2 0x3ED4 JUMP JUMPDEST JUMPDEST PUSH1 0x0 PUSH2 0x2E01 DUP7 DUP3 DUP8 ADD PUSH2 0x2CA8 JUMP JUMPDEST SWAP4 POP POP PUSH1 0x20 PUSH2 0x2E12 DUP7 DUP3 DUP8 ADD PUSH2 0x2CA8 JUMP JUMPDEST SWAP3 POP POP PUSH1 0x40 PUSH2 0x2E23 DUP7 DUP3 DUP8 ADD PUSH2 0x2D58 JUMP JUMPDEST SWAP2 POP POP SWAP3 POP SWAP3 POP SWAP3 JUMP JUMPDEST PUSH1 0x0 DUP1 PUSH1 0x0 DUP1 PUSH1 0x80 DUP6 DUP8 SUB SLT ISZERO PUSH2 0x2E47 JUMPI PUSH2 0x2E46 PUSH2 0x3ED4 JUMP JUMPDEST JUMPDEST PUSH1 0x0 PUSH2 0x2E55 DUP8 DUP3 DUP9 ADD PUSH2 0x2CA8 JUMP JUMPDEST SWAP5 POP POP PUSH1 0x20 PUSH2 0x2E66 DUP8 DUP3 DUP9 ADD PUSH2 0x2CA8 JUMP JUMPDEST SWAP4 POP POP PUSH1 0x40 PUSH2 0x2E77 DUP8 DUP3 DUP9 ADD PUSH2 0x2D58 JUMP JUMPDEST SWAP3 POP POP PUSH1 0x60 DUP6 ADD CALLDATALOAD PUSH8 0xFFFFFFFFFFFFFFFF DUP2 GT ISZERO PUSH2 0x2E98 JUMPI PUSH2 0x2E97 PUSH2 0x3ECF JUMP JUMPDEST JUMPDEST PUSH2 0x2EA4 DUP8 DUP3 DUP9 ADD PUSH2 0x2CFC JUMP JUMPDEST SWAP2 POP POP SWAP3 SWAP6 SWAP2 SWAP5 POP SWAP3 POP JUMP JUMPDEST PUSH1 0x0 DUP1 PUSH1 0x40 DUP4 DUP6 SUB SLT ISZERO PUSH2 0x2EC7 JUMPI PUSH2 0x2EC6 PUSH2 0x3ED4 JUMP JUMPDEST JUMPDEST PUSH1 0x0 PUSH2 0x2ED5 DUP6 DUP3 DUP7 ADD PUSH2 0x2CA8 JUMP JUMPDEST SWAP3 POP POP PUSH1 0x20 PUSH2 0x2EE6 DUP6 DUP3 DUP7 ADD PUSH2 0x2CBD JUMP JUMPDEST SWAP2 POP POP SWAP3 POP SWAP3 SWAP1 POP JUMP JUMPDEST PUSH1 0x0 DUP1 PUSH1 0x40 DUP4 DUP6 SUB SLT ISZERO PUSH2 0x2F07 JUMPI PUSH2 0x2F06 PUSH2 0x3ED4 JUMP JUMPDEST JUMPDEST PUSH1 0x0 PUSH2 0x2F15 DUP6 DUP3 DUP7 ADD PUSH2 0x2CA8 JUMP JUMPDEST SWAP3 POP POP PUSH1 0x20 PUSH2 0x2F26 DUP6 DUP3 DUP7 ADD PUSH2 0x2D58 JUMP JUMPDEST SWAP2 POP POP SWAP3 POP SWAP3 SWAP1 POP JUMP JUMPDEST PUSH1 0x0 PUSH1 0x20 DUP3 DUP5 SUB SLT ISZERO PUSH2 0x2F46 JUMPI PUSH2 0x2F45 PUSH2 0x3ED4 JUMP JUMPDEST JUMPDEST PUSH1 0x0 PUSH2 0x2F54 DUP5 DUP3 DUP6 ADD PUSH2 0x2CD2 JUMP JUMPDEST SWAP2 POP POP SWAP3 SWAP2 POP POP JUMP JUMPDEST PUSH1 0x0 PUSH1 0x20 DUP3 DUP5 SUB SLT ISZERO PUSH2 0x2F73 JUMPI PUSH2 0x2F72 PUSH2 0x3ED4 JUMP JUMPDEST JUMPDEST PUSH1 0x0 PUSH2 0x2F81 DUP5 DUP3 DUP6 ADD PUSH2 0x2CE7 JUMP JUMPDEST SWAP2 POP POP SWAP3 SWAP2 POP POP JUMP JUMPDEST PUSH1 0x0 PUSH1 0x20 DUP3 DUP5 SUB SLT ISZERO PUSH2 0x2FA0 JUMPI PUSH2 0x2F9F PUSH2 0x3ED4 JUMP JUMPDEST JUMPDEST PUSH1 0x0 DUP3 ADD CALLDATALOAD PUSH8 0xFFFFFFFFFFFFFFFF DUP2 GT ISZERO PUSH2 0x2FBE JUMPI PUSH2 0x2FBD PUSH2 0x3ECF JUMP JUMPDEST JUMPDEST PUSH2 0x2FCA DUP5 DUP3 DUP6 ADD PUSH2 0x2D2A JUMP JUMPDEST SWAP2 POP POP SWAP3 SWAP2 POP POP JUMP JUMPDEST PUSH1 0x0 PUSH1 0x20 DUP3 DUP5 SUB SLT ISZERO PUSH2 0x2FE9 JUMPI PUSH2 0x2FE8 PUSH2 0x3ED4 JUMP JUMPDEST JUMPDEST PUSH1 0x0 PUSH2 0x2FF7 DUP5 DUP3 DUP6 ADD PUSH2 0x2D58 JUMP JUMPDEST SWAP2 POP POP SWAP3 SWAP2 POP POP JUMP JUMPDEST PUSH1 0x0 DUP1 PUSH1 0x40 DUP4 DUP6 SUB SLT ISZERO PUSH2 0x3017 JUMPI PUSH2 0x3016 PUSH2 0x3ED4 JUMP JUMPDEST JUMPDEST PUSH1 0x0 PUSH2 0x3025 DUP6 DUP3 DUP7 ADD PUSH2 0x2D58 JUMP JUMPDEST SWAP3 POP POP PUSH1 0x20 PUSH2 0x3036 DUP6 DUP3 DUP7 ADD PUSH2 0x2D58 JUMP JUMPDEST SWAP2 POP POP SWAP3 POP SWAP3 SWAP1 POP JUMP JUMPDEST PUSH1 0x0 PUSH2 0x304C DUP4 DUP4 PUSH2 0x34EC JUMP JUMPDEST PUSH1 0xA0 DUP4 ADD SWAP1 POP SWAP3 SWAP2 POP POP JUMP JUMPDEST PUSH2 0x3061 DUP2 PUSH2 0x3C35 JUMP JUMPDEST DUP3 MSTORE POP POP JUMP JUMPDEST PUSH2 0x3070 DUP2 PUSH2 0x3C35 JUMP JUMPDEST DUP3 MSTORE POP POP JUMP JUMPDEST PUSH1 0x0 PUSH2 0x3081 DUP3 PUSH2 0x3B0E JUMP JUMPDEST PUSH2 0x308B DUP2 DUP6 PUSH2 0x3B3C JUMP JUMPDEST SWAP4 POP PUSH2 0x3096 DUP4 PUSH2 0x3AFE JUMP JUMPDEST DUP1 PUSH1 0x0 JUMPDEST DUP4 DUP2 LT ISZERO PUSH2 0x30C7 JUMPI DUP2 MLOAD PUSH2 0x30AE DUP9 DUP3 PUSH2 0x3040 JUMP JUMPDEST SWAP8 POP PUSH2 0x30B9 DUP4 PUSH2 0x3B2F JUMP JUMPDEST SWAP3 POP POP PUSH1 0x1 DUP2 ADD SWAP1 POP PUSH2 0x309A JUMP JUMPDEST POP DUP6 SWAP4 POP POP POP POP SWAP3 SWAP2 POP POP JUMP JUMPDEST PUSH2 0x30DD DUP2 PUSH2 0x3C47 JUMP JUMPDEST DUP3 MSTORE POP POP JUMP JUMPDEST PUSH2 0x30EC DUP2 PUSH2 0x3C47 JUMP JUMPDEST DUP3 MSTORE POP POP JUMP JUMPDEST PUSH1 0x0 PUSH2 0x30FD DUP3 PUSH2 0x3B19 JUMP JUMPDEST PUSH2 0x3107 DUP2 DUP6 PUSH2 0x3B4D JUMP JUMPDEST SWAP4 POP PUSH2 0x3117 DUP2 DUP6 PUSH1 0x20 DUP7 ADD PUSH2 0x3CCA JUMP JUMPDEST PUSH2 0x3120 DUP2 PUSH2 0x3ED9 JUMP JUMPDEST DUP5 ADD SWAP2 POP POP SWAP3 SWAP2 POP POP JUMP JUMPDEST PUSH2 0x3134 DUP2 PUSH2 0x3CA9 JUMP JUMPDEST DUP3 MSTORE POP POP JUMP JUMPDEST PUSH1 0x0 PUSH2 0x3145 DUP3 PUSH2 0x3B24 JUMP JUMPDEST PUSH2 0x314F DUP2 DUP6 PUSH2 0x3B5E JUMP JUMPDEST SWAP4 POP PUSH2 0x315F DUP2 DUP6 PUSH1 0x20 DUP7 ADD PUSH2 0x3CCA JUMP JUMPDEST PUSH2 0x3168 DUP2 PUSH2 0x3ED9 JUMP JUMPDEST DUP5 ADD SWAP2 POP POP SWAP3 SWAP2 POP POP JUMP JUMPDEST PUSH1 0x0 PUSH2 0x317E DUP3 PUSH2 0x3B24 JUMP JUMPDEST PUSH2 0x3188 DUP2 DUP6 PUSH2 0x3B6F JUMP JUMPDEST SWAP4 POP PUSH2 0x3198 DUP2 DUP6 PUSH1 0x20 DUP7 ADD PUSH2 0x3CCA JUMP JUMPDEST DUP1 DUP5 ADD SWAP2 POP POP SWAP3 SWAP2 POP POP JUMP JUMPDEST PUSH1 0x0 PUSH2 0x31B1 PUSH1 0x32 DUP4 PUSH2 0x3B5E JUMP JUMPDEST SWAP2 POP PUSH2 0x31BC DUP3 PUSH2 0x3EEA JUMP JUMPDEST PUSH1 0x40 DUP3 ADD SWAP1 POP SWAP2 SWAP1 POP JUMP JUMPDEST PUSH1 0x0 PUSH2 0x31D4 PUSH1 0x1C DUP4 PUSH2 0x3B5E JUMP JUMPDEST SWAP2 POP PUSH2 0x31DF DUP3 PUSH2 0x3F39 JUMP JUMPDEST PUSH1 0x20 DUP3 ADD SWAP1 POP SWAP2 SWAP1 POP JUMP JUMPDEST PUSH1 0x0 PUSH2 0x31F7 PUSH1 0x22 DUP4 PUSH2 0x3B5E JUMP JUMPDEST SWAP2 POP PUSH2 0x3202 DUP3 PUSH2 0x3F62 JUMP JUMPDEST PUSH1 0x40 DUP3 ADD SWAP1 POP SWAP2 SWAP1 POP JUMP JUMPDEST PUSH1 0x0 PUSH2 0x321A PUSH1 0x24 DUP4 PUSH2 0x3B5E JUMP JUMPDEST SWAP2 POP PUSH2 0x3225 DUP3 PUSH2 0x3FB1 JUMP JUMPDEST PUSH1 0x40 DUP3 ADD SWAP1 POP SWAP2 SWAP1 POP JUMP JUMPDEST PUSH1 0x0 PUSH2 0x323D PUSH1 0x19 DUP4 PUSH2 0x3B5E JUMP JUMPDEST SWAP2 POP PUSH2 0x3248 DUP3 PUSH2 0x4000 JUMP JUMPDEST PUSH1 0x20 DUP3 ADD SWAP1 POP SWAP2 SWAP1 POP JUMP JUMPDEST PUSH1 0x0 PUSH2 0x3260 PUSH1 0x2C DUP4 PUSH2 0x3B5E JUMP JUMPDEST SWAP2 POP PUSH2 0x326B DUP3 PUSH2 0x4029 JUMP JUMPDEST PUSH1 0x40 DUP3 ADD SWAP1 POP SWAP2 SWAP1 POP JUMP JUMPDEST PUSH1 0x0 PUSH2 0x3283 PUSH1 0x23 DUP4 PUSH2 0x3B5E JUMP JUMPDEST SWAP2 POP PUSH2 0x328E DUP3 PUSH2 0x4078 JUMP JUMPDEST PUSH1 0x40 DUP3 ADD SWAP1 POP SWAP2 SWAP1 POP JUMP JUMPDEST PUSH1 0x0 PUSH2 0x32A6 PUSH1 0x38 DUP4 PUSH2 0x3B5E JUMP JUMPDEST SWAP2 POP PUSH2 0x32B1 DUP3 PUSH2 0x40C7 JUMP JUMPDEST PUSH1 0x40 DUP3 ADD SWAP1 POP SWAP2 SWAP1 POP JUMP JUMPDEST PUSH1 0x0 PUSH2 0x32C9 PUSH1 0x2A DUP4 PUSH2 0x3B5E JUMP JUMPDEST SWAP2 POP PUSH2 0x32D4 DUP3 PUSH2 0x4116 JUMP JUMPDEST PUSH1 0x40 DUP3 ADD SWAP1 POP SWAP2 SWAP1 POP JUMP JUMPDEST PUSH1 0x0 PUSH2 0x32EC PUSH1 0x29 DUP4 PUSH2 0x3B5E JUMP JUMPDEST SWAP2 POP PUSH2 0x32F7 DUP3 PUSH2 0x4165 JUMP JUMPDEST PUSH1 0x40 DUP3 ADD SWAP1 POP SWAP2 SWAP1 POP JUMP JUMPDEST PUSH1 0x0 PUSH2 0x330F PUSH1 0x2E DUP4 PUSH2 0x3B5E JUMP JUMPDEST SWAP2 POP PUSH2 0x331A DUP3 PUSH2 0x41B4 JUMP JUMPDEST PUSH1 0x40 DUP3 ADD SWAP1 POP SWAP2 SWAP1 POP JUMP JUMPDEST PUSH1 0x0 PUSH2 0x3332 PUSH1 0x40 DUP4 PUSH2 0x3B5E JUMP JUMPDEST SWAP2 POP PUSH2 0x333D DUP3 PUSH2 0x4203 JUMP JUMPDEST PUSH1 0x40 DUP3 ADD SWAP1 POP SWAP2 SWAP1 POP JUMP JUMPDEST PUSH1 0x0 PUSH2 0x3355 PUSH1 0x20 DUP4 PUSH2 0x3B5E JUMP JUMPDEST SWAP2 POP PUSH2 0x3360 DUP3 PUSH2 0x4252 JUMP JUMPDEST PUSH1 0x20 DUP3 ADD SWAP1 POP SWAP2 SWAP1 POP JUMP JUMPDEST PUSH1 0x0 PUSH2 0x3378 PUSH1 0x31 DUP4 PUSH2 0x3B5E JUMP JUMPDEST SWAP2 POP PUSH2 0x3383 DUP3 PUSH2 0x427B JUMP JUMPDEST PUSH1 0x40 DUP3 ADD SWAP1 POP SWAP2 SWAP1 POP JUMP JUMPDEST PUSH1 0x0 PUSH2 0x339B PUSH1 0x2C DUP4 PUSH2 0x3B5E JUMP JUMPDEST SWAP2 POP PUSH2 0x33A6 DUP3 PUSH2 0x42CA JUMP JUMPDEST PUSH1 0x40 DUP3 ADD SWAP1 POP SWAP2 SWAP1 POP JUMP JUMPDEST PUSH1 0x0 PUSH2 0x33BE PUSH1 0x29 DUP4 PUSH2 0x3B5E JUMP JUMPDEST SWAP2 POP PUSH2 0x33C9 DUP3 PUSH2 0x4319 JUMP JUMPDEST PUSH1 0x40 DUP3 ADD SWAP1 POP SWAP2 SWAP1 POP JUMP JUMPDEST PUSH1 0x0 PUSH2 0x33E1 PUSH1 0x2F DUP4 PUSH2 0x3B5E JUMP JUMPDEST SWAP2 POP PUSH2 0x33EC DUP3 PUSH2 0x4368 JUMP JUMPDEST PUSH1 0x40 DUP3 ADD SWAP1 POP SWAP2 SWAP1 POP JUMP JUMPDEST PUSH1 0x0 PUSH2 0x3404 PUSH1 0x23 DUP4 PUSH2 0x3B5E JUMP JUMPDEST SWAP2 POP PUSH2 0x340F DUP3 PUSH2 0x43B7 JUMP JUMPDEST PUSH1 0x40 DUP3 ADD SWAP1 POP SWAP2 SWAP1 POP JUMP JUMPDEST PUSH1 0x0 PUSH2 0x3427 PUSH1 0x21 DUP4 PUSH2 0x3B5E JUMP JUMPDEST SWAP2 POP PUSH2 0x3432 DUP3 PUSH2 0x4406 JUMP JUMPDEST PUSH1 0x40 DUP3 ADD SWAP1 POP SWAP2 SWAP1 POP JUMP JUMPDEST PUSH1 0x0 PUSH2 0x344A PUSH1 0x20 DUP4 PUSH2 0x3B5E JUMP JUMPDEST SWAP2 POP PUSH2 0x3455 DUP3 PUSH2 0x4455 JUMP JUMPDEST PUSH1 0x20 DUP3 ADD SWAP1 POP SWAP2 SWAP1 POP JUMP JUMPDEST PUSH1 0x0 PUSH2 0x346D PUSH1 0x22 DUP4 PUSH2 0x3B5E JUMP JUMPDEST SWAP2 POP PUSH2 0x3478 DUP3 PUSH2 0x447E JUMP JUMPDEST PUSH1 0x40 DUP3 ADD SWAP1 POP SWAP2 SWAP1 POP JUMP JUMPDEST PUSH1 0x0 PUSH2 0x3490 PUSH1 0x0 DUP4 PUSH2 0x3B5E JUMP JUMPDEST SWAP2 POP PUSH2 0x349B DUP3 PUSH2 0x44CD JUMP JUMPDEST PUSH1 0x0 DUP3 ADD SWAP1 POP SWAP2 SWAP1 POP JUMP JUMPDEST PUSH1 0x0 PUSH2 0x34B3 PUSH1 0x31 DUP4 PUSH2 0x3B5E JUMP JUMPDEST SWAP2 POP PUSH2 0x34BE DUP3 PUSH2 0x44D0 JUMP JUMPDEST PUSH1 0x40 DUP3 ADD SWAP1 POP SWAP2 SWAP1 POP JUMP JUMPDEST PUSH1 0x0 PUSH2 0x34D6 PUSH1 0x22 DUP4 PUSH2 0x3B5E JUMP JUMPDEST SWAP2 POP PUSH2 0x34E1 DUP3 PUSH2 0x451F JUMP JUMPDEST PUSH1 0x40 DUP3 ADD SWAP1 POP SWAP2 SWAP1 POP JUMP JUMPDEST PUSH1 0xA0 DUP3 ADD PUSH1 0x0 DUP3 ADD MLOAD PUSH2 0x3502 PUSH1 0x0 DUP6 ADD DUP3 PUSH2 0x35BC JUMP JUMPDEST POP PUSH1 0x20 DUP3 ADD MLOAD PUSH2 0x3515 PUSH1 0x20 DUP6 ADD DUP3 PUSH2 0x3058 JUMP JUMPDEST POP PUSH1 0x40 DUP3 ADD MLOAD PUSH2 0x3528 PUSH1 0x40 DUP6 ADD DUP3 PUSH2 0x3058 JUMP JUMPDEST POP PUSH1 0x60 DUP3 ADD MLOAD PUSH2 0x353B PUSH1 0x60 DUP6 ADD DUP3 PUSH2 0x35BC JUMP JUMPDEST POP PUSH1 0x80 DUP3 ADD MLOAD PUSH2 0x354E PUSH1 0x80 DUP6 ADD DUP3 PUSH2 0x30D4 JUMP JUMPDEST POP POP POP POP JUMP JUMPDEST PUSH1 0xA0 DUP3 ADD PUSH1 0x0 DUP3 ADD MLOAD PUSH2 0x356A PUSH1 0x0 DUP6 ADD DUP3 PUSH2 0x35BC JUMP JUMPDEST POP PUSH1 0x20 DUP3 ADD MLOAD PUSH2 0x357D PUSH1 0x20 DUP6 ADD DUP3 PUSH2 0x3058 JUMP JUMPDEST POP PUSH1 0x40 DUP3 ADD MLOAD PUSH2 0x3590 PUSH1 0x40 DUP6 ADD DUP3 PUSH2 0x3058 JUMP JUMPDEST POP PUSH1 0x60 DUP3 ADD MLOAD PUSH2 0x35A3 PUSH1 0x60 DUP6 ADD DUP3 PUSH2 0x35BC JUMP JUMPDEST POP PUSH1 0x80 DUP3 ADD MLOAD PUSH2 0x35B6 PUSH1 0x80 DUP6 ADD DUP3 PUSH2 0x30D4 JUMP JUMPDEST POP POP POP POP JUMP JUMPDEST PUSH2 0x35C5 DUP2 PUSH2 0x3C9F JUMP JUMPDEST DUP3 MSTORE POP POP JUMP JUMPDEST PUSH2 0x35D4 DUP2 PUSH2 0x3C9F JUMP JUMPDEST DUP3 MSTORE POP POP JUMP JUMPDEST PUSH1 0x0 PUSH2 0x35E6 DUP3 DUP6 PUSH2 0x3173 JUMP JUMPDEST SWAP2 POP PUSH2 0x35F2 DUP3 DUP5 PUSH2 0x3173 JUMP JUMPDEST SWAP2 POP DUP2 SWAP1 POP SWAP4 SWAP3 POP POP POP JUMP JUMPDEST PUSH1 0x0 PUSH1 0x20 DUP3 ADD SWAP1 POP PUSH2 0x3613 PUSH1 0x0 DUP4 ADD DUP5 PUSH2 0x3067 JUMP JUMPDEST SWAP3 SWAP2 POP POP JUMP JUMPDEST PUSH1 0x0 PUSH1 0x80 DUP3 ADD SWAP1 POP PUSH2 0x362E PUSH1 0x0 DUP4 ADD DUP8 PUSH2 0x3067 JUMP JUMPDEST PUSH2 0x363B PUSH1 0x20 DUP4 ADD DUP7 PUSH2 0x3067 JUMP JUMPDEST PUSH2 0x3648 PUSH1 0x40 DUP4 ADD DUP6 PUSH2 0x35CB JUMP JUMPDEST PUSH2 0x3655 PUSH1 0x60 DUP4 ADD DUP5 PUSH2 0x30E3 JUMP JUMPDEST SWAP6 SWAP5 POP POP POP POP POP JUMP JUMPDEST PUSH1 0x0 PUSH1 0x80 DUP3 ADD SWAP1 POP PUSH2 0x3673 PUSH1 0x0 DUP4 ADD DUP8 PUSH2 0x3067 JUMP JUMPDEST PUSH2 0x3680 PUSH1 0x20 DUP4 ADD DUP7 PUSH2 0x3067 JUMP JUMPDEST PUSH2 0x368D PUSH1 0x40 DUP4 ADD DUP6 PUSH2 0x35CB JUMP JUMPDEST DUP2 DUP2 SUB PUSH1 0x60 DUP4 ADD MSTORE PUSH2 0x369F DUP2 DUP5 PUSH2 0x30F2 JUMP JUMPDEST SWAP1 POP SWAP6 SWAP5 POP POP POP POP POP JUMP JUMPDEST PUSH1 0x0 PUSH1 0x20 DUP3 ADD SWAP1 POP DUP2 DUP2 SUB PUSH1 0x0 DUP4 ADD MSTORE PUSH2 0x36C4 DUP2 DUP5 PUSH2 0x3076 JUMP JUMPDEST SWAP1 POP SWAP3 SWAP2 POP POP JUMP JUMPDEST PUSH1 0x0 PUSH1 0x20 DUP3 ADD SWAP1 POP PUSH2 0x36E1 PUSH1 0x0 DUP4 ADD DUP5 PUSH2 0x30E3 JUMP JUMPDEST SWAP3 SWAP2 POP POP JUMP JUMPDEST PUSH1 0x0 PUSH1 0x20 DUP3 ADD SWAP1 POP DUP2 DUP2 SUB PUSH1 0x0 DUP4 ADD MSTORE PUSH2 0x3701 DUP2 DUP5 PUSH2 0x313A JUMP JUMPDEST SWAP1 POP SWAP3 SWAP2 POP POP JUMP JUMPDEST PUSH1 0x0 PUSH1 0x20 DUP3 ADD SWAP1 POP DUP2 DUP2 SUB PUSH1 0x0 DUP4 ADD MSTORE PUSH2 0x3722 DUP2 PUSH2 0x31A4 JUMP JUMPDEST SWAP1 POP SWAP2 SWAP1 POP JUMP JUMPDEST PUSH1 0x0 PUSH1 0x20 DUP3 ADD SWAP1 POP DUP2 DUP2 SUB PUSH1 0x0 DUP4 ADD MSTORE PUSH2 0x3742 DUP2 PUSH2 0x31C7 JUMP JUMPDEST SWAP1 POP SWAP2 SWAP1 POP JUMP JUMPDEST PUSH1 0x0 PUSH1 0x20 DUP3 ADD SWAP1 POP DUP2 DUP2 SUB PUSH1 0x0 DUP4 ADD MSTORE PUSH2 0x3762 DUP2 PUSH2 0x31EA JUMP JUMPDEST SWAP1 POP SWAP2 SWAP1 POP JUMP JUMPDEST PUSH1 0x0 PUSH1 0x20 DUP3 ADD SWAP1 POP DUP2 DUP2 SUB PUSH1 0x0 DUP4 ADD MSTORE PUSH2 0x3782 DUP2 PUSH2 0x320D JUMP JUMPDEST SWAP1 POP SWAP2 SWAP1 POP JUMP JUMPDEST PUSH1 0x0 PUSH1 0x20 DUP3 ADD SWAP1 POP DUP2 DUP2 SUB PUSH1 0x0 DUP4 ADD MSTORE PUSH2 0x37A2 DUP2 PUSH2 0x3230 JUMP JUMPDEST SWAP1 POP SWAP2 SWAP1 POP JUMP JUMPDEST PUSH1 0x0 PUSH1 0x20 DUP3 ADD SWAP1 POP DUP2 DUP2 SUB PUSH1 0x0 DUP4 ADD MSTORE PUSH2 0x37C2 DUP2 PUSH2 0x3253 JUMP JUMPDEST SWAP1 POP SWAP2 SWAP1 POP JUMP JUMPDEST PUSH1 0x0 PUSH1 0x20 DUP3 ADD SWAP1 POP DUP2 DUP2 SUB PUSH1 0x0 DUP4 ADD MSTORE PUSH2 0x37E2 DUP2 PUSH2 0x3276 JUMP JUMPDEST SWAP1 POP SWAP2 SWAP1 POP JUMP JUMPDEST PUSH1 0x0 PUSH1 0x20 DUP3 ADD SWAP1 POP DUP2 DUP2 SUB PUSH1 0x0 DUP4 ADD MSTORE PUSH2 0x3802 DUP2 PUSH2 0x3299 JUMP JUMPDEST SWAP1 POP SWAP2 SWAP1 POP JUMP JUMPDEST PUSH1 0x0 PUSH1 0x20 DUP3 ADD SWAP1 POP DUP2 DUP2 SUB PUSH1 0x0 DUP4 ADD MSTORE PUSH2 0x3822 DUP2 PUSH2 0x32BC JUMP JUMPDEST SWAP1 POP SWAP2 SWAP1 POP JUMP JUMPDEST PUSH1 0x0 PUSH1 0x20 DUP3 ADD SWAP1 POP DUP2 DUP2 SUB PUSH1 0x0 DUP4 ADD MSTORE PUSH2 0x3842 DUP2 PUSH2 0x32DF JUMP JUMPDEST SWAP1 POP SWAP2 SWAP1 POP JUMP JUMPDEST PUSH1 0x0 PUSH1 0x20 DUP3 ADD SWAP1 POP DUP2 DUP2 SUB PUSH1 0x0 DUP4 ADD MSTORE PUSH2 0x3862 DUP2 PUSH2 0x3302 JUMP JUMPDEST SWAP1 POP SWAP2 SWAP1 POP JUMP JUMPDEST PUSH1 0x0 PUSH1 0x20 DUP3 ADD SWAP1 POP DUP2 DUP2 SUB PUSH1 0x0 DUP4 ADD MSTORE PUSH2 0x3882 DUP2 PUSH2 0x3325 JUMP JUMPDEST SWAP1 POP SWAP2 SWAP1 POP JUMP JUMPDEST PUSH1 0x0 PUSH1 0x20 DUP3 ADD SWAP1 POP DUP2 DUP2 SUB PUSH1 0x0 DUP4 ADD MSTORE PUSH2 0x38A2 DUP2 PUSH2 0x3348 JUMP JUMPDEST SWAP1 POP SWAP2 SWAP1 POP JUMP JUMPDEST PUSH1 0x0 PUSH1 0x20 DUP3 ADD SWAP1 POP DUP2 DUP2 SUB PUSH1 0x0 DUP4 ADD MSTORE PUSH2 0x38C2 DUP2 PUSH2 0x336B JUMP JUMPDEST SWAP1 POP SWAP2 SWAP1 POP JUMP JUMPDEST PUSH1 0x0 PUSH1 0x20 DUP3 ADD SWAP1 POP DUP2 DUP2 SUB PUSH1 0x0 DUP4 ADD MSTORE PUSH2 0x38E2 DUP2 PUSH2 0x338E JUMP JUMPDEST SWAP1 POP SWAP2 SWAP1 POP JUMP JUMPDEST PUSH1 0x0 PUSH1 0x20 DUP3 ADD SWAP1 POP DUP2 DUP2 SUB PUSH1 0x0 DUP4 ADD MSTORE PUSH2 0x3902 DUP2 PUSH2 0x33B1 JUMP JUMPDEST SWAP1 POP SWAP2 SWAP1 POP JUMP JUMPDEST PUSH1 0x0 PUSH1 0x20 DUP3 ADD SWAP1 POP DUP2 DUP2 SUB PUSH1 0x0 DUP4 ADD MSTORE PUSH2 0x3922 DUP2 PUSH2 0x33D4 JUMP JUMPDEST SWAP1 POP SWAP2 SWAP1 POP JUMP JUMPDEST PUSH1 0x0 PUSH1 0x20 DUP3 ADD SWAP1 POP DUP2 DUP2 SUB PUSH1 0x0 DUP4 ADD MSTORE PUSH2 0x3942 DUP2 PUSH2 0x33F7 JUMP JUMPDEST SWAP1 POP SWAP2 SWAP1 POP JUMP JUMPDEST PUSH1 0x0 PUSH1 0x20 DUP3 ADD SWAP1 POP DUP2 DUP2 SUB PUSH1 0x0 DUP4 ADD MSTORE PUSH2 0x3962 DUP2 PUSH2 0x341A JUMP JUMPDEST SWAP1 POP SWAP2 SWAP1 POP JUMP JUMPDEST PUSH1 0x0 PUSH1 0x20 DUP3 ADD SWAP1 POP DUP2 DUP2 SUB PUSH1 0x0 DUP4 ADD MSTORE PUSH2 0x3982 DUP2 PUSH2 0x343D JUMP JUMPDEST SWAP1 POP SWAP2 SWAP1 POP JUMP JUMPDEST PUSH1 0x0 PUSH1 0x20 DUP3 ADD SWAP1 POP DUP2 DUP2 SUB PUSH1 0x0 DUP4 ADD MSTORE PUSH2 0x39A2 DUP2 PUSH2 0x3460 JUMP JUMPDEST SWAP1 POP SWAP2 SWAP1 POP JUMP JUMPDEST PUSH1 0x0 PUSH1 0x20 DUP3 ADD SWAP1 POP DUP2 DUP2 SUB PUSH1 0x0 DUP4 ADD MSTORE PUSH2 0x39C2 DUP2 PUSH2 0x34A6 JUMP JUMPDEST SWAP1 POP SWAP2 SWAP1 POP JUMP JUMPDEST PUSH1 0x0 PUSH1 0x20 DUP3 ADD SWAP1 POP DUP2 DUP2 SUB PUSH1 0x0 DUP4 ADD MSTORE PUSH2 0x39E2 DUP2 PUSH2 0x34C9 JUMP JUMPDEST SWAP1 POP SWAP2 SWAP1 POP JUMP JUMPDEST PUSH1 0x0 PUSH1 0xA0 DUP3 ADD SWAP1 POP PUSH2 0x39FE PUSH1 0x0 DUP4 ADD DUP5 PUSH2 0x3554 JUMP JUMPDEST SWAP3 SWAP2 POP POP JUMP JUMPDEST PUSH1 0x0 PUSH1 0x20 DUP3 ADD SWAP1 POP PUSH2 0x3A19 PUSH1 0x0 DUP4 ADD DUP5 PUSH2 0x35CB JUMP JUMPDEST SWAP3 SWAP2 POP POP JUMP JUMPDEST PUSH1 0x0 PUSH1 0xA0 DUP3 ADD SWAP1 POP PUSH2 0x3A34 PUSH1 0x0 DUP4 ADD DUP8 PUSH2 0x35CB JUMP JUMPDEST PUSH2 0x3A41 PUSH1 0x20 DUP4 ADD DUP7 PUSH2 0x3067 JUMP JUMPDEST PUSH2 0x3A4E PUSH1 0x40 DUP4 ADD DUP6 PUSH2 0x3067 JUMP JUMPDEST DUP2 DUP2 SUB PUSH1 0x60 DUP4 ADD MSTORE PUSH2 0x3A5F DUP2 PUSH2 0x3483 JUMP JUMPDEST SWAP1 POP PUSH2 0x3A6E PUSH1 0x80 DUP4 ADD DUP5 PUSH2 0x312B JUMP JUMPDEST SWAP6 SWAP5 POP POP POP POP POP JUMP JUMPDEST PUSH1 0x0 PUSH2 0x3A81 PUSH2 0x3A92 JUMP JUMPDEST SWAP1 POP PUSH2 0x3A8D DUP3 DUP3 PUSH2 0x3D2F JUMP JUMPDEST SWAP2 SWAP1 POP JUMP JUMPDEST PUSH1 0x0 PUSH1 0x40 MLOAD SWAP1 POP SWAP1 JUMP JUMPDEST PUSH1 0x0 PUSH8 0xFFFFFFFFFFFFFFFF DUP3 GT ISZERO PUSH2 0x3AB7 JUMPI PUSH2 0x3AB6 PUSH2 0x3E96 JUMP JUMPDEST JUMPDEST PUSH2 0x3AC0 DUP3 PUSH2 0x3ED9 JUMP JUMPDEST SWAP1 POP PUSH1 0x20 DUP2 ADD SWAP1 POP SWAP2 SWAP1 POP JUMP JUMPDEST PUSH1 0x0 PUSH8 0xFFFFFFFFFFFFFFFF DUP3 GT ISZERO PUSH2 0x3AE8 JUMPI PUSH2 0x3AE7 PUSH2 0x3E96 JUMP JUMPDEST JUMPDEST PUSH2 0x3AF1 DUP3 PUSH2 0x3ED9 JUMP JUMPDEST SWAP1 POP PUSH1 0x20 DUP2 ADD SWAP1 POP SWAP2 SWAP1 POP JUMP JUMPDEST PUSH1 0x0 DUP2 SWAP1 POP PUSH1 0x20 DUP3 ADD SWAP1 POP SWAP2 SWAP1 POP JUMP JUMPDEST PUSH1 0x0 DUP2 MLOAD SWAP1 POP SWAP2 SWAP1 POP JUMP JUMPDEST PUSH1 0x0 DUP2 MLOAD SWAP1 POP SWAP2 SWAP1 POP JUMP JUMPDEST PUSH1 0x0 DUP2 MLOAD SWAP1 POP SWAP2 SWAP1 POP JUMP JUMPDEST PUSH1 0x0 PUSH1 0x20 DUP3 ADD SWAP1 POP SWAP2 SWAP1 POP JUMP JUMPDEST PUSH1 0x0 DUP3 DUP3 MSTORE PUSH1 0x20 DUP3 ADD SWAP1 POP SWAP3 SWAP2 POP POP JUMP JUMPDEST PUSH1 0x0 DUP3 DUP3 MSTORE PUSH1 0x20 DUP3 ADD SWAP1 POP SWAP3 SWAP2 POP POP JUMP JUMPDEST PUSH1 0x0 DUP3 DUP3 MSTORE PUSH1 0x20 DUP3 ADD SWAP1 POP SWAP3 SWAP2 POP POP JUMP JUMPDEST PUSH1 0x0 DUP2 SWAP1 POP SWAP3 SWAP2 POP POP JUMP JUMPDEST PUSH1 0x0 PUSH2 0x3B85 DUP3 PUSH2 0x3C9F JUMP JUMPDEST SWAP2 POP PUSH2 0x3B90 DUP4 PUSH2 0x3C9F JUMP JUMPDEST SWAP3 POP DUP3 PUSH32 0xFFFFFFFFFFFFFFFFFFFFFFFFFFFFFFFFFFFFFFFFFFFFFFFFFFFFFFFFFFFFFFFF SUB DUP3 GT ISZERO PUSH2 0x3BC5 JUMPI PUSH2 0x3BC4 PUSH2 0x3DDA JUMP JUMPDEST JUMPDEST DUP3 DUP3 ADD SWAP1 POP SWAP3 SWAP2 POP POP JUMP JUMPDEST PUSH1 0x0 PUSH2 0x3BDB DUP3 PUSH2 0x3C9F JUMP JUMPDEST SWAP2 POP PUSH2 0x3BE6 DUP4 PUSH2 0x3C9F JUMP JUMPDEST SWAP3 POP DUP3 PUSH2 0x3BF6 JUMPI PUSH2 0x3BF5 PUSH2 0x3E09 JUMP JUMPDEST JUMPDEST DUP3 DUP3 DIV SWAP1 POP SWAP3 SWAP2 POP POP JUMP JUMPDEST PUSH1 0x0 PUSH2 0x3C0C DUP3 PUSH2 0x3C9F JUMP JUMPDEST SWAP2 POP PUSH2 0x3C17 DUP4 PUSH2 0x3C9F JUMP JUMPDEST SWAP3 POP DUP3 DUP3 LT ISZERO PUSH2 0x3C2A JUMPI PUSH2 0x3C29 PUSH2 0x3DDA JUMP JUMPDEST JUMPDEST DUP3 DUP3 SUB SWAP1 POP SWAP3 SWAP2 POP POP JUMP JUMPDEST PUSH1 0x0 PUSH2 0x3C40 DUP3 PUSH2 0x3C7F JUMP JUMPDEST SWAP1 POP SWAP2 SWAP1 POP JUMP JUMPDEST PUSH1 0x0 DUP2 ISZERO ISZERO SWAP1 POP SWAP2 SWAP1 POP JUMP JUMPDEST PUSH1 0x0 PUSH32 0xFFFFFFFF00000000000000000000000000000000000000000000000000000000 DUP3 AND SWAP1 POP SWAP2 SWAP1 POP JUMP JUMPDEST PUSH1 0x0 PUSH20 0xFFFFFFFFFFFFFFFFFFFFFFFFFFFFFFFFFFFFFFFF DUP3 AND SWAP1 POP SWAP2 SWAP1 POP JUMP JUMPDEST PUSH1 0x0 DUP2 SWAP1 POP SWAP2 SWAP1 POP JUMP JUMPDEST PUSH1 0x0 PUSH2 0x3CB4 DUP3 PUSH2 0x3C9F JUMP JUMPDEST SWAP1 POP SWAP2 SWAP1 POP JUMP JUMPDEST DUP3 DUP2 DUP4 CALLDATACOPY PUSH1 0x0 DUP4 DUP4 ADD MSTORE POP POP POP JUMP JUMPDEST PUSH1 0x0 JUMPDEST DUP4 DUP2 LT ISZERO PUSH2 0x3CE8 JUMPI DUP1 DUP3 ADD MLOAD DUP2 DUP5 ADD MSTORE PUSH1 0x20 DUP2 ADD SWAP1 POP PUSH2 0x3CCD JUMP JUMPDEST DUP4 DUP2 GT ISZERO PUSH2 0x3CF7 JUMPI PUSH1 0x0 DUP5 DUP5 ADD MSTORE JUMPDEST POP POP POP POP JUMP JUMPDEST PUSH1 0x0 PUSH1 0x2 DUP3 DIV SWAP1 POP PUSH1 0x1 DUP3 AND DUP1 PUSH2 0x3D15 JUMPI PUSH1 0x7F DUP3 AND SWAP2 POP JUMPDEST PUSH1 0x20 DUP3 LT DUP2 EQ ISZERO PUSH2 0x3D29 JUMPI PUSH2 0x3D28 PUSH2 0x3E38 JUMP JUMPDEST JUMPDEST POP SWAP2 SWAP1 POP JUMP JUMPDEST PUSH2 0x3D38 DUP3 PUSH2 0x3ED9 JUMP JUMPDEST DUP2 ADD DUP2 DUP2 LT PUSH8 0xFFFFFFFFFFFFFFFF DUP3 GT OR ISZERO PUSH2 0x3D57 JUMPI PUSH2 0x3D56 PUSH2 0x3E96 JUMP JUMPDEST JUMPDEST DUP1 PUSH1 0x40 MSTORE POP POP POP JUMP JUMPDEST PUSH1 0x0 PUSH2 0x3D6B DUP3 PUSH2 0x3C9F JUMP JUMPDEST SWAP2 POP PUSH32 0xFFFFFFFFFFFFFFFFFFFFFFFFFFFFFFFFFFFFFFFFFFFFFFFFFFFFFFFFFFFFFFFF DUP3 EQ ISZERO PUSH2 0x3D9E JUMPI PUSH2 0x3D9D PUSH2 0x3DDA JUMP JUMPDEST JUMPDEST PUSH1 0x1 DUP3 ADD SWAP1 POP SWAP2 SWAP1 POP JUMP JUMPDEST PUSH1 0x0 PUSH2 0x3DB4 DUP3 PUSH2 0x3C9F JUMP JUMPDEST SWAP2 POP PUSH2 0x3DBF DUP4 PUSH2 0x3C9F JUMP JUMPDEST SWAP3 POP DUP3 PUSH2 0x3DCF JUMPI PUSH2 0x3DCE PUSH2 0x3E09 JUMP JUMPDEST JUMPDEST DUP3 DUP3 MOD SWAP1 POP SWAP3 SWAP2 POP POP JUMP JUMPDEST PUSH32 0x4E487B7100000000000000000000000000000000000000000000000000000000 PUSH1 0x0 MSTORE PUSH1 0x11 PUSH1 0x4 MSTORE PUSH1 0x24 PUSH1 0x0 REVERT JUMPDEST PUSH32 0x4E487B7100000000000000000000000000000000000000000000000000000000 PUSH1 0x0 MSTORE PUSH1 0x12 PUSH1 0x4 MSTORE PUSH1 0x24 PUSH1 0x0 REVERT JUMPDEST PUSH32 0x4E487B7100000000000000000000000000000000000000000000000000000000 PUSH1 0x0 MSTORE PUSH1 0x22 PUSH1 0x4 MSTORE PUSH1 0x24 PUSH1 0x0 REVERT JUMPDEST PUSH32 0x4E487B7100000000000000000000000000000000000000000000000000000000 PUSH1 0x0 MSTORE PUSH1 0x32 PUSH1 0x4 MSTORE PUSH1 0x24 PUSH1 0x0 REVERT JUMPDEST PUSH32 0x4E487B7100000000000000000000000000000000000000000000000000000000 PUSH1 0x0 MSTORE PUSH1 0x41 PUSH1 0x4 MSTORE PUSH1 0x24 PUSH1 0x0 REVERT JUMPDEST PUSH1 0x0 DUP1 REVERT JUMPDEST PUSH1 0x0 DUP1 REVERT JUMPDEST PUSH1 0x0 DUP1 REVERT JUMPDEST PUSH1 0x0 DUP1 REVERT JUMPDEST PUSH1 0x0 PUSH1 0x1F NOT PUSH1 0x1F DUP4 ADD AND SWAP1 POP SWAP2 SWAP1 POP JUMP JUMPDEST PUSH32 0x4552433732313A207472616E7366657220746F206E6F6E204552433732315265 PUSH1 0x0 DUP3 ADD MSTORE PUSH32 0x63656976657220696D706C656D656E7465720000000000000000000000000000 PUSH1 0x20 DUP3 ADD MSTORE POP JUMP JUMPDEST PUSH32 0x4552433732313A20746F6B656E20616C7265616479206D696E74656400000000 PUSH1 0x0 DUP3 ADD MSTORE POP JUMP JUMPDEST PUSH32 0x4E46544D61726B65743A206E6674206E6F74206C697374656420666F72207361 PUSH1 0x0 DUP3 ADD MSTORE PUSH32 0x6C65000000000000000000000000000000000000000000000000000000000000 PUSH1 0x20 DUP3 ADD MSTORE POP JUMP JUMPDEST PUSH32 0x4552433732313A207472616E7366657220746F20746865207A65726F20616464 PUSH1 0x0 DUP3 ADD MSTORE PUSH32 0x7265737300000000000000000000000000000000000000000000000000000000 PUSH1 0x20 DUP3 ADD MSTORE POP JUMP JUMPDEST PUSH32 0x4552433732313A20617070726F766520746F2063616C6C657200000000000000 PUSH1 0x0 DUP3 ADD MSTORE POP JUMP JUMPDEST PUSH32 0x4552433732313A206F70657261746F7220717565727920666F72206E6F6E6578 PUSH1 0x0 DUP3 ADD MSTORE PUSH32 0x697374656E7420746F6B656E0000000000000000000000000000000000000000 PUSH1 0x20 DUP3 ADD MSTORE POP JUMP JUMPDEST PUSH32 0x4F6E6C79206F776E65722063616E20757064617465206C697374696E67207072 PUSH1 0x0 DUP3 ADD MSTORE PUSH32 0x6963650000000000000000000000000000000000000000000000000000000000 PUSH1 0x20 DUP3 ADD MSTORE POP JUMP JUMPDEST PUSH32 0x4552433732313A20617070726F76652063616C6C6572206973206E6F74206F77 PUSH1 0x0 DUP3 ADD MSTORE PUSH32 0x6E6572206E6F7220617070726F76656420666F7220616C6C0000000000000000 PUSH1 0x20 DUP3 ADD MSTORE POP JUMP JUMPDEST PUSH32 0x4552433732313A2062616C616E636520717565727920666F7220746865207A65 PUSH1 0x0 DUP3 ADD MSTORE PUSH32 0x726F206164647265737300000000000000000000000000000000000000000000 PUSH1 0x20 DUP3 ADD MSTORE POP JUMP JUMPDEST PUSH32 0x4552433732313A206F776E657220717565727920666F72206E6F6E6578697374 PUSH1 0x0 DUP3 ADD MSTORE PUSH32 0x656E7420746F6B656E0000000000000000000000000000000000000000000000 PUSH1 0x20 DUP3 ADD MSTORE POP JUMP JUMPDEST PUSH32 0x45524337323155524953746F726167653A2055524920736574206F66206E6F6E PUSH1 0x0 DUP3 ADD MSTORE PUSH32 0x6578697374656E7420746F6B656E000000000000000000000000000000000000 PUSH1 0x20 DUP3 ADD MSTORE POP JUMP JUMPDEST PUSH32 0x506C65617365207375626D6974207468652061736B696E672070726963652069 PUSH1 0x0 DUP3 ADD MSTORE PUSH32 0x6E206F7264657220746F20636F6D706C65746520746865207075726368617365 PUSH1 0x20 DUP3 ADD MSTORE POP JUMP JUMPDEST PUSH32 0x4552433732313A206D696E7420746F20746865207A65726F2061646472657373 PUSH1 0x0 DUP3 ADD MSTORE POP JUMP JUMPDEST PUSH32 0x45524337323155524953746F726167653A2055524920717565727920666F7220 PUSH1 0x0 DUP3 ADD MSTORE PUSH32 0x6E6F6E6578697374656E7420746F6B656E000000000000000000000000000000 PUSH1 0x20 DUP3 ADD MSTORE POP JUMP JUMPDEST PUSH32 0x4552433732313A20617070726F76656420717565727920666F72206E6F6E6578 PUSH1 0x0 DUP3 ADD MSTORE PUSH32 0x697374656E7420746F6B656E0000000000000000000000000000000000000000 PUSH1 0x20 DUP3 ADD MSTORE POP JUMP JUMPDEST PUSH32 0x4552433732313A207472616E73666572206F6620746F6B656E20746861742069 PUSH1 0x0 DUP3 ADD MSTORE PUSH32 0x73206E6F74206F776E0000000000000000000000000000000000000000000000 PUSH1 0x20 DUP3 ADD MSTORE POP JUMP JUMPDEST PUSH32 0x4552433732314D657461646174613A2055524920717565727920666F72206E6F PUSH1 0x0 DUP3 ADD MSTORE PUSH32 0x6E6578697374656E7420746F6B656E0000000000000000000000000000000000 PUSH1 0x20 DUP3 ADD MSTORE POP JUMP JUMPDEST PUSH32 0x486F706566756C6C792073656E64696E672074686520636F7272656374207072 PUSH1 0x0 DUP3 ADD MSTORE PUSH32 0x6963650000000000000000000000000000000000000000000000000000000000 PUSH1 0x20 DUP3 ADD MSTORE POP JUMP JUMPDEST PUSH32 0x4552433732313A20617070726F76616C20746F2063757272656E74206F776E65 PUSH1 0x0 DUP3 ADD MSTORE PUSH32 0x7200000000000000000000000000000000000000000000000000000000000000 PUSH1 0x20 DUP3 ADD MSTORE POP JUMP JUMPDEST PUSH32 0x4E46544D61726B65743A20796F75277265206E6F74207468652073656C6C6572 PUSH1 0x0 DUP3 ADD MSTORE POP JUMP JUMPDEST PUSH32 0x596F7520617265206E6F7420746865206F776E6572206F662074686520746F6B PUSH1 0x0 DUP3 ADD MSTORE PUSH32 0x656E000000000000000000000000000000000000000000000000000000000000 PUSH1 0x20 DUP3 ADD MSTORE POP JUMP JUMPDEST POP JUMP JUMPDEST PUSH32 0x4552433732313A207472616E736665722063616C6C6572206973206E6F74206F PUSH1 0x0 DUP3 ADD MSTORE PUSH32 0x776E6572206E6F7220617070726F766564000000000000000000000000000000 PUSH1 0x20 DUP3 ADD MSTORE POP JUMP JUMPDEST PUSH32 0x4D616B652073757265207468652070726963652069736E2774206E6567617469 PUSH1 0x0 DUP3 ADD MSTORE PUSH32 0x7665000000000000000000000000000000000000000000000000000000000000 PUSH1 0x20 DUP3 ADD MSTORE POP JUMP JUMPDEST PUSH2 0x4577 DUP2 PUSH2 0x3C35 JUMP JUMPDEST DUP2 EQ PUSH2 0x4582 JUMPI PUSH1 0x0 DUP1 REVERT JUMPDEST POP JUMP JUMPDEST PUSH2 0x458E DUP2 PUSH2 0x3C47 JUMP JUMPDEST DUP2 EQ PUSH2 0x4599 JUMPI PUSH1 0x0 DUP1 REVERT JUMPDEST POP JUMP JUMPDEST PUSH2 0x45A5 DUP2 PUSH2 0x3C53 JUMP JUMPDEST DUP2 EQ PUSH2 0x45B0 JUMPI PUSH1 0x0 DUP1 REVERT JUMPDEST POP JUMP JUMPDEST PUSH2 0x45BC DUP2 PUSH2 0x3C9F JUMP JUMPDEST DUP2 EQ PUSH2 0x45C7 JUMPI PUSH1 0x0 DUP1 REVERT JUMPDEST POP JUMP INVALID LOG2 PUSH5 0x6970667358 0x22 SLT KECCAK256 SWAP7 PUSH12 0xEB6579005691097BD37C7913 0x2C 0xDB 0x1F RETURN BASEFEE MULMOD STOP PUSH28 0x313E3CF3E1820971140664736F6C6343000807003300000000000000 "},"gasEstimates":{"creation":{"codeDepositCost":"3584000","executionCost":"infinite","totalCost":"infinite"},"external":{"approve(address,uint256)":"infinite","balanceOf(address)":"2902","cancelListing(uint256)":"infinite","createListedToken(uint256,uint256)":"infinite","createToken(string)":"infinite","executeSale(uint256)":"infinite","getAllNFTs()":"infinite","getApproved(uint256)":"5228","getCurrentToken()":"2618","getLatestIdToListedToken()":"infinite","getListPrice()":"2570","getListedTokenForId(uint256)":"infinite","getMyNFTs()":"infinite","isApprovedForAll(address,address)":"infinite","name()":"infinite","ownerOf(uint256)":"3088","safeTransferFrom(address,address,uint256)":"infinite","safeTransferFrom(address,address,uint256,bytes)":"infinite","setApprovalForAll(address,bool)":"infinite","supportsInterface(bytes4)":"797","symbol()":"infinite","tokenURI(uint256)":"infinite","transferFrom(address,address,uint256)":"infinite","updateListPrice(uint256)":"24688"},"internal":{"clearListing(uint256)":"83266"}},"methodIdentifiers":{"approve(address,uint256)":"095ea7b3","balanceOf(address)":"70a08231","cancelListing(uint256)":"305a67a8","createListedToken(uint256,uint256)":"55524f56","createToken(string)":"45576f94","executeSale(uint256)":"9b1225c4","getAllNFTs()":"e0391b09","getApproved(uint256)":"081812fc","getCurrentToken()":"ef2d1746","getLatestIdToListedToken()":"d1a88ae5","getListPrice()":"68f1945f","getListedTokenForId(uint256)":"8e264590","getMyNFTs()":"629cb2e4","isApprovedForAll(address,address)":"e985e9c5","name()":"06fdde03","ownerOf(uint256)":"6352211e","safeTransferFrom(address,address,uint256)":"42842e0e","safeTransferFrom(address,address,uint256,bytes)":"b88d4fde","setApprovalForAll(address,bool)":"a22cb465","supportsInterface(bytes4)":"01ffc9a7","symbol()":"95d89b41","tokenURI(uint256)":"c87b56dd","transferFrom(address,address,uint256)":"23b872dd","updateListPrice(uint256)":"c322579c"}},"storageLayout":{"storage":[{"astId":25,"contract":"contracts/NFTMarketplace.sol:NFTMarketplace","label":"_name","offset":0,"slot":"0","type":"t_string_storage"},{"astId":27,"contract":"contracts/NFTMarketplace.sol:NFTMarketplace","label":"_symbol","offset":0,"slot":"1","type":"t_string_storage"},{"astId":31,"contract":"contracts/NFTMarketplace.sol:NFTMarketplace","label":"_owners","offset":0,"slot":"2","type":"t_mapping(t_uint256,t_address)"},{"astId":35,"contract":"contracts/NFTMarketplace.sol:NFTMarketplace","label":"_balances","offset":0,"slot":"3","type":"t_mapping(t_address,t_uint256)"},{"astId":39,"contract":"contracts/NFTMarketplace.sol:NFTMarketplace","label":"_tokenApprovals","offset":0,"slot":"4","type":"t_mapping(t_uint256,t_address)"},{"astId":45,"contract":"contracts/NFTMarketplace.sol:NFTMarketplace","label":"_operatorApprovals","offset":0,"slot":"5","type":"t_mapping(t_address,t_mapping(t_address,t_bool))"},{"astId":962,"contract":"contracts/NFTMarketplace.sol:NFTMarketplace","label":"_tokenURIs","offset":0,"slot":"6","type":"t_mapping(t_uint256,t_string_storage)"},{"astId":1751,"contract":"contracts/NFTMarketplace.sol:NFTMarketplace","label":"_tokenIds","offset":0,"slot":"7","type":"t_struct(Counter)1429_storage"},{"astId":1754,"contract":"contracts/NFTMarketplace.sol:NFTMarketplace","label":"_itemsSold","offset":0,"slot":"8","type":"t_struct(Counter)1429_storage"},{"astId":1756,"contract":"contracts/NFTMarketplace.sol:NFTMarketplace","label":"owner","offset":0,"slot":"9","type":"t_address_payable"},{"astId":1759,"contract":"contracts/NFTMarketplace.sol:NFTMarketplace","label":"listPrice","offset":0,"slot":"10","type":"t_uint256"},{"astId":1799,"contract":"contracts/NFTMarketplace.sol:NFTMarketplace","label":"idToListedToken","offset":0,"slot":"11","type":"t_mapping(t_uint256,t_struct(ListedToken)1770_storage)"}],"types":{"t_address":{"encoding":"inplace","label":"address","numberOfBytes":"20"},"t_address_payable":{"encoding":"inplace","label":"address payable","numberOfBytes":"20"},"t_bool":{"encoding":"inplace","label":"bool","numberOfBytes":"1"},"t_mapping(t_address,t_bool)":{"encoding":"mapping","key":"t_address","label":"mapping(address => bool)","numberOfBytes":"32","value":"t_bool"},"t_mapping(t_address,t_mapping(t_address,t_bool))":{"encoding":"mapping","key":"t_address","label":"mapping(address => mapping(address => bool))","numberOfBytes":"32","value":"t_mapping(t_address,t_bool)"},"t_mapping(t_address,t_uint256)":{"encoding":"mapping","key":"t_address","label":"mapping(address => uint256)","numberOfBytes":"32","value":"t_uint256"},"t_mapping(t_uint256,t_address)":{"encoding":"mapping","key":"t_uint256","label":"mapping(uint256 => address)","numberOfBytes":"32","value":"t_address"},"t_mapping(t_uint256,t_string_storage)":{"encoding":"mapping","key":"t_uint256","label":"mapping(uint256 => string)","numberOfBytes":"32","value":"t_string_storage"},"t_mapping(t_uint256,t_struct(ListedToken)1770_storage)":{"encoding":"mapping","key":"t_uint256","label":"mapping(uint256 => struct NFTMarketplace.ListedToken)","numberOfBytes":"32","value":"t_struct(ListedToken)1770_storage"},"t_string_storage":{"encoding":"bytes","label":"string","numberOfBytes":"32"},"t_struct(Counter)1429_storage":{"encoding":"inplace","label":"struct Counters.Counter","members":[{"astId":1428,"contract":"contracts/NFTMarketplace.sol:NFTMarketplace","label":"_value","offset":0,"slot":"0","type":"t_uint256"}],"numberOfBytes":"32"},"t_struct(ListedToken)1770_storage":{"encoding":"inplace","label":"struct NFTMarketplace.ListedToken","members":[{"astId":1761,"contract":"contracts/NFTMarketplace.sol:NFTMarketplace","label":"tokenId","offset":0,"slot":"0","type":"t_uint256"},{"astId":1763,"contract":"contracts/NFTMarketplace.sol:NFTMarketplace","label":"owner","offset":0,"slot":"1","type":"t_address"},{"astId":1765,"contract":"contracts/NFTMarketplace.sol:NFTMarketplace","label":"seller","offset":0,"slot":"2","type":"t_address"},{"astId":1767,"contract":"contracts/NFTMarketplace.sol:NFTMarketplace","label":"price","offset":0,"slot":"3","type":"t_uint256"},{"astId":1769,"contract":"contracts/NFTMarketplace.sol:NFTMarketplace","label":"currentlyListed","offset":0,"slot":"4","type":"t_bool"}],"numberOfBytes":"160"},"t_uint256":{"encoding":"inplace","label":"uint256","numberOfBytes":"32"}}},"userdoc":{"kind":"user","methods":{},"version":1}}}}