{
  "address": "0x6Cf54fcc630502d61A450363ADD15929E0B45a18",
  "abi": [
    {
      "inputs": [],
      "stateMutability": "nonpayable",
      "type": "constructor"
    },
    {
      "anonymous": false,
      "inputs": [
        {
          "indexed": true,
          "internalType": "address",
          "name": "owner",
          "type": "address"
        },
        {
          "indexed": true,
          "internalType": "address",
          "name": "approved",
          "type": "address"
        },
        {
          "indexed": true,
          "internalType": "uint256",
          "name": "tokenId",
          "type": "uint256"
        }
      ],
      "name": "Approval",
      "type": "event"
    },
    {
      "anonymous": false,
      "inputs": [
        {
          "indexed": true,
          "internalType": "address",
          "name": "owner",
          "type": "address"
        },
        {
          "indexed": true,
          "internalType": "address",
          "name": "operator",
          "type": "address"
        },
        {
          "indexed": false,
          "internalType": "bool",
          "name": "approved",
          "type": "bool"
        }
      ],
      "name": "ApprovalForAll",
      "type": "event"
    },
    {
      "anonymous": false,
      "inputs": [
        {
          "indexed": false,
          "internalType": "uint256",
          "name": "amount",
          "type": "uint256"
        }
      ],
      "name": "BalanceWithdrawn",
      "type": "event"
    },
    {
      "anonymous": false,
      "inputs": [
        {
          "indexed": false,
          "internalType": "uint256",
          "name": "newCost",
          "type": "uint256"
        }
      ],
      "name": "EntryCostChanged",
      "type": "event"
    },
    {
      "anonymous": false,
      "inputs": [
        {
          "indexed": false,
          "internalType": "uint256",
          "name": "nftId",
          "type": "uint256"
        }
      ],
      "name": "NFTPrizeSet",
      "type": "event"
    },
    {
      "anonymous": false,
      "inputs": [
        {
          "indexed": false,
          "internalType": "uint256",
          "name": "tokenID",
          "type": "uint256"
        },
        {
          "indexed": false,
          "internalType": "address",
          "name": "from",
          "type": "address"
        },
        {
          "indexed": false,
          "internalType": "address",
          "name": "to",
          "type": "address"
        },
        {
          "indexed": false,
          "internalType": "string",
          "name": "tokenURI",
          "type": "string"
        },
        {
          "indexed": false,
          "internalType": "uint256",
          "name": "price",
          "type": "uint256"
        }
      ],
      "name": "NFTTransfer",
      "type": "event"
    },
    {
      "anonymous": false,
      "inputs": [
        {
          "indexed": false,
          "internalType": "address",
          "name": "player",
          "type": "address"
        }
      ],
      "name": "NewEntry",
      "type": "event"
    },
    {
      "anonymous": false,
      "inputs": [],
      "name": "RaffleEnded",
      "type": "event"
    },
    {
      "anonymous": false,
      "inputs": [],
      "name": "RaffleStarted",
      "type": "event"
    },
    {
      "anonymous": false,
      "inputs": [
        {
          "indexed": false,
          "internalType": "uint256",
          "name": "tokenID",
          "type": "uint256"
        }
      ],
      "name": "TokenListed",
      "type": "event"
    },
    {
      "anonymous": false,
      "inputs": [
        {
          "indexed": true,
          "internalType": "uint256",
          "name": "tokenId",
          "type": "uint256"
        },
        {
          "indexed": false,
          "internalType": "address",
          "name": "owner",
          "type": "address"
        },
        {
          "indexed": false,
          "internalType": "address",
          "name": "seller",
          "type": "address"
        },
        {
          "indexed": false,
          "internalType": "uint256",
          "name": "price",
          "type": "uint256"
        },
        {
          "indexed": false,
          "internalType": "bool",
          "name": "currentlyListed",
          "type": "bool"
        }
      ],
      "name": "TokenListedSuccess",
      "type": "event"
    },
    {
      "anonymous": false,
      "inputs": [
        {
          "indexed": true,
          "internalType": "address",
          "name": "from",
          "type": "address"
        },
        {
          "indexed": true,
          "internalType": "address",
          "name": "to",
          "type": "address"
        },
        {
          "indexed": true,
          "internalType": "uint256",
          "name": "tokenId",
          "type": "uint256"
        }
      ],
      "name": "Transfer",
      "type": "event"
    },
    {
      "anonymous": false,
      "inputs": [
        {
          "indexed": false,
          "internalType": "address",
          "name": "winner",
          "type": "address"
        }
      ],
      "name": "WinnerSelected",
      "type": "event"
    },
    {
      "inputs": [
        {
          "internalType": "address",
          "name": "to",
          "type": "address"
        },
        {
          "internalType": "uint256",
          "name": "tokenId",
          "type": "uint256"
        }
      ],
      "name": "approve",
      "outputs": [],
      "stateMutability": "nonpayable",
      "type": "function"
    },
    {
      "inputs": [
        {
          "internalType": "address",
          "name": "owner",
          "type": "address"
        }
      ],
      "name": "balanceOf",
      "outputs": [
        {
          "internalType": "uint256",
          "name": "",
          "type": "uint256"
        }
      ],
      "stateMutability": "view",
      "type": "function"
    },
    {
      "inputs": [
        {
          "internalType": "uint256",
          "name": "_numberOfEntries",
          "type": "uint256"
        }
      ],
      "name": "buyEntry",
      "outputs": [],
      "stateMutability": "payable",
      "type": "function"
    },
    {
      "inputs": [
        {
          "internalType": "uint256",
          "name": "tokenId",
          "type": "uint256"
        }
      ],
      "name": "cancelListing",
      "outputs": [],
      "stateMutability": "nonpayable",
      "type": "function"
    },
    {
      "inputs": [
        {
          "internalType": "uint256",
          "name": "_newCost",
          "type": "uint256"
        }
      ],
      "name": "changeEntryCost",
      "outputs": [],
      "stateMutability": "nonpayable",
      "type": "function"
    },
    {
      "inputs": [
        {
          "internalType": "uint256",
          "name": "tokenId",
          "type": "uint256"
        },
        {
          "internalType": "uint256",
          "name": "price",
          "type": "uint256"
        }
      ],
      "name": "createListedToken",
      "outputs": [],
      "stateMutability": "payable",
      "type": "function"
    },
    {
      "inputs": [
        {
          "internalType": "string",
          "name": "tokenURI",
          "type": "string"
        }
      ],
      "name": "createToken",
      "outputs": [],
      "stateMutability": "payable",
      "type": "function"
    },
    {
      "inputs": [],
      "name": "endRaffle",
      "outputs": [],
      "stateMutability": "nonpayable",
      "type": "function"
    },
    {
      "inputs": [],
      "name": "entryCost",
      "outputs": [
        {
          "internalType": "uint256",
          "name": "",
          "type": "uint256"
        }
      ],
      "stateMutability": "view",
      "type": "function"
    },
    {
      "inputs": [
        {
          "internalType": "address",
          "name": "",
          "type": "address"
        }
      ],
      "name": "entryCount",
      "outputs": [
        {
          "internalType": "uint256",
          "name": "",
          "type": "uint256"
        }
      ],
      "stateMutability": "view",
      "type": "function"
    },
    {
      "inputs": [
        {
          "internalType": "uint256",
          "name": "tokenId",
          "type": "uint256"
        }
      ],
      "name": "executeSale",
      "outputs": [],
      "stateMutability": "payable",
      "type": "function"
    },
    {
      "inputs": [],
      "name": "getAllNFTs",
      "outputs": [
        {
          "components": [
            {
              "internalType": "uint256",
              "name": "tokenId",
              "type": "uint256"
            },
            {
              "internalType": "address",
              "name": "owner",
              "type": "address"
            },
            {
              "internalType": "address",
              "name": "seller",
              "type": "address"
            },
            {
              "internalType": "uint256",
              "name": "price",
              "type": "uint256"
            },
            {
              "internalType": "bool",
              "name": "currentlyListed",
              "type": "bool"
            }
          ],
          "internalType": "struct NFTMarketplace.ListedToken[]",
          "name": "",
          "type": "tuple[]"
        }
      ],
      "stateMutability": "view",
      "type": "function"
    },
    {
      "inputs": [
        {
          "internalType": "uint256",
          "name": "tokenId",
          "type": "uint256"
        }
      ],
      "name": "getApproved",
      "outputs": [
        {
          "internalType": "address",
          "name": "",
          "type": "address"
        }
      ],
      "stateMutability": "view",
      "type": "function"
    },
    {
      "inputs": [],
      "name": "getBalance",
      "outputs": [
        {
          "internalType": "uint256",
          "name": "",
          "type": "uint256"
        }
      ],
      "stateMutability": "view",
      "type": "function"
    },
    {
      "inputs": [],
      "name": "getCurrentToken",
      "outputs": [
        {
          "internalType": "uint256",
          "name": "",
          "type": "uint256"
        }
      ],
      "stateMutability": "view",
      "type": "function"
    },
    {
      "inputs": [],
      "name": "getLatestIdToListedToken",
      "outputs": [
        {
          "components": [
            {
              "internalType": "uint256",
              "name": "tokenId",
              "type": "uint256"
            },
            {
              "internalType": "address",
              "name": "owner",
              "type": "address"
            },
            {
              "internalType": "address",
              "name": "seller",
              "type": "address"
            },
            {
              "internalType": "uint256",
              "name": "price",
              "type": "uint256"
            },
            {
              "internalType": "bool",
              "name": "currentlyListed",
              "type": "bool"
            }
          ],
          "internalType": "struct NFTMarketplace.ListedToken",
          "name": "",
          "type": "tuple"
        }
      ],
      "stateMutability": "view",
      "type": "function"
    },
    {
      "inputs": [],
      "name": "getListPrice",
      "outputs": [
        {
          "internalType": "uint256",
          "name": "",
          "type": "uint256"
        }
      ],
      "stateMutability": "view",
      "type": "function"
    },
    {
      "inputs": [
        {
          "internalType": "uint256",
          "name": "tokenId",
          "type": "uint256"
        }
      ],
      "name": "getListedTokenForId",
      "outputs": [
        {
          "components": [
            {
              "internalType": "uint256",
              "name": "tokenId",
              "type": "uint256"
            },
            {
              "internalType": "address",
              "name": "owner",
              "type": "address"
            },
            {
              "internalType": "address",
              "name": "seller",
              "type": "address"
            },
            {
              "internalType": "uint256",
              "name": "price",
              "type": "uint256"
            },
            {
              "internalType": "bool",
              "name": "currentlyListed",
              "type": "bool"
            }
          ],
          "internalType": "struct NFTMarketplace.ListedToken",
          "name": "",
          "type": "tuple"
        }
      ],
      "stateMutability": "view",
      "type": "function"
    },
    {
      "inputs": [],
      "name": "getMyNFTs",
      "outputs": [
        {
          "components": [
            {
              "internalType": "uint256",
              "name": "tokenId",
              "type": "uint256"
            },
            {
              "internalType": "address",
              "name": "owner",
              "type": "address"
            },
            {
              "internalType": "address",
              "name": "seller",
              "type": "address"
            },
            {
              "internalType": "uint256",
              "name": "price",
              "type": "uint256"
            },
            {
              "internalType": "bool",
              "name": "currentlyListed",
              "type": "bool"
            }
          ],
          "internalType": "struct NFTMarketplace.ListedToken[]",
          "name": "",
          "type": "tuple[]"
        }
      ],
      "stateMutability": "view",
      "type": "function"
    },
    {
      "inputs": [],
      "name": "getPlayers",
      "outputs": [
        {
          "internalType": "address[]",
          "name": "",
          "type": "address[]"
        }
      ],
      "stateMutability": "view",
      "type": "function"
    },
    {
      "inputs": [
        {
          "internalType": "address",
          "name": "owner",
          "type": "address"
        },
        {
          "internalType": "address",
          "name": "operator",
          "type": "address"
        }
      ],
      "name": "isApprovedForAll",
      "outputs": [
        {
          "internalType": "bool",
          "name": "",
          "type": "bool"
        }
      ],
      "stateMutability": "view",
      "type": "function"
    },
    {
      "inputs": [
        {
          "internalType": "address",
          "name": "_player",
          "type": "address"
        }
      ],
      "name": "isPlayer",
      "outputs": [
        {
          "internalType": "bool",
          "name": "",
          "type": "bool"
        }
      ],
      "stateMutability": "view",
      "type": "function"
    },
    {
      "inputs": [],
      "name": "name",
      "outputs": [
        {
          "internalType": "string",
          "name": "",
          "type": "string"
        }
      ],
      "stateMutability": "view",
      "type": "function"
    },
    {
      "inputs": [],
      "name": "nftId",
      "outputs": [
        {
          "internalType": "uint256",
          "name": "",
          "type": "uint256"
        }
      ],
      "stateMutability": "view",
      "type": "function"
    },
    {
      "inputs": [
        {
          "internalType": "uint256",
          "name": "tokenId",
          "type": "uint256"
        }
      ],
      "name": "ownerOf",
      "outputs": [
        {
          "internalType": "address",
          "name": "",
          "type": "address"
        }
      ],
      "stateMutability": "view",
      "type": "function"
    },
    {
      "inputs": [
        {
          "internalType": "uint256",
          "name": "",
          "type": "uint256"
        }
      ],
      "name": "playerSelector",
      "outputs": [
        {
          "internalType": "address",
          "name": "",
          "type": "address"
        }
      ],
      "stateMutability": "view",
      "type": "function"
    },
    {
      "inputs": [
        {
          "internalType": "uint256",
          "name": "",
          "type": "uint256"
        }
      ],
      "name": "players",
      "outputs": [
        {
          "internalType": "address",
          "name": "",
          "type": "address"
        }
      ],
      "stateMutability": "view",
      "type": "function"
    },
    {
      "inputs": [],
      "name": "raffleStatus",
      "outputs": [
        {
          "internalType": "bool",
          "name": "",
          "type": "bool"
        }
      ],
      "stateMutability": "view",
      "type": "function"
    },
    {
      "inputs": [],
      "name": "resestContracts",
      "outputs": [],
      "stateMutability": "nonpayable",
      "type": "function"
    },
    {
      "inputs": [
        {
          "internalType": "address",
          "name": "from",
          "type": "address"
        },
        {
          "internalType": "address",
          "name": "to",
          "type": "address"
        },
        {
          "internalType": "uint256",
          "name": "tokenId",
          "type": "uint256"
        }
      ],
      "name": "safeTransferFrom",
      "outputs": [],
      "stateMutability": "nonpayable",
      "type": "function"
    },
    {
      "inputs": [
        {
          "internalType": "address",
          "name": "from",
          "type": "address"
        },
        {
          "internalType": "address",
          "name": "to",
          "type": "address"
        },
        {
          "internalType": "uint256",
          "name": "tokenId",
          "type": "uint256"
        },
        {
          "internalType": "bytes",
          "name": "_data",
          "type": "bytes"
        }
      ],
      "name": "safeTransferFrom",
      "outputs": [],
      "stateMutability": "nonpayable",
      "type": "function"
    },
    {
      "inputs": [],
      "name": "selectWinner",
      "outputs": [],
      "stateMutability": "payable",
      "type": "function"
    },
    {
      "inputs": [
        {
          "internalType": "address",
          "name": "operator",
          "type": "address"
        },
        {
          "internalType": "bool",
          "name": "approved",
          "type": "bool"
        }
      ],
      "name": "setApprovalForAll",
      "outputs": [],
      "stateMutability": "nonpayable",
      "type": "function"
    },
    {
      "inputs": [
        {
          "internalType": "uint256",
          "name": "_tokenId",
          "type": "uint256"
        }
      ],
      "name": "startRaffle",
      "outputs": [],
      "stateMutability": "nonpayable",
      "type": "function"
    },
    {
      "inputs": [
        {
          "internalType": "bytes4",
          "name": "interfaceId",
          "type": "bytes4"
        }
      ],
      "name": "supportsInterface",
      "outputs": [
        {
          "internalType": "bool",
          "name": "",
          "type": "bool"
        }
      ],
      "stateMutability": "view",
      "type": "function"
    },
    {
      "inputs": [],
      "name": "symbol",
      "outputs": [
        {
          "internalType": "string",
          "name": "",
          "type": "string"
        }
      ],
      "stateMutability": "view",
      "type": "function"
    },
    {
      "inputs": [
        {
          "internalType": "uint256",
          "name": "tokenId",
          "type": "uint256"
        }
      ],
      "name": "tokenURI",
      "outputs": [
        {
          "internalType": "string",
          "name": "",
          "type": "string"
        }
      ],
      "stateMutability": "view",
      "type": "function"
    },
    {
      "inputs": [],
      "name": "totalEntries",
      "outputs": [
        {
          "internalType": "uint256",
          "name": "",
          "type": "uint256"
        }
      ],
      "stateMutability": "view",
      "type": "function"
    },
    {
      "inputs": [
        {
          "internalType": "address",
          "name": "from",
          "type": "address"
        },
        {
          "internalType": "address",
          "name": "to",
          "type": "address"
        },
        {
          "internalType": "uint256",
          "name": "tokenId",
          "type": "uint256"
        }
      ],
      "name": "transferFrom",
      "outputs": [],
      "stateMutability": "nonpayable",
      "type": "function"
    },
    {
      "inputs": [
        {
          "internalType": "uint256",
          "name": "_listPrice",
          "type": "uint256"
        }
      ],
      "name": "updateListPrice",
      "outputs": [],
      "stateMutability": "payable",
      "type": "function"
    },
    {
      "inputs": [],
      "name": "withdrawBlance",
      "outputs": [],
      "stateMutability": "nonpayable",
      "type": "function"
    }
  ],
  "transactionHash": "0xec65e68ccd6f64a4cd415f95c7b6c13ac0adf7faace6c4410a57a69ca5112dd5",
  "args": [],
  "numDeployments": 9,
  "solcInputHash": "c31fe1fdcfd91b8021158ad66630718d",
  "bytecode": "0x6080604052662386f26fc10000600a55662386f26fc10000600f553480156200002757600080fd5b506040518060400160405280600e81526020017f4e46544d61726b6574706c6163650000000000000000000000000000000000008152506040518060400160405280600481526020017f4e46544d000000000000000000000000000000000000000000000000000000008152508160009080519060200190620000ac92919062000132565b508060019080519060200190620000c592919062000132565b50505033600960006101000a81548173ffffffffffffffffffffffffffffffffffffffff021916908373ffffffffffffffffffffffffffffffffffffffff1602179055506000600e60006101000a81548160ff021916908315150217905550600060118190555062000247565b8280546200014090620001e2565b90600052602060002090601f016020900481019282620001645760008555620001b0565b82601f106200017f57805160ff1916838001178555620001b0565b82800160010185558215620001b0579182015b82811115620001af57825182559160200191906001019062000192565b5b509050620001bf9190620001c3565b5090565b5b80821115620001de576000816000905550600101620001c4565b5090565b60006002820490506001821680620001fb57607f821691505b6020821081141562000212576200021162000218565b5b50919050565b7f4e487b7100000000000000000000000000000000000000000000000000000000600052602260045260246000fd5b615cd680620002576000396000f3fe6080604052600436106102465760003560e01c8063767d59af11610139578063c322579c116100b6578063e0391b091161007a578063e0391b091461082c578063e985e9c514610857578063ee095c0e14610894578063ef2d1746146108ab578063f1ae8c55146108d6578063f71d96cb146108ff57610246565b8063c322579c14610752578063c6bc51821461076e578063c87b56dd14610799578063ccfa213e146107d6578063d1a88ae51461080157610246565b80639b1225c4116100fd5780639b1225c4146106a2578063a22cb465146106be578063a3d3f6f5146106e7578063ae42ced6146106fe578063b88d4fde1461072957610246565b8063767d59af146105c85780637fef036e146105e45780638b5b9ccc1461060f5780638e2645901461063a57806395d89b411461067757610246565b806333a99e04116101c7578063629cb2e41161018b578063629cb2e4146104e15780636352211e1461050c57806368f1945f146105495780636b37a6f51461057457806370a082311461058b57610246565b806333a99e041461043957806341dd1ef81461044357806342842e0e1461048057806345576f94146104a957806355524f56146104c557610246565b806309c95e101161020e57806309c95e101461034257806310e068051461037f57806312065fe0146103bc57806323b872dd146103e7578063305a67a81461041057610246565b806301ffc9a71461024b5780630513ec681461028857806306fdde03146102b1578063081812fc146102dc578063095ea7b314610319575b600080fd5b34801561025757600080fd5b50610272600480360381019061026d9190614086565b61093c565b60405161027f9190614a60565b60405180910390f35b34801561029457600080fd5b506102af60048036038101906102aa9190614129565b610a1e565b005b3480156102bd57600080fd5b506102c6610b3e565b6040516102d39190614a7b565b60405180910390f35b3480156102e857600080fd5b5061030360048036038101906102fe9190614129565b610bd0565b6040516103109190614970565b60405180910390f35b34801561032557600080fd5b50610340600480360381019061033b9190614046565b610c55565b005b34801561034e57600080fd5b5061036960048036038101906103649190613ec3565b610d6d565b6040516103769190614a60565b60405180910390f35b34801561038b57600080fd5b506103a660048036038101906103a19190614129565b610e1c565b6040516103b39190614970565b60405180910390f35b3480156103c857600080fd5b506103d1610e5b565b6040516103de9190614eb8565b60405180910390f35b3480156103f357600080fd5b5061040e60048036038101906104099190613f30565b610e63565b005b34801561041c57600080fd5b5061043760048036038101906104329190614129565b610ec3565b005b6104416110cf565b005b34801561044f57600080fd5b5061046a60048036038101906104659190613ec3565b61130d565b6040516104779190614eb8565b60405180910390f35b34801561048c57600080fd5b506104a760048036038101906104a29190613f30565b611325565b005b6104c360048036038101906104be91906140e0565b611345565b005b6104df60048036038101906104da9190614156565b6113ac565b005b3480156104ed57600080fd5b506104f6611625565b6040516105039190614a3e565b60405180910390f35b34801561051857600080fd5b50610533600480360381019061052e9190614129565b611a06565b6040516105409190614970565b60405180910390f35b34801561055557600080fd5b5061055e611ab8565b60405161056b9190614eb8565b60405180910390f35b34801561058057600080fd5b50610589611ac2565b005b34801561059757600080fd5b506105b260048036038101906105ad9190613ec3565b611c71565b6040516105bf9190614eb8565b60405180910390f35b6105e260048036038101906105dd9190614129565b611d29565b005b3480156105f057600080fd5b506105f9611f2c565b6040516106069190614eb8565b60405180910390f35b34801561061b57600080fd5b50610624611f32565b6040516106319190614a1c565b60405180910390f35b34801561064657600080fd5b50610661600480360381019061065c9190614129565b611fc0565b60405161066e9190614e9d565b60405180910390f35b34801561068357600080fd5b5061068c6120c8565b6040516106999190614a7b565b60405180910390f35b6106bc60048036038101906106b79190614129565b61215a565b005b3480156106ca57600080fd5b506106e560048036038101906106e09190614006565b612355565b005b3480156106f357600080fd5b506106fc6124d6565b005b34801561070a57600080fd5b506107136125bf565b6040516107209190614eb8565b60405180910390f35b34801561073557600080fd5b50610750600480360381019061074b9190613f83565b6125c5565b005b61076c60048036038101906107679190614129565b612627565b005b34801561077a57600080fd5b506107836126c1565b6040516107909190614eb8565b60405180910390f35b3480156107a557600080fd5b506107c060048036038101906107bb9190614129565b6126c7565b6040516107cd9190614a7b565b60405180910390f35b3480156107e257600080fd5b506107eb612819565b6040516107f89190614a60565b60405180910390f35b34801561080d57600080fd5b5061081661282c565b6040516108239190614e9d565b60405180910390f35b34801561083857600080fd5b50610841612941565b60405161084e9190614a3e565b60405180910390f35b34801561086357600080fd5b5061087e60048036038101906108799190613ef0565b612b13565b60405161088b9190614a60565b60405180910390f35b3480156108a057600080fd5b506108a9612ba7565b005b3480156108b757600080fd5b506108c0612ccf565b6040516108cd9190614eb8565b60405180910390f35b3480156108e257600080fd5b506108fd60048036038101906108f89190614129565b612ce0565b005b34801561090b57600080fd5b5061092660048036038101906109219190614129565b612e48565b6040516109339190614970565b60405180910390f35b60007f80ac58cd000000000000000000000000000000000000000000000000000000007bffffffffffffffffffffffffffffffffffffffffffffffffffffffff1916827bffffffffffffffffffffffffffffffffffffffffffffffffffffffff19161480610a0757507f5b5e139f000000000000000000000000000000000000000000000000000000007bffffffffffffffffffffffffffffffffffffffffffffffffffffffff1916827bffffffffffffffffffffffffffffffffffffffffffffffffffffffff1916145b80610a175750610a1682612e87565b5b9050919050565b600960009054906101000a900473ffffffffffffffffffffffffffffffffffffffff1673ffffffffffffffffffffffffffffffffffffffff163373ffffffffffffffffffffffffffffffffffffffff1614610aae576040517f08c379a0000000000000000000000000000000000000000000000000000000008152600401610aa590614e7d565b60405180910390fd5b600e60009054906101000a900460ff1615610afe576040517f08c379a0000000000000000000000000000000000000000000000000000000008152600401610af590614d1d565b60405180910390fd5b80600f819055507eb880966eaaba04d39b129a92f6780ac322d8cd79a2ee908d3c3bf7fb2de77781604051610b339190614eb8565b60405180910390a150565b606060008054610b4d9061524e565b80601f0160208091040260200160405190810160405280929190818152602001828054610b799061524e565b8015610bc65780601f10610b9b57610100808354040283529160200191610bc6565b820191906000526020600020905b815481529060010190602001808311610ba957829003601f168201915b5050505050905090565b6000610bdb82612ef1565b610c1a576040517f08c379a0000000000000000000000000000000000000000000000000000000008152600401610c1190614cfd565b60405180910390fd5b6004600083815260200190815260200160002060009054906101000a900473ffffffffffffffffffffffffffffffffffffffff169050919050565b6000610c6082611a06565b90508073ffffffffffffffffffffffffffffffffffffffff168373ffffffffffffffffffffffffffffffffffffffff161415610cd1576040517f08c379a0000000000000000000000000000000000000000000000000000000008152600401610cc890614d9d565b60405180910390fd5b8073ffffffffffffffffffffffffffffffffffffffff16610cf0612f5d565b73ffffffffffffffffffffffffffffffffffffffff161480610d1f5750610d1e81610d19612f5d565b612b13565b5b610d5e576040517f08c379a0000000000000000000000000000000000000000000000000000000008152600401610d5590614bbd565b60405180910390fd5b610d688383612f65565b505050565b600080600090505b600c80549050811015610e11578273ffffffffffffffffffffffffffffffffffffffff16600c8281548110610dad57610dac6153cc565b5b9060005260206000200160009054906101000a900473ffffffffffffffffffffffffffffffffffffffff1673ffffffffffffffffffffffffffffffffffffffff161415610dfe576001915050610e17565b8080610e09906152b1565b915050610d75565b50600090505b919050565b600d8181548110610e2c57600080fd5b906000526020600020016000915054906101000a900473ffffffffffffffffffffffffffffffffffffffff1681565b600047905090565b610e74610e6e612f5d565b8261301e565b610eb3576040517f08c379a0000000000000000000000000000000000000000000000000000000008152600401610eaa90614e1d565b60405180910390fd5b610ebe8383836130fc565b505050565b6000601260008381526020019081526020016000206040518060a0016040529081600082015481526020016001820160009054906101000a900473ffffffffffffffffffffffffffffffffffffffff1673ffffffffffffffffffffffffffffffffffffffff1673ffffffffffffffffffffffffffffffffffffffff1681526020016002820160009054906101000a900473ffffffffffffffffffffffffffffffffffffffff1673ffffffffffffffffffffffffffffffffffffffff1673ffffffffffffffffffffffffffffffffffffffff168152602001600382015481526020016004820160009054906101000a900460ff16151515158152505090506000816060015111611007576040517f08c379a0000000000000000000000000000000000000000000000000000000008152600401610ffe90614add565b60405180910390fd5b3373ffffffffffffffffffffffffffffffffffffffff16816040015173ffffffffffffffffffffffffffffffffffffffff1614611079576040517f08c379a000000000000000000000000000000000000000000000000000000000815260040161107090614dbd565b60405180910390fd5b6110843033846130fc565b61108d82613358565b7f705332a8918666802fc1504f63ff1f002a5f6cedd30d59ad7ae0b5281aeb8dca82303360006040516110c39493929190614ed3565b60405180910390a15050565b600960009054906101000a900473ffffffffffffffffffffffffffffffffffffffff1673ffffffffffffffffffffffffffffffffffffffff163373ffffffffffffffffffffffffffffffffffffffff161461115f576040517f08c379a000000000000000000000000000000000000000000000000000000000815260040161115690614e7d565b60405180910390fd5b600e60009054906101000a900460ff16156111af576040517f08c379a00000000000000000000000000000000000000000000000000000000081526004016111a690614b5d565b60405180910390fd5b6000600d80549050116111f7576040517f08c379a00000000000000000000000000000000000000000000000000000000081526004016111ee90614dfd565b60405180910390fd5b6000600d8054905061120761346e565b611211919061530e565b90506000600d8281548110611229576112286153cc565b5b9060005260206000200160009054906101000a900473ffffffffffffffffffffffffffffffffffffffff1690507f1d4c260f1824cd028e6c9e6e31c3a0b94f2513e7a641113ec759d382f9bdd5a1816040516112859190614970565b60405180910390a161129a33826010546130fc565b6000479050600960009054906101000a900473ffffffffffffffffffffffffffffffffffffffff1673ffffffffffffffffffffffffffffffffffffffff166108fc829081150290604051600060405180830381858888f19350505050158015611307573d6000803e3d6000fd5b50505050565b600b6020528060005260406000206000915090505481565b611340838383604051806020016040528060008152506125c5565b505050565b61134f60076134b5565b600061135b60076134cb565b905061136733826134d9565b61137181836134f7565b7f90aedd550c880e8ce9df04c011e7038e7cd271d1fa351cb2fb27dcc93310502c816040516113a09190614eb8565b60405180910390a15050565b600a5434146113f0576040517f08c379a00000000000000000000000000000000000000000000000000000000081526004016113e790614d7d565b60405180910390fd5b60008111611433576040517f08c379a000000000000000000000000000000000000000000000000000000000815260040161142a90614e5d565b60405180910390fd5b61143c82611a06565b73ffffffffffffffffffffffffffffffffffffffff163373ffffffffffffffffffffffffffffffffffffffff16146114a9576040517f08c379a00000000000000000000000000000000000000000000000000000000081526004016114a090614ddd565b60405180910390fd5b6040518060a001604052808381526020013073ffffffffffffffffffffffffffffffffffffffff1681526020013373ffffffffffffffffffffffffffffffffffffffff16815260200182815260200160011515815250601260008481526020019081526020016000206000820151816000015560208201518160010160006101000a81548173ffffffffffffffffffffffffffffffffffffffff021916908373ffffffffffffffffffffffffffffffffffffffff16021790555060408201518160020160006101000a81548173ffffffffffffffffffffffffffffffffffffffff021916908373ffffffffffffffffffffffffffffffffffffffff1602179055506060820151816003015560808201518160040160006101000a81548160ff0219169083151502179055509050506115e23330846130fc565b817f9339409317fd01fabff48b703019016f49159bacc801ae872d2ca637d226e4c03033846001604051611619949392919061498b565b60405180910390a25050565b6060600061163360076134cb565b9050600080600080600090505b84811015611759573373ffffffffffffffffffffffffffffffffffffffff16601260006001846116709190615067565b815260200190815260200160002060010160009054906101000a900473ffffffffffffffffffffffffffffffffffffffff1673ffffffffffffffffffffffffffffffffffffffff16148061173157503373ffffffffffffffffffffffffffffffffffffffff16601260006001846116e79190615067565b815260200190815260200160002060020160009054906101000a900473ffffffffffffffffffffffffffffffffffffffff1673ffffffffffffffffffffffffffffffffffffffff16145b15611746576001846117439190615067565b93505b8080611751906152b1565b915050611640565b5060008367ffffffffffffffff811115611776576117756153fb565b5b6040519080825280602002602001820160405280156117af57816020015b61179c613c59565b8152602001906001900390816117945790505b50905060005b858110156119fa573373ffffffffffffffffffffffffffffffffffffffff16601260006001846117e59190615067565b815260200190815260200160002060010160009054906101000a900473ffffffffffffffffffffffffffffffffffffffff1673ffffffffffffffffffffffffffffffffffffffff1614806118a657503373ffffffffffffffffffffffffffffffffffffffff166012600060018461185c9190615067565b815260200190815260200160002060020160009054906101000a900473ffffffffffffffffffffffffffffffffffffffff1673ffffffffffffffffffffffffffffffffffffffff16145b156119e7576001816118b89190615067565b92506000601260008581526020019081526020016000209050806040518060a0016040529081600082015481526020016001820160009054906101000a900473ffffffffffffffffffffffffffffffffffffffff1673ffffffffffffffffffffffffffffffffffffffff1673ffffffffffffffffffffffffffffffffffffffff1681526020016002820160009054906101000a900473ffffffffffffffffffffffffffffffffffffffff1673ffffffffffffffffffffffffffffffffffffffff1673ffffffffffffffffffffffffffffffffffffffff168152602001600382015481526020016004820160009054906101000a900460ff1615151515815250508386815181106119cb576119ca6153cc565b5b60200260200101819052506001856119e39190615067565b9450505b80806119f2906152b1565b9150506117b5565b50809550505050505090565b6000806002600084815260200190815260200160002060009054906101000a900473ffffffffffffffffffffffffffffffffffffffff169050600073ffffffffffffffffffffffffffffffffffffffff168173ffffffffffffffffffffffffffffffffffffffff161415611aaf576040517f08c379a0000000000000000000000000000000000000000000000000000000008152600401611aa690614c1d565b60405180910390fd5b80915050919050565b6000600a54905090565b600960009054906101000a900473ffffffffffffffffffffffffffffffffffffffff1673ffffffffffffffffffffffffffffffffffffffff163373ffffffffffffffffffffffffffffffffffffffff1614611b52576040517f08c379a0000000000000000000000000000000000000000000000000000000008152600401611b4990614e7d565b60405180910390fd5b60004711611b95576040517f08c379a0000000000000000000000000000000000000000000000000000000008152600401611b8c90614c5d565b60405180910390fd5b6000479050600960009054906101000a900473ffffffffffffffffffffffffffffffffffffffff1673ffffffffffffffffffffffffffffffffffffffff166108fc829081150290604051600060405180830381858888f19350505050158015611c02573d6000803e3d6000fd5b507f39f8b889424a1684bd36857c25ab79691ed71adf60bbeca32820cb4de3c5884c81604051611c329190614eb8565b60405180910390a1611c4261356b565b600d6000611c509190613cb6565b600c6000611c5e9190613cb6565b6000601081905550600060118190555050565b60008073ffffffffffffffffffffffffffffffffffffffff168273ffffffffffffffffffffffffffffffffffffffff161415611ce2576040517f08c379a0000000000000000000000000000000000000000000000000000000008152600401611cd990614bfd565b60405180910390fd5b600360008373ffffffffffffffffffffffffffffffffffffffff1673ffffffffffffffffffffffffffffffffffffffff168152602001908152602001600020549050919050565b600e60009054906101000a900460ff16611d78576040517f08c379a0000000000000000000000000000000000000000000000000000000008152600401611d6f90614bdd565b60405180910390fd5b80600f54611d8691906150ee565b3414611dc7576040517f08c379a0000000000000000000000000000000000000000000000000000000008152600401611dbe90614b3d565b60405180910390fd5b80600b60003373ffffffffffffffffffffffffffffffffffffffff1673ffffffffffffffffffffffffffffffffffffffff1681526020019081526020016000206000828254611e169190615067565b925050819055508060116000828254611e2f9190615067565b92505081905550611e3f33610d6d565b611ea757600c339080600181540180825580915050600190039060005260206000200160009091909190916101000a81548173ffffffffffffffffffffffffffffffffffffffff021916908373ffffffffffffffffffffffffffffffffffffffff1602179055505b60005b81811015611f2857600d339080600181540180825580915050600190039060005260206000200160009091909190916101000a81548173ffffffffffffffffffffffffffffffffffffffff021916908373ffffffffffffffffffffffffffffffffffffffff1602179055508080611f20906152b1565b915050611eaa565b5050565b60115481565b6060600c805480602002602001604051908101604052809291908181526020018280548015611fb657602002820191906000526020600020905b8160009054906101000a900473ffffffffffffffffffffffffffffffffffffffff1673ffffffffffffffffffffffffffffffffffffffff1681526020019060010190808311611f6c575b5050505050905090565b611fc8613c59565b601260008381526020019081526020016000206040518060a0016040529081600082015481526020016001820160009054906101000a900473ffffffffffffffffffffffffffffffffffffffff1673ffffffffffffffffffffffffffffffffffffffff1673ffffffffffffffffffffffffffffffffffffffff1681526020016002820160009054906101000a900473ffffffffffffffffffffffffffffffffffffffff1673ffffffffffffffffffffffffffffffffffffffff1673ffffffffffffffffffffffffffffffffffffffff168152602001600382015481526020016004820160009054906101000a900460ff1615151515815250509050919050565b6060600180546120d79061524e565b80601f01602080910402602001604051908101604052809291908181526020018280546121039061524e565b80156121505780601f1061212557610100808354040283529160200191612150565b820191906000526020600020905b81548152906001019060200180831161213357829003601f168201915b5050505050905090565b60006012600083815260200190815260200160002060030154905060006012600084815260200190815260200160002060020160009054906101000a900473ffffffffffffffffffffffffffffffffffffffff1690508134146121f2576040517f08c379a00000000000000000000000000000000000000000000000000000000081526004016121e990614c9d565b60405180910390fd5b60016012600085815260200190815260200160002060040160006101000a81548160ff021916908315150217905550336012600085815260200190815260200160002060020160006101000a81548173ffffffffffffffffffffffffffffffffffffffff021916908373ffffffffffffffffffffffffffffffffffffffff16021790555061228060086134b5565b61228983613358565b6122943033856130fc565b61229e3084610c55565b600960009054906101000a900473ffffffffffffffffffffffffffffffffffffffff1673ffffffffffffffffffffffffffffffffffffffff166108fc600a549081150290604051600060405180830381858888f19350505050158015612308573d6000803e3d6000fd5b508073ffffffffffffffffffffffffffffffffffffffff166108fc349081150290604051600060405180830381858888f1935050505015801561234f573d6000803e3d6000fd5b50505050565b61235d612f5d565b73ffffffffffffffffffffffffffffffffffffffff168273ffffffffffffffffffffffffffffffffffffffff1614156123cb576040517f08c379a00000000000000000000000000000000000000000000000000000000081526004016123c290614b1d565b60405180910390fd5b80600560006123d8612f5d565b73ffffffffffffffffffffffffffffffffffffffff1673ffffffffffffffffffffffffffffffffffffffff16815260200190815260200160002060008473ffffffffffffffffffffffffffffffffffffffff1673ffffffffffffffffffffffffffffffffffffffff16815260200190815260200160002060006101000a81548160ff0219169083151502179055508173ffffffffffffffffffffffffffffffffffffffff16612485612f5d565b73ffffffffffffffffffffffffffffffffffffffff167f17307eab39ab6107e8899845ad3d59bd9653f200f220920489ca2b5937696c31836040516124ca9190614a60565b60405180910390a35050565b600960009054906101000a900473ffffffffffffffffffffffffffffffffffffffff1673ffffffffffffffffffffffffffffffffffffffff163373ffffffffffffffffffffffffffffffffffffffff1614612566576040517f08c379a000000000000000000000000000000000000000000000000000000000815260040161255d90614e7d565b60405180910390fd5b600d60006125749190613cb6565b600c60006125829190613cb6565b6000600e60006101000a81548160ff02191690831515021790555060006010819055506000600f8190555060006011819055506125bd61356b565b565b600f5481565b6125d66125d0612f5d565b8361301e565b612615576040517f08c379a000000000000000000000000000000000000000000000000000000000815260040161260c90614e1d565b60405180910390fd5b61262184848484613606565b50505050565b3373ffffffffffffffffffffffffffffffffffffffff16600960009054906101000a900473ffffffffffffffffffffffffffffffffffffffff1673ffffffffffffffffffffffffffffffffffffffff16146126b7576040517f08c379a00000000000000000000000000000000000000000000000000000000081526004016126ae90614b9d565b60405180910390fd5b80600a8190555050565b60105481565b60606126d282612ef1565b612711576040517f08c379a000000000000000000000000000000000000000000000000000000000815260040161270890614cdd565b60405180910390fd5b60006006600084815260200190815260200160002080546127319061524e565b80601f016020809104026020016040519081016040528092919081815260200182805461275d9061524e565b80156127aa5780601f1061277f576101008083540402835291602001916127aa565b820191906000526020600020905b81548152906001019060200180831161278d57829003601f168201915b5050505050905060006127bb613662565b90506000815114156127d1578192505050612814565b6000825111156128065780826040516020016127ee92919061494c565b60405160208183030381529060405292505050612814565b61280f84613679565b925050505b919050565b600e60009054906101000a900460ff1681565b612834613c59565b600061284060076134cb565b9050601260008281526020019081526020016000206040518060a0016040529081600082015481526020016001820160009054906101000a900473ffffffffffffffffffffffffffffffffffffffff1673ffffffffffffffffffffffffffffffffffffffff1673ffffffffffffffffffffffffffffffffffffffff1681526020016002820160009054906101000a900473ffffffffffffffffffffffffffffffffffffffff1673ffffffffffffffffffffffffffffffffffffffff1673ffffffffffffffffffffffffffffffffffffffff168152602001600382015481526020016004820160009054906101000a900460ff16151515158152505091505090565b6060600061294f60076134cb565b905060008167ffffffffffffffff81111561296d5761296c6153fb565b5b6040519080825280602002602001820160405280156129a657816020015b612993613c59565b81526020019060019003908161298b5790505b50905060008080600090505b84811015612b08576001816129c79190615067565b91506000601260008481526020019081526020016000209050806040518060a0016040529081600082015481526020016001820160009054906101000a900473ffffffffffffffffffffffffffffffffffffffff1673ffffffffffffffffffffffffffffffffffffffff1673ffffffffffffffffffffffffffffffffffffffff1681526020016002820160009054906101000a900473ffffffffffffffffffffffffffffffffffffffff1673ffffffffffffffffffffffffffffffffffffffff1673ffffffffffffffffffffffffffffffffffffffff168152602001600382015481526020016004820160009054906101000a900460ff161515151581525050858581518110612ada57612ad96153cc565b5b6020026020010181905250600184612af29190615067565b9350508080612b00906152b1565b9150506129b2565b508294505050505090565b6000600560008473ffffffffffffffffffffffffffffffffffffffff1673ffffffffffffffffffffffffffffffffffffffff16815260200190815260200160002060008373ffffffffffffffffffffffffffffffffffffffff1673ffffffffffffffffffffffffffffffffffffffff16815260200190815260200160002060009054906101000a900460ff16905092915050565b600960009054906101000a900473ffffffffffffffffffffffffffffffffffffffff1673ffffffffffffffffffffffffffffffffffffffff163373ffffffffffffffffffffffffffffffffffffffff1614612c37576040517f08c379a0000000000000000000000000000000000000000000000000000000008152600401612c2e90614e7d565b60405180910390fd5b600e60009054906101000a900460ff16612c86576040517f08c379a0000000000000000000000000000000000000000000000000000000008152600401612c7d90614c7d565b60405180910390fd5b6000600e60006101000a81548160ff0219169083151502179055507f502fd88d3ee98597d4546d25e71901684f153dccc5308b79f0f9ad3c660537a660405160405180910390a1565b6000612cdb60076134cb565b905090565b600960009054906101000a900473ffffffffffffffffffffffffffffffffffffffff1673ffffffffffffffffffffffffffffffffffffffff163373ffffffffffffffffffffffffffffffffffffffff1614612d70576040517f08c379a0000000000000000000000000000000000000000000000000000000008152600401612d6790614e7d565b60405180910390fd5b600e60009054906101000a900460ff1615612dc0576040517f08c379a0000000000000000000000000000000000000000000000000000000008152600401612db790614e3d565b60405180910390fd5b806010819055506001600e60006101000a81548160ff0219169083151502179055507f093fa4dfbb74d3608ba227f645b7ff895fb60f8d2d990df81a7c200c325c88d060405160405180910390a17f3ee785801fa6bb1b8b2d00385766ea2021c33b10fa69103c94573b9dd58c196481604051612e3d9190614eb8565b60405180910390a150565b600c8181548110612e5857600080fd5b906000526020600020016000915054906101000a900473ffffffffffffffffffffffffffffffffffffffff1681565b60007f01ffc9a7000000000000000000000000000000000000000000000000000000007bffffffffffffffffffffffffffffffffffffffffffffffffffffffff1916827bffffffffffffffffffffffffffffffffffffffffffffffffffffffff1916149050919050565b60008073ffffffffffffffffffffffffffffffffffffffff166002600084815260200190815260200160002060009054906101000a900473ffffffffffffffffffffffffffffffffffffffff1673ffffffffffffffffffffffffffffffffffffffff1614159050919050565b600033905090565b816004600083815260200190815260200160002060006101000a81548173ffffffffffffffffffffffffffffffffffffffff021916908373ffffffffffffffffffffffffffffffffffffffff160217905550808273ffffffffffffffffffffffffffffffffffffffff16612fd883611a06565b73ffffffffffffffffffffffffffffffffffffffff167f8c5be1e5ebec7d5bd14f71427d1e84f3dd0314c0f7b2291e5b200ac8c7c3b92560405160405180910390a45050565b600061302982612ef1565b613068576040517f08c379a000000000000000000000000000000000000000000000000000000000815260040161305f90614b7d565b60405180910390fd5b600061307383611a06565b90508073ffffffffffffffffffffffffffffffffffffffff168473ffffffffffffffffffffffffffffffffffffffff1614806130e257508373ffffffffffffffffffffffffffffffffffffffff166130ca84610bd0565b73ffffffffffffffffffffffffffffffffffffffff16145b806130f357506130f28185612b13565b5b91505092915050565b8273ffffffffffffffffffffffffffffffffffffffff1661311c82611a06565b73ffffffffffffffffffffffffffffffffffffffff1614613172576040517f08c379a000000000000000000000000000000000000000000000000000000000815260040161316990614d3d565b60405180910390fd5b600073ffffffffffffffffffffffffffffffffffffffff168273ffffffffffffffffffffffffffffffffffffffff1614156131e2576040517f08c379a00000000000000000000000000000000000000000000000000000000081526004016131d990614afd565b60405180910390fd5b6131ed838383613720565b6131f8600082612f65565b6001600360008573ffffffffffffffffffffffffffffffffffffffff1673ffffffffffffffffffffffffffffffffffffffff16815260200190815260200160002060008282546132489190615148565b925050819055506001600360008473ffffffffffffffffffffffffffffffffffffffff1673ffffffffffffffffffffffffffffffffffffffff168152602001908152602001600020600082825461329f9190615067565b92505081905550816002600083815260200190815260200160002060006101000a81548173ffffffffffffffffffffffffffffffffffffffff021916908373ffffffffffffffffffffffffffffffffffffffff160217905550808273ffffffffffffffffffffffffffffffffffffffff168473ffffffffffffffffffffffffffffffffffffffff167fddf252ad1be2c89b69c2b068fc378daa952ba7f163c4a11628f55a4df523b3ef60405160405180910390a4505050565b6000601260008381526020019081526020016000206003018190555060006012600083815260200190815260200160002060020160006101000a81548173ffffffffffffffffffffffffffffffffffffffff021916908373ffffffffffffffffffffffffffffffffffffffff16021790555060006012600083815260200190815260200160002060010160006101000a81548173ffffffffffffffffffffffffffffffffffffffff021916908373ffffffffffffffffffffffffffffffffffffffff1602179055506000601260008381526020019081526020016000206000018190555060006012600083815260200190815260200160002060040160006101000a81548160ff02191690831515021790555050565b600060014361347d9190615148565b4042600c805490506040516020016134979392919061490f565b6040516020818303038152906040528051906020012060001c905090565b6001816000016000828254019250508190555050565b600081600001549050919050565b6134f3828260405180602001604052806000815250613725565b5050565b61350082612ef1565b61353f576040517f08c379a000000000000000000000000000000000000000000000000000000000815260040161353690614c3d565b60405180910390fd5b80600660008481526020019081526020016000209080519060200190613566929190613cd7565b505050565b60005b600c80549050811015613603576000600b6000600c8481548110613595576135946153cc565b5b9060005260206000200160009054906101000a900473ffffffffffffffffffffffffffffffffffffffff1673ffffffffffffffffffffffffffffffffffffffff1673ffffffffffffffffffffffffffffffffffffffff1681526020019081526020016000208190555061356e565b50565b6136118484846130fc565b61361d84848484613780565b61365c576040517f08c379a000000000000000000000000000000000000000000000000000000000815260040161365390614a9d565b60405180910390fd5b50505050565b606060405180602001604052806000815250905090565b606061368482612ef1565b6136c3576040517f08c379a00000000000000000000000000000000000000000000000000000000081526004016136ba90614d5d565b60405180910390fd5b60006136cd613662565b905060008151116136ed5760405180602001604052806000815250613718565b806136f784613917565b60405160200161370892919061494c565b6040516020818303038152906040525b915050919050565b505050565b61372f8383613a78565b61373c6000848484613780565b61377b576040517f08c379a000000000000000000000000000000000000000000000000000000000815260040161377290614a9d565b60405180910390fd5b505050565b60006137a18473ffffffffffffffffffffffffffffffffffffffff16613c46565b1561390a578373ffffffffffffffffffffffffffffffffffffffff1663150b7a026137ca612f5d565b8786866040518563ffffffff1660e01b81526004016137ec94939291906149d0565b602060405180830381600087803b15801561380657600080fd5b505af192505050801561383757506040513d601f19601f8201168201806040525081019061383491906140b3565b60015b6138ba573d8060008114613867576040519150601f19603f3d011682016040523d82523d6000602084013e61386c565b606091505b506000815114156138b2576040517f08c379a00000000000000000000000000000000000000000000000000000000081526004016138a990614a9d565b60405180910390fd5b805181602001fd5b63150b7a0260e01b7bffffffffffffffffffffffffffffffffffffffffffffffffffffffff1916817bffffffffffffffffffffffffffffffffffffffffffffffffffffffff19161491505061390f565b600190505b949350505050565b6060600082141561395f576040518060400160405280600181526020017f30000000000000000000000000000000000000000000000000000000000000008152509050613a73565b600082905060005b6000821461399157808061397a906152b1565b915050600a8261398a91906150bd565b9150613967565b60008167ffffffffffffffff8111156139ad576139ac6153fb565b5b6040519080825280601f01601f1916602001820160405280156139df5781602001600182028036833780820191505090505b5090505b60008514613a6c576001826139f89190615148565b9150600a85613a07919061530e565b6030613a139190615067565b60f81b818381518110613a2957613a286153cc565b5b60200101907effffffffffffffffffffffffffffffffffffffffffffffffffffffffffffff1916908160001a905350600a85613a6591906150bd565b94506139e3565b8093505050505b919050565b600073ffffffffffffffffffffffffffffffffffffffff168273ffffffffffffffffffffffffffffffffffffffff161415613ae8576040517f08c379a0000000000000000000000000000000000000000000000000000000008152600401613adf90614cbd565b60405180910390fd5b613af181612ef1565b15613b31576040517f08c379a0000000000000000000000000000000000000000000000000000000008152600401613b2890614abd565b60405180910390fd5b613b3d60008383613720565b6001600360008473ffffffffffffffffffffffffffffffffffffffff1673ffffffffffffffffffffffffffffffffffffffff1681526020019081526020016000206000828254613b8d9190615067565b92505081905550816002600083815260200190815260200160002060006101000a81548173ffffffffffffffffffffffffffffffffffffffff021916908373ffffffffffffffffffffffffffffffffffffffff160217905550808273ffffffffffffffffffffffffffffffffffffffff16600073ffffffffffffffffffffffffffffffffffffffff167fddf252ad1be2c89b69c2b068fc378daa952ba7f163c4a11628f55a4df523b3ef60405160405180910390a45050565b600080823b905060008111915050919050565b6040518060a0016040528060008152602001600073ffffffffffffffffffffffffffffffffffffffff168152602001600073ffffffffffffffffffffffffffffffffffffffff168152602001600081526020016000151581525090565b5080546000825590600052602060002090810190613cd49190613d5d565b50565b828054613ce39061524e565b90600052602060002090601f016020900481019282613d055760008555613d4c565b82601f10613d1e57805160ff1916838001178555613d4c565b82800160010185558215613d4c579182015b82811115613d4b578251825591602001919060010190613d30565b5b509050613d599190613d5d565b5090565b5b80821115613d76576000816000905550600101613d5e565b5090565b6000613d8d613d8884614f50565b614f2b565b905082815260208101848484011115613da957613da861542f565b5b613db484828561520c565b509392505050565b6000613dcf613dca84614f81565b614f2b565b905082815260208101848484011115613deb57613dea61542f565b5b613df684828561520c565b509392505050565b600081359050613e0d81615c44565b92915050565b600081359050613e2281615c5b565b92915050565b600081359050613e3781615c72565b92915050565b600081519050613e4c81615c72565b92915050565b600082601f830112613e6757613e6661542a565b5b8135613e77848260208601613d7a565b91505092915050565b600082601f830112613e9557613e9461542a565b5b8135613ea5848260208601613dbc565b91505092915050565b600081359050613ebd81615c89565b92915050565b600060208284031215613ed957613ed8615439565b5b6000613ee784828501613dfe565b91505092915050565b60008060408385031215613f0757613f06615439565b5b6000613f1585828601613dfe565b9250506020613f2685828601613dfe565b9150509250929050565b600080600060608486031215613f4957613f48615439565b5b6000613f5786828701613dfe565b9350506020613f6886828701613dfe565b9250506040613f7986828701613eae565b9150509250925092565b60008060008060808587031215613f9d57613f9c615439565b5b6000613fab87828801613dfe565b9450506020613fbc87828801613dfe565b9350506040613fcd87828801613eae565b925050606085013567ffffffffffffffff811115613fee57613fed615434565b5b613ffa87828801613e52565b91505092959194509250565b6000806040838503121561401d5761401c615439565b5b600061402b85828601613dfe565b925050602061403c85828601613e13565b9150509250929050565b6000806040838503121561405d5761405c615439565b5b600061406b85828601613dfe565b925050602061407c85828601613eae565b9150509250929050565b60006020828403121561409c5761409b615439565b5b60006140aa84828501613e28565b91505092915050565b6000602082840312156140c9576140c8615439565b5b60006140d784828501613e3d565b91505092915050565b6000602082840312156140f6576140f5615439565b5b600082013567ffffffffffffffff81111561411457614113615434565b5b61412084828501613e80565b91505092915050565b60006020828403121561413f5761413e615439565b5b600061414d84828501613eae565b91505092915050565b6000806040838503121561416d5761416c615439565b5b600061417b85828601613eae565b925050602061418c85828601613eae565b9150509250929050565b60006141a283836141c6565b60208301905092915050565b60006141ba838361480a565b60a08301905092915050565b6141cf8161517c565b82525050565b6141de8161517c565b82525050565b60006141ef82614fd2565b6141f98185615018565b935061420483614fb2565b8060005b8381101561423557815161421c8882614196565b975061422783614ffe565b925050600181019050614208565b5085935050505092915050565b600061424d82614fdd565b6142578185615029565b935061426283614fc2565b8060005b8381101561429357815161427a88826141ae565b97506142858361500b565b925050600181019050614266565b5085935050505092915050565b6142a98161518e565b82525050565b6142b88161518e565b82525050565b6142cf6142ca8261519a565b6152fa565b82525050565b60006142e082614fe8565b6142ea818561503a565b93506142fa81856020860161521b565b6143038161543e565b840191505092915050565b614317816151fa565b82525050565b600061432882614ff3565b614332818561504b565b935061434281856020860161521b565b61434b8161543e565b840191505092915050565b600061436182614ff3565b61436b818561505c565b935061437b81856020860161521b565b80840191505092915050565b600061439460328361504b565b915061439f8261544f565b604082019050919050565b60006143b7601c8361504b565b91506143c28261549e565b602082019050919050565b60006143da60228361504b565b91506143e5826154c7565b604082019050919050565b60006143fd60248361504b565b915061440882615516565b604082019050919050565b600061442060198361504b565b915061442b82615565565b602082019050919050565b600061444360158361504b565b915061444e8261558e565b602082019050919050565b600061446660118361504b565b9150614471826155b7565b602082019050919050565b6000614489602c8361504b565b9150614494826155e0565b604082019050919050565b60006144ac60238361504b565b91506144b78261562f565b604082019050919050565b60006144cf60388361504b565b91506144da8261567e565b604082019050919050565b60006144f260198361504b565b91506144fd826156cd565b602082019050919050565b6000614515602a8361504b565b9150614520826156f6565b604082019050919050565b600061453860298361504b565b915061454382615745565b604082019050919050565b600061455b602e8361504b565b915061456682615794565b604082019050919050565b600061457e60158361504b565b9150614589826157e3565b602082019050919050565b60006145a160168361504b565b91506145ac8261580c565b602082019050919050565b60006145c460408361504b565b91506145cf82615835565b604082019050919050565b60006145e760208361504b565b91506145f282615884565b602082019050919050565b600061460a60318361504b565b9150614615826158ad565b604082019050919050565b600061462d602c8361504b565b9150614638826158fc565b604082019050919050565b600061465060168361504b565b915061465b8261594b565b602082019050919050565b600061467360298361504b565b915061467e82615974565b604082019050919050565b6000614696602f8361504b565b91506146a1826159c3565b604082019050919050565b60006146b960238361504b565b91506146c482615a12565b604082019050919050565b60006146dc60218361504b565b91506146e782615a61565b604082019050919050565b60006146ff60208361504b565b915061470a82615ab0565b602082019050919050565b600061472260228361504b565b915061472d82615ad9565b604082019050919050565b600061474560148361504b565b915061475082615b28565b602082019050919050565b600061476860008361504b565b915061477382615b51565b600082019050919050565b600061478b60318361504b565b915061479682615b54565b604082019050919050565b60006147ae60198361504b565b91506147b982615ba3565b602082019050919050565b60006147d160228361504b565b91506147dc82615bcc565b604082019050919050565b60006147f4601f8361504b565b91506147ff82615c1b565b602082019050919050565b60a08201600082015161482060008501826148da565b50602082015161483360208501826141c6565b50604082015161484660408501826141c6565b50606082015161485960608501826148da565b50608082015161486c60808501826142a0565b50505050565b60a08201600082015161488860008501826148da565b50602082015161489b60208501826141c6565b5060408201516148ae60408501826141c6565b5060608201516148c160608501826148da565b5060808201516148d460808501826142a0565b50505050565b6148e3816151f0565b82525050565b6148f2816151f0565b82525050565b614909614904826151f0565b615304565b82525050565b600061491b82866142be565b60208201915061492b82856148f8565b60208201915061493b82846148f8565b602082019150819050949350505050565b60006149588285614356565b91506149648284614356565b91508190509392505050565b600060208201905061498560008301846141d5565b92915050565b60006080820190506149a060008301876141d5565b6149ad60208301866141d5565b6149ba60408301856148e9565b6149c760608301846142af565b95945050505050565b60006080820190506149e560008301876141d5565b6149f260208301866141d5565b6149ff60408301856148e9565b8181036060830152614a1181846142d5565b905095945050505050565b60006020820190508181036000830152614a3681846141e4565b905092915050565b60006020820190508181036000830152614a588184614242565b905092915050565b6000602082019050614a7560008301846142af565b92915050565b60006020820190508181036000830152614a95818461431d565b905092915050565b60006020820190508181036000830152614ab681614387565b9050919050565b60006020820190508181036000830152614ad6816143aa565b9050919050565b60006020820190508181036000830152614af6816143cd565b9050919050565b60006020820190508181036000830152614b16816143f0565b9050919050565b60006020820190508181036000830152614b3681614413565b9050919050565b60006020820190508181036000830152614b5681614436565b9050919050565b60006020820190508181036000830152614b7681614459565b9050919050565b60006020820190508181036000830152614b968161447c565b9050919050565b60006020820190508181036000830152614bb68161449f565b9050919050565b60006020820190508181036000830152614bd6816144c2565b9050919050565b60006020820190508181036000830152614bf6816144e5565b9050919050565b60006020820190508181036000830152614c1681614508565b9050919050565b60006020820190508181036000830152614c368161452b565b9050919050565b60006020820190508181036000830152614c568161454e565b9050919050565b60006020820190508181036000830152614c7681614571565b9050919050565b60006020820190508181036000830152614c9681614594565b9050919050565b60006020820190508181036000830152614cb6816145b7565b9050919050565b60006020820190508181036000830152614cd6816145da565b9050919050565b60006020820190508181036000830152614cf6816145fd565b9050919050565b60006020820190508181036000830152614d1681614620565b9050919050565b60006020820190508181036000830152614d3681614643565b9050919050565b60006020820190508181036000830152614d5681614666565b9050919050565b60006020820190508181036000830152614d7681614689565b9050919050565b60006020820190508181036000830152614d96816146ac565b9050919050565b60006020820190508181036000830152614db6816146cf565b9050919050565b60006020820190508181036000830152614dd6816146f2565b9050919050565b60006020820190508181036000830152614df681614715565b9050919050565b60006020820190508181036000830152614e1681614738565b9050919050565b60006020820190508181036000830152614e368161477e565b9050919050565b60006020820190508181036000830152614e56816147a1565b9050919050565b60006020820190508181036000830152614e76816147c4565b9050919050565b60006020820190508181036000830152614e96816147e7565b9050919050565b600060a082019050614eb26000830184614872565b92915050565b6000602082019050614ecd60008301846148e9565b92915050565b600060a082019050614ee860008301876148e9565b614ef560208301866141d5565b614f0260408301856141d5565b8181036060830152614f138161475b565b9050614f22608083018461430e565b95945050505050565b6000614f35614f46565b9050614f418282615280565b919050565b6000604051905090565b600067ffffffffffffffff821115614f6b57614f6a6153fb565b5b614f748261543e565b9050602081019050919050565b600067ffffffffffffffff821115614f9c57614f9b6153fb565b5b614fa58261543e565b9050602081019050919050565b6000819050602082019050919050565b6000819050602082019050919050565b600081519050919050565b600081519050919050565b600081519050919050565b600081519050919050565b6000602082019050919050565b6000602082019050919050565b600082825260208201905092915050565b600082825260208201905092915050565b600082825260208201905092915050565b600082825260208201905092915050565b600081905092915050565b6000615072826151f0565b915061507d836151f0565b9250827fffffffffffffffffffffffffffffffffffffffffffffffffffffffffffffffff038211156150b2576150b161533f565b5b828201905092915050565b60006150c8826151f0565b91506150d3836151f0565b9250826150e3576150e261536e565b5b828204905092915050565b60006150f9826151f0565b9150615104836151f0565b9250817fffffffffffffffffffffffffffffffffffffffffffffffffffffffffffffffff048311821515161561513d5761513c61533f565b5b828202905092915050565b6000615153826151f0565b915061515e836151f0565b9250828210156151715761517061533f565b5b828203905092915050565b6000615187826151d0565b9050919050565b60008115159050919050565b6000819050919050565b60007fffffffff0000000000000000000000000000000000000000000000000000000082169050919050565b600073ffffffffffffffffffffffffffffffffffffffff82169050919050565b6000819050919050565b6000615205826151f0565b9050919050565b82818337600083830152505050565b60005b8381101561523957808201518184015260208101905061521e565b83811115615248576000848401525b50505050565b6000600282049050600182168061526657607f821691505b6020821081141561527a5761527961539d565b5b50919050565b6152898261543e565b810181811067ffffffffffffffff821117156152a8576152a76153fb565b5b80604052505050565b60006152bc826151f0565b91507fffffffffffffffffffffffffffffffffffffffffffffffffffffffffffffffff8214156152ef576152ee61533f565b5b600182019050919050565b6000819050919050565b6000819050919050565b6000615319826151f0565b9150615324836151f0565b9250826153345761533361536e565b5b828206905092915050565b7f4e487b7100000000000000000000000000000000000000000000000000000000600052601160045260246000fd5b7f4e487b7100000000000000000000000000000000000000000000000000000000600052601260045260246000fd5b7f4e487b7100000000000000000000000000000000000000000000000000000000600052602260045260246000fd5b7f4e487b7100000000000000000000000000000000000000000000000000000000600052603260045260246000fd5b7f4e487b7100000000000000000000000000000000000000000000000000000000600052604160045260246000fd5b600080fd5b600080fd5b600080fd5b600080fd5b6000601f19601f8301169050919050565b7f4552433732313a207472616e7366657220746f206e6f6e20455243373231526560008201527f63656976657220696d706c656d656e7465720000000000000000000000000000602082015250565b7f4552433732313a20746f6b656e20616c7265616479206d696e74656400000000600082015250565b7f4e46544d61726b65743a206e6674206e6f74206c697374656420666f7220736160008201527f6c65000000000000000000000000000000000000000000000000000000000000602082015250565b7f4552433732313a207472616e7366657220746f20746865207a65726f2061646460008201527f7265737300000000000000000000000000000000000000000000000000000000602082015250565b7f4552433732313a20617070726f766520746f2063616c6c657200000000000000600082015250565b7f496e636f727265637420616d6f756e742073656e740000000000000000000000600082015250565b7f526166666c652069732072756e6e696e67000000000000000000000000000000600082015250565b7f4552433732313a206f70657261746f7220717565727920666f72206e6f6e657860008201527f697374656e7420746f6b656e0000000000000000000000000000000000000000602082015250565b7f4f6e6c79206f776e65722063616e20757064617465206c697374696e6720707260008201527f6963650000000000000000000000000000000000000000000000000000000000602082015250565b7f4552433732313a20617070726f76652063616c6c6572206973206e6f74206f7760008201527f6e6572206e6f7220617070726f76656420666f7220616c6c0000000000000000602082015250565b7f526166666c65206973206e6f7420737461727465642079657400000000000000600082015250565b7f4552433732313a2062616c616e636520717565727920666f7220746865207a6560008201527f726f206164647265737300000000000000000000000000000000000000000000602082015250565b7f4552433732313a206f776e657220717565727920666f72206e6f6e657869737460008201527f656e7420746f6b656e0000000000000000000000000000000000000000000000602082015250565b7f45524337323155524953746f726167653a2055524920736574206f66206e6f6e60008201527f6578697374656e7420746f6b656e000000000000000000000000000000000000602082015250565b7f4e6f2062616c61636520746f2077697468647261770000000000000000000000600082015250565b7f526166666c65206973206e6f7420207374617274656400000000000000000000600082015250565b7f506c65617365207375626d6974207468652061736b696e67207072696365206960008201527f6e206f7264657220746f20636f6d706c65746520746865207075726368617365602082015250565b7f4552433732313a206d696e7420746f20746865207a65726f2061646472657373600082015250565b7f45524337323155524953746f726167653a2055524920717565727920666f722060008201527f6e6f6e6578697374656e7420746f6b656e000000000000000000000000000000602082015250565b7f4552433732313a20617070726f76656420717565727920666f72206e6f6e657860008201527f697374656e7420746f6b656e0000000000000000000000000000000000000000602082015250565b7f526166666c65206973207374696c2072756e6e696e6700000000000000000000600082015250565b7f4552433732313a207472616e73666572206f6620746f6b656e2074686174206960008201527f73206e6f74206f776e0000000000000000000000000000000000000000000000602082015250565b7f4552433732314d657461646174613a2055524920717565727920666f72206e6f60008201527f6e6578697374656e7420746f6b656e0000000000000000000000000000000000602082015250565b7f486f706566756c6c792073656e64696e672074686520636f727265637420707260008201527f6963650000000000000000000000000000000000000000000000000000000000602082015250565b7f4552433732313a20617070726f76616c20746f2063757272656e74206f776e6560008201527f7200000000000000000000000000000000000000000000000000000000000000602082015250565b7f4e46544d61726b65743a20796f75277265206e6f74207468652073656c6c6572600082015250565b7f596f7520617265206e6f7420746865206f776e6572206f662074686520746f6b60008201527f656e000000000000000000000000000000000000000000000000000000000000602082015250565b7f4e6f20706c617965727320696e20526166666c65000000000000000000000000600082015250565b50565b7f4552433732313a207472616e736665722063616c6c6572206973206e6f74206f60008201527f776e6572206e6f7220617070726f766564000000000000000000000000000000602082015250565b7f5261666c6c6520697320616c7265616479207374617274656400000000000000600082015250565b7f4d616b652073757265207468652070726963652069736e2774206e656761746960008201527f7665000000000000000000000000000000000000000000000000000000000000602082015250565b7f4f6e6c79206f776e65722063616e2063616c6c2074686973206d6574686f6400600082015250565b615c4d8161517c565b8114615c5857600080fd5b50565b615c648161518e565b8114615c6f57600080fd5b50565b615c7b816151a4565b8114615c8657600080fd5b50565b615c92816151f0565b8114615c9d57600080fd5b5056fea2646970667358221220b2ff41103b6e01237093025321501d108824dc1e1433e88a727034b32fc7ec7564736f6c63430008070033",
  "devdoc": {
    "kind": "dev",
    "methods": {
      "approve(address,uint256)": {
        "details": "See {IERC721-approve}."
      },
      "balanceOf(address)": {
        "details": "See {IERC721-balanceOf}."
      },
      "getApproved(uint256)": {
        "details": "See {IERC721-getApproved}."
      },
      "isApprovedForAll(address,address)": {
        "details": "See {IERC721-isApprovedForAll}."
      },
      "name()": {
        "details": "See {IERC721Metadata-name}."
      },
      "ownerOf(uint256)": {
        "details": "See {IERC721-ownerOf}."
      },
      "safeTransferFrom(address,address,uint256)": {
        "details": "See {IERC721-safeTransferFrom}."
      },
      "safeTransferFrom(address,address,uint256,bytes)": {
        "details": "See {IERC721-safeTransferFrom}."
      },
      "setApprovalForAll(address,bool)": {
        "details": "See {IERC721-setApprovalForAll}."
      },
      "supportsInterface(bytes4)": {
        "details": "See {IERC165-supportsInterface}."
      },
      "symbol()": {
        "details": "See {IERC721Metadata-symbol}."
      },
      "tokenURI(uint256)": {
        "details": "See {IERC721Metadata-tokenURI}."
      },
      "transferFrom(address,address,uint256)": {
        "details": "See {IERC721-transferFrom}."
      }
    },
    "version": 1
  },
  "userdoc": {
    "kind": "user",
    "methods": {},
    "version": 1
  },
  "storageLayout": {
    "storage": [
      {
        "astId": 25,
        "contract": "contracts/NFTMarketplace.sol:NFTMarketplace",
        "label": "_name",
        "offset": 0,
        "slot": "0",
        "type": "t_string_storage"
      },
      {
        "astId": 27,
        "contract": "contracts/NFTMarketplace.sol:NFTMarketplace",
        "label": "_symbol",
        "offset": 0,
        "slot": "1",
        "type": "t_string_storage"
      },
      {
        "astId": 31,
        "contract": "contracts/NFTMarketplace.sol:NFTMarketplace",
        "label": "_owners",
        "offset": 0,
        "slot": "2",
        "type": "t_mapping(t_uint256,t_address)"
      },
      {
        "astId": 35,
        "contract": "contracts/NFTMarketplace.sol:NFTMarketplace",
        "label": "_balances",
        "offset": 0,
        "slot": "3",
        "type": "t_mapping(t_address,t_uint256)"
      },
      {
        "astId": 39,
        "contract": "contracts/NFTMarketplace.sol:NFTMarketplace",
        "label": "_tokenApprovals",
        "offset": 0,
        "slot": "4",
        "type": "t_mapping(t_uint256,t_address)"
      },
      {
        "astId": 45,
        "contract": "contracts/NFTMarketplace.sol:NFTMarketplace",
        "label": "_operatorApprovals",
        "offset": 0,
        "slot": "5",
        "type": "t_mapping(t_address,t_mapping(t_address,t_bool))"
      },
      {
        "astId": 962,
        "contract": "contracts/NFTMarketplace.sol:NFTMarketplace",
        "label": "_tokenURIs",
        "offset": 0,
        "slot": "6",
        "type": "t_mapping(t_uint256,t_string_storage)"
      },
      {
        "astId": 1751,
        "contract": "contracts/NFTMarketplace.sol:NFTMarketplace",
        "label": "_tokenIds",
        "offset": 0,
        "slot": "7",
        "type": "t_struct(Counter)1429_storage"
      },
      {
        "astId": 1754,
        "contract": "contracts/NFTMarketplace.sol:NFTMarketplace",
        "label": "_itemsSold",
        "offset": 0,
        "slot": "8",
        "type": "t_struct(Counter)1429_storage"
      },
      {
        "astId": 1756,
        "contract": "contracts/NFTMarketplace.sol:NFTMarketplace",
        "label": "owner",
        "offset": 0,
        "slot": "9",
        "type": "t_address_payable"
      },
      {
        "astId": 1759,
        "contract": "contracts/NFTMarketplace.sol:NFTMarketplace",
        "label": "listPrice",
        "offset": 0,
        "slot": "10",
        "type": "t_uint256"
      },
      {
        "astId": 1763,
        "contract": "contracts/NFTMarketplace.sol:NFTMarketplace",
        "label": "entryCount",
        "offset": 0,
        "slot": "11",
        "type": "t_mapping(t_address,t_uint256)"
      },
      {
        "astId": 1766,
        "contract": "contracts/NFTMarketplace.sol:NFTMarketplace",
        "label": "players",
        "offset": 0,
        "slot": "12",
        "type": "t_array(t_address)dyn_storage"
      },
      {
        "astId": 1769,
        "contract": "contracts/NFTMarketplace.sol:NFTMarketplace",
        "label": "playerSelector",
        "offset": 0,
        "slot": "13",
        "type": "t_array(t_address)dyn_storage"
      },
      {
        "astId": 1771,
        "contract": "contracts/NFTMarketplace.sol:NFTMarketplace",
        "label": "raffleStatus",
        "offset": 0,
        "slot": "14",
        "type": "t_bool"
      },
      {
        "astId": 1774,
        "contract": "contracts/NFTMarketplace.sol:NFTMarketplace",
        "label": "entryCost",
        "offset": 0,
        "slot": "15",
        "type": "t_uint256"
      },
      {
        "astId": 1776,
        "contract": "contracts/NFTMarketplace.sol:NFTMarketplace",
        "label": "nftId",
        "offset": 0,
        "slot": "16",
        "type": "t_uint256"
      },
      {
        "astId": 1778,
        "contract": "contracts/NFTMarketplace.sol:NFTMarketplace",
        "label": "totalEntries",
        "offset": 0,
        "slot": "17",
        "type": "t_uint256"
      },
      {
        "astId": 1846,
        "contract": "contracts/NFTMarketplace.sol:NFTMarketplace",
        "label": "idToListedToken",
        "offset": 0,
        "slot": "18",
        "type": "t_mapping(t_uint256,t_struct(ListedToken)1813_storage)"
      }
    ],
    "types": {
      "t_address": {
        "encoding": "inplace",
        "label": "address",
        "numberOfBytes": "20"
      },
      "t_address_payable": {
        "encoding": "inplace",
        "label": "address payable",
        "numberOfBytes": "20"
      },
      "t_array(t_address)dyn_storage": {
        "base": "t_address",
        "encoding": "dynamic_array",
        "label": "address[]",
        "numberOfBytes": "32"
      },
      "t_bool": {
        "encoding": "inplace",
        "label": "bool",
        "numberOfBytes": "1"
      },
      "t_mapping(t_address,t_bool)": {
        "encoding": "mapping",
        "key": "t_address",
        "label": "mapping(address => bool)",
        "numberOfBytes": "32",
        "value": "t_bool"
      },
      "t_mapping(t_address,t_mapping(t_address,t_bool))": {
        "encoding": "mapping",
        "key": "t_address",
        "label": "mapping(address => mapping(address => bool))",
        "numberOfBytes": "32",
        "value": "t_mapping(t_address,t_bool)"
      },
      "t_mapping(t_address,t_uint256)": {
        "encoding": "mapping",
        "key": "t_address",
        "label": "mapping(address => uint256)",
        "numberOfBytes": "32",
        "value": "t_uint256"
      },
      "t_mapping(t_uint256,t_address)": {
        "encoding": "mapping",
        "key": "t_uint256",
        "label": "mapping(uint256 => address)",
        "numberOfBytes": "32",
        "value": "t_address"
      },
      "t_mapping(t_uint256,t_string_storage)": {
        "encoding": "mapping",
        "key": "t_uint256",
        "label": "mapping(uint256 => string)",
        "numberOfBytes": "32",
        "value": "t_string_storage"
      },
      "t_mapping(t_uint256,t_struct(ListedToken)1813_storage)": {
        "encoding": "mapping",
        "key": "t_uint256",
        "label": "mapping(uint256 => struct NFTMarketplace.ListedToken)",
        "numberOfBytes": "32",
        "value": "t_struct(ListedToken)1813_storage"
      },
      "t_string_storage": {
        "encoding": "bytes",
        "label": "string",
        "numberOfBytes": "32"
      },
      "t_struct(Counter)1429_storage": {
        "encoding": "inplace",
        "label": "struct Counters.Counter",
        "members": [
          {
            "astId": 1428,
            "contract": "contracts/NFTMarketplace.sol:NFTMarketplace",
            "label": "_value",
            "offset": 0,
            "slot": "0",
            "type": "t_uint256"
          }
        ],
        "numberOfBytes": "32"
      },
      "t_struct(ListedToken)1813_storage": {
        "encoding": "inplace",
        "label": "struct NFTMarketplace.ListedToken",
        "members": [
          {
            "astId": 1804,
            "contract": "contracts/NFTMarketplace.sol:NFTMarketplace",
            "label": "tokenId",
            "offset": 0,
            "slot": "0",
            "type": "t_uint256"
          },
          {
            "astId": 1806,
            "contract": "contracts/NFTMarketplace.sol:NFTMarketplace",
            "label": "owner",
            "offset": 0,
            "slot": "1",
            "type": "t_address"
          },
          {
            "astId": 1808,
            "contract": "contracts/NFTMarketplace.sol:NFTMarketplace",
            "label": "seller",
            "offset": 0,
            "slot": "2",
            "type": "t_address"
          },
          {
            "astId": 1810,
            "contract": "contracts/NFTMarketplace.sol:NFTMarketplace",
            "label": "price",
            "offset": 0,
            "slot": "3",
            "type": "t_uint256"
          },
          {
            "astId": 1812,
            "contract": "contracts/NFTMarketplace.sol:NFTMarketplace",
            "label": "currentlyListed",
            "offset": 0,
            "slot": "4",
            "type": "t_bool"
          }
        ],
        "numberOfBytes": "160"
      },
      "t_uint256": {
        "encoding": "inplace",
        "label": "uint256",
        "numberOfBytes": "32"
      }
    }
  }
}