{
  "_format": "hh-sol-artifact-1",
  "contractName": "NFTMarketplace",
  "sourceName": "contracts/NFTMarketplace.sol",
  "abi": [
    {
      "inputs": [],
      "stateMutability": "nonpayable",
      "type": "constructor"
    },
    {
      "anonymous": false,
      "inputs": [
        {
          "indexed": true,
          "internalType": "address",
          "name": "owner",
          "type": "address"
        },
        {
          "indexed": true,
          "internalType": "address",
          "name": "approved",
          "type": "address"
        },
        {
          "indexed": true,
          "internalType": "uint256",
          "name": "tokenId",
          "type": "uint256"
        }
      ],
      "name": "Approval",
      "type": "event"
    },
    {
      "anonymous": false,
      "inputs": [
        {
          "indexed": true,
          "internalType": "address",
          "name": "owner",
          "type": "address"
        },
        {
          "indexed": true,
          "internalType": "address",
          "name": "operator",
          "type": "address"
        },
        {
          "indexed": false,
          "internalType": "bool",
          "name": "approved",
          "type": "bool"
        }
      ],
      "name": "ApprovalForAll",
      "type": "event"
    },
    {
      "anonymous": false,
      "inputs": [
        {
          "indexed": false,
          "internalType": "uint256",
          "name": "amount",
          "type": "uint256"
        }
      ],
      "name": "BalanceWithdrawn",
      "type": "event"
    },
    {
      "anonymous": false,
      "inputs": [
        {
          "indexed": false,
          "internalType": "uint256",
          "name": "newCost",
          "type": "uint256"
        }
      ],
      "name": "EntryCostChanged",
      "type": "event"
    },
    {
      "anonymous": false,
      "inputs": [
        {
          "indexed": false,
          "internalType": "uint256",
          "name": "nftId",
          "type": "uint256"
        }
      ],
      "name": "NFTPrizeSet",
      "type": "event"
    },
    {
      "anonymous": false,
      "inputs": [
        {
          "indexed": false,
          "internalType": "uint256",
          "name": "tokenID",
          "type": "uint256"
        },
        {
          "indexed": false,
          "internalType": "address",
          "name": "from",
          "type": "address"
        },
        {
          "indexed": false,
          "internalType": "address",
          "name": "to",
          "type": "address"
        },
        {
          "indexed": false,
          "internalType": "string",
          "name": "tokenURI",
          "type": "string"
        },
        {
          "indexed": false,
          "internalType": "uint256",
          "name": "price",
          "type": "uint256"
        }
      ],
      "name": "NFTTransfer",
      "type": "event"
    },
    {
      "anonymous": false,
      "inputs": [
        {
          "indexed": false,
          "internalType": "address",
          "name": "player",
          "type": "address"
        }
      ],
      "name": "NewEntry",
      "type": "event"
    },
    {
      "anonymous": false,
      "inputs": [],
      "name": "RaffleEnded",
      "type": "event"
    },
    {
      "anonymous": false,
      "inputs": [],
      "name": "RaffleStarted",
      "type": "event"
    },
    {
      "anonymous": false,
      "inputs": [
        {
          "indexed": false,
          "internalType": "uint256",
          "name": "tokenID",
          "type": "uint256"
        }
      ],
      "name": "TokenListed",
      "type": "event"
    },
    {
      "anonymous": false,
      "inputs": [
        {
          "indexed": true,
          "internalType": "uint256",
          "name": "tokenId",
          "type": "uint256"
        },
        {
          "indexed": false,
          "internalType": "address",
          "name": "owner",
          "type": "address"
        },
        {
          "indexed": false,
          "internalType": "address",
          "name": "seller",
          "type": "address"
        },
        {
          "indexed": false,
          "internalType": "uint256",
          "name": "price",
          "type": "uint256"
        },
        {
          "indexed": false,
          "internalType": "bool",
          "name": "currentlyListed",
          "type": "bool"
        }
      ],
      "name": "TokenListedSuccess",
      "type": "event"
    },
    {
      "anonymous": false,
      "inputs": [
        {
          "indexed": true,
          "internalType": "address",
          "name": "from",
          "type": "address"
        },
        {
          "indexed": true,
          "internalType": "address",
          "name": "to",
          "type": "address"
        },
        {
          "indexed": true,
          "internalType": "uint256",
          "name": "tokenId",
          "type": "uint256"
        }
      ],
      "name": "Transfer",
      "type": "event"
    },
    {
      "anonymous": false,
      "inputs": [
        {
          "indexed": false,
          "internalType": "address",
          "name": "winner",
          "type": "address"
        }
      ],
      "name": "WinnerSelected",
      "type": "event"
    },
    {
      "anonymous": false,
      "inputs": [
        {
          "indexed": false,
          "internalType": "address",
          "name": "winner",
          "type": "address"
        },
        {
          "indexed": false,
          "internalType": "uint256",
          "name": "amount",
          "type": "uint256"
        }
      ],
      "name": "auctionEnded",
      "type": "event"
    },
    {
      "anonymous": false,
      "inputs": [],
      "name": "auctionStarted",
      "type": "event"
    },
    {
      "anonymous": false,
      "inputs": [
        {
          "indexed": true,
          "internalType": "address",
          "name": "sender",
          "type": "address"
        },
        {
          "indexed": false,
          "internalType": "uint256",
          "name": "amount",
          "type": "uint256"
        }
      ],
      "name": "bidAuction",
      "type": "event"
    },
    {
      "anonymous": false,
      "inputs": [
        {
          "indexed": true,
          "internalType": "address",
          "name": "bidder",
          "type": "address"
        },
        {
          "indexed": false,
          "internalType": "uint256",
          "name": "amount",
          "type": "uint256"
        }
      ],
      "name": "withdrawAuction",
      "type": "event"
    },
    {
      "inputs": [
        {
          "internalType": "address",
          "name": "to",
          "type": "address"
        },
        {
          "internalType": "uint256",
          "name": "tokenId",
          "type": "uint256"
        }
      ],
      "name": "approve",
      "outputs": [],
      "stateMutability": "nonpayable",
      "type": "function"
    },
    {
      "inputs": [],
      "name": "auctionBid",
      "outputs": [],
      "stateMutability": "payable",
      "type": "function"
    },
    {
      "inputs": [],
      "name": "auctionNftId",
      "outputs": [
        {
          "internalType": "uint256",
          "name": "",
          "type": "uint256"
        }
      ],
      "stateMutability": "view",
      "type": "function"
    },
    {
      "inputs": [],
      "name": "auctionStatus",
      "outputs": [
        {
          "internalType": "bool",
          "name": "",
          "type": "bool"
        }
      ],
      "stateMutability": "view",
      "type": "function"
    },
    {
      "inputs": [
        {
          "internalType": "address",
          "name": "owner",
          "type": "address"
        }
      ],
      "name": "balanceOf",
      "outputs": [
        {
          "internalType": "uint256",
          "name": "",
          "type": "uint256"
        }
      ],
      "stateMutability": "view",
      "type": "function"
    },
    {
      "inputs": [
        {
          "internalType": "address",
          "name": "",
          "type": "address"
        }
      ],
      "name": "bids",
      "outputs": [
        {
          "internalType": "uint256",
          "name": "",
          "type": "uint256"
        }
      ],
      "stateMutability": "view",
      "type": "function"
    },
    {
      "inputs": [
        {
          "internalType": "uint256",
          "name": "_numberOfEntries",
          "type": "uint256"
        }
      ],
      "name": "buyEntry",
      "outputs": [],
      "stateMutability": "payable",
      "type": "function"
    },
    {
      "inputs": [
        {
          "internalType": "uint256",
          "name": "tokenId",
          "type": "uint256"
        }
      ],
      "name": "cancelListing",
      "outputs": [],
      "stateMutability": "nonpayable",
      "type": "function"
    },
    {
      "inputs": [
        {
          "internalType": "uint256",
          "name": "_newCost",
          "type": "uint256"
        }
      ],
      "name": "changeEntryCost",
      "outputs": [],
      "stateMutability": "nonpayable",
      "type": "function"
    },
    {
      "inputs": [
        {
          "internalType": "uint256",
          "name": "tokenId",
          "type": "uint256"
        },
        {
          "internalType": "uint256",
          "name": "price",
          "type": "uint256"
        }
      ],
      "name": "createListedToken",
      "outputs": [],
      "stateMutability": "payable",
      "type": "function"
    },
    {
      "inputs": [
        {
          "internalType": "string",
          "name": "tokenURI",
          "type": "string"
        }
      ],
      "name": "createToken",
      "outputs": [],
      "stateMutability": "payable",
      "type": "function"
    },
    {
      "inputs": [],
      "name": "endAuction",
      "outputs": [],
      "stateMutability": "payable",
      "type": "function"
    },
    {
      "inputs": [],
      "name": "endRaffle",
      "outputs": [],
      "stateMutability": "nonpayable",
      "type": "function"
    },
    {
      "inputs": [],
      "name": "entryCost",
      "outputs": [
        {
          "internalType": "uint256",
          "name": "",
          "type": "uint256"
        }
      ],
      "stateMutability": "view",
      "type": "function"
    },
    {
      "inputs": [
        {
          "internalType": "address",
          "name": "",
          "type": "address"
        }
      ],
      "name": "entryCount",
      "outputs": [
        {
          "internalType": "uint256",
          "name": "",
          "type": "uint256"
        }
      ],
      "stateMutability": "view",
      "type": "function"
    },
    {
      "inputs": [
        {
          "internalType": "uint256",
          "name": "tokenId",
          "type": "uint256"
        }
      ],
      "name": "executeSale",
      "outputs": [],
      "stateMutability": "payable",
      "type": "function"
    },
    {
      "inputs": [],
      "name": "getAllNFTs",
      "outputs": [
        {
          "components": [
            {
              "internalType": "uint256",
              "name": "tokenId",
              "type": "uint256"
            },
            {
              "internalType": "address",
              "name": "owner",
              "type": "address"
            },
            {
              "internalType": "address",
              "name": "seller",
              "type": "address"
            },
            {
              "internalType": "uint256",
              "name": "price",
              "type": "uint256"
            },
            {
              "internalType": "bool",
              "name": "currentlyListed",
              "type": "bool"
            }
          ],
          "internalType": "struct NFTMarketplace.ListedToken[]",
          "name": "",
          "type": "tuple[]"
        }
      ],
      "stateMutability": "view",
      "type": "function"
    },
    {
      "inputs": [
        {
          "internalType": "uint256",
          "name": "tokenId",
          "type": "uint256"
        }
      ],
      "name": "getApproved",
      "outputs": [
        {
          "internalType": "address",
          "name": "",
          "type": "address"
        }
      ],
      "stateMutability": "view",
      "type": "function"
    },
    {
      "inputs": [],
      "name": "getBalance",
      "outputs": [
        {
          "internalType": "uint256",
          "name": "",
          "type": "uint256"
        }
      ],
      "stateMutability": "view",
      "type": "function"
    },
    {
      "inputs": [],
      "name": "getCurrentToken",
      "outputs": [
        {
          "internalType": "uint256",
          "name": "",
          "type": "uint256"
        }
      ],
      "stateMutability": "view",
      "type": "function"
    },
    {
      "inputs": [],
      "name": "getLatestIdToListedToken",
      "outputs": [
        {
          "components": [
            {
              "internalType": "uint256",
              "name": "tokenId",
              "type": "uint256"
            },
            {
              "internalType": "address",
              "name": "owner",
              "type": "address"
            },
            {
              "internalType": "address",
              "name": "seller",
              "type": "address"
            },
            {
              "internalType": "uint256",
              "name": "price",
              "type": "uint256"
            },
            {
              "internalType": "bool",
              "name": "currentlyListed",
              "type": "bool"
            }
          ],
          "internalType": "struct NFTMarketplace.ListedToken",
          "name": "",
          "type": "tuple"
        }
      ],
      "stateMutability": "view",
      "type": "function"
    },
    {
      "inputs": [],
      "name": "getListPrice",
      "outputs": [
        {
          "internalType": "uint256",
          "name": "",
          "type": "uint256"
        }
      ],
      "stateMutability": "view",
      "type": "function"
    },
    {
      "inputs": [
        {
          "internalType": "uint256",
          "name": "tokenId",
          "type": "uint256"
        }
      ],
      "name": "getListedTokenForId",
      "outputs": [
        {
          "components": [
            {
              "internalType": "uint256",
              "name": "tokenId",
              "type": "uint256"
            },
            {
              "internalType": "address",
              "name": "owner",
              "type": "address"
            },
            {
              "internalType": "address",
              "name": "seller",
              "type": "address"
            },
            {
              "internalType": "uint256",
              "name": "price",
              "type": "uint256"
            },
            {
              "internalType": "bool",
              "name": "currentlyListed",
              "type": "bool"
            }
          ],
          "internalType": "struct NFTMarketplace.ListedToken",
          "name": "",
          "type": "tuple"
        }
      ],
      "stateMutability": "view",
      "type": "function"
    },
    {
      "inputs": [],
      "name": "getMyNFTs",
      "outputs": [
        {
          "components": [
            {
              "internalType": "uint256",
              "name": "tokenId",
              "type": "uint256"
            },
            {
              "internalType": "address",
              "name": "owner",
              "type": "address"
            },
            {
              "internalType": "address",
              "name": "seller",
              "type": "address"
            },
            {
              "internalType": "uint256",
              "name": "price",
              "type": "uint256"
            },
            {
              "internalType": "bool",
              "name": "currentlyListed",
              "type": "bool"
            }
          ],
          "internalType": "struct NFTMarketplace.ListedToken[]",
          "name": "",
          "type": "tuple[]"
        }
      ],
      "stateMutability": "view",
      "type": "function"
    },
    {
      "inputs": [],
      "name": "getPlayers",
      "outputs": [
        {
          "internalType": "address[]",
          "name": "",
          "type": "address[]"
        }
      ],
      "stateMutability": "view",
      "type": "function"
    },
    {
      "inputs": [],
      "name": "highestBid",
      "outputs": [
        {
          "internalType": "uint256",
          "name": "",
          "type": "uint256"
        }
      ],
      "stateMutability": "view",
      "type": "function"
    },
    {
      "inputs": [],
      "name": "highestBidder",
      "outputs": [
        {
          "internalType": "address",
          "name": "",
          "type": "address"
        }
      ],
      "stateMutability": "view",
      "type": "function"
    },
    {
      "inputs": [
        {
          "internalType": "address",
          "name": "owner",
          "type": "address"
        },
        {
          "internalType": "address",
          "name": "operator",
          "type": "address"
        }
      ],
      "name": "isApprovedForAll",
      "outputs": [
        {
          "internalType": "bool",
          "name": "",
          "type": "bool"
        }
      ],
      "stateMutability": "view",
      "type": "function"
    },
    {
      "inputs": [
        {
          "internalType": "address",
          "name": "_player",
          "type": "address"
        }
      ],
      "name": "isPlayer",
      "outputs": [
        {
          "internalType": "bool",
          "name": "",
          "type": "bool"
        }
      ],
      "stateMutability": "view",
      "type": "function"
    },
    {
      "inputs": [],
      "name": "name",
      "outputs": [
        {
          "internalType": "string",
          "name": "",
          "type": "string"
        }
      ],
      "stateMutability": "view",
      "type": "function"
    },
    {
      "inputs": [],
      "name": "nftId",
      "outputs": [
        {
          "internalType": "uint256",
          "name": "",
          "type": "uint256"
        }
      ],
      "stateMutability": "view",
      "type": "function"
    },
    {
      "inputs": [
        {
          "internalType": "uint256",
          "name": "tokenId",
          "type": "uint256"
        }
      ],
      "name": "ownerOf",
      "outputs": [
        {
          "internalType": "address",
          "name": "",
          "type": "address"
        }
      ],
      "stateMutability": "view",
      "type": "function"
    },
    {
      "inputs": [
        {
          "internalType": "uint256",
          "name": "",
          "type": "uint256"
        }
      ],
      "name": "playerSelector",
      "outputs": [
        {
          "internalType": "address",
          "name": "",
          "type": "address"
        }
      ],
      "stateMutability": "view",
      "type": "function"
    },
    {
      "inputs": [
        {
          "internalType": "uint256",
          "name": "",
          "type": "uint256"
        }
      ],
      "name": "players",
      "outputs": [
        {
          "internalType": "address",
          "name": "",
          "type": "address"
        }
      ],
      "stateMutability": "view",
      "type": "function"
    },
    {
      "inputs": [],
      "name": "raffleStatus",
      "outputs": [
        {
          "internalType": "bool",
          "name": "",
          "type": "bool"
        }
      ],
      "stateMutability": "view",
      "type": "function"
    },
    {
      "inputs": [],
      "name": "resestContracts",
      "outputs": [],
      "stateMutability": "nonpayable",
      "type": "function"
    },
    {
      "inputs": [
        {
          "internalType": "address",
          "name": "from",
          "type": "address"
        },
        {
          "internalType": "address",
          "name": "to",
          "type": "address"
        },
        {
          "internalType": "uint256",
          "name": "tokenId",
          "type": "uint256"
        }
      ],
      "name": "safeTransferFrom",
      "outputs": [],
      "stateMutability": "nonpayable",
      "type": "function"
    },
    {
      "inputs": [
        {
          "internalType": "address",
          "name": "from",
          "type": "address"
        },
        {
          "internalType": "address",
          "name": "to",
          "type": "address"
        },
        {
          "internalType": "uint256",
          "name": "tokenId",
          "type": "uint256"
        },
        {
          "internalType": "bytes",
          "name": "_data",
          "type": "bytes"
        }
      ],
      "name": "safeTransferFrom",
      "outputs": [],
      "stateMutability": "nonpayable",
      "type": "function"
    },
    {
      "inputs": [],
      "name": "selectWinner",
      "outputs": [],
      "stateMutability": "payable",
      "type": "function"
    },
    {
      "inputs": [
        {
          "internalType": "address",
          "name": "operator",
          "type": "address"
        },
        {
          "internalType": "bool",
          "name": "approved",
          "type": "bool"
        }
      ],
      "name": "setApprovalForAll",
      "outputs": [],
      "stateMutability": "nonpayable",
      "type": "function"
    },
    {
      "inputs": [
        {
          "internalType": "uint256",
          "name": "_tokenId",
          "type": "uint256"
        }
      ],
      "name": "startAuction",
      "outputs": [],
      "stateMutability": "nonpayable",
      "type": "function"
    },
    {
      "inputs": [
        {
          "internalType": "uint256",
          "name": "_tokenId",
          "type": "uint256"
        }
      ],
      "name": "startRaffle",
      "outputs": [],
      "stateMutability": "nonpayable",
      "type": "function"
    },
    {
      "inputs": [
        {
          "internalType": "bytes4",
          "name": "interfaceId",
          "type": "bytes4"
        }
      ],
      "name": "supportsInterface",
      "outputs": [
        {
          "internalType": "bool",
          "name": "",
          "type": "bool"
        }
      ],
      "stateMutability": "view",
      "type": "function"
    },
    {
      "inputs": [],
      "name": "symbol",
      "outputs": [
        {
          "internalType": "string",
          "name": "",
          "type": "string"
        }
      ],
      "stateMutability": "view",
      "type": "function"
    },
    {
      "inputs": [
        {
          "internalType": "uint256",
          "name": "tokenId",
          "type": "uint256"
        }
      ],
      "name": "tokenURI",
      "outputs": [
        {
          "internalType": "string",
          "name": "",
          "type": "string"
        }
      ],
      "stateMutability": "view",
      "type": "function"
    },
    {
      "inputs": [],
      "name": "totalEntries",
      "outputs": [
        {
          "internalType": "uint256",
          "name": "",
          "type": "uint256"
        }
      ],
      "stateMutability": "view",
      "type": "function"
    },
    {
      "inputs": [
        {
          "internalType": "address",
          "name": "from",
          "type": "address"
        },
        {
          "internalType": "address",
          "name": "to",
          "type": "address"
        },
        {
          "internalType": "uint256",
          "name": "tokenId",
          "type": "uint256"
        }
      ],
      "name": "transferFrom",
      "outputs": [],
      "stateMutability": "nonpayable",
      "type": "function"
    },
    {
      "inputs": [
        {
          "internalType": "uint256",
          "name": "_listPrice",
          "type": "uint256"
        }
      ],
      "name": "updateListPrice",
      "outputs": [],
      "stateMutability": "payable",
      "type": "function"
    },
    {
      "inputs": [],
      "name": "withdraw",
      "outputs": [],
      "stateMutability": "payable",
      "type": "function"
    },
    {
      "inputs": [],
      "name": "withdrawBlance",
      "outputs": [],
      "stateMutability": "nonpayable",
      "type": "function"
    }
  ],
  "bytecode": "0x6080604052662386f26fc10000600a55662386f26fc10000600f553480156200002757600080fd5b506040518060400160405280600e81526020017f4e46544d61726b6574706c6163650000000000000000000000000000000000008152506040518060400160405280600481526020017f4e46544d000000000000000000000000000000000000000000000000000000008152508160009080519060200190620000ac92919062000155565b508060019080519060200190620000c592919062000155565b50505033600960006101000a81548173ffffffffffffffffffffffffffffffffffffffff021916908373ffffffffffffffffffffffffffffffffffffffff1602179055506000600e60006101000a81548160ff02191690831515021790555060006011819055506000601360006101000a81548160ff02191690831515021790555060006014819055506200026a565b828054620001639062000205565b90600052602060002090601f016020900481019282620001875760008555620001d3565b82601f10620001a257805160ff1916838001178555620001d3565b82800160010185558215620001d3579182015b82811115620001d2578251825591602001919060010190620001b5565b5b509050620001e29190620001e6565b5090565b5b8082111562000201576000816000905550600101620001e7565b5090565b600060028204905060018216806200021e57607f821691505b602082108114156200023557620002346200023b565b5b50919050565b7f4e487b7100000000000000000000000000000000000000000000000000000000600052602260045260246000fd5b616853806200027a6000396000f3fe6080604052600436106102c95760003560e01c80637fef036e11610175578063c322579c116100dc578063e0391b0911610095578063ef2d17461161006f578063ef2d174614610a54578063f1ae8c5514610a7f578063f71d96cb14610aa8578063fe67a54b14610ae5576102c9565b8063e0391b09146109d5578063e985e9c514610a00578063ee095c0e14610a3d576102c9565b8063c322579c146108d0578063c6bc5182146108ec578063c87b56dd14610917578063ccfa213e14610954578063d1a88ae51461097f578063d57bde79146109aa576102c9565b80639d6a0f281161012e5780639d6a0f28146107e6578063a22cb46514610811578063a3d3f6f51461083a578063ae42ced614610851578063b88d4fde1461087c578063c08f31b2146108a5576102c9565b80637fef036e146106e15780638b5b9ccc1461070c5780638e2645901461073757806391f901571461077457806395d89b411461079f5780639b1225c4146107ca576102c9565b80633ccfd60b11610234578063629cb2e4116101ed57806368f1945f116101c757806368f1945f146106465780636b37a6f51461067157806370a0823114610688578063767d59af146106c5576102c9565b8063629cb2e4146105a157806362ea82db146105cc5780636352211e14610609576102c9565b80633ccfd60b146104ef57806341dd1ef8146104f957806342842e0e1461053657806345576f941461055f57806355524f561461057b5780635b8f108814610597576102c9565b806309c95e101161028657806309c95e10146103ee57806310e068051461042b57806312065fe01461046857806323b872dd14610493578063305a67a8146104bc57806333a99e04146104e5576102c9565b806301ffc9a7146102ce5780630513ec681461030b578063065de74c1461033457806306fdde031461035d578063081812fc14610388578063095ea7b3146103c5575b600080fd5b3480156102da57600080fd5b506102f560048036038101906102f091906149be565b610aef565b6040516103029190615470565b60405180910390f35b34801561031757600080fd5b50610332600480360381019061032d9190614a61565b610bd1565b005b34801561034057600080fd5b5061035b60048036038101906103569190614a61565b610cf1565b005b34801561036957600080fd5b50610372610eb2565b60405161037f919061548b565b60405180910390f35b34801561039457600080fd5b506103af60048036038101906103aa9190614a61565b610f44565b6040516103bc9190615357565b60405180910390f35b3480156103d157600080fd5b506103ec60048036038101906103e7919061497e565b610fc9565b005b3480156103fa57600080fd5b50610415600480360381019061041091906147fb565b6110e1565b6040516104229190615470565b60405180910390f35b34801561043757600080fd5b50610452600480360381019061044d9190614a61565b611190565b60405161045f9190615357565b60405180910390f35b34801561047457600080fd5b5061047d6111cf565b60405161048a9190615968565b60405180910390f35b34801561049f57600080fd5b506104ba60048036038101906104b59190614868565b6111d7565b005b3480156104c857600080fd5b506104e360048036038101906104de9190614a61565b611237565b005b6104ed611443565b005b6104f7611681565b005b34801561050557600080fd5b50610520600480360381019061051b91906147fb565b6117a2565b60405161052d9190615968565b60405180910390f35b34801561054257600080fd5b5061055d60048036038101906105589190614868565b6117ba565b005b61057960048036038101906105749190614a18565b6117da565b005b61059560048036038101906105909190614a8e565b611841565b005b61059f611aba565b005b3480156105ad57600080fd5b506105b6611cb6565b6040516105c3919061544e565b60405180910390f35b3480156105d857600080fd5b506105f360048036038101906105ee91906147fb565b612097565b6040516106009190615968565b60405180910390f35b34801561061557600080fd5b50610630600480360381019061062b9190614a61565b6120af565b60405161063d9190615357565b60405180910390f35b34801561065257600080fd5b5061065b612161565b6040516106689190615968565b60405180910390f35b34801561067d57600080fd5b5061068661216b565b005b34801561069457600080fd5b506106af60048036038101906106aa91906147fb565b61231a565b6040516106bc9190615968565b60405180910390f35b6106df60048036038101906106da9190614a61565b6123d2565b005b3480156106ed57600080fd5b506106f66125d5565b6040516107039190615968565b60405180910390f35b34801561071857600080fd5b506107216125db565b60405161072e919061542c565b60405180910390f35b34801561074357600080fd5b5061075e60048036038101906107599190614a61565b612669565b60405161076b919061594d565b60405180910390f35b34801561078057600080fd5b50610789612771565b6040516107969190615357565b60405180910390f35b3480156107ab57600080fd5b506107b4612797565b6040516107c1919061548b565b60405180910390f35b6107e460048036038101906107df9190614a61565b612829565b005b3480156107f257600080fd5b506107fb612a24565b6040516108089190615470565b60405180910390f35b34801561081d57600080fd5b506108386004803603810190610833919061493e565b612a37565b005b34801561084657600080fd5b5061084f612bb8565b005b34801561085d57600080fd5b50610866612ca1565b6040516108739190615968565b60405180910390f35b34801561088857600080fd5b506108a3600480360381019061089e91906148bb565b612ca7565b005b3480156108b157600080fd5b506108ba612d09565b6040516108c79190615968565b60405180910390f35b6108ea60048036038101906108e59190614a61565b612d0f565b005b3480156108f857600080fd5b50610901612da9565b60405161090e9190615968565b60405180910390f35b34801561092357600080fd5b5061093e60048036038101906109399190614a61565b612daf565b60405161094b919061548b565b60405180910390f35b34801561096057600080fd5b50610969612f01565b6040516109769190615470565b60405180910390f35b34801561098b57600080fd5b50610994612f14565b6040516109a1919061594d565b60405180910390f35b3480156109b657600080fd5b506109bf613029565b6040516109cc9190615968565b60405180910390f35b3480156109e157600080fd5b506109ea61302f565b6040516109f7919061544e565b60405180910390f35b348015610a0c57600080fd5b50610a276004803603810190610a229190614828565b613201565b604051610a349190615470565b60405180910390f35b348015610a4957600080fd5b50610a52613295565b005b348015610a6057600080fd5b50610a696133bd565b604051610a769190615968565b60405180910390f35b348015610a8b57600080fd5b50610aa66004803603810190610aa19190614a61565b6133ce565b005b348015610ab457600080fd5b50610acf6004803603810190610aca9190614a61565b613536565b604051610adc9190615357565b60405180910390f35b610aed613575565b005b60007f80ac58cd000000000000000000000000000000000000000000000000000000007bffffffffffffffffffffffffffffffffffffffffffffffffffffffff1916827bffffffffffffffffffffffffffffffffffffffffffffffffffffffff19161480610bba57507f5b5e139f000000000000000000000000000000000000000000000000000000007bffffffffffffffffffffffffffffffffffffffffffffffffffffffff1916827bffffffffffffffffffffffffffffffffffffffffffffffffffffffff1916145b80610bca5750610bc9826137bf565b5b9050919050565b600960009054906101000a900473ffffffffffffffffffffffffffffffffffffffff1673ffffffffffffffffffffffffffffffffffffffff163373ffffffffffffffffffffffffffffffffffffffff1614610c61576040517f08c379a0000000000000000000000000000000000000000000000000000000008152600401610c589061590d565b60405180910390fd5b600e60009054906101000a900460ff1615610cb1576040517f08c379a0000000000000000000000000000000000000000000000000000000008152600401610ca89061576d565b60405180910390fd5b80600f819055507eb880966eaaba04d39b129a92f6780ac322d8cd79a2ee908d3c3bf7fb2de77781604051610ce69190615968565b60405180910390a150565b600960009054906101000a900473ffffffffffffffffffffffffffffffffffffffff1673ffffffffffffffffffffffffffffffffffffffff163373ffffffffffffffffffffffffffffffffffffffff1614610d81576040517f08c379a0000000000000000000000000000000000000000000000000000000008152600401610d789061590d565b60405180910390fd5b601360009054906101000a900460ff1615610dd1576040517f08c379a0000000000000000000000000000000000000000000000000000000008152600401610dc8906155cd565b60405180910390fd5b600960009054906101000a900473ffffffffffffffffffffffffffffffffffffffff1673ffffffffffffffffffffffffffffffffffffffff163373ffffffffffffffffffffffffffffffffffffffff1614610e61576040517f08c379a0000000000000000000000000000000000000000000000000000000008152600401610e58906158ed565b60405180910390fd5b806012819055506001601360006101000a81548160ff0219169083151502179055507fee2679bc2382e067cc3dfbda872852b5b1702b359c1fd6ce272c32dae5bacabf60405160405180910390a150565b606060008054610ec190615cfe565b80601f0160208091040260200160405190810160405280929190818152602001828054610eed90615cfe565b8015610f3a5780601f10610f0f57610100808354040283529160200191610f3a565b820191906000526020600020905b815481529060010190602001808311610f1d57829003601f168201915b5050505050905090565b6000610f4f82613829565b610f8e576040517f08c379a0000000000000000000000000000000000000000000000000000000008152600401610f859061574d565b60405180910390fd5b6004600083815260200190815260200160002060009054906101000a900473ffffffffffffffffffffffffffffffffffffffff169050919050565b6000610fd4826120af565b90508073ffffffffffffffffffffffffffffffffffffffff168373ffffffffffffffffffffffffffffffffffffffff161415611045576040517f08c379a000000000000000000000000000000000000000000000000000000000815260040161103c9061580d565b60405180910390fd5b8073ffffffffffffffffffffffffffffffffffffffff16611064613895565b73ffffffffffffffffffffffffffffffffffffffff16148061109357506110928161108d613895565b613201565b5b6110d2576040517f08c379a00000000000000000000000000000000000000000000000000000000081526004016110c99061560d565b60405180910390fd5b6110dc838361389d565b505050565b600080600090505b600c80549050811015611185578273ffffffffffffffffffffffffffffffffffffffff16600c828154811061112157611120615e7c565b5b9060005260206000200160009054906101000a900473ffffffffffffffffffffffffffffffffffffffff1673ffffffffffffffffffffffffffffffffffffffff16141561117257600191505061118b565b808061117d90615d61565b9150506110e9565b50600090505b919050565b600d81815481106111a057600080fd5b906000526020600020016000915054906101000a900473ffffffffffffffffffffffffffffffffffffffff1681565b600047905090565b6111e86111e2613895565b82613956565b611227576040517f08c379a000000000000000000000000000000000000000000000000000000000815260040161121e9061588d565b60405180910390fd5b611232838383613a34565b505050565b6000601660008381526020019081526020016000206040518060a0016040529081600082015481526020016001820160009054906101000a900473ffffffffffffffffffffffffffffffffffffffff1673ffffffffffffffffffffffffffffffffffffffff1673ffffffffffffffffffffffffffffffffffffffff1681526020016002820160009054906101000a900473ffffffffffffffffffffffffffffffffffffffff1673ffffffffffffffffffffffffffffffffffffffff1673ffffffffffffffffffffffffffffffffffffffff168152602001600382015481526020016004820160009054906101000a900460ff1615151515815250509050600081606001511161137b576040517f08c379a00000000000000000000000000000000000000000000000000000000081526004016113729061550d565b60405180910390fd5b3373ffffffffffffffffffffffffffffffffffffffff16816040015173ffffffffffffffffffffffffffffffffffffffff16146113ed576040517f08c379a00000000000000000000000000000000000000000000000000000000081526004016113e49061582d565b60405180910390fd5b6113f8303384613a34565b61140182613c90565b7f705332a8918666802fc1504f63ff1f002a5f6cedd30d59ad7ae0b5281aeb8dca82303360006040516114379493929190615983565b60405180910390a15050565b600960009054906101000a900473ffffffffffffffffffffffffffffffffffffffff1673ffffffffffffffffffffffffffffffffffffffff163373ffffffffffffffffffffffffffffffffffffffff16146114d3576040517f08c379a00000000000000000000000000000000000000000000000000000000081526004016114ca9061590d565b60405180910390fd5b600e60009054906101000a900460ff1615611523576040517f08c379a000000000000000000000000000000000000000000000000000000000815260040161151a9061558d565b60405180910390fd5b6000600d805490501161156b576040517f08c379a00000000000000000000000000000000000000000000000000000000081526004016115629061586d565b60405180910390fd5b6000600d8054905061157b613da6565b6115859190615dbe565b90506000600d828154811061159d5761159c615e7c565b5b9060005260206000200160009054906101000a900473ffffffffffffffffffffffffffffffffffffffff1690507f1d4c260f1824cd028e6c9e6e31c3a0b94f2513e7a641113ec759d382f9bdd5a1816040516115f99190615357565b60405180910390a161160e3382601054613a34565b6000479050600960009054906101000a900473ffffffffffffffffffffffffffffffffffffffff1673ffffffffffffffffffffffffffffffffffffffff166108fc829081150290604051600060405180830381858888f1935050505015801561167b573d6000803e3d6000fd5b50505050565b6000601560003373ffffffffffffffffffffffffffffffffffffffff1673ffffffffffffffffffffffffffffffffffffffff1681526020019081526020016000205490506000601560003373ffffffffffffffffffffffffffffffffffffffff1673ffffffffffffffffffffffffffffffffffffffff168152602001908152602001600020819055503373ffffffffffffffffffffffffffffffffffffffff166108fc829081150290604051600060405180830381858888f19350505050158015611750573d6000803e3d6000fd5b503373ffffffffffffffffffffffffffffffffffffffff167febea602518573120af07c498ba50d4db04b7729cf3c4959a52df711db4fcbd61826040516117979190615968565b60405180910390a250565b600b6020528060005260406000206000915090505481565b6117d583838360405180602001604052806000815250612ca7565b505050565b6117e46007613ded565b60006117f06007613e03565b90506117fc3382613e11565b6118068183613e2f565b7f90aedd550c880e8ce9df04c011e7038e7cd271d1fa351cb2fb27dcc93310502c816040516118359190615968565b60405180910390a15050565b600a543414611885576040517f08c379a000000000000000000000000000000000000000000000000000000000815260040161187c906157ed565b60405180910390fd5b600081116118c8576040517f08c379a00000000000000000000000000000000000000000000000000000000081526004016118bf906158cd565b60405180910390fd5b6118d1826120af565b73ffffffffffffffffffffffffffffffffffffffff163373ffffffffffffffffffffffffffffffffffffffff161461193e576040517f08c379a00000000000000000000000000000000000000000000000000000000081526004016119359061584d565b60405180910390fd5b6040518060a001604052808381526020013073ffffffffffffffffffffffffffffffffffffffff1681526020013373ffffffffffffffffffffffffffffffffffffffff16815260200182815260200160011515815250601660008481526020019081526020016000206000820151816000015560208201518160010160006101000a81548173ffffffffffffffffffffffffffffffffffffffff021916908373ffffffffffffffffffffffffffffffffffffffff16021790555060408201518160020160006101000a81548173ffffffffffffffffffffffffffffffffffffffff021916908373ffffffffffffffffffffffffffffffffffffffff1602179055506060820151816003015560808201518160040160006101000a81548160ff021916908315150217905550905050611a77333084613a34565b817f9339409317fd01fabff48b703019016f49159bacc801ae872d2ca637d226e4c03033846001604051611aae9493929190615372565b60405180910390a25050565b601360009054906101000a900460ff16611b09576040517f08c379a0000000000000000000000000000000000000000000000000000000008152600401611b00906154ad565b60405180910390fd5b6014543411611b4d576040517f08c379a0000000000000000000000000000000000000000000000000000000008152600401611b449061592d565b60405180910390fd5b600073ffffffffffffffffffffffffffffffffffffffff16601360019054906101000a900473ffffffffffffffffffffffffffffffffffffffff1673ffffffffffffffffffffffffffffffffffffffff1614611c1e5760145460156000601360019054906101000a900473ffffffffffffffffffffffffffffffffffffffff1673ffffffffffffffffffffffffffffffffffffffff1673ffffffffffffffffffffffffffffffffffffffff1681526020019081526020016000206000828254611c169190615b17565b925050819055505b33601360016101000a81548173ffffffffffffffffffffffffffffffffffffffff021916908373ffffffffffffffffffffffffffffffffffffffff160217905550346014819055503373ffffffffffffffffffffffffffffffffffffffff167fbdaf9c467b856c8d6ae18efc5bc5d5fe63616a2886d6f60f7cc5d195b8e966d434604051611cac9190615968565b60405180910390a2565b60606000611cc46007613e03565b9050600080600080600090505b84811015611dea573373ffffffffffffffffffffffffffffffffffffffff1660166000600184611d019190615b17565b815260200190815260200160002060010160009054906101000a900473ffffffffffffffffffffffffffffffffffffffff1673ffffffffffffffffffffffffffffffffffffffff161480611dc257503373ffffffffffffffffffffffffffffffffffffffff1660166000600184611d789190615b17565b815260200190815260200160002060020160009054906101000a900473ffffffffffffffffffffffffffffffffffffffff1673ffffffffffffffffffffffffffffffffffffffff16145b15611dd757600184611dd49190615b17565b93505b8080611de290615d61565b915050611cd1565b5060008367ffffffffffffffff811115611e0757611e06615eab565b5b604051908082528060200260200182016040528015611e4057816020015b611e2d614591565b815260200190600190039081611e255790505b50905060005b8581101561208b573373ffffffffffffffffffffffffffffffffffffffff1660166000600184611e769190615b17565b815260200190815260200160002060010160009054906101000a900473ffffffffffffffffffffffffffffffffffffffff1673ffffffffffffffffffffffffffffffffffffffff161480611f3757503373ffffffffffffffffffffffffffffffffffffffff1660166000600184611eed9190615b17565b815260200190815260200160002060020160009054906101000a900473ffffffffffffffffffffffffffffffffffffffff1673ffffffffffffffffffffffffffffffffffffffff16145b1561207857600181611f499190615b17565b92506000601660008581526020019081526020016000209050806040518060a0016040529081600082015481526020016001820160009054906101000a900473ffffffffffffffffffffffffffffffffffffffff1673ffffffffffffffffffffffffffffffffffffffff1673ffffffffffffffffffffffffffffffffffffffff1681526020016002820160009054906101000a900473ffffffffffffffffffffffffffffffffffffffff1673ffffffffffffffffffffffffffffffffffffffff1673ffffffffffffffffffffffffffffffffffffffff168152602001600382015481526020016004820160009054906101000a900460ff16151515158152505083868151811061205c5761205b615e7c565b5b60200260200101819052506001856120749190615b17565b9450505b808061208390615d61565b915050611e46565b50809550505050505090565b60156020528060005260406000206000915090505481565b6000806002600084815260200190815260200160002060009054906101000a900473ffffffffffffffffffffffffffffffffffffffff169050600073ffffffffffffffffffffffffffffffffffffffff168173ffffffffffffffffffffffffffffffffffffffff161415612158576040517f08c379a000000000000000000000000000000000000000000000000000000000815260040161214f9061566d565b60405180910390fd5b80915050919050565b6000600a54905090565b600960009054906101000a900473ffffffffffffffffffffffffffffffffffffffff1673ffffffffffffffffffffffffffffffffffffffff163373ffffffffffffffffffffffffffffffffffffffff16146121fb576040517f08c379a00000000000000000000000000000000000000000000000000000000081526004016121f29061590d565b60405180910390fd5b6000471161223e576040517f08c379a0000000000000000000000000000000000000000000000000000000008152600401612235906156ad565b60405180910390fd5b6000479050600960009054906101000a900473ffffffffffffffffffffffffffffffffffffffff1673ffffffffffffffffffffffffffffffffffffffff166108fc829081150290604051600060405180830381858888f193505050501580156122ab573d6000803e3d6000fd5b507f39f8b889424a1684bd36857c25ab79691ed71adf60bbeca32820cb4de3c5884c816040516122db9190615968565b60405180910390a16122eb613ea3565b600d60006122f991906145ee565b600c600061230791906145ee565b6000601081905550600060118190555050565b60008073ffffffffffffffffffffffffffffffffffffffff168273ffffffffffffffffffffffffffffffffffffffff16141561238b576040517f08c379a00000000000000000000000000000000000000000000000000000000081526004016123829061564d565b60405180910390fd5b600360008373ffffffffffffffffffffffffffffffffffffffff1673ffffffffffffffffffffffffffffffffffffffff168152602001908152602001600020549050919050565b600e60009054906101000a900460ff16612421576040517f08c379a00000000000000000000000000000000000000000000000000000000081526004016124189061562d565b60405180910390fd5b80600f5461242f9190615b9e565b3414612470576040517f08c379a00000000000000000000000000000000000000000000000000000000081526004016124679061556d565b60405180910390fd5b80600b60003373ffffffffffffffffffffffffffffffffffffffff1673ffffffffffffffffffffffffffffffffffffffff16815260200190815260200160002060008282546124bf9190615b17565b9250508190555080601160008282546124d89190615b17565b925050819055506124e8336110e1565b61255057600c339080600181540180825580915050600190039060005260206000200160009091909190916101000a81548173ffffffffffffffffffffffffffffffffffffffff021916908373ffffffffffffffffffffffffffffffffffffffff1602179055505b60005b818110156125d157600d339080600181540180825580915050600190039060005260206000200160009091909190916101000a81548173ffffffffffffffffffffffffffffffffffffffff021916908373ffffffffffffffffffffffffffffffffffffffff16021790555080806125c990615d61565b915050612553565b5050565b60115481565b6060600c80548060200260200160405190810160405280929190818152602001828054801561265f57602002820191906000526020600020905b8160009054906101000a900473ffffffffffffffffffffffffffffffffffffffff1673ffffffffffffffffffffffffffffffffffffffff1681526020019060010190808311612615575b5050505050905090565b612671614591565b601660008381526020019081526020016000206040518060a0016040529081600082015481526020016001820160009054906101000a900473ffffffffffffffffffffffffffffffffffffffff1673ffffffffffffffffffffffffffffffffffffffff1673ffffffffffffffffffffffffffffffffffffffff1681526020016002820160009054906101000a900473ffffffffffffffffffffffffffffffffffffffff1673ffffffffffffffffffffffffffffffffffffffff1673ffffffffffffffffffffffffffffffffffffffff168152602001600382015481526020016004820160009054906101000a900460ff1615151515815250509050919050565b601360019054906101000a900473ffffffffffffffffffffffffffffffffffffffff1681565b6060600180546127a690615cfe565b80601f01602080910402602001604051908101604052809291908181526020018280546127d290615cfe565b801561281f5780601f106127f45761010080835404028352916020019161281f565b820191906000526020600020905b81548152906001019060200180831161280257829003601f168201915b5050505050905090565b60006016600083815260200190815260200160002060030154905060006016600084815260200190815260200160002060020160009054906101000a900473ffffffffffffffffffffffffffffffffffffffff1690508134146128c1576040517f08c379a00000000000000000000000000000000000000000000000000000000081526004016128b8906156ed565b60405180910390fd5b60016016600085815260200190815260200160002060040160006101000a81548160ff021916908315150217905550336016600085815260200190815260200160002060020160006101000a81548173ffffffffffffffffffffffffffffffffffffffff021916908373ffffffffffffffffffffffffffffffffffffffff16021790555061294f6008613ded565b61295883613c90565b612963303385613a34565b61296d3084610fc9565b600960009054906101000a900473ffffffffffffffffffffffffffffffffffffffff1673ffffffffffffffffffffffffffffffffffffffff166108fc600a549081150290604051600060405180830381858888f193505050501580156129d7573d6000803e3d6000fd5b508073ffffffffffffffffffffffffffffffffffffffff166108fc349081150290604051600060405180830381858888f19350505050158015612a1e573d6000803e3d6000fd5b50505050565b601360009054906101000a900460ff1681565b612a3f613895565b73ffffffffffffffffffffffffffffffffffffffff168273ffffffffffffffffffffffffffffffffffffffff161415612aad576040517f08c379a0000000000000000000000000000000000000000000000000000000008152600401612aa49061554d565b60405180910390fd5b8060056000612aba613895565b73ffffffffffffffffffffffffffffffffffffffff1673ffffffffffffffffffffffffffffffffffffffff16815260200190815260200160002060008473ffffffffffffffffffffffffffffffffffffffff1673ffffffffffffffffffffffffffffffffffffffff16815260200190815260200160002060006101000a81548160ff0219169083151502179055508173ffffffffffffffffffffffffffffffffffffffff16612b67613895565b73ffffffffffffffffffffffffffffffffffffffff167f17307eab39ab6107e8899845ad3d59bd9653f200f220920489ca2b5937696c3183604051612bac9190615470565b60405180910390a35050565b600960009054906101000a900473ffffffffffffffffffffffffffffffffffffffff1673ffffffffffffffffffffffffffffffffffffffff163373ffffffffffffffffffffffffffffffffffffffff1614612c48576040517f08c379a0000000000000000000000000000000000000000000000000000000008152600401612c3f9061590d565b60405180910390fd5b600d6000612c5691906145ee565b600c6000612c6491906145ee565b6000600e60006101000a81548160ff02191690831515021790555060006010819055506000600f819055506000601181905550612c9f613ea3565b565b600f5481565b612cb8612cb2613895565b83613956565b612cf7576040517f08c379a0000000000000000000000000000000000000000000000000000000008152600401612cee9061588d565b60405180910390fd5b612d0384848484613f3e565b50505050565b60125481565b3373ffffffffffffffffffffffffffffffffffffffff16600960009054906101000a900473ffffffffffffffffffffffffffffffffffffffff1673ffffffffffffffffffffffffffffffffffffffff1614612d9f576040517f08c379a0000000000000000000000000000000000000000000000000000000008152600401612d96906155ed565b60405180910390fd5b80600a8190555050565b60105481565b6060612dba82613829565b612df9576040517f08c379a0000000000000000000000000000000000000000000000000000000008152600401612df09061572d565b60405180910390fd5b6000600660008481526020019081526020016000208054612e1990615cfe565b80601f0160208091040260200160405190810160405280929190818152602001828054612e4590615cfe565b8015612e925780601f10612e6757610100808354040283529160200191612e92565b820191906000526020600020905b815481529060010190602001808311612e7557829003601f168201915b505050505090506000612ea3613f9a565b9050600081511415612eb9578192505050612efc565b600082511115612eee578082604051602001612ed6929190615333565b60405160208183030381529060405292505050612efc565b612ef784613fb1565b925050505b919050565b600e60009054906101000a900460ff1681565b612f1c614591565b6000612f286007613e03565b9050601660008281526020019081526020016000206040518060a0016040529081600082015481526020016001820160009054906101000a900473ffffffffffffffffffffffffffffffffffffffff1673ffffffffffffffffffffffffffffffffffffffff1673ffffffffffffffffffffffffffffffffffffffff1681526020016002820160009054906101000a900473ffffffffffffffffffffffffffffffffffffffff1673ffffffffffffffffffffffffffffffffffffffff1673ffffffffffffffffffffffffffffffffffffffff168152602001600382015481526020016004820160009054906101000a900460ff16151515158152505091505090565b60145481565b6060600061303d6007613e03565b905060008167ffffffffffffffff81111561305b5761305a615eab565b5b60405190808252806020026020018201604052801561309457816020015b613081614591565b8152602001906001900390816130795790505b50905060008080600090505b848110156131f6576001816130b59190615b17565b91506000601660008481526020019081526020016000209050806040518060a0016040529081600082015481526020016001820160009054906101000a900473ffffffffffffffffffffffffffffffffffffffff1673ffffffffffffffffffffffffffffffffffffffff1673ffffffffffffffffffffffffffffffffffffffff1681526020016002820160009054906101000a900473ffffffffffffffffffffffffffffffffffffffff1673ffffffffffffffffffffffffffffffffffffffff1673ffffffffffffffffffffffffffffffffffffffff168152602001600382015481526020016004820160009054906101000a900460ff1615151515815250508585815181106131c8576131c7615e7c565b5b60200260200101819052506001846131e09190615b17565b93505080806131ee90615d61565b9150506130a0565b508294505050505090565b6000600560008473ffffffffffffffffffffffffffffffffffffffff1673ffffffffffffffffffffffffffffffffffffffff16815260200190815260200160002060008373ffffffffffffffffffffffffffffffffffffffff1673ffffffffffffffffffffffffffffffffffffffff16815260200190815260200160002060009054906101000a900460ff16905092915050565b600960009054906101000a900473ffffffffffffffffffffffffffffffffffffffff1673ffffffffffffffffffffffffffffffffffffffff163373ffffffffffffffffffffffffffffffffffffffff1614613325576040517f08c379a000000000000000000000000000000000000000000000000000000000815260040161331c9061590d565b60405180910390fd5b600e60009054906101000a900460ff16613374576040517f08c379a000000000000000000000000000000000000000000000000000000000815260040161336b906156cd565b60405180910390fd5b6000600e60006101000a81548160ff0219169083151502179055507f502fd88d3ee98597d4546d25e71901684f153dccc5308b79f0f9ad3c660537a660405160405180910390a1565b60006133c96007613e03565b905090565b600960009054906101000a900473ffffffffffffffffffffffffffffffffffffffff1673ffffffffffffffffffffffffffffffffffffffff163373ffffffffffffffffffffffffffffffffffffffff161461345e576040517f08c379a00000000000000000000000000000000000000000000000000000000081526004016134559061590d565b60405180910390fd5b600e60009054906101000a900460ff16156134ae576040517f08c379a00000000000000000000000000000000000000000000000000000000081526004016134a5906158ad565b60405180910390fd5b806010819055506001600e60006101000a81548160ff0219169083151502179055507f093fa4dfbb74d3608ba227f645b7ff895fb60f8d2d990df81a7c200c325c88d060405160405180910390a17f3ee785801fa6bb1b8b2d00385766ea2021c33b10fa69103c94573b9dd58c19648160405161352b9190615968565b60405180910390a150565b600c818154811061354657600080fd5b906000526020600020016000915054906101000a900473ffffffffffffffffffffffffffffffffffffffff1681565b600960009054906101000a900473ffffffffffffffffffffffffffffffffffffffff1673ffffffffffffffffffffffffffffffffffffffff163373ffffffffffffffffffffffffffffffffffffffff1614613605576040517f08c379a00000000000000000000000000000000000000000000000000000000081526004016135fc9061590d565b60405180910390fd5b601360009054906101000a900460ff16613654576040517f08c379a000000000000000000000000000000000000000000000000000000000815260040161364b906157cd565b60405180910390fd5b6000601360006101000a81548160ff021916908315150217905550600073ffffffffffffffffffffffffffffffffffffffff16601360019054906101000a900473ffffffffffffffffffffffffffffffffffffffff1673ffffffffffffffffffffffffffffffffffffffff1614613760576136f433601360019054906101000a900473ffffffffffffffffffffffffffffffffffffffff16601254613a34565b600960009054906101000a900473ffffffffffffffffffffffffffffffffffffffff1673ffffffffffffffffffffffffffffffffffffffff166108fc6014549081150290604051600060405180830381858888f1935050505015801561375e573d6000803e3d6000fd5b505b7f6e0e2174dbf7b77c08b6f9a2799b9feda84a6d54a5644864582040100a47d4c5601360019054906101000a900473ffffffffffffffffffffffffffffffffffffffff166014546040516137b5929190615403565b60405180910390a1565b60007f01ffc9a7000000000000000000000000000000000000000000000000000000007bffffffffffffffffffffffffffffffffffffffffffffffffffffffff1916827bffffffffffffffffffffffffffffffffffffffffffffffffffffffff1916149050919050565b60008073ffffffffffffffffffffffffffffffffffffffff166002600084815260200190815260200160002060009054906101000a900473ffffffffffffffffffffffffffffffffffffffff1673ffffffffffffffffffffffffffffffffffffffff1614159050919050565b600033905090565b816004600083815260200190815260200160002060006101000a81548173ffffffffffffffffffffffffffffffffffffffff021916908373ffffffffffffffffffffffffffffffffffffffff160217905550808273ffffffffffffffffffffffffffffffffffffffff16613910836120af565b73ffffffffffffffffffffffffffffffffffffffff167f8c5be1e5ebec7d5bd14f71427d1e84f3dd0314c0f7b2291e5b200ac8c7c3b92560405160405180910390a45050565b600061396182613829565b6139a0576040517f08c379a0000000000000000000000000000000000000000000000000000000008152600401613997906155ad565b60405180910390fd5b60006139ab836120af565b90508073ffffffffffffffffffffffffffffffffffffffff168473ffffffffffffffffffffffffffffffffffffffff161480613a1a57508373ffffffffffffffffffffffffffffffffffffffff16613a0284610f44565b73ffffffffffffffffffffffffffffffffffffffff16145b80613a2b5750613a2a8185613201565b5b91505092915050565b8273ffffffffffffffffffffffffffffffffffffffff16613a54826120af565b73ffffffffffffffffffffffffffffffffffffffff1614613aaa576040517f08c379a0000000000000000000000000000000000000000000000000000000008152600401613aa19061578d565b60405180910390fd5b600073ffffffffffffffffffffffffffffffffffffffff168273ffffffffffffffffffffffffffffffffffffffff161415613b1a576040517f08c379a0000000000000000000000000000000000000000000000000000000008152600401613b119061552d565b60405180910390fd5b613b25838383614058565b613b3060008261389d565b6001600360008573ffffffffffffffffffffffffffffffffffffffff1673ffffffffffffffffffffffffffffffffffffffff1681526020019081526020016000206000828254613b809190615bf8565b925050819055506001600360008473ffffffffffffffffffffffffffffffffffffffff1673ffffffffffffffffffffffffffffffffffffffff1681526020019081526020016000206000828254613bd79190615b17565b92505081905550816002600083815260200190815260200160002060006101000a81548173ffffffffffffffffffffffffffffffffffffffff021916908373ffffffffffffffffffffffffffffffffffffffff160217905550808273ffffffffffffffffffffffffffffffffffffffff168473ffffffffffffffffffffffffffffffffffffffff167fddf252ad1be2c89b69c2b068fc378daa952ba7f163c4a11628f55a4df523b3ef60405160405180910390a4505050565b6000601660008381526020019081526020016000206003018190555060006016600083815260200190815260200160002060020160006101000a81548173ffffffffffffffffffffffffffffffffffffffff021916908373ffffffffffffffffffffffffffffffffffffffff16021790555060006016600083815260200190815260200160002060010160006101000a81548173ffffffffffffffffffffffffffffffffffffffff021916908373ffffffffffffffffffffffffffffffffffffffff1602179055506000601660008381526020019081526020016000206000018190555060006016600083815260200190815260200160002060040160006101000a81548160ff02191690831515021790555050565b6000600143613db59190615bf8565b4042600c80549050604051602001613dcf939291906152f6565b6040516020818303038152906040528051906020012060001c905090565b6001816000016000828254019250508190555050565b600081600001549050919050565b613e2b82826040518060200160405280600081525061405d565b5050565b613e3882613829565b613e77576040517f08c379a0000000000000000000000000000000000000000000000000000000008152600401613e6e9061568d565b60405180910390fd5b80600660008481526020019081526020016000209080519060200190613e9e92919061460f565b505050565b60005b600c80549050811015613f3b576000600b6000600c8481548110613ecd57613ecc615e7c565b5b9060005260206000200160009054906101000a900473ffffffffffffffffffffffffffffffffffffffff1673ffffffffffffffffffffffffffffffffffffffff1673ffffffffffffffffffffffffffffffffffffffff16815260200190815260200160002081905550613ea6565b50565b613f49848484613a34565b613f55848484846140b8565b613f94576040517f08c379a0000000000000000000000000000000000000000000000000000000008152600401613f8b906154cd565b60405180910390fd5b50505050565b606060405180602001604052806000815250905090565b6060613fbc82613829565b613ffb576040517f08c379a0000000000000000000000000000000000000000000000000000000008152600401613ff2906157ad565b60405180910390fd5b6000614005613f9a565b905060008151116140255760405180602001604052806000815250614050565b8061402f8461424f565b604051602001614040929190615333565b6040516020818303038152906040525b915050919050565b505050565b61406783836143b0565b61407460008484846140b8565b6140b3576040517f08c379a00000000000000000000000000000000000000000000000000000000081526004016140aa906154cd565b60405180910390fd5b505050565b60006140d98473ffffffffffffffffffffffffffffffffffffffff1661457e565b15614242578373ffffffffffffffffffffffffffffffffffffffff1663150b7a02614102613895565b8786866040518563ffffffff1660e01b815260040161412494939291906153b7565b602060405180830381600087803b15801561413e57600080fd5b505af192505050801561416f57506040513d601f19601f8201168201806040525081019061416c91906149eb565b60015b6141f2573d806000811461419f576040519150601f19603f3d011682016040523d82523d6000602084013e6141a4565b606091505b506000815114156141ea576040517f08c379a00000000000000000000000000000000000000000000000000000000081526004016141e1906154cd565b60405180910390fd5b805181602001fd5b63150b7a0260e01b7bffffffffffffffffffffffffffffffffffffffffffffffffffffffff1916817bffffffffffffffffffffffffffffffffffffffffffffffffffffffff191614915050614247565b600190505b949350505050565b60606000821415614297576040518060400160405280600181526020017f300000000000000000000000000000000000000000000000000000000000000081525090506143ab565b600082905060005b600082146142c95780806142b290615d61565b915050600a826142c29190615b6d565b915061429f565b60008167ffffffffffffffff8111156142e5576142e4615eab565b5b6040519080825280601f01601f1916602001820160405280156143175781602001600182028036833780820191505090505b5090505b600085146143a4576001826143309190615bf8565b9150600a8561433f9190615dbe565b603061434b9190615b17565b60f81b81838151811061436157614360615e7c565b5b60200101907effffffffffffffffffffffffffffffffffffffffffffffffffffffffffffff1916908160001a905350600a8561439d9190615b6d565b945061431b565b8093505050505b919050565b600073ffffffffffffffffffffffffffffffffffffffff168273ffffffffffffffffffffffffffffffffffffffff161415614420576040517f08c379a00000000000000000000000000000000000000000000000000000000081526004016144179061570d565b60405180910390fd5b61442981613829565b15614469576040517f08c379a0000000000000000000000000000000000000000000000000000000008152600401614460906154ed565b60405180910390fd5b61447560008383614058565b6001600360008473ffffffffffffffffffffffffffffffffffffffff1673ffffffffffffffffffffffffffffffffffffffff16815260200190815260200160002060008282546144c59190615b17565b92505081905550816002600083815260200190815260200160002060006101000a81548173ffffffffffffffffffffffffffffffffffffffff021916908373ffffffffffffffffffffffffffffffffffffffff160217905550808273ffffffffffffffffffffffffffffffffffffffff16600073ffffffffffffffffffffffffffffffffffffffff167fddf252ad1be2c89b69c2b068fc378daa952ba7f163c4a11628f55a4df523b3ef60405160405180910390a45050565b600080823b905060008111915050919050565b6040518060a0016040528060008152602001600073ffffffffffffffffffffffffffffffffffffffff168152602001600073ffffffffffffffffffffffffffffffffffffffff168152602001600081526020016000151581525090565b508054600082559060005260206000209081019061460c9190614695565b50565b82805461461b90615cfe565b90600052602060002090601f01602090048101928261463d5760008555614684565b82601f1061465657805160ff1916838001178555614684565b82800160010185558215614684579182015b82811115614683578251825591602001919060010190614668565b5b5090506146919190614695565b5090565b5b808211156146ae576000816000905550600101614696565b5090565b60006146c56146c084615a00565b6159db565b9050828152602081018484840111156146e1576146e0615edf565b5b6146ec848285615cbc565b509392505050565b600061470761470284615a31565b6159db565b90508281526020810184848401111561472357614722615edf565b5b61472e848285615cbc565b509392505050565b600081359050614745816167c1565b92915050565b60008135905061475a816167d8565b92915050565b60008135905061476f816167ef565b92915050565b600081519050614784816167ef565b92915050565b600082601f83011261479f5761479e615eda565b5b81356147af8482602086016146b2565b91505092915050565b600082601f8301126147cd576147cc615eda565b5b81356147dd8482602086016146f4565b91505092915050565b6000813590506147f581616806565b92915050565b60006020828403121561481157614810615ee9565b5b600061481f84828501614736565b91505092915050565b6000806040838503121561483f5761483e615ee9565b5b600061484d85828601614736565b925050602061485e85828601614736565b9150509250929050565b60008060006060848603121561488157614880615ee9565b5b600061488f86828701614736565b93505060206148a086828701614736565b92505060406148b1868287016147e6565b9150509250925092565b600080600080608085870312156148d5576148d4615ee9565b5b60006148e387828801614736565b94505060206148f487828801614736565b9350506040614905878288016147e6565b925050606085013567ffffffffffffffff81111561492657614925615ee4565b5b6149328782880161478a565b91505092959194509250565b6000806040838503121561495557614954615ee9565b5b600061496385828601614736565b92505060206149748582860161474b565b9150509250929050565b6000806040838503121561499557614994615ee9565b5b60006149a385828601614736565b92505060206149b4858286016147e6565b9150509250929050565b6000602082840312156149d4576149d3615ee9565b5b60006149e284828501614760565b91505092915050565b600060208284031215614a0157614a00615ee9565b5b6000614a0f84828501614775565b91505092915050565b600060208284031215614a2e57614a2d615ee9565b5b600082013567ffffffffffffffff811115614a4c57614a4b615ee4565b5b614a58848285016147b8565b91505092915050565b600060208284031215614a7757614a76615ee9565b5b6000614a85848285016147e6565b91505092915050565b60008060408385031215614aa557614aa4615ee9565b5b6000614ab3858286016147e6565b9250506020614ac4858286016147e6565b9150509250929050565b6000614ada8383614afe565b60208301905092915050565b6000614af283836151f1565b60a08301905092915050565b614b0781615c2c565b82525050565b614b1681615c2c565b82525050565b6000614b2782615a82565b614b318185615ac8565b9350614b3c83615a62565b8060005b83811015614b6d578151614b548882614ace565b9750614b5f83615aae565b925050600181019050614b40565b5085935050505092915050565b6000614b8582615a8d565b614b8f8185615ad9565b9350614b9a83615a72565b8060005b83811015614bcb578151614bb28882614ae6565b9750614bbd83615abb565b925050600181019050614b9e565b5085935050505092915050565b614be181615c3e565b82525050565b614bf081615c3e565b82525050565b614c07614c0282615c4a565b615daa565b82525050565b6000614c1882615a98565b614c228185615aea565b9350614c32818560208601615ccb565b614c3b81615eee565b840191505092915050565b614c4f81615caa565b82525050565b6000614c6082615aa3565b614c6a8185615afb565b9350614c7a818560208601615ccb565b614c8381615eee565b840191505092915050565b6000614c9982615aa3565b614ca38185615b0c565b9350614cb3818560208601615ccb565b80840191505092915050565b6000614ccc601383615afb565b9150614cd782615eff565b602082019050919050565b6000614cef603283615afb565b9150614cfa82615f28565b604082019050919050565b6000614d12601c83615afb565b9150614d1d82615f77565b602082019050919050565b6000614d35602283615afb565b9150614d4082615fa0565b604082019050919050565b6000614d58602483615afb565b9150614d6382615fef565b604082019050919050565b6000614d7b601983615afb565b9150614d868261603e565b602082019050919050565b6000614d9e601583615afb565b9150614da982616067565b602082019050919050565b6000614dc1601183615afb565b9150614dcc82616090565b602082019050919050565b6000614de4602c83615afb565b9150614def826160b9565b604082019050919050565b6000614e07601a83615afb565b9150614e1282616108565b602082019050919050565b6000614e2a602383615afb565b9150614e3582616131565b604082019050919050565b6000614e4d603883615afb565b9150614e5882616180565b604082019050919050565b6000614e70601983615afb565b9150614e7b826161cf565b602082019050919050565b6000614e93602a83615afb565b9150614e9e826161f8565b604082019050919050565b6000614eb6602983615afb565b9150614ec182616247565b604082019050919050565b6000614ed9602e83615afb565b9150614ee482616296565b604082019050919050565b6000614efc601583615afb565b9150614f07826162e5565b602082019050919050565b6000614f1f601683615afb565b9150614f2a8261630e565b602082019050919050565b6000614f42604083615afb565b9150614f4d82616337565b604082019050919050565b6000614f65602083615afb565b9150614f7082616386565b602082019050919050565b6000614f88603183615afb565b9150614f93826163af565b604082019050919050565b6000614fab602c83615afb565b9150614fb6826163fe565b604082019050919050565b6000614fce601683615afb565b9150614fd98261644d565b602082019050919050565b6000614ff1602983615afb565b9150614ffc82616476565b604082019050919050565b6000615014602f83615afb565b915061501f826164c5565b604082019050919050565b6000615037601683615afb565b915061504282616514565b602082019050919050565b600061505a602383615afb565b91506150658261653d565b604082019050919050565b600061507d602183615afb565b91506150888261658c565b604082019050919050565b60006150a0602083615afb565b91506150ab826165db565b602082019050919050565b60006150c3602283615afb565b91506150ce82616604565b604082019050919050565b60006150e6601483615afb565b91506150f182616653565b602082019050919050565b6000615109600083615afb565b91506151148261667c565b600082019050919050565b600061512c603183615afb565b91506151378261667f565b604082019050919050565b600061514f601983615afb565b915061515a826166ce565b602082019050919050565b6000615172602283615afb565b915061517d826166f7565b604082019050919050565b6000615195600a83615afb565b91506151a082616746565b602082019050919050565b60006151b8601f83615afb565b91506151c38261676f565b602082019050919050565b60006151db601e83615afb565b91506151e682616798565b602082019050919050565b60a08201600082015161520760008501826152c1565b50602082015161521a6020850182614afe565b50604082015161522d6040850182614afe565b50606082015161524060608501826152c1565b5060808201516152536080850182614bd8565b50505050565b60a08201600082015161526f60008501826152c1565b5060208201516152826020850182614afe565b5060408201516152956040850182614afe565b5060608201516152a860608501826152c1565b5060808201516152bb6080850182614bd8565b50505050565b6152ca81615ca0565b82525050565b6152d981615ca0565b82525050565b6152f06152eb82615ca0565b615db4565b82525050565b60006153028286614bf6565b60208201915061531282856152df565b60208201915061532282846152df565b602082019150819050949350505050565b600061533f8285614c8e565b915061534b8284614c8e565b91508190509392505050565b600060208201905061536c6000830184614b0d565b92915050565b60006080820190506153876000830187614b0d565b6153946020830186614b0d565b6153a160408301856152d0565b6153ae6060830184614be7565b95945050505050565b60006080820190506153cc6000830187614b0d565b6153d96020830186614b0d565b6153e660408301856152d0565b81810360608301526153f88184614c0d565b905095945050505050565b60006040820190506154186000830185614b0d565b61542560208301846152d0565b9392505050565b600060208201905081810360008301526154468184614b1c565b905092915050565b600060208201905081810360008301526154688184614b7a565b905092915050565b60006020820190506154856000830184614be7565b92915050565b600060208201905081810360008301526154a58184614c55565b905092915050565b600060208201905081810360008301526154c681614cbf565b9050919050565b600060208201905081810360008301526154e681614ce2565b9050919050565b6000602082019050818103600083015261550681614d05565b9050919050565b6000602082019050818103600083015261552681614d28565b9050919050565b6000602082019050818103600083015261554681614d4b565b9050919050565b6000602082019050818103600083015261556681614d6e565b9050919050565b6000602082019050818103600083015261558681614d91565b9050919050565b600060208201905081810360008301526155a681614db4565b9050919050565b600060208201905081810360008301526155c681614dd7565b9050919050565b600060208201905081810360008301526155e681614dfa565b9050919050565b6000602082019050818103600083015261560681614e1d565b9050919050565b6000602082019050818103600083015261562681614e40565b9050919050565b6000602082019050818103600083015261564681614e63565b9050919050565b6000602082019050818103600083015261566681614e86565b9050919050565b6000602082019050818103600083015261568681614ea9565b9050919050565b600060208201905081810360008301526156a681614ecc565b9050919050565b600060208201905081810360008301526156c681614eef565b9050919050565b600060208201905081810360008301526156e681614f12565b9050919050565b6000602082019050818103600083015261570681614f35565b9050919050565b6000602082019050818103600083015261572681614f58565b9050919050565b6000602082019050818103600083015261574681614f7b565b9050919050565b6000602082019050818103600083015261576681614f9e565b9050919050565b6000602082019050818103600083015261578681614fc1565b9050919050565b600060208201905081810360008301526157a681614fe4565b9050919050565b600060208201905081810360008301526157c681615007565b9050919050565b600060208201905081810360008301526157e68161502a565b9050919050565b600060208201905081810360008301526158068161504d565b9050919050565b6000602082019050818103600083015261582681615070565b9050919050565b6000602082019050818103600083015261584681615093565b9050919050565b60006020820190508181036000830152615866816150b6565b9050919050565b60006020820190508181036000830152615886816150d9565b9050919050565b600060208201905081810360008301526158a68161511f565b9050919050565b600060208201905081810360008301526158c681615142565b9050919050565b600060208201905081810360008301526158e681615165565b9050919050565b6000602082019050818103600083015261590681615188565b9050919050565b60006020820190508181036000830152615926816151ab565b9050919050565b60006020820190508181036000830152615946816151ce565b9050919050565b600060a0820190506159626000830184615259565b92915050565b600060208201905061597d60008301846152d0565b92915050565b600060a08201905061599860008301876152d0565b6159a56020830186614b0d565b6159b26040830185614b0d565b81810360608301526159c3816150fc565b90506159d26080830184614c46565b95945050505050565b60006159e56159f6565b90506159f18282615d30565b919050565b6000604051905090565b600067ffffffffffffffff821115615a1b57615a1a615eab565b5b615a2482615eee565b9050602081019050919050565b600067ffffffffffffffff821115615a4c57615a4b615eab565b5b615a5582615eee565b9050602081019050919050565b6000819050602082019050919050565b6000819050602082019050919050565b600081519050919050565b600081519050919050565b600081519050919050565b600081519050919050565b6000602082019050919050565b6000602082019050919050565b600082825260208201905092915050565b600082825260208201905092915050565b600082825260208201905092915050565b600082825260208201905092915050565b600081905092915050565b6000615b2282615ca0565b9150615b2d83615ca0565b9250827fffffffffffffffffffffffffffffffffffffffffffffffffffffffffffffffff03821115615b6257615b61615def565b5b828201905092915050565b6000615b7882615ca0565b9150615b8383615ca0565b925082615b9357615b92615e1e565b5b828204905092915050565b6000615ba982615ca0565b9150615bb483615ca0565b9250817fffffffffffffffffffffffffffffffffffffffffffffffffffffffffffffffff0483118215151615615bed57615bec615def565b5b828202905092915050565b6000615c0382615ca0565b9150615c0e83615ca0565b925082821015615c2157615c20615def565b5b828203905092915050565b6000615c3782615c80565b9050919050565b60008115159050919050565b6000819050919050565b60007fffffffff0000000000000000000000000000000000000000000000000000000082169050919050565b600073ffffffffffffffffffffffffffffffffffffffff82169050919050565b6000819050919050565b6000615cb582615ca0565b9050919050565b82818337600083830152505050565b60005b83811015615ce9578082015181840152602081019050615cce565b83811115615cf8576000848401525b50505050565b60006002820490506001821680615d1657607f821691505b60208210811415615d2a57615d29615e4d565b5b50919050565b615d3982615eee565b810181811067ffffffffffffffff82111715615d5857615d57615eab565b5b80604052505050565b6000615d6c82615ca0565b91507fffffffffffffffffffffffffffffffffffffffffffffffffffffffffffffffff821415615d9f57615d9e615def565b5b600182019050919050565b6000819050919050565b6000819050919050565b6000615dc982615ca0565b9150615dd483615ca0565b925082615de457615de3615e1e565b5b828206905092915050565b7f4e487b7100000000000000000000000000000000000000000000000000000000600052601160045260246000fd5b7f4e487b7100000000000000000000000000000000000000000000000000000000600052601260045260246000fd5b7f4e487b7100000000000000000000000000000000000000000000000000000000600052602260045260246000fd5b7f4e487b7100000000000000000000000000000000000000000000000000000000600052603260045260246000fd5b7f4e487b7100000000000000000000000000000000000000000000000000000000600052604160045260246000fd5b600080fd5b600080fd5b600080fd5b600080fd5b6000601f19601f8301169050919050565b7f61756374696f6e206e6f74207374617274656400000000000000000000000000600082015250565b7f4552433732313a207472616e7366657220746f206e6f6e20455243373231526560008201527f63656976657220696d706c656d656e7465720000000000000000000000000000602082015250565b7f4552433732313a20746f6b656e20616c7265616479206d696e74656400000000600082015250565b7f4e46544d61726b65743a206e6674206e6f74206c697374656420666f7220736160008201527f6c65000000000000000000000000000000000000000000000000000000000000602082015250565b7f4552433732313a207472616e7366657220746f20746865207a65726f2061646460008201527f7265737300000000000000000000000000000000000000000000000000000000602082015250565b7f4552433732313a20617070726f766520746f2063616c6c657200000000000000600082015250565b7f496e636f727265637420616d6f756e742073656e740000000000000000000000600082015250565b7f526166666c652069732072756e6e696e67000000000000000000000000000000600082015250565b7f4552433732313a206f70657261746f7220717565727920666f72206e6f6e657860008201527f697374656e7420746f6b656e0000000000000000000000000000000000000000602082015250565b7f41756374696f6e20697320616c72656164792072756e6e696e67000000000000600082015250565b7f4f6e6c79206f776e65722063616e20757064617465206c697374696e6720707260008201527f6963650000000000000000000000000000000000000000000000000000000000602082015250565b7f4552433732313a20617070726f76652063616c6c6572206973206e6f74206f7760008201527f6e6572206e6f7220617070726f76656420666f7220616c6c0000000000000000602082015250565b7f526166666c65206973206e6f7420737461727465642079657400000000000000600082015250565b7f4552433732313a2062616c616e636520717565727920666f7220746865207a6560008201527f726f206164647265737300000000000000000000000000000000000000000000602082015250565b7f4552433732313a206f776e657220717565727920666f72206e6f6e657869737460008201527f656e7420746f6b656e0000000000000000000000000000000000000000000000602082015250565b7f45524337323155524953746f726167653a2055524920736574206f66206e6f6e60008201527f6578697374656e7420746f6b656e000000000000000000000000000000000000602082015250565b7f4e6f2062616c61636520746f2077697468647261770000000000000000000000600082015250565b7f526166666c65206973206e6f7420207374617274656400000000000000000000600082015250565b7f506c65617365207375626d6974207468652061736b696e67207072696365206960008201527f6e206f7264657220746f20636f6d706c65746520746865207075726368617365602082015250565b7f4552433732313a206d696e7420746f20746865207a65726f2061646472657373600082015250565b7f45524337323155524953746f726167653a2055524920717565727920666f722060008201527f6e6f6e6578697374656e7420746f6b656e000000000000000000000000000000602082015250565b7f4552433732313a20617070726f76656420717565727920666f72206e6f6e657860008201527f697374656e7420746f6b656e0000000000000000000000000000000000000000602082015250565b7f526166666c65206973207374696c2072756e6e696e6700000000000000000000600082015250565b7f4552433732313a207472616e73666572206f6620746f6b656e2074686174206960008201527f73206e6f74206f776e0000000000000000000000000000000000000000000000602082015250565b7f4552433732314d657461646174613a2055524920717565727920666f72206e6f60008201527f6e6578697374656e7420746f6b656e0000000000000000000000000000000000602082015250565b7f61756374696f6e206469646e2774207374617274656400000000000000000000600082015250565b7f486f706566756c6c792073656e64696e672074686520636f727265637420707260008201527f6963650000000000000000000000000000000000000000000000000000000000602082015250565b7f4552433732313a20617070726f76616c20746f2063757272656e74206f776e6560008201527f7200000000000000000000000000000000000000000000000000000000000000602082015250565b7f4e46544d61726b65743a20796f75277265206e6f74207468652073656c6c6572600082015250565b7f596f7520617265206e6f7420746865206f776e6572206f662074686520746f6b60008201527f656e000000000000000000000000000000000000000000000000000000000000602082015250565b7f4e6f20706c617965727320696e20526166666c65000000000000000000000000600082015250565b50565b7f4552433732313a207472616e736665722063616c6c6572206973206e6f74206f60008201527f776e6572206e6f7220617070726f766564000000000000000000000000000000602082015250565b7f5261666c6c6520697320616c7265616479207374617274656400000000000000600082015250565b7f4d616b652073757265207468652070726963652069736e2774206e656761746960008201527f7665000000000000000000000000000000000000000000000000000000000000602082015250565b7f6e6f742073656c6c657200000000000000000000000000000000000000000000600082015250565b7f4f6e6c79206f776e65722063616e2063616c6c2074686973206d6574686f6400600082015250565b7f6269642076616c7565203c20686967686573742062696420616d6f756e740000600082015250565b6167ca81615c2c565b81146167d557600080fd5b50565b6167e181615c3e565b81146167ec57600080fd5b50565b6167f881615c54565b811461680357600080fd5b50565b61680f81615ca0565b811461681a57600080fd5b5056fea2646970667358221220da23ebeab6e08ecc1c3825f9d5ba0e092b3118cfd365056f3378fadeced51fab64736f6c63430008070033",
  "linkReferences": {},
  "deployedLinkReferences": {}
}