{
  "_format": "hh-sol-artifact-1",
  "contractName": "NFTMarketplace",
  "sourceName": "contracts/NFTMarketplace.sol",
  "abi": [
    {
      "inputs": [],
      "stateMutability": "nonpayable",
      "type": "constructor"
    },
    {
      "anonymous": false,
      "inputs": [
        {
          "indexed": true,
          "internalType": "address",
          "name": "owner",
          "type": "address"
        },
        {
          "indexed": true,
          "internalType": "address",
          "name": "approved",
          "type": "address"
        },
        {
          "indexed": true,
          "internalType": "uint256",
          "name": "tokenId",
          "type": "uint256"
        }
      ],
      "name": "Approval",
      "type": "event"
    },
    {
      "anonymous": false,
      "inputs": [
        {
          "indexed": true,
          "internalType": "address",
          "name": "owner",
          "type": "address"
        },
        {
          "indexed": true,
          "internalType": "address",
          "name": "operator",
          "type": "address"
        },
        {
          "indexed": false,
          "internalType": "bool",
          "name": "approved",
          "type": "bool"
        }
      ],
      "name": "ApprovalForAll",
      "type": "event"
    },
    {
      "anonymous": false,
      "inputs": [
        {
          "indexed": true,
          "internalType": "uint256",
          "name": "tokenId",
          "type": "uint256"
        },
        {
          "indexed": false,
          "internalType": "address",
          "name": "owner",
          "type": "address"
        },
        {
          "indexed": false,
          "internalType": "address",
          "name": "seller",
          "type": "address"
        },
        {
          "indexed": false,
          "internalType": "uint256",
          "name": "price",
          "type": "uint256"
        },
        {
          "indexed": false,
          "internalType": "bool",
          "name": "currentlyListed",
          "type": "bool"
        }
      ],
      "name": "TokenListedSuccess",
      "type": "event"
    },
    {
      "anonymous": false,
      "inputs": [
        {
          "indexed": true,
          "internalType": "address",
          "name": "from",
          "type": "address"
        },
        {
          "indexed": true,
          "internalType": "address",
          "name": "to",
          "type": "address"
        },
        {
          "indexed": true,
          "internalType": "uint256",
          "name": "tokenId",
          "type": "uint256"
        }
      ],
      "name": "Transfer",
      "type": "event"
    },
    {
      "inputs": [
        {
          "internalType": "address",
          "name": "to",
          "type": "address"
        },
        {
          "internalType": "uint256",
          "name": "tokenId",
          "type": "uint256"
        }
      ],
      "name": "approve",
      "outputs": [],
      "stateMutability": "nonpayable",
      "type": "function"
    },
    {
      "inputs": [
        {
          "internalType": "address",
          "name": "owner",
          "type": "address"
        }
      ],
      "name": "balanceOf",
      "outputs": [
        {
          "internalType": "uint256",
          "name": "",
          "type": "uint256"
        }
      ],
      "stateMutability": "view",
      "type": "function"
    },
    {
      "inputs": [
        {
          "internalType": "string",
          "name": "tokenURI",
          "type": "string"
        },
        {
          "internalType": "uint256",
          "name": "price",
          "type": "uint256"
        }
      ],
      "name": "createToken",
      "outputs": [
        {
          "internalType": "uint256",
          "name": "",
          "type": "uint256"
        }
      ],
      "stateMutability": "payable",
      "type": "function"
    },
    {
      "inputs": [
        {
          "internalType": "uint256",
          "name": "tokenId",
          "type": "uint256"
        }
      ],
      "name": "executeSale",
      "outputs": [],
      "stateMutability": "payable",
      "type": "function"
    },
    {
      "inputs": [],
      "name": "getAllNFTs",
      "outputs": [
        {
          "components": [
            {
              "internalType": "uint256",
              "name": "tokenId",
              "type": "uint256"
            },
            {
              "internalType": "address payable",
              "name": "owner",
              "type": "address"
            },
            {
              "internalType": "address payable",
              "name": "seller",
              "type": "address"
            },
            {
              "internalType": "uint256",
              "name": "price",
              "type": "uint256"
            },
            {
              "internalType": "bool",
              "name": "currentlyListed",
              "type": "bool"
            }
          ],
          "internalType": "struct NFTMarketplace.ListedToken[]",
          "name": "",
          "type": "tuple[]"
        }
      ],
      "stateMutability": "view",
      "type": "function"
    },
    {
      "inputs": [
        {
          "internalType": "uint256",
          "name": "tokenId",
          "type": "uint256"
        }
      ],
      "name": "getApproved",
      "outputs": [
        {
          "internalType": "address",
          "name": "",
          "type": "address"
        }
      ],
      "stateMutability": "view",
      "type": "function"
    },
    {
      "inputs": [],
      "name": "getCurrentToken",
      "outputs": [
        {
          "internalType": "uint256",
          "name": "",
          "type": "uint256"
        }
      ],
      "stateMutability": "view",
      "type": "function"
    },
    {
      "inputs": [],
      "name": "getLatestIdToListedToken",
      "outputs": [
        {
          "components": [
            {
              "internalType": "uint256",
              "name": "tokenId",
              "type": "uint256"
            },
            {
              "internalType": "address payable",
              "name": "owner",
              "type": "address"
            },
            {
              "internalType": "address payable",
              "name": "seller",
              "type": "address"
            },
            {
              "internalType": "uint256",
              "name": "price",
              "type": "uint256"
            },
            {
              "internalType": "bool",
              "name": "currentlyListed",
              "type": "bool"
            }
          ],
          "internalType": "struct NFTMarketplace.ListedToken",
          "name": "",
          "type": "tuple"
        }
      ],
      "stateMutability": "view",
      "type": "function"
    },
    {
      "inputs": [],
      "name": "getListPrice",
      "outputs": [
        {
          "internalType": "uint256",
          "name": "",
          "type": "uint256"
        }
      ],
      "stateMutability": "view",
      "type": "function"
    },
    {
      "inputs": [
        {
          "internalType": "uint256",
          "name": "tokenId",
          "type": "uint256"
        }
      ],
      "name": "getListedTokenForId",
      "outputs": [
        {
          "components": [
            {
              "internalType": "uint256",
              "name": "tokenId",
              "type": "uint256"
            },
            {
              "internalType": "address payable",
              "name": "owner",
              "type": "address"
            },
            {
              "internalType": "address payable",
              "name": "seller",
              "type": "address"
            },
            {
              "internalType": "uint256",
              "name": "price",
              "type": "uint256"
            },
            {
              "internalType": "bool",
              "name": "currentlyListed",
              "type": "bool"
            }
          ],
          "internalType": "struct NFTMarketplace.ListedToken",
          "name": "",
          "type": "tuple"
        }
      ],
      "stateMutability": "view",
      "type": "function"
    },
    {
      "inputs": [],
      "name": "getMyNFTs",
      "outputs": [
        {
          "components": [
            {
              "internalType": "uint256",
              "name": "tokenId",
              "type": "uint256"
            },
            {
              "internalType": "address payable",
              "name": "owner",
              "type": "address"
            },
            {
              "internalType": "address payable",
              "name": "seller",
              "type": "address"
            },
            {
              "internalType": "uint256",
              "name": "price",
              "type": "uint256"
            },
            {
              "internalType": "bool",
              "name": "currentlyListed",
              "type": "bool"
            }
          ],
          "internalType": "struct NFTMarketplace.ListedToken[]",
          "name": "",
          "type": "tuple[]"
        }
      ],
      "stateMutability": "view",
      "type": "function"
    },
    {
      "inputs": [
        {
          "internalType": "address",
          "name": "owner",
          "type": "address"
        },
        {
          "internalType": "address",
          "name": "operator",
          "type": "address"
        }
      ],
      "name": "isApprovedForAll",
      "outputs": [
        {
          "internalType": "bool",
          "name": "",
          "type": "bool"
        }
      ],
      "stateMutability": "view",
      "type": "function"
    },
    {
      "inputs": [],
      "name": "name",
      "outputs": [
        {
          "internalType": "string",
          "name": "",
          "type": "string"
        }
      ],
      "stateMutability": "view",
      "type": "function"
    },
    {
      "inputs": [
        {
          "internalType": "uint256",
          "name": "tokenId",
          "type": "uint256"
        }
      ],
      "name": "ownerOf",
      "outputs": [
        {
          "internalType": "address",
          "name": "",
          "type": "address"
        }
      ],
      "stateMutability": "view",
      "type": "function"
    },
    {
      "inputs": [
        {
          "internalType": "address",
          "name": "from",
          "type": "address"
        },
        {
          "internalType": "address",
          "name": "to",
          "type": "address"
        },
        {
          "internalType": "uint256",
          "name": "tokenId",
          "type": "uint256"
        }
      ],
      "name": "safeTransferFrom",
      "outputs": [],
      "stateMutability": "nonpayable",
      "type": "function"
    },
    {
      "inputs": [
        {
          "internalType": "address",
          "name": "from",
          "type": "address"
        },
        {
          "internalType": "address",
          "name": "to",
          "type": "address"
        },
        {
          "internalType": "uint256",
          "name": "tokenId",
          "type": "uint256"
        },
        {
          "internalType": "bytes",
          "name": "_data",
          "type": "bytes"
        }
      ],
      "name": "safeTransferFrom",
      "outputs": [],
      "stateMutability": "nonpayable",
      "type": "function"
    },
    {
      "inputs": [
        {
          "internalType": "address",
          "name": "operator",
          "type": "address"
        },
        {
          "internalType": "bool",
          "name": "approved",
          "type": "bool"
        }
      ],
      "name": "setApprovalForAll",
      "outputs": [],
      "stateMutability": "nonpayable",
      "type": "function"
    },
    {
      "inputs": [
        {
          "internalType": "bytes4",
          "name": "interfaceId",
          "type": "bytes4"
        }
      ],
      "name": "supportsInterface",
      "outputs": [
        {
          "internalType": "bool",
          "name": "",
          "type": "bool"
        }
      ],
      "stateMutability": "view",
      "type": "function"
    },
    {
      "inputs": [],
      "name": "symbol",
      "outputs": [
        {
          "internalType": "string",
          "name": "",
          "type": "string"
        }
      ],
      "stateMutability": "view",
      "type": "function"
    },
    {
      "inputs": [
        {
          "internalType": "uint256",
          "name": "tokenId",
          "type": "uint256"
        }
      ],
      "name": "tokenURI",
      "outputs": [
        {
          "internalType": "string",
          "name": "",
          "type": "string"
        }
      ],
      "stateMutability": "view",
      "type": "function"
    },
    {
      "inputs": [
        {
          "internalType": "address",
          "name": "from",
          "type": "address"
        },
        {
          "internalType": "address",
          "name": "to",
          "type": "address"
        },
        {
          "internalType": "uint256",
          "name": "tokenId",
          "type": "uint256"
        }
      ],
      "name": "transferFrom",
      "outputs": [],
      "stateMutability": "nonpayable",
      "type": "function"
    },
    {
      "inputs": [
        {
          "internalType": "uint256",
          "name": "_listPrice",
          "type": "uint256"
        }
      ],
      "name": "updateListPrice",
      "outputs": [],
      "stateMutability": "payable",
      "type": "function"
    }
  ],
  "bytecode": "0x6080604052662386f26fc10000600a553480156200001c57600080fd5b506040518060400160405280600e81526020017f4e46544d61726b6574706c6163650000000000000000000000000000000000008152506040518060400160405280600481526020017f4e46544d000000000000000000000000000000000000000000000000000000008152508160009080519060200190620000a192919062000104565b508060019080519060200190620000ba92919062000104565b50505033600960006101000a81548173ffffffffffffffffffffffffffffffffffffffff021916908373ffffffffffffffffffffffffffffffffffffffff16021790555062000219565b8280546200011290620001b4565b90600052602060002090601f01602090048101928262000136576000855562000182565b82601f106200015157805160ff191683800117855562000182565b8280016001018555821562000182579182015b828111156200018157825182559160200191906001019062000164565b5b50905062000191919062000195565b5090565b5b80821115620001b057600081600090555060010162000196565b5090565b60006002820490506001821680620001cd57607f821691505b60208210811415620001e457620001e3620001ea565b5b50919050565b7f4e487b7100000000000000000000000000000000000000000000000000000000600052602260045260246000fd5b613fc580620002296000396000f3fe6080604052600436106101355760003560e01c80638e264590116100ab578063c322579c1161006f578063c322579c14610430578063c87b56dd1461044c578063d1a88ae514610489578063e0391b09146104b4578063e985e9c5146104df578063ef2d17461461051c57610135565b80638e2645901461035a57806395d89b41146103975780639b1225c4146103c2578063a22cb465146103de578063b88d4fde1461040757610135565b806342842e0e116100fd57806342842e0e14610231578063629cb2e41461025a5780636352211e1461028557806368f1945f146102c257806370a08231146102ed57806372b3b6201461032a57610135565b806301ffc9a71461013a57806306fdde0314610177578063081812fc146101a2578063095ea7b3146101df57806323b872dd14610208575b600080fd5b34801561014657600080fd5b50610161600480360381019061015c9190612b3f565b610547565b60405161016e9190613213565b60405180910390f35b34801561018357600080fd5b5061018c610629565b604051610199919061322e565b60405180910390f35b3480156101ae57600080fd5b506101c960048036038101906101c49190612bf5565b6106bb565b6040516101d69190613145565b60405180910390f35b3480156101eb57600080fd5b5061020660048036038101906102019190612aff565b610740565b005b34801561021457600080fd5b5061022f600480360381019061022a91906129e9565b610858565b005b34801561023d57600080fd5b50610258600480360381019061025391906129e9565b6108b8565b005b34801561026657600080fd5b5061026f6108d8565b60405161027c91906131f1565b60405180910390f35b34801561029157600080fd5b506102ac60048036038101906102a79190612bf5565b610cb9565b6040516102b99190613145565b60405180910390f35b3480156102ce57600080fd5b506102d7610d6b565b6040516102e491906134eb565b60405180910390f35b3480156102f957600080fd5b50610314600480360381019061030f919061297c565b610d75565b60405161032191906134eb565b60405180910390f35b610344600480360381019061033f9190612b99565b610e2d565b60405161035191906134eb565b60405180910390f35b34801561036657600080fd5b50610381600480360381019061037c9190612bf5565b610e6f565b60405161038e91906134d0565b60405180910390f35b3480156103a357600080fd5b506103ac610f77565b6040516103b9919061322e565b60405180910390f35b6103dc60048036038101906103d79190612bf5565b611009565b005b3480156103ea57600080fd5b5061040560048036038101906104009190612abf565b6111fb565b005b34801561041357600080fd5b5061042e60048036038101906104299190612a3c565b61137c565b005b61044a60048036038101906104459190612bf5565b6113de565b005b34801561045857600080fd5b50610473600480360381019061046e9190612bf5565b611478565b604051610480919061322e565b60405180910390f35b34801561049557600080fd5b5061049e6115ca565b6040516104ab91906134d0565b60405180910390f35b3480156104c057600080fd5b506104c96116df565b6040516104d691906131f1565b60405180910390f35b3480156104eb57600080fd5b50610506600480360381019061050191906129a9565b6118b1565b6040516105139190613213565b60405180910390f35b34801561052857600080fd5b50610531611945565b60405161053e91906134eb565b60405180910390f35b60007f80ac58cd000000000000000000000000000000000000000000000000000000007bffffffffffffffffffffffffffffffffffffffffffffffffffffffff1916827bffffffffffffffffffffffffffffffffffffffffffffffffffffffff1916148061061257507f5b5e139f000000000000000000000000000000000000000000000000000000007bffffffffffffffffffffffffffffffffffffffffffffffffffffffff1916827bffffffffffffffffffffffffffffffffffffffffffffffffffffffff1916145b80610622575061062182611956565b5b9050919050565b6060600080546106389061378c565b80601f01602080910402602001604051908101604052809291908181526020018280546106649061378c565b80156106b15780601f10610686576101008083540402835291602001916106b1565b820191906000526020600020905b81548152906001019060200180831161069457829003601f168201915b5050505050905090565b60006106c6826119c0565b610705576040517f08c379a00000000000000000000000000000000000000000000000000000000081526004016106fc906133f0565b60405180910390fd5b6004600083815260200190815260200160002060009054906101000a900473ffffffffffffffffffffffffffffffffffffffff169050919050565b600061074b82610cb9565b90508073ffffffffffffffffffffffffffffffffffffffff168373ffffffffffffffffffffffffffffffffffffffff1614156107bc576040517f08c379a00000000000000000000000000000000000000000000000000000000081526004016107b390613470565b60405180910390fd5b8073ffffffffffffffffffffffffffffffffffffffff166107db611a2c565b73ffffffffffffffffffffffffffffffffffffffff16148061080a575061080981610804611a2c565b6118b1565b5b610849576040517f08c379a000000000000000000000000000000000000000000000000000000000815260040161084090613310565b60405180910390fd5b6108538383611a34565b505050565b610869610863611a2c565b82611aed565b6108a8576040517f08c379a000000000000000000000000000000000000000000000000000000000815260040161089f90613490565b60405180910390fd5b6108b3838383611bcb565b505050565b6108d38383836040518060200160405280600081525061137c565b505050565b606060006108e66007611e27565b9050600080600080600090505b84811015610a0c573373ffffffffffffffffffffffffffffffffffffffff16600b60006001846109239190613609565b815260200190815260200160002060010160009054906101000a900473ffffffffffffffffffffffffffffffffffffffff1673ffffffffffffffffffffffffffffffffffffffff1614806109e457503373ffffffffffffffffffffffffffffffffffffffff16600b600060018461099a9190613609565b815260200190815260200160002060020160009054906101000a900473ffffffffffffffffffffffffffffffffffffffff1673ffffffffffffffffffffffffffffffffffffffff16145b156109f9576001846109f69190613609565b93505b8080610a04906137ef565b9150506108f3565b5060008367ffffffffffffffff811115610a2957610a28613925565b5b604051908082528060200260200182016040528015610a6257816020015b610a4f612733565b815260200190600190039081610a475790505b50905060005b85811015610cad573373ffffffffffffffffffffffffffffffffffffffff16600b6000600184610a989190613609565b815260200190815260200160002060010160009054906101000a900473ffffffffffffffffffffffffffffffffffffffff1673ffffffffffffffffffffffffffffffffffffffff161480610b5957503373ffffffffffffffffffffffffffffffffffffffff16600b6000600184610b0f9190613609565b815260200190815260200160002060020160009054906101000a900473ffffffffffffffffffffffffffffffffffffffff1673ffffffffffffffffffffffffffffffffffffffff16145b15610c9a57600181610b6b9190613609565b92506000600b60008581526020019081526020016000209050806040518060a0016040529081600082015481526020016001820160009054906101000a900473ffffffffffffffffffffffffffffffffffffffff1673ffffffffffffffffffffffffffffffffffffffff1673ffffffffffffffffffffffffffffffffffffffff1681526020016002820160009054906101000a900473ffffffffffffffffffffffffffffffffffffffff1673ffffffffffffffffffffffffffffffffffffffff1673ffffffffffffffffffffffffffffffffffffffff168152602001600382015481526020016004820160009054906101000a900460ff161515151581525050838681518110610c7e57610c7d6138f6565b5b6020026020010181905250600185610c969190613609565b9450505b8080610ca5906137ef565b915050610a68565b50809550505050505090565b6000806002600084815260200190815260200160002060009054906101000a900473ffffffffffffffffffffffffffffffffffffffff169050600073ffffffffffffffffffffffffffffffffffffffff168173ffffffffffffffffffffffffffffffffffffffff161415610d62576040517f08c379a0000000000000000000000000000000000000000000000000000000008152600401610d5990613350565b60405180910390fd5b80915050919050565b6000600a54905090565b60008073ffffffffffffffffffffffffffffffffffffffff168273ffffffffffffffffffffffffffffffffffffffff161415610de6576040517f08c379a0000000000000000000000000000000000000000000000000000000008152600401610ddd90613330565b60405180910390fd5b600360008373ffffffffffffffffffffffffffffffffffffffff1673ffffffffffffffffffffffffffffffffffffffff168152602001908152602001600020549050919050565b6000610e396007611e35565b6000610e456007611e27565b9050610e513382611e4b565b610e5b8185611e69565b610e658184611edd565b8091505092915050565b610e77612733565b600b60008381526020019081526020016000206040518060a0016040529081600082015481526020016001820160009054906101000a900473ffffffffffffffffffffffffffffffffffffffff1673ffffffffffffffffffffffffffffffffffffffff1673ffffffffffffffffffffffffffffffffffffffff1681526020016002820160009054906101000a900473ffffffffffffffffffffffffffffffffffffffff1673ffffffffffffffffffffffffffffffffffffffff1673ffffffffffffffffffffffffffffffffffffffff168152602001600382015481526020016004820160009054906101000a900460ff1615151515815250509050919050565b606060018054610f869061378c565b80601f0160208091040260200160405190810160405280929190818152602001828054610fb29061378c565b8015610fff5780601f10610fd457610100808354040283529160200191610fff565b820191906000526020600020905b815481529060010190602001808311610fe257829003601f168201915b5050505050905090565b6000600b60008381526020019081526020016000206003015490506000600b600084815260200190815260200160002060020160009054906101000a900473ffffffffffffffffffffffffffffffffffffffff1690508134146110a1576040517f08c379a000000000000000000000000000000000000000000000000000000000815260040161109890613390565b60405180910390fd5b6001600b600085815260200190815260200160002060040160006101000a81548160ff02191690831515021790555033600b600085815260200190815260200160002060020160006101000a81548173ffffffffffffffffffffffffffffffffffffffff021916908373ffffffffffffffffffffffffffffffffffffffff16021790555061112f6008611e35565b61113a303385611bcb565b6111443084610740565b600960009054906101000a900473ffffffffffffffffffffffffffffffffffffffff1673ffffffffffffffffffffffffffffffffffffffff166108fc600a549081150290604051600060405180830381858888f193505050501580156111ae573d6000803e3d6000fd5b508073ffffffffffffffffffffffffffffffffffffffff166108fc349081150290604051600060405180830381858888f193505050501580156111f5573d6000803e3d6000fd5b50505050565b611203611a2c565b73ffffffffffffffffffffffffffffffffffffffff168273ffffffffffffffffffffffffffffffffffffffff161415611271576040517f08c379a0000000000000000000000000000000000000000000000000000000008152600401611268906132b0565b60405180910390fd5b806005600061127e611a2c565b73ffffffffffffffffffffffffffffffffffffffff1673ffffffffffffffffffffffffffffffffffffffff16815260200190815260200160002060008473ffffffffffffffffffffffffffffffffffffffff1673ffffffffffffffffffffffffffffffffffffffff16815260200190815260200160002060006101000a81548160ff0219169083151502179055508173ffffffffffffffffffffffffffffffffffffffff1661132b611a2c565b73ffffffffffffffffffffffffffffffffffffffff167f17307eab39ab6107e8899845ad3d59bd9653f200f220920489ca2b5937696c31836040516113709190613213565b60405180910390a35050565b61138d611387611a2c565b83611aed565b6113cc576040517f08c379a00000000000000000000000000000000000000000000000000000000081526004016113c390613490565b60405180910390fd5b6113d8848484846120e0565b50505050565b3373ffffffffffffffffffffffffffffffffffffffff16600960009054906101000a900473ffffffffffffffffffffffffffffffffffffffff1673ffffffffffffffffffffffffffffffffffffffff161461146e576040517f08c379a0000000000000000000000000000000000000000000000000000000008152600401611465906132f0565b60405180910390fd5b80600a8190555050565b6060611483826119c0565b6114c2576040517f08c379a00000000000000000000000000000000000000000000000000000000081526004016114b9906133d0565b60405180910390fd5b60006006600084815260200190815260200160002080546114e29061378c565b80601f016020809104026020016040519081016040528092919081815260200182805461150e9061378c565b801561155b5780601f106115305761010080835404028352916020019161155b565b820191906000526020600020905b81548152906001019060200180831161153e57829003601f168201915b50505050509050600061156c61213c565b90506000815114156115825781925050506115c5565b6000825111156115b757808260405160200161159f929190613121565b604051602081830303815290604052925050506115c5565b6115c084612153565b925050505b919050565b6115d2612733565b60006115de6007611e27565b9050600b60008281526020019081526020016000206040518060a0016040529081600082015481526020016001820160009054906101000a900473ffffffffffffffffffffffffffffffffffffffff1673ffffffffffffffffffffffffffffffffffffffff1673ffffffffffffffffffffffffffffffffffffffff1681526020016002820160009054906101000a900473ffffffffffffffffffffffffffffffffffffffff1673ffffffffffffffffffffffffffffffffffffffff1673ffffffffffffffffffffffffffffffffffffffff168152602001600382015481526020016004820160009054906101000a900460ff16151515158152505091505090565b606060006116ed6007611e27565b905060008167ffffffffffffffff81111561170b5761170a613925565b5b60405190808252806020026020018201604052801561174457816020015b611731612733565b8152602001906001900390816117295790505b50905060008080600090505b848110156118a6576001816117659190613609565b91506000600b60008481526020019081526020016000209050806040518060a0016040529081600082015481526020016001820160009054906101000a900473ffffffffffffffffffffffffffffffffffffffff1673ffffffffffffffffffffffffffffffffffffffff1673ffffffffffffffffffffffffffffffffffffffff1681526020016002820160009054906101000a900473ffffffffffffffffffffffffffffffffffffffff1673ffffffffffffffffffffffffffffffffffffffff1673ffffffffffffffffffffffffffffffffffffffff168152602001600382015481526020016004820160009054906101000a900460ff161515151581525050858581518110611878576118776138f6565b5b60200260200101819052506001846118909190613609565b935050808061189e906137ef565b915050611750565b508294505050505090565b6000600560008473ffffffffffffffffffffffffffffffffffffffff1673ffffffffffffffffffffffffffffffffffffffff16815260200190815260200160002060008373ffffffffffffffffffffffffffffffffffffffff1673ffffffffffffffffffffffffffffffffffffffff16815260200190815260200160002060009054906101000a900460ff16905092915050565b60006119516007611e27565b905090565b60007f01ffc9a7000000000000000000000000000000000000000000000000000000007bffffffffffffffffffffffffffffffffffffffffffffffffffffffff1916827bffffffffffffffffffffffffffffffffffffffffffffffffffffffff1916149050919050565b60008073ffffffffffffffffffffffffffffffffffffffff166002600084815260200190815260200160002060009054906101000a900473ffffffffffffffffffffffffffffffffffffffff1673ffffffffffffffffffffffffffffffffffffffff1614159050919050565b600033905090565b816004600083815260200190815260200160002060006101000a81548173ffffffffffffffffffffffffffffffffffffffff021916908373ffffffffffffffffffffffffffffffffffffffff160217905550808273ffffffffffffffffffffffffffffffffffffffff16611aa783610cb9565b73ffffffffffffffffffffffffffffffffffffffff167f8c5be1e5ebec7d5bd14f71427d1e84f3dd0314c0f7b2291e5b200ac8c7c3b92560405160405180910390a45050565b6000611af8826119c0565b611b37576040517f08c379a0000000000000000000000000000000000000000000000000000000008152600401611b2e906132d0565b60405180910390fd5b6000611b4283610cb9565b90508073ffffffffffffffffffffffffffffffffffffffff168473ffffffffffffffffffffffffffffffffffffffff161480611bb157508373ffffffffffffffffffffffffffffffffffffffff16611b99846106bb565b73ffffffffffffffffffffffffffffffffffffffff16145b80611bc25750611bc181856118b1565b5b91505092915050565b8273ffffffffffffffffffffffffffffffffffffffff16611beb82610cb9565b73ffffffffffffffffffffffffffffffffffffffff1614611c41576040517f08c379a0000000000000000000000000000000000000000000000000000000008152600401611c3890613410565b60405180910390fd5b600073ffffffffffffffffffffffffffffffffffffffff168273ffffffffffffffffffffffffffffffffffffffff161415611cb1576040517f08c379a0000000000000000000000000000000000000000000000000000000008152600401611ca890613290565b60405180910390fd5b611cbc8383836121fa565b611cc7600082611a34565b6001600360008573ffffffffffffffffffffffffffffffffffffffff1673ffffffffffffffffffffffffffffffffffffffff1681526020019081526020016000206000828254611d179190613690565b925050819055506001600360008473ffffffffffffffffffffffffffffffffffffffff1673ffffffffffffffffffffffffffffffffffffffff1681526020019081526020016000206000828254611d6e9190613609565b92505081905550816002600083815260200190815260200160002060006101000a81548173ffffffffffffffffffffffffffffffffffffffff021916908373ffffffffffffffffffffffffffffffffffffffff160217905550808273ffffffffffffffffffffffffffffffffffffffff168473ffffffffffffffffffffffffffffffffffffffff167fddf252ad1be2c89b69c2b068fc378daa952ba7f163c4a11628f55a4df523b3ef60405160405180910390a4505050565b600081600001549050919050565b6001816000016000828254019250508190555050565b611e658282604051806020016040528060008152506121ff565b5050565b611e72826119c0565b611eb1576040517f08c379a0000000000000000000000000000000000000000000000000000000008152600401611ea890613370565b60405180910390fd5b80600660008481526020019081526020016000209080519060200190611ed8929190612790565b505050565b600a543414611f21576040517f08c379a0000000000000000000000000000000000000000000000000000000008152600401611f1890613450565b60405180910390fd5b60008111611f64576040517f08c379a0000000000000000000000000000000000000000000000000000000008152600401611f5b906134b0565b60405180910390fd5b6040518060a001604052808381526020013073ffffffffffffffffffffffffffffffffffffffff1681526020013373ffffffffffffffffffffffffffffffffffffffff16815260200182815260200160011515815250600b60008481526020019081526020016000206000820151816000015560208201518160010160006101000a81548173ffffffffffffffffffffffffffffffffffffffff021916908373ffffffffffffffffffffffffffffffffffffffff16021790555060408201518160020160006101000a81548173ffffffffffffffffffffffffffffffffffffffff021916908373ffffffffffffffffffffffffffffffffffffffff1602179055506060820151816003015560808201518160040160006101000a81548160ff02191690831515021790555090505061209d333084611bcb565b817f9339409317fd01fabff48b703019016f49159bacc801ae872d2ca637d226e4c030338460016040516120d49493929190613160565b60405180910390a25050565b6120eb848484611bcb565b6120f78484848461225a565b612136576040517f08c379a000000000000000000000000000000000000000000000000000000000815260040161212d90613250565b60405180910390fd5b50505050565b606060405180602001604052806000815250905090565b606061215e826119c0565b61219d576040517f08c379a000000000000000000000000000000000000000000000000000000000815260040161219490613430565b60405180910390fd5b60006121a761213c565b905060008151116121c757604051806020016040528060008152506121f2565b806121d1846123f1565b6040516020016121e2929190613121565b6040516020818303038152906040525b915050919050565b505050565b6122098383612552565b612216600084848461225a565b612255576040517f08c379a000000000000000000000000000000000000000000000000000000000815260040161224c90613250565b60405180910390fd5b505050565b600061227b8473ffffffffffffffffffffffffffffffffffffffff16612720565b156123e4578373ffffffffffffffffffffffffffffffffffffffff1663150b7a026122a4611a2c565b8786866040518563ffffffff1660e01b81526004016122c694939291906131a5565b602060405180830381600087803b1580156122e057600080fd5b505af192505050801561231157506040513d601f19601f8201168201806040525081019061230e9190612b6c565b60015b612394573d8060008114612341576040519150601f19603f3d011682016040523d82523d6000602084013e612346565b606091505b5060008151141561238c576040517f08c379a000000000000000000000000000000000000000000000000000000000815260040161238390613250565b60405180910390fd5b805181602001fd5b63150b7a0260e01b7bffffffffffffffffffffffffffffffffffffffffffffffffffffffff1916817bffffffffffffffffffffffffffffffffffffffffffffffffffffffff1916149150506123e9565b600190505b949350505050565b60606000821415612439576040518060400160405280600181526020017f3000000000000000000000000000000000000000000000000000000000000000815250905061254d565b600082905060005b6000821461246b578080612454906137ef565b915050600a82612464919061365f565b9150612441565b60008167ffffffffffffffff81111561248757612486613925565b5b6040519080825280601f01601f1916602001820160405280156124b95781602001600182028036833780820191505090505b5090505b60008514612546576001826124d29190613690565b9150600a856124e19190613838565b60306124ed9190613609565b60f81b818381518110612503576125026138f6565b5b60200101907effffffffffffffffffffffffffffffffffffffffffffffffffffffffffffff1916908160001a905350600a8561253f919061365f565b94506124bd565b8093505050505b919050565b600073ffffffffffffffffffffffffffffffffffffffff168273ffffffffffffffffffffffffffffffffffffffff1614156125c2576040517f08c379a00000000000000000000000000000000000000000000000000000000081526004016125b9906133b0565b60405180910390fd5b6125cb816119c0565b1561260b576040517f08c379a000000000000000000000000000000000000000000000000000000000815260040161260290613270565b60405180910390fd5b612617600083836121fa565b6001600360008473ffffffffffffffffffffffffffffffffffffffff1673ffffffffffffffffffffffffffffffffffffffff16815260200190815260200160002060008282546126679190613609565b92505081905550816002600083815260200190815260200160002060006101000a81548173ffffffffffffffffffffffffffffffffffffffff021916908373ffffffffffffffffffffffffffffffffffffffff160217905550808273ffffffffffffffffffffffffffffffffffffffff16600073ffffffffffffffffffffffffffffffffffffffff167fddf252ad1be2c89b69c2b068fc378daa952ba7f163c4a11628f55a4df523b3ef60405160405180910390a45050565b600080823b905060008111915050919050565b6040518060a0016040528060008152602001600073ffffffffffffffffffffffffffffffffffffffff168152602001600073ffffffffffffffffffffffffffffffffffffffff168152602001600081526020016000151581525090565b82805461279c9061378c565b90600052602060002090601f0160209004810192826127be5760008555612805565b82601f106127d757805160ff1916838001178555612805565b82800160010185558215612805579182015b828111156128045782518255916020019190600101906127e9565b5b5090506128129190612816565b5090565b5b8082111561282f576000816000905550600101612817565b5090565b60006128466128418461352b565b613506565b90508281526020810184848401111561286257612861613959565b5b61286d84828561374a565b509392505050565b60006128886128838461355c565b613506565b9050828152602081018484840111156128a4576128a3613959565b5b6128af84828561374a565b509392505050565b6000813590506128c681613f33565b92915050565b6000813590506128db81613f4a565b92915050565b6000813590506128f081613f61565b92915050565b60008151905061290581613f61565b92915050565b600082601f8301126129205761291f613954565b5b8135612930848260208601612833565b91505092915050565b600082601f83011261294e5761294d613954565b5b813561295e848260208601612875565b91505092915050565b60008135905061297681613f78565b92915050565b60006020828403121561299257612991613963565b5b60006129a0848285016128b7565b91505092915050565b600080604083850312156129c0576129bf613963565b5b60006129ce858286016128b7565b92505060206129df858286016128b7565b9150509250929050565b600080600060608486031215612a0257612a01613963565b5b6000612a10868287016128b7565b9350506020612a21868287016128b7565b9250506040612a3286828701612967565b9150509250925092565b60008060008060808587031215612a5657612a55613963565b5b6000612a64878288016128b7565b9450506020612a75878288016128b7565b9350506040612a8687828801612967565b925050606085013567ffffffffffffffff811115612aa757612aa661395e565b5b612ab38782880161290b565b91505092959194509250565b60008060408385031215612ad657612ad5613963565b5b6000612ae4858286016128b7565b9250506020612af5858286016128cc565b9150509250929050565b60008060408385031215612b1657612b15613963565b5b6000612b24858286016128b7565b9250506020612b3585828601612967565b9150509250929050565b600060208284031215612b5557612b54613963565b5b6000612b63848285016128e1565b91505092915050565b600060208284031215612b8257612b81613963565b5b6000612b90848285016128f6565b91505092915050565b60008060408385031215612bb057612baf613963565b5b600083013567ffffffffffffffff811115612bce57612bcd61395e565b5b612bda85828601612939565b9250506020612beb85828601612967565b9150509250929050565b600060208284031215612c0b57612c0a613963565b5b6000612c1984828501612967565b91505092915050565b6000612c2e8383613033565b60a08301905092915050565b612c43816136d6565b82525050565b612c52816136c4565b82525050565b6000612c638261359d565b612c6d81856135cb565b9350612c788361358d565b8060005b83811015612ca9578151612c908882612c22565b9750612c9b836135be565b925050600181019050612c7c565b5085935050505092915050565b612cbf816136e8565b82525050565b612cce816136e8565b82525050565b6000612cdf826135a8565b612ce981856135dc565b9350612cf9818560208601613759565b612d0281613968565b840191505092915050565b6000612d18826135b3565b612d2281856135ed565b9350612d32818560208601613759565b612d3b81613968565b840191505092915050565b6000612d51826135b3565b612d5b81856135fe565b9350612d6b818560208601613759565b80840191505092915050565b6000612d846032836135ed565b9150612d8f82613979565b604082019050919050565b6000612da7601c836135ed565b9150612db2826139c8565b602082019050919050565b6000612dca6024836135ed565b9150612dd5826139f1565b604082019050919050565b6000612ded6019836135ed565b9150612df882613a40565b602082019050919050565b6000612e10602c836135ed565b9150612e1b82613a69565b604082019050919050565b6000612e336023836135ed565b9150612e3e82613ab8565b604082019050919050565b6000612e566038836135ed565b9150612e6182613b07565b604082019050919050565b6000612e79602a836135ed565b9150612e8482613b56565b604082019050919050565b6000612e9c6029836135ed565b9150612ea782613ba5565b604082019050919050565b6000612ebf602e836135ed565b9150612eca82613bf4565b604082019050919050565b6000612ee26040836135ed565b9150612eed82613c43565b604082019050919050565b6000612f056020836135ed565b9150612f1082613c92565b602082019050919050565b6000612f286031836135ed565b9150612f3382613cbb565b604082019050919050565b6000612f4b602c836135ed565b9150612f5682613d0a565b604082019050919050565b6000612f6e6029836135ed565b9150612f7982613d59565b604082019050919050565b6000612f91602f836135ed565b9150612f9c82613da8565b604082019050919050565b6000612fb46023836135ed565b9150612fbf82613df7565b604082019050919050565b6000612fd76021836135ed565b9150612fe282613e46565b604082019050919050565b6000612ffa6031836135ed565b915061300582613e95565b604082019050919050565b600061301d6022836135ed565b915061302882613ee4565b604082019050919050565b60a0820160008201516130496000850182613103565b50602082015161305c6020850182612c3a565b50604082015161306f6040850182612c3a565b5060608201516130826060850182613103565b5060808201516130956080850182612cb6565b50505050565b60a0820160008201516130b16000850182613103565b5060208201516130c46020850182612c3a565b5060408201516130d76040850182612c3a565b5060608201516130ea6060850182613103565b5060808201516130fd6080850182612cb6565b50505050565b61310c81613740565b82525050565b61311b81613740565b82525050565b600061312d8285612d46565b91506131398284612d46565b91508190509392505050565b600060208201905061315a6000830184612c49565b92915050565b60006080820190506131756000830187612c49565b6131826020830186612c49565b61318f6040830185613112565b61319c6060830184612cc5565b95945050505050565b60006080820190506131ba6000830187612c49565b6131c76020830186612c49565b6131d46040830185613112565b81810360608301526131e68184612cd4565b905095945050505050565b6000602082019050818103600083015261320b8184612c58565b905092915050565b60006020820190506132286000830184612cc5565b92915050565b600060208201905081810360008301526132488184612d0d565b905092915050565b6000602082019050818103600083015261326981612d77565b9050919050565b6000602082019050818103600083015261328981612d9a565b9050919050565b600060208201905081810360008301526132a981612dbd565b9050919050565b600060208201905081810360008301526132c981612de0565b9050919050565b600060208201905081810360008301526132e981612e03565b9050919050565b6000602082019050818103600083015261330981612e26565b9050919050565b6000602082019050818103600083015261332981612e49565b9050919050565b6000602082019050818103600083015261334981612e6c565b9050919050565b6000602082019050818103600083015261336981612e8f565b9050919050565b6000602082019050818103600083015261338981612eb2565b9050919050565b600060208201905081810360008301526133a981612ed5565b9050919050565b600060208201905081810360008301526133c981612ef8565b9050919050565b600060208201905081810360008301526133e981612f1b565b9050919050565b6000602082019050818103600083015261340981612f3e565b9050919050565b6000602082019050818103600083015261342981612f61565b9050919050565b6000602082019050818103600083015261344981612f84565b9050919050565b6000602082019050818103600083015261346981612fa7565b9050919050565b6000602082019050818103600083015261348981612fca565b9050919050565b600060208201905081810360008301526134a981612fed565b9050919050565b600060208201905081810360008301526134c981613010565b9050919050565b600060a0820190506134e5600083018461309b565b92915050565b60006020820190506135006000830184613112565b92915050565b6000613510613521565b905061351c82826137be565b919050565b6000604051905090565b600067ffffffffffffffff82111561354657613545613925565b5b61354f82613968565b9050602081019050919050565b600067ffffffffffffffff82111561357757613576613925565b5b61358082613968565b9050602081019050919050565b6000819050602082019050919050565b600081519050919050565b600081519050919050565b600081519050919050565b6000602082019050919050565b600082825260208201905092915050565b600082825260208201905092915050565b600082825260208201905092915050565b600081905092915050565b600061361482613740565b915061361f83613740565b9250827fffffffffffffffffffffffffffffffffffffffffffffffffffffffffffffffff0382111561365457613653613869565b5b828201905092915050565b600061366a82613740565b915061367583613740565b92508261368557613684613898565b5b828204905092915050565b600061369b82613740565b91506136a683613740565b9250828210156136b9576136b8613869565b5b828203905092915050565b60006136cf82613720565b9050919050565b60006136e182613720565b9050919050565b60008115159050919050565b60007fffffffff0000000000000000000000000000000000000000000000000000000082169050919050565b600073ffffffffffffffffffffffffffffffffffffffff82169050919050565b6000819050919050565b82818337600083830152505050565b60005b8381101561377757808201518184015260208101905061375c565b83811115613786576000848401525b50505050565b600060028204905060018216806137a457607f821691505b602082108114156137b8576137b76138c7565b5b50919050565b6137c782613968565b810181811067ffffffffffffffff821117156137e6576137e5613925565b5b80604052505050565b60006137fa82613740565b91507fffffffffffffffffffffffffffffffffffffffffffffffffffffffffffffffff82141561382d5761382c613869565b5b600182019050919050565b600061384382613740565b915061384e83613740565b92508261385e5761385d613898565b5b828206905092915050565b7f4e487b7100000000000000000000000000000000000000000000000000000000600052601160045260246000fd5b7f4e487b7100000000000000000000000000000000000000000000000000000000600052601260045260246000fd5b7f4e487b7100000000000000000000000000000000000000000000000000000000600052602260045260246000fd5b7f4e487b7100000000000000000000000000000000000000000000000000000000600052603260045260246000fd5b7f4e487b7100000000000000000000000000000000000000000000000000000000600052604160045260246000fd5b600080fd5b600080fd5b600080fd5b600080fd5b6000601f19601f8301169050919050565b7f4552433732313a207472616e7366657220746f206e6f6e20455243373231526560008201527f63656976657220696d706c656d656e7465720000000000000000000000000000602082015250565b7f4552433732313a20746f6b656e20616c7265616479206d696e74656400000000600082015250565b7f4552433732313a207472616e7366657220746f20746865207a65726f2061646460008201527f7265737300000000000000000000000000000000000000000000000000000000602082015250565b7f4552433732313a20617070726f766520746f2063616c6c657200000000000000600082015250565b7f4552433732313a206f70657261746f7220717565727920666f72206e6f6e657860008201527f697374656e7420746f6b656e0000000000000000000000000000000000000000602082015250565b7f4f6e6c79206f776e65722063616e20757064617465206c697374696e6720707260008201527f6963650000000000000000000000000000000000000000000000000000000000602082015250565b7f4552433732313a20617070726f76652063616c6c6572206973206e6f74206f7760008201527f6e6572206e6f7220617070726f76656420666f7220616c6c0000000000000000602082015250565b7f4552433732313a2062616c616e636520717565727920666f7220746865207a6560008201527f726f206164647265737300000000000000000000000000000000000000000000602082015250565b7f4552433732313a206f776e657220717565727920666f72206e6f6e657869737460008201527f656e7420746f6b656e0000000000000000000000000000000000000000000000602082015250565b7f45524337323155524953746f726167653a2055524920736574206f66206e6f6e60008201527f6578697374656e7420746f6b656e000000000000000000000000000000000000602082015250565b7f506c65617365207375626d6974207468652061736b696e67207072696365206960008201527f6e206f7264657220746f20636f6d706c65746520746865207075726368617365602082015250565b7f4552433732313a206d696e7420746f20746865207a65726f2061646472657373600082015250565b7f45524337323155524953746f726167653a2055524920717565727920666f722060008201527f6e6f6e6578697374656e7420746f6b656e000000000000000000000000000000602082015250565b7f4552433732313a20617070726f76656420717565727920666f72206e6f6e657860008201527f697374656e7420746f6b656e0000000000000000000000000000000000000000602082015250565b7f4552433732313a207472616e73666572206f6620746f6b656e2074686174206960008201527f73206e6f74206f776e0000000000000000000000000000000000000000000000602082015250565b7f4552433732314d657461646174613a2055524920717565727920666f72206e6f60008201527f6e6578697374656e7420746f6b656e0000000000000000000000000000000000602082015250565b7f486f706566756c6c792073656e64696e672074686520636f727265637420707260008201527f6963650000000000000000000000000000000000000000000000000000000000602082015250565b7f4552433732313a20617070726f76616c20746f2063757272656e74206f776e6560008201527f7200000000000000000000000000000000000000000000000000000000000000602082015250565b7f4552433732313a207472616e736665722063616c6c6572206973206e6f74206f60008201527f776e6572206e6f7220617070726f766564000000000000000000000000000000602082015250565b7f4d616b652073757265207468652070726963652069736e2774206e656761746960008201527f7665000000000000000000000000000000000000000000000000000000000000602082015250565b613f3c816136c4565b8114613f4757600080fd5b50565b613f53816136e8565b8114613f5e57600080fd5b50565b613f6a816136f4565b8114613f7557600080fd5b50565b613f8181613740565b8114613f8c57600080fd5b5056fea264697066735822122049535e6f174483b2b169405f5a36fcc8a75d90fc5879d3a0c5aabcf11722c87d64736f6c63430008070033",
  "linkReferences": {},
  "deployedLinkReferences": {}
}